S01900006F70656E626C745F73746D3332673062312E73726563D5
S3150800000000400220350500082105000823050008E0
S3150800001000000000000000000000000000000000D2
S315080000200000000000000000000000002505000890
S315080000300000000000000000270500082905000848
S31508000040850500088505000885050008850500085A
S31508000050850500088505000885050008850500084A
S31508000060850500088505000885050008850500083A
S31508000070850500088505000885050008850500082A
S31508000080850500088505000885050008850500081A
S31508000090850500088505000885050008850500080A
S315080000A085050008850500088505000885050008FA
S311080000B085050008850500088505000880
S315080000C010B5064C2378002B07D1054B002B02D020
S315080000D0044800E000BF0123237010BD480000203B
S315080000E000000000681F0008044B10B5002B03D061
S315080000F00349044800E000BF10BDC04600000000E8
S315080001004C000020681F000802B4714649084900DF
S31508000110095649008E4402BC7047C04603B471466E
S31508000120490840004900095E49008E4403BC7047EF
S31508000130002243088B4274D303098B425FD3030A18
S315080001408B4244D3030B8B4228D3030C8B420DD32B
S31508000150FF22090212BA030C8B4202D312120902B9
S3150800016065D0030B8B4219D300E0090AC30B8B42F7
S3150800017001D3CB03C01A5241830B8B4201D38B03A5
S31508000180C01A5241430B8B4201D34B03C01A52414A
S31508000190030B8B4201D30B03C01A5241C30A8B428D
S315080001A001D3CB02C01A5241830A8B4201D38B0278
S315080001B0C01A5241430A8B4201D34B02C01A52411C
S315080001C0030A8B4201D30B02C01A5241CDD2C3098E
S315080001D08B4201D3CB01C01A524183098B4201D30A
S315080001E08B01C01A524143098B4201D34B01C01AF5
S315080001F0524103098B4201D30B01C01A5241C3086D
S315080002008B4201D3CB00C01A524183088B4201D3DB
S315080002108B00C01A524143088B4201D34B00C01AC7
S315080002205241411A00D20146524110467047FFE733
S3150800023001B5002000F006F802BDC0460029F7D037
S3150800024076E770477047C04610B501F0BDFC10BD93
S3150800025010B501F0C7FC10BD10B500F033F8012049
S3150800026010BD10B5642000F005F810BD10B500F0FB
S3150800027007F810BD014B18807047C0466C00002077
S3150800028010B501F053FC0C4C236898420FD3A022FA
S315080002900A4B20211878D205002809D10130187098
S315080002A0916101F043FC064B1B881B18236010BDA7
S315080002B0002018709162F4E76800002064000020AE
S315080002C06C000020A0232022DB059A6270470000FC
S315080002D0054B82B05A6B02435A635B6B1840019018
S315080002E0019B02B07047C046001002400720022357
S315080002F0234A10B5116881430B4313601368034002
S31508000300022BFBD180221F4B520019680A431A6040
S315080003108022D20019681142FCD0D9681A4A1140C5
S315080003201A4A0A43DA608022196852040A431A6094
S315080003308022D96852050A43DA6080229204196835
S315080003401142FCD09A6812490A409A6007229968B5
S315080003509143053A0A4338219A609A680A40102A56
S31508000360FBD19A680B490C480A409A6000F072FF64
S31508000370002000F01DF9002801D072B6FEE710BD76
S3150800038000200240001002408C80FF1F020F006010
S31508000390FFF0FFFFFF8FFFFF0087930370B586B05E
S315080003A000F02EF9FFF7A2FF1022002102A801F0A3
S315080003B0AFFD0420FFF78CFF2020FFF789FF0120FF
S315080003C0FFF786FF0220FFF783FFA0232026DB0521
S315080003D09E628023002401259B0169460A480093F2
S315080003E00194049500F038FEA0206946C0050096E1
S315080003F0019502940394049400F02EFEFFF724FF5F
S31508000400FFF726FFFCE7C0460008005007B50121A4
S315080004100A4BC0201A6CC0000A431A641A6C0A40B8
S3150800042080210092009ADA6B49050A43DA63DB6B8E
S315080004300B400193019B00F003F907BD0010024031
S3150800044030B5040089B01422002103A801F060FD2C
S31508000450194B22689A422CD1184B19499A6D0224D5
S315080004600A4080219A65DA6B49010A43DA63DA6B36
S3150800047003250A400192019A5A6B124822435A638D
S315080004805B6B03A923400293029B80235B000393C3
S315080004900494079500F08EFC80239B0003930123A8
S315080004A005930023074803A904940693079500F0CB
S315080004B081FC09B030BDC04600640040001002400F
S315080004C0FFFCFFFF0004005010B500F02BFDA02232
S315080004D02023D20593620E4800F07EFDA020C005B9
S315080004E000F07AFD0B4B0C49DA6B0C480A400421E4
S315080004F0DA635A6B8A435A635A6B03398A435A63D7
S31508000500DA6B0240DA631A6C8A431A6410BDC04675
S315080005100008005000100240FFFFFDFFFFFFFFEF3D
S31508000520FEE7FEE77047704710B500F07DF810BD8E
S31508000530704700000D488546FFF7FAFF0C480D493D
S315080005400D4A002302E0D458C4500433C4188C4220
S31508000550F9D30A4A0A4C002301E013600432A24286
S31508000560FBD301F0DDFCFFF719FFFEE70040022090
S315080005700000002048000020D42100084800002080
S315080005802C050020FEE70000012210B50024074BC9
S315080005905242DA62DC621A631C639A629C625A628D
S315080005A05C62FFF791FF200010BDC04600100240B4
S315080005B070B5104B05001978002901D1012070BDCE
S315080005C0FA208000FFF7B4FD0B4C01002068FFF706
S315080005D0AFFD00F06BF8041EF0D1032DEED8020033
S315080005E001202900404200F037F8044B20001D6026
S315080005F0E5E7C046040000200000002008000020AF
S315080006008023084A5B00116810B50B43002013606D
S31508000610FFF7CEFF041E03D1FFF7F8FE200010BD3A
S315080006200124FBE700200240034A044B11681B78AB
S315080006305B1813607047C046700000200400002055
S31508000640034A044913680B40034313607047C046C6
S3150800065000000140FFF9FFFF10B5FF2403220B003D
S3150800066021000240D20091409B012340C943934098
S3150800067000280ADBC0240B4A800880008018A400E2
S3150800068002590A401343035110BD0F22104008387F
S31508000690054A800880008018C26911401943C16163
S315080006A0F2E7C04600E100E000ED00E08022431ECC
S315080006B05204012093420DD2C021074A07485360CD
S315080006C0036A09061B021B0A0B4303620020072361
S315080006D0906013607047C04610E000E000ED00E04F
S315080006E0F8B5041E00D1CCE005005C352B78DAB2EB
S315080006F0002B04D103005D331A70FFF7A1FE102109
S315080007002268082793698B43936101F017FA06005C
S3150800071023689A693A4200D0A7E001269A693243CB
S315080007209A6101F00BFA070023689A69324200D1F0
S31508000730A9E0022299690A439A61684A934202D15A
S315080007406168674A1160217C4022012900D0A3E034
S31508000750996991439961627C012A00D0A0E08022C0
S315080007609969D2010A439A61A27C012A00D09BE0CA
S315080007709A695C490A409A619A695B48A16802408D
S31508000780A4200A439A619A6982439A611A6994383D
S3150800079082431A61E268012A00D08AE09869033226
S315080007A002439A61A269E069013A013800025206D9
S315080007B00243206A01380243606901380004024393
S315080007C0DA61C022920091420ED1E26A216B013AA7
S315080007D00139090112020A43A16A01390A43616A09
S315080007E0013909040A43DA601900C0310A68E06B66
S315080007F03E4F02430A603E4AD4209A1851424A4163
S3150800080080003C49524204330240DE6F5218616B45
S315080008103E40090431432264D96711007031DE6F06
S315080008206164354FA16B3E4009063143D967130011
S31508000830B033A364D833E36498239B00D3182365A5
S315080008409E239B00D31863652C4BD318591E8B41E6
S315080008502B495B4203405B1800219A423BD3012394
S31508000860A165216600202B700CE001F067F9801B5A
S315080008700A2800D84CE70123226E13432366032374
S315080008802B700120F8BD01F059F9C01B0A2800D8C1
S315080008904AE7236E3343F1E799690A439A615AE7AF
S315080008A09A6918490A405EE78022996952010A4303
S315080008B061E7002A00D175E7022A09D080269F69D8
S315080008C03E439E611E6930431861032A00D069E7DA
S315080008D02022986964E702C2BFE7C0460064004068
S315080008E000650040FFEFFFFFFFFCFFFFFFFFE0FF93
S315080008F00098FFBF00B40040FFFFFFF0004CFFBFA9
S3150800090050B70040FFBFFFFF030070B55C331B788C
S31508000910013B012B1BD88D68CB680E694C694A6868
S315080009200968AD07002909D1DB062B43016C23436F
S315080009303604920033435350002070BD416CD200F8
S315080009405B07521833432C4313605460F4E70223C1
S31508000950026E134303660120EFE730B504005C34EA
S315080009602478012C0FD1039D5B0092002B4313437F
S315080009703F22006809010430C46F0B4394432343A4
S31508000980C367002030BD0423026E134303660120AB
S31508000990F8E702005C3211780300C8B2012908D1D1
S315080009A00131117019688A69824300208A611866C4
S315080009B070470422196E01200A431A66F8E70000F8
S315080009C00300F7B55C3300921B78022B56D10568F5
S315080009D02B00C4331C68A40206D58023026E9B0034
S315080009E013430366012034E01C684A68A4030B69B4
S315080009F08F680E68A40F002A2CD13B43B6048F6972
S31508000A001E43CB69426D3B434F6994463B430F6A8D
S31508000A10009A3F063B43CF683F043B43482767435A
S31508000A2067447B60174B3E60009308233E005B4299
S31508000A30DB1B08360193CB68009FFB5C9C46019B39
S31508000A40F3189C450BD80123A340CC352B6083654E
S31508000A500020FEBD334380263B43F605CFE7D37817
S31508000A601B069C46674693781B043B4317783B4313
S31508000A70577804323F023B4308C6DCE70823026E78
S31508000A80AEE7C046F01F0008806D7047F7B5040052
S31508000A9001935C342478022C00D07FE004680F268A
S31508000AA0250040295AD190352F68374206D1802330
S31508000AB0026E5B00134303660120FEBD2E68802785
S31508000AC0B44663467F043E403B4203D00434E66F97
S31508000AD0B605F60F48242D68AD05AD0FAD196C4364
S31508000AE0866CA41980262768F6053740576026685D
S31508000AF0F600002F49D1760D802716602668BF05B7
S31508000B003E408027966026687F03F60FF607166133
S31508000B106668244BB6B2D66166689C463603360FBD
S31508000B20D66066683E40802756616668BF033E40C9
S31508000B30966166687600760E166266680834F60F61
S31508000B40566200266346D768DF5DB7421FD803683A
S31508000B50402921D1943300201D60AEE798352F68CF
S31508000B603742A4D02B6880271E007F043E403B42B4
S31508000B7003D00434E66FF605F60F48242D68AD0554
S31508000B80AD0FAD196C43C66CABE7F608B4E7A75DC5
S31508000B90019B9F550136D5E79C33DCE70823026E97
S31508000BA088E7C046F01F00080368C8331B68194069
S31508000BB04B1E99410800704703680F20402903D14E
S31508000BC090331B68184070479833FAE70020054BA6
S31508000BD05A69824205DA044A9A60044A9A60586950
S31508000BE0C00F70470020024023016745AB89EFCD4F
S31508000BF0F8B5040000F0A2FFC0270600BF02144D96
S31508000C002B693B4216D12A69124B1100124819402A
S31508000C1028611A4217D18027FF022B69180038402D
S31508000C203B420FD0631CF8D000F088FF801BA0421F
S31508000C30F3D306E0631CE3D000F080FF801BA042DC
S31508000C40DDD30320F8BD054B01205960FAE7C046FD
S31508000C5000200240FAC30000FBC30800740000200D
S31508000C60F7B5174E0193337804000D000220009261
S31508000C70012B1ED00123FA203370002380007360F5
S31508000C80FFF7B6FF002812D10E4F012C12D17B694F
S31508000C9023437B61009B2B60BFF36F8F019B6B60C7
S31508000CA0FA208000FFF7A4FF7B69A3437B6100233A
S31508000CB03370FEBD2800009901F062F9F0E7C046DE
S31508000CC07400002000200240FA2010B58000FFF7CB
S31508000CD08FFF8022044B120659690A435A615869E4
S31508000CE0C043C00F10BDC04600200240084A5369E1
S31508000CF004280AD007480340802080010343C9001E
S31508000D001943054B0B435361704704480340F6E704
S31508000D100020024007E0FFFF0200010007C0FFFFB6
S31508000D20F7B5224F05003B7802240191012B1BD011
S31508000D300123FA203B70002380007B60FFF758FFF1
S31508000D40041E0FD12B68042B10D119496B684A6908
S31508000D50FA201A4380235B0213434B618000FFF796
S31508000D6047FF040000233B702000FEBD0123019AC3
S31508000D705B421360AE68AB68EA689B18B3420CD94D
S31508000D8068683100FFF7B2FFFA208000FFF730FFEE
S31508000D90002808D00400019B1E600221044A5369FA
S31508000DA08B435361DEE70136E5E7C0467400002051
S31508000DB0002002400023F0B585B00A681400DC4024
S31508000DC001D105B0F0BD012514009D402C400094CA
S31508000DD02A4200D195E04A685F0094460322644699
S31508000DE022400324BC40E4430194541E012C2ED80F
S31508000DF08668019C2640CC68BC40344384604468BD
S31508000E000126AC4325006446240934409C402C4303
S31508000E104460C568019C25408C68BC402C43C4606E
S31508000E20022A16D107250F261D40AD00AE40DC0864
S31508000E30A40004190294246A03962600039CA64378
S31508000E4034000E69AE402643029C266201E0032A5E
S31508000E50DFD1BA400468019D25402A43C0240260B8
S31508000E606246A40222424CD0274A03259C08A400C5
S31508000E70A4180F221D40ED00AA40A027266EFF05E4
S31508000E8096430022B84210D0204F0132B8420CD007
S31508000E901F4F0132B84208D01E4F0132B84204D063
S31508000EA01D4A8218571EBA410432AA406746324381
S31508000EB02266154C009A2668009DD2433543FF02E8
S31508000EC001D435001540674625606668009D3543A0
S31508000ED0BF0201D435001540674665600F4C009D7A
S31508000EE0E66F3543BF0301D4350015406746E5670D
S31508000EF00B4C009EE56F2E43FF0301D415402E00D0
S31508000F00E667013359E7C04600180240000400505E
S31508000F1000080050000C005000F0FFAF081802400F
S31508000F200418024070B500F009FE802380260500EB
S31508000F30244C5B002268F60013432360236833427F
S31508000F402BD08023DB01636000F0F8FD0023050049
S31508000F503826A360A368334226D180235B0023602A
S31508000F60236000F0EBFD80260500B60423681A000E
S31508000F70324033421FD180235B01E36001235B4289
S31508000F80A2612362104A114B1A60114B1868FFF7C9
S31508000F900FFB431E9841C0B205E000F0CFFD401B91
S31508000FA00228CBD9032070BD00F0C8FD094B401BB1
S31508000FB09842CFD9F6E700F0C1FD401B0228D5D9E3
S31508000FC0F0E7C046001002400024F40000000020AC
S31508000FD00800002088130000A0220300D2059042D2
S31508000FE009D10121164B5A6A00200A435A625A6AE5
S31508000FF08A435A627047134A904203D1104B022122
S315080010005A6AF1E7104A904203D10D4B04215A6AF5
S31508001010EAE70E4A904203D1094B08215A6AE3E7E8
S315080010200B4A904203D1064B10215A6ADCE7094A5B
S3150800103001209342DED1024B20215A6AD4E7C046EA
S31508001040001002400004005000080050000C005038
S315080010500010005000140050F7B5020000260C6876
S315080010602000F04000D1FEBD01202300B04003401F
S31508001070044233D048680324009018005843444378
S31508001080009DE443013D012D0BD88D6897684543C3
S3150800109027403D43CF6895605F4355689D433D4370
S315080010A055600D69D768454327403D43D560009D87
S315080010B0022D0DD14D690195FF2B11D805000F277B
S315080010C045436F43136ABB43019F6F433B43136218
S315080010D013682340009C6043034313600136BEE750
S315080010E00F271B0A5B435B435F43556ABD43019F5A
S315080010F05F433D435562EBE7024B18688001C00F1A
S315080011007047C04600100240024BD868C001C00FA5
S315080011107047C04600100240054B064A9B681B05EF
S315080011201B0F9B009B581F221340D8407047C04690
S3150800113000100240B01F0008054B064A9B685B0476
S315080011405B0F9B009B581F221340D8407047C04630
S3150800115000100240901F00083821154B10B59A68F8
S315080011600A40082A22D0102A1AD1D8680D3A104007
S315080011700338424250410F4A404210400E4A8018F6
S31508001180DA68D968DC68490653045B0E490F0131F1
S315080011905843FEF7CDFF610F0131FEF7C9FF10BDB9
S315080011A01B6805489B045B0FD840F8E70348F6E739
S315080011B00010024000EE85FF0024F40000127A00B9
S315080011C003230E4A70B5D068072518400338431E16
S315080011D098410B4B40421840C018D368D1685B044D
S315080011E00909D4685B0E294058430131FEF7A0FF70
S315080011F0610E29400131FEF79BFF70BD00100240C9
S3150800120000127A00114A10B5936D184080235B00CE
S31508001210984209D0DB18984211D0FFF79DFFFFF7D7
S315080012207BFFFFF789FF09E0FFF766FF012809D171
S31508001230FFF76AFF012805D1FFF7C2FF10BD136843
S315080012409B0301D40020F9E70148F7E700100240A4
S3150800125000127A00014B18607047C0460000002053
S3150800126072B6704762B67047F0B5434C434B8DB0C3
S3150800127020002360FFF7E4F8C0208000FFF7C2FFD4
S315080012803F4B0490984200D86BE0012303930399DF
S315080012900498FEF7D3FF050000295CD128003949D8
S315080012A0FEF7CCFF002956D128003649FEF740FF45
S315080012B0BF22C31E0600520093424CD840000A21A2
S315080012C00930FEF735FF87B2F31B9BB29A1E05005D
S315080012D0FF2A40D864205A1E92B23100584305921C
S315080012E0FEF726FF4138C0B20F2834D8012F00D0A8
S315080012F07F080223002625620125FF332382039BEC
S3150800130020006361059B6660E361A660E660A674DB
S31508001310A7616562A562E56225636663A563E66300
S31508001320FFF7DEF98023DB050693174B06A9200095
S315080013300A930B93079608950995FFF7E5FA022293
S315080013402B00110020000095FFF707FB2000FFF790
S3150800135020FB0DB0F0BD039B0C4A01330393934267
S3150800136095D19D2100250A48490000F0EFFB2F0082
S3150800137005950395BDE7C04690000020006400402F
S315080013805FE3160020A107000000101F01020000FD
S315080013900020000870B505000C008AB0082904D999
S315080013A0DA211948490000F0D1FB184B5222019363
S315080013B08023DB0502930023154E01A90A6230003B
S315080013C02A00CC608B608B610B61CB614B61FFF7A8
S315080013D0F7FA05003000FFF757FB0400002D11D17E
S315080013E000280FD000F0A2FB3230050021003000A3
S315080013F0FFF7DAFB002805D000F051FC00F096FB59
S31508001400A842F3D90AB070BD00200008E107000021
S3150800141090000020F0B5144F06000C008BB0402158
S315080014203800FFF7C9FB002802D100200BB0F0BD39
S3150800143033006A4640213800FFF728FB0028F4D11C
S315080014400A4B009A9A42F0D18023019ADB059A4208
S31508001450EBD1039BDBB22370082B03D9044805495B
S3150800146000F074FB0120E1E7900000200000101F47
S31508001470002000083302000010B5FFF7F1FE10BD8A
S3150800148010B500F0BFFA002815D0FEF7E5FE0028D3
S3150800149011D000F0D3FBFFF777F800F00BFB00F054
S315080014A0B5FA054B1840054B986000F0AFFA44684A
S315080014B0FFF7D8FEA04710BD80FFFF1F00ED00E034
S315080014C0F8B506000C000B005518321B9A18AB42EB
S315080014D000D1F8BD5F1C1B78137000F0E0FB3B00E1
S315080014E0F3E70000F8B50C4C07000026250000F0CD
S315080014F0D6FB2368BB4208D862689B18BB4204D94E
S315080015000C237343EB18187AF8BD01360C34192EE0
S31508001510EDD1FF20F8E7C04698200008F8B50A4D37
S31508001520060000242F0000F0BAFB2B7AB34203D141
S315080015300C236343F858F8BD01340C35192CF2D145
S3150800154001204042F7E7C04698200008802370B57E
S315080015501B050400984204D2E9211848890000F0C6
S31508001560F5FAF823164E1B06E4183368154D9B0248
S315080015702B409C4203D31148134900F0E7FA134B5A
S315080015801A68C02311009B0419401A4207D0802309
S315080015905B0499420CD10E4B1B689B0208D4336836
S315080015A09B022B4004209C4201D38020000270BD80
S315080015B03368084A5B021340F4E7C0464B2000082C
S315080015C0E075FF1F00FC0F00A50300000075FF1F54
S315080015D02020024000FE0700F7B506000068FFF766
S315080015E081FF0024FF2824D0FFF7F0FA25003300F6
S315080015F080CBEF195B195C681B680093019400F0B7
S315080016004EFB009A019B39000120FFF729FB041EB7
S3150800161011D13A687B680099914208D1019999429B
S3150800162005D1802308359B009D42E0D10134FFF7A0
S315080016304BFB2000FEBD0024F9E70000114B70B5F6
S3150800164004000D00984218D00F4A914217D0FFF7B0
S31508001650C3FF012802D00024200070BD002CFAD058
S31508001660EB05F8D123689D42F6D020008022290098
S3150800167020C09200FFF724FFEEE7044CF0E71C00B9
S31508001680F0E7C046F400002000300008F802002009
S31508001690F7B5019303684E0A04000D001700760299
S315080016A0013305D18022310040C09200FFF708FFC0
S315080016B02368B34205D020003100FFF7BFFF041EA0
S315080016C01ED03E0023680435ED1A651900F0E7FAC6
S315080016D08022231DEB1A9200934207D3216820002B
S315080016E08918FFF7ABFF041E0AD0051D33780136AB
S315080016F02B70019B0135FB189E42E7D10120FEBDE8
S315080017000020FCE70122034B52421A60024B1A6082
S315080017107047C046F8020020F4000020104B70B550
S3150800172016004A1E04000D001B1A9A4201D9002011
S3150800173070BDFFF7D7FEFF28F9D0601E4019FFF7E6
S31508001740D1FEFF28F3D0074A630A07485B02934293
S3150800175000D006482B0032002100FFF799FFE7E783
S31508001760FFFF070800300008F4000020F8020020F8
S31508001770F0B5614B4A1E04000D0089B01B1A9A4247
S3150800178003D90027380009B0F0BDFFF7ABFE013CCE
S3150800179006006019FFF7A6FE0500FF2EF1D0FF2808
S315080017A0EFD00024270003948642EBD8052EE9D90A
S315080017B01E28E7D83000FFF7B1FE07002800FFF71C
S315080017C0ADFE4E4E009000F06AFA337AAB421AD15B
S315080017D00C236343494AD3185C68022304AD049377
S315080017E0013BEB60FFF7F2F9009BDB1B1B19DB0AD9
S315080017F09BB2DB02DB190193019B9F4209D10127AA
S31508001800FFF762FABEE701340C36192CDBD1002447
S31508001810E3E780231B059F4203D23948394900F084
S3150800182095F9F823384C1B06FB1800932368374AAA
S315080018309B021340009A9A4204D3F121304889004A
S3150800184000F084F93800FFF781FE042812D1009BC6
S31508001850DB0A3800AB60FFF779FE686000F01FFA14
S31508001860280003A9FFF75CFA002842D180231B0150
S31508001870FF18C1E7264EC02332689B0411001940A1
S315080018801A4207D080235B0499422AD1214B1B6850
S315080018909B0226D423681D4A9B0213408022120508
S315080018A09B189F4204D2F5211548890000F04EF98D
S315080018B03268C02311009B0419401A4207D08023BE
S315080018C05B04994211D1134B1B689B020DD4236804
S315080018D00E4A9B021340009AD31ADB0A0133FF33E0
S315080018E0B7E723680C4A5B02D7E723680A4A5B0214
S315080018F0F0E7002784E7C046FFFF0708982000089E
S315080019004B200008C3030000E075FF1F00FC0F0012
S315080019100075FF1F2020024000FE070007B50D4A8C
S3150800192001201368013313D0916853680A485B187D
S31508001930D1685B1811695B1851695B189169D2699E
S315080019405B189B185B42042101AA0193FFF7E6FE88
S315080019500EBDC046F4000020BC3000080D4B1868C8
S315080019600D4B1B68C0180D4B1B68C0180C4B1B6829
S31508001970C0180C4B1B68C0180B4B1B68C0180B4BC8
S315080019801B68C0180A4B1B68C01843425841C0B2AE
S315080019907047C046003000080430000808300008C8
S315080019A00C30000810300008143000081830000801
S315080019B0BC300008094810B50368013305D108484A
S315080019C00368013306D1012010BDFFF705FE002884
S315080019D0FAD0F4E7FFF700FEF6E7C046F400002069
S315080019E0F8020020004870470030000810B5FFF7DD
S315080019F089FE10BD10B5FFF791FE10BD10B5FFF7B3
S31508001A00B7FE10BD10B5FFF7A9FF10BD10B5FFF75B
S31508001A10E9FF10BD10B5FFF781FF002801D0FFF7D9
S31508001A20C9FF10BD1A4B37B55A6D1A491A480A40EC
S31508001A3080215A651A6C09010A431A641A6C012432
S31508001A400A400192019A9A6814495204520F920068
S31508001A5012581F20024008689B68D040E022D20135
S31508001A6013405A1E93410E4D0E4A1B192C605843BB
S31508001A70EA620D49FEF75CFB00220138A8626B6931
S31508001A801C430A4B6C611A606A6A094B1A8037BD97
S31508001A9000100240FFFFBFFF901F00080000002053
S31508001AA0002C0140FFFF0000A08601000005002071
S31508001AB0FC04002080220B4B1201196B0A431A639F
S31508001AC01A6B09490A401A631A6C0A401A640022FA
S31508001AD0064B1A605A609A608022054B92045A6037
S31508001AE07047C04600100240FFF7FFFF10E000E015
S31508001AF000ED00E070B50A4B0A4D586A2C88001BA9
S31508001B0080B263280BD96421FEF712FB064A80B21D
S31508001B1013681B18136064234343E4182C8070BDB4
S31508001B20002C0140FC0400200005002010B5FFF73A
S31508001B30E1FF014B186810BD0005002010B5FFF73E
S31508001B40D9FF014B186810BD0005002010B500F03C
S31508001B50A6F8FCE710B500F097F8012812D00A4C51
S31508001B602378012B0ED1FFF7E1FF084B084A1B68C3
S31508001B7012689B18F533FF33984203D3002323706A
S31508001B80FFF77EFC10BDC0460C05002004050020AA
S31508001B900805002010B5044B1B78012B03D1FFF76D
S31508001BA0C5FF024B186010BD0C0500200805002073
S31508001BB0012210B5034B1A70FFF7ECFFFFF7CAFFB7
S31508001BC010BDC0460C05002010B5FFF755FC00F007
S31508001BD062F8FFF727FFFFF709FF00F00DF8FFF798
S31508001BE0E7FF10BD10B500F05AF8FFF783FF00F0C5
S31508001BF00FF8FFF7AFFF10BD10B500F06BF8FFF751
S31508001C0033FB0222014B1A7010BDC0460C0000209F
S31508001C1037B56B46074CDD1D29002000FFF7FAFB98
S31508001C20012806D10222044B200029781A7000F0F8
S31508001C3067F837BD0D0500200C000020704700002E
S31508001C4010B5054B1B78022B02D1C9B2FFF7A2FBD0
S31508001C5000F050F810BDC0460C000020074B3F208E
S31508001C601B78032B04D004D84230022B00D17938D4
S31508001C7070470820042BFBD17930F9E70C000020C7
S31508001C8010B5FFF7EBFF10BD10B500F02BF8431E9B
S31508001C909841C0B210BD10B5FEF7E3FA10BD10B5F5
S31508001CA0FEF7E4FA10BD0000FE22034B1A70FC3A58
S31508001CB058709A817047C046180500204278037804
S31508001CC012021A438378C0781B041343000618438C
S31508001CD0704700000022024B1A619A609A81704789
S31508001CE018050020024B187A431E9841C0B2704767
S31508001CF0180500200022014BDA72704718050020EB
S31508001D00F8B5050000787E4CFF2827D101232381EA
S31508001D107C4B23800023A370FFF7A0FFE070FFF73A
S31508001D20AFFF2071FFF7ACFF0223FF33000AE38001
S31508001D30F93B6071A381FFF759FEE37A012B02D1C3
S31508001D401020FFF7B1FF0C23E15E002905DD012312
S31508001D50200089B2E372FFF773FFF8BD237A012BDF
S31508001D60FBD1D22812D8C82801D8202024E0C938A7
S31508001D700928FAD8FEF7D2F97800F9FFF9FF8200A8
S31508001D80F9FFF9FFC0008C00B500AA0003000D3367
S31508001D90DBB20B2BE9D8F3380B28E6D8FEF7B4F9F3
S31508001DA0321D062AE5E5E54CE553555EFFF756FF75
S31508001DB06A78904203D82220FFF776FFBDE752489B
S31508001DC02169FFF77DFBFF236A78237023699B1837
S31508001DD023616B780133A381AFE7FFF73FFF6B7889
S31508001DE08342E8D2281DFFF769FF206101006A785F
S31508001DF04548E6E7FF23281D2370FFF75FFF012309
S31508001E002061E8E7FF23281D2370FFF757FF002608
S31508001E1025694719BD4208D1002301226371E38071
S31508001E206380267162700833D5E72B780135F6187A
S31508001E30F6B2FFF734FFEDE7344B2361FF23236047
S31508001E40F83B6360C6E70020B6E7FF232380637A82
S31508001E50A3700023E370A3800633BCE70023238125
S31508001E60FF232370FE3BB6E72669FFF7F7FE6A1CD9
S31508001E70411E3000FFF7BEFD002801D131209BE747
S31508001E80FF232370FFF7EAFE236901381818B6E71F
S31508001E90FFF7E4FE6B78013898428CDDFF23237048
S31508001EA0FE3BA3816978002905D1FFF7B3FD002819
S31508001EB000D042E7E2E72069AA1CFFF79BFD00284D
S31508001EC0DCD06A7823699B18236136E7FF2300254F
S31508001ED02380A570FFF7C2FE0723E070A580A571D1
S31508001EE079E7281DFFF7EAFE266901003000FFF7AB
S31508001EF085FD0028B4D1C1E7FFF7C2FAB0E7C046AE
S31508001F0018050020FF10000019050020C42100084C
S31508001F1003008218934200D1704719700133F9E71C
S31508001F2070B500260C4C0D4D641BA410A64209D1B1
S31508001F30002600F019F80A4C0A4D641BA410A642A4
S31508001F4005D170BDB300EB5898470136EEE7B300EC
S31508001F50EB5898470136F2E7CC210008CC21000857
S31508001F60D0210008CC210008F8B5C046F8BC08BC4A
S31508001F709E467047F8B5C046F8BC08BC9E467047F2
S31508001F8001B40248844601BC604700BF1100002026
S31508001F900000000000000000000000000000000033
S31508001FA00100000002000000030000000400000019
S31508001FB00000000000000000000000000000000013
S31508001FC00000000000000000000000000000000003
S31508001FD001000000020000000300000004000000E9
S31508001FE006000000070000000800000009000000C5
S31508001FF00001020304050607080C101418203040D7
S31508002000433A2F55736572732F6A6F7264612F4452
S315080020106F63756D656E74732F4769744875622FA3
S315080020206F70656E626C742F5461726765742F5396
S315080020306F757263652F41524D434D305F53544D52
S31508002040333247302F63616E2E6300433A2F557340
S315080020506572732F6A6F7264612F446F63756D655D
S315080020606E74732F4769744875622F6F70656E6258
S315080020706C742F5461726765742F536F757263653C
S315080020802F41524D434D305F53544D333247302F15
S31508002090666C6173682E6300003000080008000053
S315080020A006000000003800080008000007000000CD
S315080020B0004000080008000008000000004800086A
S315080020C00008000009000000005000080008000091
S315080020D00A00000000580008000800000B00000075
S315080020E000600008000800000C00000000680008F6
S315080020F0000800000D00000000700008000800003D
S315080021000E00000000780008000800000F0000001C
S315080021100080000800800000100000000000010890
S315080021200080000011000000008001080080000007
S3150800213012000000000002080080000013000000E2
S315080021400080020800800000140000000000030858
S3150800215000800000150000000080030800800000D1
S3150800216016000000000004080080000017000000A8
S315080021700080040800800000180000000000050820
S31508002180008000001900000000800508008000009B
S315080021901A00000000000608008000001B0000006E
S315080021A000800608008000001C00000000000708E8
S315080021B0008000001D000000008007080080000065
S311080021C01E0000004F70656E424C540073
S309080021CCE900000810
S309080021D0C100000834
S315080021D40024F400010000000400000005000000CB
S315080021E480220C4B30B55C69D20222435A61EFF364
S315080021F4108272B64C1CFF34401A0D6845500431DF
S31508002204A142FAD1C021890218690842FCD182F395
S30D08002214108830BD00200240CD
S70508000535B8
