S0120000506F77657253746167652E7372656311
S3150800300000400220C18C0008B1800008B980000881
S3150800301000000000000000000000000000000000A2
S31508003020000000000000000000000000C180000849
S315080030300000000000000000CB800008D5800008D2
S31508003040118D0008118D0008118D0008118D0008DA
S31508003050118D0008118D0008118D0008118D0008CA
S31508003060118D0008118D0008118D0008118D0008BA
S31508003070118D0008118D0008118D0008118D0008AA
S31508003080118D0008118D0008118D0008118D00089A
S31508003090118D0008E5800008118D0008118D0008C3
S315080030A0118D0008118D0008118D0008118D00087A
S311080030B0118D0008118D0008118D000814
S315080030BC10B5064C2378002B07D1054B002B02D0F4
S315080030CC044800E000BF0123237010BD080100204E
S315080030DC0000000018F40008044B10B5002B03D0B0
S315080030EC0349044800E000BF10BDC04600000000BC
S315080030FC0C01002018F4000803B471464908400076
S3150800310C4900095E49008E4403BC704700224308F7
S3150800311C8B4274D303098B425FD3030A8B4244D385
S3150800312C030B8B4228D3030C8B420DD3FF220902C7
S3150800313C12BA030C8B4202D31212090265D0030B86
S3150800314C8B4219D300E0090AC30B8B4201D3CB037C
S3150800315CC01A5241830B8B4201D38B03C01A5241BE
S3150800316C430B8B4201D34B03C01A5241030B8B42C0
S3150800317C01D30B03C01A5241C30A8B4201D3CB02AB
S3150800318CC01A5241830A8B4201D38B02C01A524190
S3150800319C430A8B4201D34B02C01A5241030A8B4293
S315080031AC01D30B02C01A5241CDD2C3098B4201D3AB
S315080031BCCB01C01A524183098B4201D38B01C01A29
S315080031CC524143098B4201D34B01C01A52410309A0
S315080031DC8B4201D30B01C01A5241C3088B4201D34F
S315080031ECCB00C01A524183088B4201D38B00C01AFC
S315080031FC524143088B4201D34B00C01A5241411A23
S3150800320C00D20146524110467047FFE701B500202F
S3150800321C00F006F802BDC0460029F7D076E77047DD
S3150800322C7047C046844608006146FFE71FB500F0A4
S3150800323CDFFB002801D40021C8421FBD10B500F0E1
S3150800324C67FB4042013010BD10B500F0D1FB0028D9
S3150800325C01DB002010BD012010BDC04610B500F0E2
S3150800326CC7FB002801DD002010BD012010BDC0469B
S3150800327C10B500F075FB002801DC002010BD0120FC
S3150800328C10BDC04610B500F06BFB002801DA002013
S3150800329C10BD012010BDC0469E2110B5C905041CE1
S315080032ACFFF7F0FF002803D1201C00F093FF10BD98
S315080032BC9E21201CC90500F035FD00F08BFF8023EC
S315080032CC1B069C466044F2E74A02F8B5530ACE46FA
S315080032DC99464B00C90F4746884646004502360EA6
S315080032EC1B0E80B5C40F6F0A9209AD09F11A444535
S315080032FC4BD0002938DD002B00D174E0FF2E00D10D
S3150800330CBEE08023DB041A431B2900DCFDE0013DEB
S3150800331C6B0100D4AFE001256D42AD01AF09380051
S3150800332C01F00EF83B0005388340864200DCD3E0FA
S3150800333CB94D311A1D405A0700D19EE00F22134091
S3150800334C042B00D199E004356B0100D495E0481C98
S3150800335CFE2951D1FF200023C0051843E40720435A
S3150800336CC0BCB946B046F8BD002949D0991B002EF9
S3150800337C72D1002D00D133E14C1E012900D159E13F
S3150800338CFF2900D14CE121006CE0002900DC81E02A
S3150800339C002B55D1002A70D04B1E012900D12BE1E8
S315080033ACFF296DD01B2B50DC190020235B1A10004B
S315080033BC9A40C840531E9A410243AD188023DB0439
S315080033CC1D4200D1ADE0711CFE2EC3D001206A0847
S315080033DC2840924D154005436A0700D08BE01D42E4
S315080033ECB5D1EF0834E0002A47D04B1E012966D028
S315080033FCFF2945D0190087E7C0B2AB015B0AABE7DA
S3150800340CFE239C46701C03006046184200D092E0CE
S3150800341C002E00D0E7E0002D00D119E1002A17D0C4
S3150800342C8023AF1ADB041F4200D142E14446551BE8
S3150800343C00D187E001201D42DFD10021EF0807E00B
S3150800344CFF2E1DD01B2900DC94E031000535EF0852
S3150800345C7B025B0AC8B27FE7FF2B00D1E0E0802035
S3150800346CC00405431B2900DC88E0551E44461E0093
S3150800347C690100D54FE731000435EF08FF29E7D17C
S3150800348C002F00D166E78023DB033B435B02FF205A
S3150800349C5B0A61E7002958D0991B002E00D089E0F9
S315080034AC002D00D19DE04E1E012900D1A4E0FF2974
S315080034BC00D1B6E01B2E00DDB8E0310081E0AA1A77
S315080034CC530100D4AFE09701BF09380000F038FF6C
S315080034DC3B000538834001261D00811B2020013145
S315080034ECCD40411A8B40591E8B411D432AD00021D1
S315080034FC6B0700D1F0E00F232B40042B00D022E7FA
S3150800350C6B0100D523E7EF08A2E720235B1A10000E
S3150800351C9A40C840531E9A410243AD1A6B0100D516
S3150800352CFBE66B0700D1D5E00F2331002B40042BAB
S3150800353C00D008E7A1E7AF1A7B014ED4002F00D0C4
S3150800354CEDE600240020002306E7FE23711C0B423F
S3150800355C21D1002E00D081E0002D00D19FE0002A59
S3150800356C00D1B2E0AB185A0100D4B0E09B0101209F
S3150800357C5B0AF1E68023DB041A4316E720242800AD
S3150800358CC840611A8D4029004C1EA141014344468E
S3150800359C1E00551AC2E7FF2900D1DBE6AF187F08D3
S315080035AC7B0705D00F233D1D3B40042B00D064E759
S315080035BCFF084DE7FF2B34D01B2937DC8020C004CD
S315080035CC054328002026C840711A8D4029004D1E37
S315080035DCA94101431E008D18F0E64446571B9EE68A
S315080035EC4446150049E7002D46D1002A66D18023AA
S315080035FC0024FF20DB03AFE6AA18530113D5074FA7
S3150800360C52081740530744D00F231340042B40D0BD
S3150800361C02213D1D31E7C046FFFFFFFBFFFFFF7D83
S3150800362C44464F462CE70121D70811E70532190005
S3150800363CD7080DE7571B7B0137D5BF01BF093800E3
S3150800364C00F07EFE3B00053883404446013643E7CE
S3150800365C002A00D175E744464F46F9E6002DE0D01E
S3150800366C8023DB03002A17D09F4200D20BE799452B
S3150800367C00D308E74F4606E78023DB03002A0BD066
S3150800368C9F4200D2FFE6994500D3FCE644464F46D6
S3150800369CF9E60221FF08DBE6FF203B435CE6002A3D
S315080036AC00D14FE70021D708D2E644460121FF088E
S315080036BCCEE6002F00D07BE7002443E780234A465A
S315080036CCDB034446FF20134346E60021C0E60021EF
S315080036DCDF08BDE63100D0E601206A0100D58BE68D
S315080036EC2A00DFE7F0B546464F46D6464502C0B532
S315080036FCC30F470098460E1C6D0A3F0E5BD0FF2F72
S3150800370C21D08023ED00DB041D43002399469A46FD
S3150800371C7F3F74027300640A1B0EF60F002B20D031
S3150800372CFF2B43D080220020E400D20414437F3BB5
S3150800373C4246FF1A4B4672400F2B00D99DE0714941
S3150800374C9B00CB589F46002D5AD108239946063B19
S3150800375C74029A467300FF27640A1B0EF60F002B99
S3150800376CDED1002C3BD1012342464946724019430F
S3150800377C0E2918D86448890041588F465346022B9F
S3150800378C00D1B8E0032B6ED042462C00012B40D159
S3150800379C00200024C0052043D2071043E0BCBA46DB
S315080037ACB146A846F0BDFF200024F3E7002C20D133
S315080037BC0223FF3FD8E7002D05D104239946033B86
S315080037CC00279A46A5E7280000F0BAFD7627431F7E
S315080037DC9D4000237F4299469A463F1A99E7200056
S315080037EC00F0AEFD431F9C4076235B421B1A00205B
S315080037FC9EE703234A461A4391460320FC3397E770
S3150800380C0C239946093BFF279A4682E703282CD0B6
S3150800381C320038007F30002847DD630704D00F23B9
S3150800382C2340042B00D00434230103D53800374B2E
S3150800383C80301C40FE28B6DCA401640AC0B2A9E795
S3150800384C80240022FF20E403A4E78023DB031D4227
S3150800385C01D01C420BD08024E4032C43640242465C
S3150800386CFF20640A96E746462C008023DB031C439C
S3150800387C64023200FF20640A8CE76D016001854200
S3150800388C2DD21B230024013F0126290064006D005C
S3150800389C002901DB854201D32D1A3443013B002B49
S315080038ACF3D16B1E9D412C43B3E701231B1A1B2B2B
S315080038BC00DD6DE721009E37D940BC400B00611E28
S315080038CC8C412343590704D00F211940042900D0F1
S315080038DC0433590113D49B0100205C0A5AE71A23B6
S315080038EC01242D1AD0E7981E434258414042320013
S315080038FC0024C0B24EE74246FF2000244AE70120C6
S3150800390C002447E798F50008D8F50008FFFFFFF7ED
S3150800391C70B542004E024C0045026D0A120EC30FDA
S3150800392C760A240EC90FFF2A10D0FF2C0CD00120C2
S3150800393CA2420AD1B54208D18B420FD0002A04D133
S3150800394C2800431E984100E0012070BD0120FF2C81
S3150800395CFBD13543F9D14B401800F6E70020F4E7C4
S3150800396C30B5420044024D02C30F4800640A120ED9
S3150800397C6D0A000EC90FFF2A18D0FF280AD0002A94
S3150800398C1ED100280AD1002D29D0002C2DD1480093
S3150800399C013830BD002D25D1002A01D1002CF6D0D6
S315080039AC8B4219D001205B421843F2E7002C19D13F
S315080039BCFF28F7D1002D15D100208B42F2D1E8E76C
S315080039CC0028EFD08B42EDD18242EBDC04DBAC4213
S315080039DCE8D80020AC42DCD258000138D9E7002CD4
S315080039ECD7D0DFE702204042D3E78B42DAD1EEE7A5
S315080039FC30B5420044024D02C30F4800640A120E49
S31508003A0C6D0A000EC90FFF2A17D0FF280AD0002A04
S31508003A1C1BD100280AD1002D1DD0002C2DD1480011
S31508003A2C013811E0002D0ED1002A01D1002CF6D058
S31508003A3C8B420CD15800013806E0002C03D1FF2824
S31508003A4C05D1002D15D0022030BD002806D1012045
S31508003A5C5B421843F8E7002CF6D0F8E78B42F6D110
S31508003A6C8242F4DCE6DBAC42F1D80020AC42EBD265
S31508003A7CE0E700208B42EAD1E6E78B42E7D1F2E792
S31508003A8CF0B54F464646D6464502C0B546000F1C0D
S31508003A9C6D0A360EC40F002E00D1CDE0FF2E72D063
S31508003AAC8023ED00DB041D43002399469A467F3E8E
S31508003ABC7B025B0A98467B001B0EFF0F002B72D00D
S31508003ACCFF2B00D1A9E07F3BF6184B460A2B00DDED
S31508003ADC85E043468022DB00D2041A434B469046C7
S31508003AEC7C400022022B0FDD494601238B40A62180
S31508003AFCC9000B4200D072E0902189000B4200D01D
S31508003B0CDAE08821194267D1280C42462D042D0C7F
S31508003B1C4346290012041B0C120C51435D434243C5
S31508003B2C5843AD180B0C5B199A4203D980225202E2
S31508003B3C9446604409041A04090C52189501691E26
S31508003B4C8D411B0C920E1B1815439B011D431B0123
S31508003B5C00D5CFE030007F30002800DCB1E06B07E1
S31508003B6C0BD00F2332002B40042B06D004352B0127
S31508003B7C03D5803210006A4B1D40FE2864DCAB016D
S31508003B8C5B0AC0B21FE0002D00D08FE008239946CF
S31508003B9C063B9A467B025B0A98467B00FF261B0E61
S31508003BACFF0F002B8CD14346002B5CD14A460133C0
S31508003BBC1A43914613000A2A11DC01227C40022B77
S31508003BCC92DC00200023C0051843E4072043E0BC20
S31508003BDCBA46B146A846F0BD3C0045469246534601
S31508003BEC022B31D0032B11D0012BEAD030008030B8
S31508003BFC721C002866DD6B07B9D00F232B40042BEB
S31508003C0CB4D1B4E70F2A7AD03C0045468023DB03AF
S31508003C1C2B435B02FF205B0AD5E74346FF36002B96
S31508003C2C34D14A46023313430A2BD8DC7C40002A8B
S31508003C3C0AD09946022257E7002D08D10423994643
S31508003C4C033B00269A4633E7FF200023BBE72800F0
S31508003C5C00F076FB7626431F9D4000237642994654
S31508003C6C9A46361A24E7404600F06AFB4B46361A43
S31508003C7C763E0A2BB3DC43460538834098464B46BA
S31508003C8C00227C40022B00DD2EE73DE703234A4643
S31508003C9C1A4313000A2AB5DC01229A40882113001C
S31508003CAC7C400322194200D12EE795E70C2399464E
S31508003CBC093BFF269A46FBE680230024FF20DB03FC
S31508003CCC81E7320001231B1A1B2B00DD79E79E3294
S31508003CDC29009540D9406A1E95410D436B0704D0BF
S31508003CEC0F232B40042B00D004356B0113D5012070
S31508003CFC002368E701236A081D40154376E78023ED
S31508003D0CDB031D4282D042461A4200D07EE73C00B5
S31508003D1CFF20134357E7AB0100205B0A53E7C04665
S31508003D2CFFFFFFF7F8B54746CE464B02460080B56F
S31508003D3CC40F4702580A844648007A0A360EBF0949
S31508003D4C000ECD0F9B09FF286DD001214D40311A6D
S31508003D5CAC423AD0002900DC9CE1002800D19EE058
S31508003D6CFF2E00D188E08022D20413431B2900DCE5
S31508003D7CF6E0013F7A0100D479E001277F42BF01C2
S31508003D8CBB099846404600F0DBFA434605388340A3
S31508003D9C864200DCCCE0B44F311A1F405A0768D073
S31508003DAC0F221340042B64D004377B0161D5481CC1
S31508003DBCFE2900D081E0FF200023C0051843E40744
S31508003DCC2043C0BCB946B046F8BD002900DC79E1F1
S31508003DDC002876D1002B4CD0481E012900D147E18A
S31508003DECFF2949D01B2871DC01001A002020CA4083
S31508003DFC411A8B40591E8B411343FF188023DB0451
S31508003E0C1F4200D1B8E0711CFE2ED4D0012297486F
S31508003E1C3A407F08074017437A0700D096E01F42BE
S31508003E2CC5D1FA0855E03100FF398946002B2CD14B
S31508003E3C01214D40AC4200D1B4E0494600294CD092
S31508003E4C002E00D0F9E0FF21002F00D108E14A1E10
S31508003E5C012900D156E1FF2900D142E11B2A00DCD9
S31508003E6C24E15F1E2C0006007A0100D585E7310097
S31508003E7C0437FA08FF292CD1002A9CD08023DB03AF
S31508003E8C13435B02FF205B0A97E7AC4200D1A7E01D
S31508003E9C002922D0002ED6D062462C00EEE7002B45
S31508003EACE7D0481E012936D0FF29E5D001005DE789
S31508003EBC01203B007A0100D457E1C0B2BB015B0A72
S31508003ECC7BE7FF2ED8D01B2900DC9FE03100053795
S31508003EDCFA0853025B0AC8B26FE7FE20711C084247
S31508003EEC54D1002E00D0B1E0002F00D102E1002BF6
S31508003EFC00D1F9E08021FA1AC9040A4200D13BE143
S31508003F0C0124DF1B2C40002F49D001200F42D5D1AC
S31508003F1C0021FA08DDE7FF1A7B0100D4DEE0BD01BB
S31508003F2CAD09280000F00CFA2B0005388340012651
S31508003F3C2022811B0131521A1F009340CF405A1E72
S31508003F4C93411F432BD000217B07B1D00F233B4055
S31508003F5C042B00D028E77B0100D528E7FA08B8E738
S31508003F6C1A002020CA40411A8B40591E8B41134314
S31508003F7CFF1A7B0100D502E77B0700D10DE10F2361
S31508003F8C31003B40042B00D00EE772E7FA1A904634
S31508003F9C520156D44346002B00D0F3E600240020E9
S31508003FAC00230AE7494600291CD0002E00D002E758
S31508003FBCFF21002F55D04A1E012959D0FF2900D1BF
S31508003FCC90E01B2A00DD91E011003A002025CA403A
S31508003FDC691A8F40791E8F4117430600FF180DE7A3
S31508003FEC002926D1FE20711C084213D1002E00D0C0
S31508003FFC96E0002F00D1B4E0002B75D0FB185A01BF
S3150800400C00D4B2E09B015B0AFD38D6E68022D204C6
S3150800401C1343EAE6FF2900D1CDE6FA1852085307EE
S3150800402C05D00F23171D1340042B00D021E7D20807
S3150800403C4FE7002EBCD0624620E72C00FF20002359
S3150800404CBBE60124DB1B98462C409BE6002F75D15A
S3150800405C002B00D096E080230024FF20DB03ACE67F
S3150800406C2C001F0005E7C046FFFFFFFBFFFFFF7D87
S3150800407CFB185A0100D48DE04A4A5B081A405907C6
S3150800408C00D18CE00F210B400D39042BCFD0022127
S3150800409C171DEEE6002900D11FE7821B1100002E22
S315080040AC00D1D1E68021C9040F43D7E63900202474
S315080040BCD140A21A97407A1E97410F432C0006004E
S315080040CCDF1B56E700298DD0811B002E00D170E727
S315080040DC1B290BDC8022D204174376E70121FA0848
S315080040ECF7E62C006246C7E60021F2E60533010026
S315080040FCDA08EEE6002B00D150E7012400216246CF
S3150800410C2C40E6E6DA1B530132D5920194092000BD
S3150800411C00F016F92300053883402C00012607E722
S3150800412C002FDFD0002B17D08023DB039A4200D256
S3150800413CA4E69C4500D3A1E662469FE6002B0BD06D
S3150800414C8023DB039A4200D298E69C4500D395E679
S3150800415C012462462C4091E68023DB03FF2013439F
S3150800416C2BE60020002B00D127E60021DA08B0E662
S3150800417C2C000121D208ACE6002A00D10EE700215A
S3150800418CD208A6E6802362460124DB03FF201343EC
S3150800419C2C4012E60121DA089BE6310069E6022179
S315080041ACD20896E6FFFFFF7D43024A02400049000B
S315080041BC5B0A520A090E000EFF2806D00020FF29BA
S315080041CC02D1531E9A4110007047FE38002BFBD1C2
S315080041DCF4E7C04641024200C30F490A0020120EFA
S315080041EC7E2A03DD9D2A02DD094A9818704780202D
S315080041FC00040143952A07DC9620821AD1404842CE
S3150800420C002BF3D10800F1E7963A9140F7E7C04640
S3150800421CFFFFFF7F70B5002812D0C317C5185D4085
S3150800422CC40F280000F08CF89E231B1A962B0FDC63
S3150800423C082838D0083885406D026D0AD8B202E0D5
S3150800424C002400200025C0052843E407204370BD40
S3150800425C992B14DC421F95402A0015491140550725
S3150800426C1CD00F252A40042A18D00431CA08490143
S3150800427C15D59F235202181A550AC0B2E3E7020055
S3150800428C29001B3291404A1E91410522121AD5402B
S3150800429C2A000A43064911405507E2D1CA085202B8
S315080042AC550AD8B2CFE76D026D0A8E30CBE7C046F9
S315080042BCFFFFFFFB10B5041E0DD000F041F89E233E
S315080042CC1B1A962B0CDC082834D008388440640258
S315080042DC640AD8B201E000200024C005204310BDB2
S315080042EC992B13DC421F9440144A224061071CD0B8
S315080042FC0F212140042918D00432D408520115D5AF
S3150800430C9F236402181A640AC0B2E6E70200210069
S3150800431C1B3291400A00511E8A410521091ACC40CC
S3150800432C1443064A22406107E2D1D4086402640A9F
S3150800433CD8B2D2E76402640A8E30CEE7FFFFFFFBE1
S3150800434C1C2101231B04984201D3000C10391B0AAB
S3150800435C984201D3000A08391B09984201D300096F
S3150800436C043902A2105C40187047C04604030202C6
S3150800437C010101010000000000000000F0B58BB03F
S3150800438C00AF0200BB1D1A803B1D0A1C1A80BB1D00
S3150800439C1C883B1D1B88C8225343FA22910018001F
S315080043ACFEF7B4FE0300E318FB61354B1A00FB69F4
S315080043BC934201D364235EE0324B1A00FB699342A5
S315080043CC01D8002357E000237B6250E01A243B19DE
S315080043DC2D4A796A89008A5A1A807B6A591C1820D0
S315080043EC3B18294A89008A5A1A803B191B88FA698C
S315080043FC9A4239D83B181B88FA699A4234D317263D
S3150800440CBB1921497A6A92008A18023212781A70F4
S3150800441C7B6A5A1C16257B191B4992008A1802328C
S3150800442C12781A703B181B88FA69D31ABA191178BC
S3150800443C7A1912788A1A53433B613B191A883B1826
S3150800444C1B88D31AFB607B191C78F9683869FEF748
S3150800445C5DFE0300E3183B623B6A642B01D96423B7
S3150800446C3B623B6ADBB206E07B6A01337B627B6AA2
S3150800447C0A2BABD900231800BD460BB0F0BDC046BD
S3150800448C70620000904C000014F6000880B586B0E7
S3150800449C00AF0200FB1D1A702A4B1B78002B10D19B
S315080044ACFB1D1B789BB21B029AB2274B1A80274B13
S315080044BCFA1D12781A70234B01221A70234B1B789B
S315080044CC3CE0FB1D1B781B027B611F4B1B881A00EB
S315080044DC7B699B1A3B613B691B119AB21A4B1B8869
S315080044ECD3189AB2184B1A80174B1B881B0A9AB208
S315080044FC0F217B181A707B181B78144A12789B1A92
S3150800450CBB60BB68002B0ADA104B1B78002B13D048
S3150800451C0E4B1B78013BDAB20C4B1A700CE0BB68DD
S3150800452C022B09DD094B1B78632B05D8074B1B7827
S3150800453C0133DAB2054B1A70044B1B781800BD46CA
S3150800454C06B080BD24010020260100202801002089
S3150800455C80B500AFBFF34F8FC046044B044ADA60F0
S3150800456CBFF34F8FC046C046FDE7C04600ED00E0DE
S3150800457C0400FA0580B582B002AF1E4B00225A60C1
S3150800458C1C4B802252001A601A4B0822DA60194B0F
S3150800459C802212061A61174B00225A61154B00220B
S315080045AC9A61144B0022DA61124B00221A621248E5
S315080045BC0023009300230022002106F009F90E4B74
S315080045CC00220121180006F031FBE02319030A4BDF
S315080045DC0022180006F02AFB074B180006F028F9EB
S315080045EC064B01221A72054B0022DA70C046BD46EC
S315080045FC80BDC04654010020B802002000000020EF
S3150800460C80B582B002AF1E4B00225A601C4B80222A
S3150800461C52001A601A4B0822DA60194B80221206CD
S3150800462C1A61174B00225A61154B00229A61144BDA
S3150800463C0022DA61124B00221A62124800230093F8
S3150800464C00230022002106F0C3F80E4B002201219C
S3150800465C180006F0EBFAE02319030A4B002218009F
S3150800466C06F0E4FA074B180006F0E2F8064B0122AE
S3150800467C1A74054B00225A72C046BD4680BDC04608
S3150800468C300100201C0300200000002080B584B0F7
S3150800469C00AF3A60BB1D021C1A807B1D0A1C1A70DF
S315080046AC174B1B7A01225340DBB2002B01D0012396
S315080046BC22E004F0A5FB03000A33FB6007E004F0D4
S315080046CC9FFB0200FB68934201D2012314E00D4BB9
S315080046DC180006F09BFA031EF1D0BB1D1A880A4B6C
S315080046EC1A607B1D1A78084BDA603A680649054B3E
S315080046FC180006F030F903001800BD4604B080BD5A
S3150800470C00000020B80200205401002080B584B0B7
S3150800471C00AF3A60BB1D021C1A807B1D0A1C1A705E
S3150800472C174B1B7C01225340DBB2002B01D0012313
S3150800473C22E004F065FB03000A33FB6007E004F093
S3150800474C5FFB0200FB68934201D2012314E00D4B78
S3150800475C180006F05BFA031EF1D0BB1D1A880A4B2B
S3150800476C1A607B1D1A78084BDA603A680649054BBD
S3150800477C180006F0F0F803001800BD4604B080BD1A
S3150800478C000000201C03002030010020F0B585B085
S3150800479C00AF3A60BB1D021C1A807B1D0A1C1A70DE
S315080047AC0F257C193A687B1D1978BB1D1B881800C8
S315080047BCFFF76CFF030023700E26BC193A687B1DA5
S315080047CC1978BB1D1B881800FFF7A0FF0300237080
S315080047DC7B191B78002B03D1BB191B78002B01D036
S315080047EC012300E00023DBB21800BD4605B0F0BD7E
S315080047FC80B586B000AFF860B9607A60FA6898231D
S3150800480C5B009A420ED1BB681B78FF2B0AD17B68DA
S3150800481C022B07D1744B01221A70734B00225A7063
S3150800482CFFF796FEFA68A0235B009A4225D117215A
S3150800483C7B18BA6812781A701623FB18BA6852785D
S3150800484C1A707B181B78022B02D97B1802221A7055
S3150800485C1622BB181B78642B02D9BB1864221A7053
S3150800486C624B1722BA1812781A70604B1622BA18AD
S3150800487C12785A705D4B01229A70FA684223FF33FC
S3150800488C9A4223D11523FB1800221A7016E0BB682E
S3150800489C1B781A0015203B181B781A411300DAB23C
S315080048AC3B181B7801210A40D1B2504AD3180A1C6E
S315080048BCDA703B181A783B1801321A701523FB1854
S315080048CC1B78042BE3D9494B01221A72FA68A123E7
S315080048DC5B009A4219D1BB681A78444B5A72BB686A
S315080048EC5A78424B9A72BB6802331B781BB21B026E
S315080048FC1AB2BB6803331B781BB213431BB29AB2AA
S3150800490C3A4B9A81394B01229A73FA684423FF333E
S3150800491C9A4211D1BB681B781A000123134002D0A6
S3150800492C334B01221A70BB681B781A0002231340FA
S3150800493C02D02F4B01225A70FA68A2235B009A42C6
S3150800494C2ED1BB681B781BB21B021AB2BB6801338B
S3150800495C1B781BB213431BB29AB2244B1A82BB6840
S3150800496C02331B781BB21B021AB2BB6803331B78C3
S3150800497C1BB213431BB29AB21C4B5A82BB68043344
S3150800498C1B781BB21B021AB2BB6805331B781BB209
S3150800499C13431BB29AB2154B9A82144B01229A7581
S315080049ACFA684623FF339A420AD1BB681A780F4B2A
S315080049BCDA75BB685A780D4B1A760C4B01225A7667
S315080049CCBB681B78FF2B0AD17B68012B07D1074BD9
S315080049DC01229A7604F014FA0200064B1A60C046B5
S315080049ECBD4606B080BDC0460000002078010020F8
S315080049FC940100202C010020F0B599B000AF786026
S31508004A0C39603B68012213405AD03026BB1918006E
S31508004A1C08231A00002109F009FFBB1938243A1992
S31508004A2C7868402105F0DCFF031E4BD13B1918684A
S31508004A3C3B19DA68BB191900FFF7DAFE244B9B7889
S31508004A4C01225340DBB2002B3ED10C257B191800F2
S31508004A5C24231A00002109F0E9FE3B191A687B1970
S31508004A6C1A603B19DA687B19DA602C007B198022EC
S31508004A7C12061A617B681B68164A93420CD1164BB0
S31508004A8C180006F0C3F8031E1FD0BA193919124BB1
S31508004A9C180005F060FF18E07B681B680F4A934204
S31508004AAC13D10F4B180006F0B1F8031E0DD03023A6
S31508004ABCFA180C23F9180A4B180005F04CFF04E0F9
S31508004ACCC04602E0C04600E0C046BD4619B0F0BD7F
S31508004ADC00000020006400401C0300200068004011
S31508004AECB802002080B586B000AF786039603A68A5
S31508004AFC80231B0313404AD004F082F90300BB60E1
S31508004B0C7B681B68244A934206D1244B7B61244B51
S31508004B1C3B61244BFB6005E0234B7B61234B3B61DC
S31508004B2C234BFB603B691B68BA68D31A214A93422C
S31508004B3C05D97B6900221A703B69BA681A607B69C9
S31508004B4C1B780133DAB27B691A707B691B78052BE3
S31508004B5C07D9FB6800221A707B68180005F08EFED0
S31508004B6C16E07B68180005F089FE7B68180005F0CE
S31508004B7C5FFE7B6800220121180006F057F8E02337
S31508004B8C19037B680022180006F050F800E0C046AE
S31508004B9CBD4606B080BDC046006400400300002038
S31508004BAC0400002008000020090000200C0000204A
S31508004BBC100000201027000080B500AF04F020F983
S31508004BCC0200064B1B68D21AFA235B009A4202D9DA
S31508004BDC034B00229A76C046BD4680BD2C010020A8
S31508004BEC7801002090B585B000AF464B5B78012262
S31508004BFC5340DBB2002B00D07FE00F23FB180022BA
S31508004C0C1A700E23FB1800221A700D23FB180022AB
S31508004C1C1A700C23FB1800221A7046E00C243B1958
S31508004C2C1A7813005B009B18DB00374A9B18180090
S31508004C3C00F098FF031E18D020003B181B780122A1
S31508004C4C9A401300D9B20D22BB18BA1812780A4327
S31508004C5C1A703B181B7801229A401300D9B20F22FE
S31508004C6CBB18BA1812780A431A700C243B191A780E
S31508004C7C13005B009B18DB00234A9B18180000F0F6
S31508004C8C5DFF031E0BD03B191B7801229A401300BB
S31508004C9CD9B20E22BB18BA1812780A431A700C210C
S31508004CAC7B181A787B1801321A700C23FB181B78A0
S31508004CBC042BB3D9154B0E217A1812785A703B1D52
S31508004CCC0F22BA1812781A703B1D7A1812785A7075
S31508004CDC3B1D0D22BA1812789A700C4B1A783B1D8C
S31508004CECDA700A4B5A783B1D1A713A1DA8235B00D9
S31508004CFC05211800FFF74AFD00E0C046BD4605B081
S31508004D0C90BDC04600000020340000209801002009
S31508004D1CF0B587B000AF78602C4B5B780122534016
S31508004D2CDBB2002B4DD116217B187A6812881A80B3
S31508004D3C14243B197A6852881A8012257B197A68CA
S31508004D4C92881A801026BB197A68D2881A800800AD
S31508004D5C7B181B881B0A9BB2DAB208217B181A70BF
S31508004D6C3B181B88DAB27B185A703B191B881B0A2E
S31508004D7C9BB2DAB27B189A703B191B88DAB27B188D
S31508004D8CDA707B191B881B0A9BB2DAB27B181A716C
S31508004D9C7B191B88DAB27B185A71BB191B881B0A3C
S31508004DAC9BB2DAB27B189A71BB191B88DAB27B18DC
S31508004DBCDA717A185223FF3308211800FFF7E6FC3C
S31508004DCC00E0C046BD4607B0F0BDC0460000002056
S31508004DDC90B585B000AF78601A4B5B7801225340CA
S31508004DECDBB2002B2AD10E203B187A6812891A805E
S31508004DFC0C243B197A6852891A803B181B881B0AA3
S31508004E0C9BB2DAB208217B181A703B181B88DAB2E7
S31508004E1C7B185A703B191B881B0A9BB2DAB27B1893
S31508004E2C9A703B191B88DAB27B18DA707A185623F3
S31508004E3CFF3304211800FFF7A9FC00E0C046BD4665
S31508004E4C05B090BD0000002080B586B000AF786034
S31508004E5C3F4B5B7801225340DBB2002B00D072E04B
S31508004E6C16217B187A6892891A801423FB187A689B
S31508004E7CD2891A801223FB187A68128A1A80354B43
S31508004E8C00221A70334B5B887A1812889A4206D21B
S31508004E9C304B1B7801221343DAB22E4B1A702D4B6A
S31508004EAC9B881422BA1812889A4206D2294B1B7868
S31508004EBC02221343DAB2274B1A70264BDB881222CE
S31508004ECCBA1812889A4206D2224B1B78042213432C
S31508004EDCDAB2204B1A7016203B181B881B0A9BB299
S31508004EECDAB208217B181A703B181B88DAB27B18C1
S31508004EFC5A7014203B181B881B0A9BB2DAB27B1813
S31508004F0C9A703B181B88DAB27B18DA7012203B1899
S31508004F1C1B881B0A9BB2DAB27B181A713B181B88C2
S31508004F2CDAB27B185A710B4B1A787B189A717B6814
S31508004F3C1A7E7B18DA717A18A9235B0008211800E7
S31508004F4CFFF724FC00E0C046BD4606B080BDC0464F
S31508004F5C0000002014000020B0B584B000AF7860C3
S31508004F6C39601A4B5B7801225340DBB2002B29D1EE
S31508004F7C17493868FEF784FD031C0E257C19181C86
S31508004F8CFFF728F9030023807B681A7A08217B1817
S31508004F9C1A707B685A7A7B185A707B1900229B5EAA
S31508004FAC1B121BB2DAB27B189A707B191B88DAB201
S31508004FBC7B18DA707A185423FF3304211800FFF78C
S31508004FCCE5FB00E0C046BD4604B0B0BD00000020BD
S31508004FDC0000204180B584B000AF7860184B5B7830
S31508004FEC01225340DBB2002B26D17B689A78082124
S31508004FFC7B181A707B68DA787B185A707B681A7972
S3150800500C7B189A707B685A797B18DA707B689A7960
S3150800501C7B181A717B68DA797B185A717B1800220F
S3150800502C9A717B180022DA717A18AA235B00082178
S3150800503C1800FFF7ABFB00E0C046BD4604B080BDC8
S3150800504C0000002080B582B000AF1B4B5B780122B4
S3150800505C5340DBB2002B2BD1184B5B881B0A9BB237
S3150800506CDAB23B001A70154B5B88DAB23B005A7001
S3150800507C124B9B881B0A9BB2DAB23B009A700F4BF9
S3150800508C9B88DAB23B00DA700C4BDB881B0A9BB2A6
S3150800509CDAB23B001A71094BDB88DAB23B005A715B
S315080050AC3A00AB235B0006211800FFF76FFB00E004
S315080050BCC046BD4602B080BD00000020140000208A
S315080050CC80B584B000AF2B4B5B7801225340DBB222
S315080050DC002B4BD1284B5B881B0A9BB2DAB20821F2
S315080050EC7B181A70244B5B88DAB27B185A70224BE1
S315080050FC9B881B0A9BB2DAB27B189A701E4B9B884C
S3150800510CDAB27B18DA701C4BDB881B0A9BB2DAB254
S3150800511C7B181A71184BDB88DAB27B185A71164B46
S3150800512C1B891B0A9BB2DAB27B189A71124B1B8924
S3150800513CDAB27B18DA717A185823FF33082118006B
S3150800514CFFF724FB0C4B5B891B0A9BB2DAB23B1D9F
S3150800515C1A70094B5B89DAB23B1D5A703A1DAC239F
S3150800516C5B0002211800FFF711FB00E0C046BD46A4
S3150800517C04B080BD000000209801002080B582B0E4
S3150800518C00AF154B5B7801225340DBB2002B1ED1C6
S3150800519C124B0221180006F007FA03001A003B1DF1
S315080051AC1A700E4B0121180006F0FEF903001A00BE
S315080051BC3B1D5A70084B9B781A003B1D9A703A1D7A
S315080051CC5A23FF3303211800FFF7E0FA00E0C04624
S315080051DCBD4602B080BDC046000000200008005045
S315080051EC90B585B000AF244B5B7801225340DBB2F7
S315080051FC002B3DD10E217B18204A1A800C203B1817
S3150800520C1F4A1A800A243B19C8221A807B181B8845
S3150800521C1B0A9BB2DAB23B001A707B181B88DAB2EF
S3150800522C3B005A703B181B881B0A9BB2DAB23B0030
S3150800523C9A703B181B88DAB23B00DA703B191B884C
S3150800524C1B0A9BB2DAB23B001A713B191B88DAB2FD
S3150800525C3B005A713B0006229A713B000022DA7118
S3150800526C3A00AD235B0008211800FFF78FFA00E01F
S3150800527CC046BD4605B090BD00000020904C00000D
S3150800528C7062000080B500AF03F0BAFD0200054B52
S3150800529C1A60054B00221A60044B01221A70C0468C
S315080052ACBD4680BDA4010020A8010020AC01002049
S315080052BC80B582B000AF03F0A3FD03007B600A4BF8
S315080052CC1B687A68D21AFA235B009A4205D3074BF5
S315080052DC01221A70044B7A681A60044B1B78180062
S315080052ECBD4602B080BDC046A4010020AC0100201A
S315080052FC80B500AF054B00221A70054B1B685A1C6B
S3150800530C034B1A60C046BD4680BDC046AC010020A2
S3150800531CA801002080B500AFFFF7CAFF031E03D013
S3150800532C03F0C2FAFFF7E4FFC046BD4680BD80B560
S3150800533C82B000AF78607B681A7800210A40111C8D
S3150800534C14220A431A705A7800210A40111C552255
S3150800535C52420A435A707B6800229A707B68142260
S3150800536CDA707B6805221A717B6832225A717B685F
S3150800537C2D229A717B680022DA717B681A7A0021D1
S3150800538C0A40111C782252420A431A725A7A002190
S3150800539C0A40111C13220A435A727B689A7A002116
S315080053AC0A40111C302252420A439A72DA7A0021B8
S315080053BC0A40111C07220A43DA727B681A7B002101
S315080053CC0A40111C782252420A431A735A7B00214E
S315080053DC0A40111C13220A435A737B689A7B0021D4
S315080053EC0A40111C782252420A439A73DA7B00212E
S315080053FC0A40111C13220A43DA737B681A7C0021B3
S3150800540C0A401A745A7C00210A405A747B689A7CA2
S3150800541C00210A40111C20220A439A74DA7C0021C6
S3150800542C0A40111C4E220A43DA747B681A7D002145
S3150800543C0A40111C20220A431A755A7D00210A407B
S3150800544C111C4E220A435A757B689A7D00210A4024
S3150800545C111C10220A439A75DA7D00210A40111C88
S3150800546C27220A43DA75C046BD4602B080BD000045
S3150800547C80B582B000AF78607B681A785B781B02BF
S3150800548C13439BB2044A944663445A425341DBB2D3
S3150800549C1800BD4602B080BDEC54FFFF80B582B043
S315080054AC00AF0200BB1D1A803B1D0A1C1A80BB1DCF
S315080054BC1A883B1D1B88D3183F2B02DCBB1D1B8887
S315080054CC04E03B1D1B884022D31A9BB21800BD462C
S315080054DC02B080BDF0B58FB004AF04000800BA6006
S315080054EC19000E257B19221C1A800C243B19021C48
S315080054FC1A80BB1D0A1C1A800623BB612623FB18BF
S3150800550C7A1912881A803B191A88BB1D1B88D3185E
S3150800551C002B00DA3F339B1199B216203B180E224A
S3150800552CBA1812888A181A803A182623FB18128871
S3150800553C1B88D31A9AB21423FB1801321A80242317
S3150800554CFB1800221A8000233B625DE02626BB1955
S3150800555C1A88BB699A4013001AB20C217B180020D2
S3150800556C1B5E13431AB21223FB181A8010257C19DA
S3150800557C7B181A88BB1D1B8811001800FFF78EFFB5
S3150800558C0300238024243B191B88BA68D3181222DB
S3150800559CBA1811882248FA22920002927A191288AD
S315080055AC0192009302230A00A02106F007FABB1900
S315080055BCBA19128801321A800C217B1800221A801B
S315080055CCBB1DB91D7A19098812888A1A1A803B19C3
S315080055DC39197A19098812888A181A800023FB61E6
S315080055EC0AE00F4864230122A02106F049FC031E99
S315080055FC06D0FB690133FB61FB69092BF1DD00E081
S3150800560CC0463B6A01333B621423FB181B883A6A73
S3150800561C9A429BDBC046C046BD460BB0F0BDC046A1
S3150800562C80030020F0B58FB004AF04000800BA6000
S3150800563C19000E257B19221C1A800C243B19021CF6
S3150800564C1A80BB1D0A1C1A800623FB612623FB182D
S3150800565C7A1912881A803B191A88BB1D1B88D3180D
S3150800566C002B00DA3F339B1199B21A203B180E22F5
S3150800567CBA1812888A181A803A182623FB18128820
S3150800568C1B88D31A9AB21823FB1801321A802423C2
S3150800569CFB1800221A8000233B624AE02626BB1917
S315080056AC1A88FB699A4013001AB20C217B18002041
S315080056BC1B5E13431AB21623FB181A8014257C1981
S315080056CC7B181A88BB1D1B8811001800FFF7E6FE0D
S315080056DC0300238024243B191B88BA68D318162286
S315080056ECBA1811881848FA22920002927A19128866
S315080056FC0192009302230A00A02106F08DFABB1929
S3150800570CBA19128801321A800C217B1800221A80C9
S3150800571CBB1DB91D7A19098812888A1A1A803B1971
S3150800572C39197A19098812888A181A803B6A01333A
S3150800573C3B621823FB181B883A6A9A42AEDBC046B2
S3150800574CC046BD460BB0F0BD80030020B0B59AB07C
S3150800575C04AF0200BB1D1A8006233B65BB1D1A88C5
S3150800576C3B6D9A404E243B191A800C257B19402216
S3150800577CFF21180009F05AF83B191A881248FA231F
S3150800578C9B000293402301937B1900930223A021CB
S3150800579C06F014F9052003F03DFB00237B650AE0AF
S315080057AC094864230122A02106F06AFB031E06D0D1
S315080057BC7B6D01337B657B6D092BF1DD00E0C04603
S315080057CCC046BD4616B0B0BD8003002080B582B079
S315080057DC00AF3A60BB1D021C1A803B1D0A1C1A80BE
S315080057EC3A683B1D1988BB1D18881823FFF772FEEB
S315080057FCC046BD4602B080BD80B582B000AF3A60E7
S3150800580CBB1D021C1A803B1D0A1C1A803A683B1DDC
S3150800581C1988BB1D18881823FFF704FFC046BD4618
S3150800582C02B080BD80B500AF204B1A681F4B5B6871
S3150800583C1900100007F0D2FF1C4B5B68002B05D132
S3150800584C1A4B1B681B6800225A632CE0174B5B68C3
S3150800585C042B05D1154B1B681A680023936322E0A9
S3150800586C124B5B68082B05D1104B1B681A68002372
S3150800587CD36318E00D4B5B680C2B05D10B4B1B68DF
S3150800588C1A68002313640EE0084B5B68102B05D1CD
S3150800589C064B1B681A680023936504E0034B1B68C8
S315080058AC1A680023D365C046BD4680BD1C0000207F
S315080058BC80B500AF80239900A023DB0501221800D0
S315080058CC05F08FFEC046BD4680BD80B500AF80236F
S315080058DC9900A023DB050022180005F082FEC046BD
S315080058ECBD4680BD80B584B000AF78600A00FB1C4D
S315080058FC1A707B689B7AFA1C12789A4204D27B68D7
S3150800590C9A7A7B685A7203E07B68FA1C12785A7288
S3150800591C7B681B681B68DB6AFB607B685B7A1A0012
S3150800592CFB68534364211800FDF7F0FB0300BB60CA
S3150800593C7B685B68002B05D17B681B681B68BA689B
S3150800594C5A632CE07B685B68042B05D17B681B6863
S3150800595C1A68BB68936322E07B685B68082B05D1E1
S3150800596C7B681B681A68BB68D36318E07B685B683E
S3150800597C0C2B05D17B681B681A68BB6813640EE090
S3150800598C7B685B68102B05D17B681B681A68BB683B
S3150800599C936504E07B681B681A68BB68D365C046C8
S315080059ACBD4604B080BD000080B582B000AF7860FB
S315080059BC39607B681B7A022B38D11E4B1B78012267
S315080059CC5340DBB2002B16D07B68DB7A1800FEF747
S315080059DC71FC031C191C3868FDF754FC031E0AD00D
S315080059EC144B01221A70FFF763FF7B6864211800B9
S315080059FCFFF778FF1BE00F4B1B78002B17D07B6843
S31508005A0C1B7B1800FEF756FC031C191C3868FDF79F
S31508005A1C1BFC031E0BD0074B00221A70FFF755FF11
S31508005A2C7B6800211800FFF75DFF00E0C046BD4605
S31508005A3C02B080BDAD01002080B582B000AF00F089
S31508005A4C5FF8642003F0E6F9114B1C2200211800BC
S31508005A5C08F0ECFE0F4B28220021180008F0E6FE91
S31508005A6C00237B600CE07A6813005B009B18DB0054
S31508005A7C094A9B18180000F061F87B6801337B60B3
S31508005A8C7B68042BEFDDC046C046BD4602B080BD20
S31508005A9CB0010020CC0100203400002080B582B073
S31508005AAC00AF78607B681B68002B0CD07B689B88E2
S31508005ABC002B08D07B6818687B689B880122190024
S31508005ACC05F08FFD00E0C046BD4602B080BD80B52E
S31508005ADC82B000AF78607B681B68002B0CD07B68A3
S31508005AEC9B88002B08D07B6818687B689B880022EB
S31508005AFC190005F076FD00E0C046BD4602B080BD33
S31508005B0C80B500AF094B1800FFF7E1FF084B1800EA
S31508005B1CFFF7DDFF074B1800FFF7D9FF064B1800F8
S31508005B2CFFF7D5FFC046BD4680BDC04634000020F1
S31508005B3C7C000020640000204C00002080B582B058
S31508005B4C00AF78607B689A687B689B89190010009F
S31508005B5C05F02AFD03005A425341DBB21800BD4634
S31508005B6C02B080BD80B582B000AF78607B681A69D8
S31508005B7C7B689B8A1900100005F016FD03005A4233
S31508005B8C5341DBB21800BD4602B080BD80B582B069
S31508005B9C00AF78600D4B1B681800FEF78BFB031CD7
S31508005BAC0B49181CFDF76CFF031C0A49181CFDF75A
S31508005BBC99FD031C181CFDF76FFB03009AB27B6852
S31508005BCC1A80C046BD4602B080BDC046CC01002036
S31508005BDCCDCC4C3CA69B443B80B582B000AF7860DC
S31508005BEC0D4B5B681800FEF765FB031C0B49181C6C
S31508005BFCFDF746FF031C0A49181CFDF773FD031C29
S31508005C0C181CFDF749FB03009AB27B685A80C046FC
S31508005C1CBD4602B080BDC046CC010020CDCC4C3C64
S31508005C2CA69B443B80B582B000AF78600D4B9B6851
S31508005C3C1800FEF73FFB031C0B49181CFDF720FF49
S31508005C4C031C0A49181CFDF74DFD031C181CFDF70F
S31508005C5C23FB03009AB27B689A80C046BD4602B005
S31508005C6C80BDC046CC010020CDCC4C3CA69B443B09
S31508005C7C80B582B000AF78600D4BDB681800FEF774
S31508005C8C19FB031C0B49181CFDF7FAFE031C0A49E1
S31508005C9C181CFDF727FD031C181CFDF7FDFA03005D
S31508005CAC9AB27B68DA80C046BD4602B080BDC04653
S31508005CBCCC010020CDCC4C3CA69B443B80B582B095
S31508005CCC00AF78600D4B5B691800FEF7F3FA031CFE
S31508005CDC0B49181CFDF7D4FE031C0A49181CFDF7C2
S31508005CEC01FD031C181CFDF7D7FA03009AB27B6852
S31508005CFC5A81C046BD4602B080BDC046CC010020C4
S31508005D0CCDCC4C3C0AD7A33C80B582B000AF7860AA
S31508005D1C0D4B1B691800FEF7CDFA031C0B49181C12
S31508005D2CFDF7AEFE031C0A49181CFDF7DBFC031C29
S31508005D3C181CFDF7B1FA03009AB27B681A81C046A3
S31508005D4CBD4602B080BDC046CC010020CDCC4C3C33
S31508005D5CA69B443B90B585B000AF7860214B5B6A37
S31508005D6C1800FEF7A7FA041C1E4B5B6A1800FEF710
S31508005D7CA1FA031C191C8B20C005FDF7D3FF031CC5
S31508005D8C191C201CFDF7AEFC031C1749181CFDF743
S31508005D9C77FE031CFB601449F868FDF7A3FC031C8B
S31508005DAC181C09F0BDF9031C1049181CFDF768FEF0
S31508005DBC031C0F49181CFDF787FA031C191CFE2037
S31508005DCC8005FDF78FFC031CBB600A49B868FDF714
S31508005DDCA9FF031C1A1C7B685A61C046BD4605B050
S31508005DEC90BDC046CC01002000401C46631D9B3963
S31508005DFC0FCF5B3B3393884380B582B000AF786096
S31508005E0C0A4B9B691800FEF755FA031C0849181C1F
S31508005E1CFDF736FE031C181CFDF73EFA03009AB272
S31508005E2C7B689A81C046BD4602B080BDCC01002075
S31508005E3C4A0CD64080B582B000AF78600A4BDB6955
S31508005E4C1800FEF737FA031C0849181CFDF718FE4C
S31508005E5C031C181CFDF720FA03009AB27B68DA813A
S31508005E6CC046BD4602B080BDCC0100207D3FC9406E
S31508005E7C80B582B000AF78600A4B1B6A1800FEF733
S31508005E8C19FA031C0849181CFDF7FAFD031C181C03
S31508005E9CFDF702FA03009AB27B681A82C046BD4621
S31508005EAC02B080BDCC0100207D3FC94080B500AF53
S31508005EBC024B034A9A60C046BD4680BD00ED00E021
S31508005ECC0030000880B500AFFFF7F0FF02F01CFFAA
S31508005EDC00F015F800F016FB00F0FEFA00F06EF86C
S31508005EEC00F05EF900F0A4F900F0EAF900F028FADF
S31508005EFC01F0BEF8FFF704FE01F0C2F8FCE790B516
S31508005F0C95B000AF14243B1918003C231A00002145
S31508005F1C08F08CFC3B1D180010231A00002108F011
S31508005F2C85FC80239B00180006F03AFC3B190222DC
S31508005F3C1A603B1980225200DA6021007B18002275
S31508005F4C1A617B1840225A617B1802221A627B1846
S31508005F5C02225A627B1800229A627B180F22DA6296
S31508005F6C7B18802292021A637B18802292045A6349
S31508005F7C7B18C022D2059A637B18180006F050FCD1
S31508005F8C031E01D000F0CEFB3B1D07221A603B1DF9
S31508005F9C02225A603B1D00229A603B1D0022DA60E1
S31508005FAC3B1D0221180006F09BFF031E01D000F0D2
S31508005FBCB9FBC046BD4615B090BD000080B584B08F
S31508005FCC00AF3B1D18000C231A00002108F02EFC0C
S31508005FDC684B694A1A60674B802212065A60654BF1
S31508005FEC00229A60634B0022DA60624B802212060A
S31508005FFC1A61604B08225A615E4B00221A765D4B79
S3150800600C00225A765B4B01229A765A4B0122DA61A8
S3150800601C584B00225A62574B00229A62554B2C2237
S3150800602C01219954534B802252011A63514B042275
S3150800603C5A63504B3C22002199544E4B0022DA6489
S3150800604C4C4B180003F078F8031E01D000F06AFBDD
S3150800605C3B1D01221A603B1D01225A603A1D454B15
S3150800606C1100180003F0B6FA031E01D000F05AFB13
S3150800607C3B1D424A1A603A1D3E4B1100180003F0AC
S3150800608CA9FA031E01D000F04DFB3B1D3C4A1A60D1
S3150800609C3A1D384B1100180003F09CFA031E01D068
S315080060AC00F040FB3B1D374A1A603A1D314B110074
S315080060BC180003F08FFA031E01D000F033FB3B1DCA
S315080060CC314A1A603A1D2B4B1100180003F082FA5C
S315080060DC031E01D000F026FB3B1D2C4A1A603A1D04
S315080060EC244B1100180003F075FA031E01D000F0BA
S315080060FC19FB3B1D264A1A603A1D1E4B1100180047
S3150800610C03F068FA031E01D000F00CFB3B1D214A74
S3150800611C1A603A1D174B1100180003F05BFA031EA0
S3150800612C01D000F0FFFA3B1D1B4A1A603A1D114BB1
S3150800613C1100180003F04EFA031E01D000F0F2FA13
S3150800614C3B1D164A1A603A1D0A4B1100180003F03B
S3150800615C41FA031E01D000F0E5FA064B180003F0CD
S3150800616C1BFE031E01D000F0DDFAC046BD4604B086
S3150800617C80BDC046F4010020002401400200000442
S3150800618C040000080800000C10000010400000185D
S3150800619C8000001C000100200002002400040028D6
S315080061AC80B500AF204B214A1A601F4B00225A605B
S315080061BC1D4B00229A601C4B0022DA601A4B0122F6
S315080061CC1A74194B00225A74174B00229A74164BE0
S315080061DC06225A61144B04229A61134B1022DA6177
S315080061EC114B03221A62104B01225A620E4B0122E2
S315080061FC9A620D4B0122DA620B4B01221A630A4B87
S3150800620C02225A63084B02229A63074B0022DA636E
S3150800621C054B180004F076F9031E01D000F082FA3B
S3150800622CC046BD4680BDC046B8020020006400408A
S3150800623C80B500AF204B214A1A601F4B00225A60CA
S3150800624C1D4B00229A601C4B0022DA601A4B012265
S3150800625C1A74194B00225A74174B00229A74164B4F
S3150800626C06225A61144B04229A61134B1022DA61E6
S3150800627C114B03221A62104B01225A620E4B012251
S3150800628C9A620D4B0122DA620B4B01221A630A4BF6
S3150800629C02225A63084B00229A63074B0022DA63E0
S315080062AC054B180004F02EF9031E01D000F03AFA3B
S315080062BCC046BD4680BDC0461C0300200068004091
S315080062CC80B500AF1B4B1C4A1A601A4B1B4A5A6006
S315080062DC184B00229A60174B0122DA60154B0022E4
S315080062EC1A61144B00225A61124B00229A61114B07
S315080062FC0022DA610F4B00221A620E4B180005F0C9
S3150800630C8DF9031E01D000F00DFA0A4B0021180076
S3150800631C06F0AEF9031E01D000F004FA054B002175
S3150800632C180006F0F1F9031E01D000F0FBF9C0467F
S3150800633CBD4680BD8003002000540040583D5000E7
S3150800634C80B59CB000AF6023FB18180010231A0008
S3150800635C002108F06BFA5423FB1818000C231A00BA
S3150800636C002108F063FA3823FB1818001C231A00BE
S3150800637C002108F05BFA3B1D180034231A00002193
S3150800638C08F054FA514B524A1A60504B3B225A6049
S3150800639C4E4B00229A604D4B4E4ADA604B4B00220C
S315080063AC1A614A4B00225A61484B80229A61474B24
S315080063BC180007F05BF9031E01D000F0B3F9602151
S315080063CC7B18802252011A607A18404B110018006B
S315080063DC07F0F4FB031E01D000F0A4F93B4B1800A0
S315080063EC07F09CF9031E01D000F09CF954217B1888
S315080063FC00221A607B1800225A607B1800229A60C9
S3150800640C7A18324B1100180008F0CAF8031E01D08E
S3150800641C00F088F938217B1860221A607B186422F0
S3150800642C5A607B1800229A607B180022DA607B1867
S3150800643C00221A617B1800225A617B1800229A6185
S3150800644C7918224B0022180007F0B8FA031E01D05F
S3150800645C00F068F93B1D00221A603B1D00225A60A9
S3150800646C3B1D00229A603B1D0022DA603B1D002270
S3150800647C1A613B1D802292015A613B1D00229A61CA
S3150800648C3B1D0022DA613B1D00221A623B1D80224D
S3150800649C92045A623B1D00229A623B1D0022DA6264
S315080064AC3B1D00221A633A1D084B1100180008F010
S315080064BCEDF8031E01D000F035F9044B180001F075
S315080064CCB3FDC046BD461CB080BDC046D4030020F3
S315080064DC002C0140E703000080B582B000AF084BE2
S315080064EC9A6B074B01210A439A63054B9B6B012256
S315080064FC13407B607B68C046BD4602B080BDC04673
S3150800650C0010024090B58BB000AF14243B1918004C
S3150800651C14231A00002108F089F97C4B5A6B7B4B23
S3150800652C04210A435A63794B5B6B042213403B6183
S3150800653C3B69764B5A6B754B20210A435A63734B4E
S3150800654C5B6B20221340FB60FB68704B5A6B6F4BDE
S3150800655C01210A435A636D4B5B6B01221340BB60E6
S3150800656CBB686A4B5A6B694B02210A435A63674BE1
S3150800657C5B6B022213407B607B68644B5A6B634BE4
S3150800658C08210A435A63614B5B6B082213403B6034
S3150800659C3B685F4B00220121180005F022F8C42342
S315080065ACD900A023DB050022180005F01AF8594B70
S315080065BC00221221180005F014F8574B0022082166
S315080065CC180005F00EF83B19802292011A603B1947
S315080065DC882252035A603B1900229A603B194C4A8E
S315080065EC1900100004F074FE3B1901221A603B19BD
S315080065FC01225A603B1900229A603B190022DA6084
S3150800660C3B19434A1900100004F062FE3B19434A31
S3150800661C1A603B1900225A603B1901229A603B19F1
S3150800662C3B4A1900100004F053FE3B1920221A604D
S3150800663C3B1901225A603B1900229A603B19022227
S3150800664CDA603A19A023DB051100180004F040FEA5
S3150800665C21007B18C022D2001A600C003B190122BB
S3150800666C5A603B1900229A603B190022DA603A19E3
S3150800667CA023DB051100180004F02AFE3B19284A52
S3150800668C1A603B1900225A603B1901229A603B1981
S3150800669C204A1900100004F01BFE3B1912221A603E
S315080066AC3B1901225A603B1900229A603B190022B9
S315080066BCDA603B19174A1900100004F009FE3B1959
S315080066CC08221A603B1901225A603B1900229A606B
S315080066DC3B190022DA603B190F4A1900100004F026
S315080066ECF7FD21007B1830221A607B1800225A60AD
S315080066FC7B1801229A607B18074A1900100004F0CF
S3150800670CE7FDC046BD460BB090BDC0460010024022
S3150800671C00080050000C0050000400500202000053
S3150800672C6D03000080B500AF72B6C046C046FDE7E3
S3150800673C80B582B000AFFB1D00221A7012E0FB1D5B
S3150800674C1978FB1D1B783F4A04314900895A3E4A81
S3150800675C5B00D31802330A1C1A80FB1D1A78FB1D22
S3150800676C01321A70FB1D1B78042BE8D9354B5A8A53
S3150800677C364B5A80334B9A8A344B9A80314BDA8A89
S3150800678C324BDA802F4B9A78314B1A722D4B1A7979
S3150800679C2F4B9A722B4B5A792D4BDA72294B9A79C5
S315080067AC2B4B1A732A4B1B7A012B09D1FFF780F84E
S315080067BC244BDA78264B11001800FFF793F80EE0F5
S315080067CC234B1B7A022B04D11E4BDA78204B5A72B8
S315080067DC05E0FFF77AF81B4BDA781D4B5A72BB1D8E
S315080067EC00221A7025E0174BDB791A00BB1D1B78A3
S315080067FC1A411300012213400BD0BB1D1A78130043
S3150800680C5B009B18DB00134A9B181800FFF746F928
S3150800681C0AE0BB1D1A7813005B009B18DB000D4AB7
S3150800682C9B181800FFF753F9BB1D1A78BB1D0132CC
S3150800683C1A70BB1D1B78042BD5D9C046C046BD465D
S3150800684C02B080BD2004002098010020140000200E
S3150800685C1C0000203400002090B583B000AF204BFC
S3150800686C1800FFF793F91E4B1800FFF7B5F91C4BE8
S3150800687C1800FFF7D7F91A4B1800FFF7F9F9184B58
S3150800688C1800FFF741FA164B1800FFF717FA144BC6
S3150800689C1800FFF7B1FA124B1800FFF7CBFA104B9A
S315080068AC1800FFF7E5FA0E4B1800FFF753FA0C4BD6
S315080068BC9A890B4B1B88FC1D19001000FDF75EFD11
S315080068CC03002370FB1D1B781800FDF7DFFD030082
S315080068DC1A00034B1A76C046BD4603B090BDC04697
S315080068ECB001002090B585B000AF424B1A893B1D0C
S315080068FC1A80404B5A893B1D5A803E4BDA883B1D01
S3150800690C9A803C4B5A883B1DDA803A4B9A883B1D39
S3150800691C1A81394B00225A700F23FB1800221A7061
S3150800692C1FE00F243B191A7813005B009B18DB0039
S3150800693C324A9B181800FFF701F9031E0BD02E4B91
S3150800694C5A783B191B78012199400B00DBB213438B
S3150800695CDAB2294B5A700F217B181A787B18013238
S3150800696C1A700F23FB181B78042BDAD90E23FB1885
S3150800697C00221A7034E00E203B181B781E4A5B0066
S3150800698CD31802331B88002B24D03B181A783B1DCE
S3150800699C5200D25A3B181B7817495B00CB180233A6
S315080069AC1B889A4216D9144B1A783B181B78012166
S315080069BC99400B00DBB21343DAB20F4B1A703B1833
S315080069CC1A7813005B009B18DB000C4A9B181800FE
S315080069DCFFF77DF80E217B181A787B1801321A708E
S315080069EC0E23FB181B78042BC5D9C046C046BD46DA
S315080069FC05B090BDB001002098010020340000209D
S31508006A0C80B500AF164B00221A70164B9A89144B98
S31508006A1C5B889A4206D2124B1B7801221343DAB2D0
S31508006A2C0F4B1A700F4BDA890D4B9B889A4206D27C
S31508006A3C0B4B1B7802221343DAB2094B1A70094B1B
S31508006A4C1A8A074BDB889A4206D2054B1B78042216
S31508006A5C1343DAB2024B1A70C046BD4680BDC04617
S31508006A6C14000020B001002080B582B000AFC24BE4
S31508006A7C9B78002B1ED0C04B00229A70BE4B1A78FE
S31508006A8CBE4B1A72BC4B5A78BC4B5A72BB4B1B7A10
S31508006A9C012B09D1FEF70CFFB84B5A7AB74B1100EC
S31508006AAC1800FEF71FFF05E0B44B1B7A002B01D12B
S31508006ABCFEF70BFFB04B1B7A002B33D0AE4B0022E4
S31508006ACC1A72FB1D00221A7028E0FB1D1B78042B7A
S31508006ADC1ED0FB1D1B78A84AD318DB78002B0BD0CD
S31508006AECFB1D1A7813005B009B18DB00A44A9B1845
S31508006AFC1800FEF7D3FF0CE0FB1D1A7813005B0099
S31508006B0C9B18DB009E4A9B181800FEF7E0FF00E076
S31508006B1CC046FB1D1A78FB1D01321A70FB1D1B782B
S31508006B2C042BD2D9944B9B7B002B5ED0924B002224
S31508006B3C9A73914B9B7A012B2BD1BB1D00221A7091
S31508006B4C22E0BB1D1B78042B18D08B4B5B7AFF2BD2
S31508006B5C09D0894B5B7A1A00BB1D1B78DA401300E7
S31508006B6C012213400BD0BB1D1B78834A9189854A99
S31508006B7C5B00D31802330A1C1A8000E0C046BB1D02
S31508006B8C1A78BB1D01321A70BB1D1B78042BD8D979
S31508006B9C2BE0794B9B7A022B27D17B1D00221A708E
S31508006BAC19E0784B1B781A007B1D1B78DA4013000A
S31508006BBC012213400AD07B1D1A7813005B009B1820
S31508006BCCDB006F4A9B181800FEF768FF7B1D1A78C6
S31508006BDC7B1D01321A707B1D1B78042BE1D9694B7E
S31508006BEC00225A70674B00221A70634B9B7D002B50
S31508006BFC0ED0614B00229A755F4B1A8A624B5A80EB
S31508006C0C5D4B5A8A604B9A805B4B9A8A5E4BDA804C
S31508006C1C5E4B1B78002B00D17AE05C4B00221A7075
S31508006C2C564B1A7A5A4B9A70544B5A7A584BDA7006
S31508006C3C524B9A7A564B1A71504BDA7A544B5A7104
S31508006C4C4E4B1A7B524B9A71514B0022DA713B1DF3
S31508006C5C00221A7028E03B1D1A78494913005B007C
S31508006C6C9B18DB0058583B1D1A78454913005B00E6
S31508006C7C9B18DB00CB1804331B88190004F094FC12
S31508006C8C0300012B0BD1424BDA793B1D1B780121F2
S31508006C9C99400B00DBB21343DAB23D4BDA713B1D5C
S31508006CAC1A783B1D01321A703B1D1B78042BD2D95E
S31508006CBCFB1C00221A7011E0FB1C1B78FA1C1278BC
S31508006CCC30495B00CB1802331988314B0432520019
S31508006CDCD152FB1C1A78FB1C01321A70FB1C1B7850
S31508006CEC042BE9D9284B5A88294B5A82264B9A8861
S31508006CFC274B9A82244BDA88254BDA82254B1B784C
S31508006D0C002B05D0224B1A0000210120FEF75EFD50
S31508006D1C1E4B5B78002B12D01C4B00225A701C4B56
S31508006D2C1800FEF704FB1B4B1B78002B05D0184BE1
S31508006D3C1A0000210120FEF749FDFFF7F9FC0E4B5E
S31508006D4C5B7E002B14D00C4B00225A760A4BDB7D4B
S31508006D5C5A1E9341DBB21A000F4B0121180004F09E
S31508006D6C40FC054B1B7E5A1E9341DAB20B4B9A70AC
S31508006D7CC046BD4602B080BD780100201C0000202C
S31508006D8C34000020980100201400002094010020F3
S31508006D9C200400203A0400200008005000000020BF
S31508006DAC80B582B000AF80239B01184A19001000E9
S31508006DBC04F0FAFB031E25D1642002F02BF880237D
S31508006DCC9B01124A1900100004F0EEFB031E19D1A0
S31508006DDCC04680239B010D4A1900100004F0E4FB01
S31508006DEC031EF6D000237B6007E07B689BB2180075
S31508006DFCFEF7ACFC7B6801337B607A6880239B00CA
S31508006E0C9A42F2DBC046BD4602B080BD000800506F
S31508006E1C80B582B000AF01F0F3FF03007B602A4B0C
S31508006E2C1B687A68D31A632B08D9274B7A681A60B9
S31508006E3CFFF712FDFFF756FDFFF7E2FD234B5A69E4
S31508006E4C234B111C1800FEF7AFFDFFF70DFE204A69
S31508006E5C1E4B1100180001F0CDFD1E4B1B687A68FD
S31508006E6CD21AFA235B009A4223D31A4B7A681A6011
S31508006E7CFDF7B8FE154B1800FDF74AFF134B180023
S31508006E8CFDF7A6FF114B1800FDF7DEFF0F4B5A69ED
S31508006E9C0F4B111C1800FEF75FF80F4B1800FEF786
S31508006EAC99F8FEF7CFF8FEF70BF9FEF767F9FEF738
S31508006EBC97F90A4B1B78002B01D0FEF72BFAC04624
S31508006ECCBD4602B080BDC0463C040020B00100207F
S31508006EDC1C00002040040020200400203904002057
S31508006EEC80B500AFFA235B0041480322A02104F0C9
S31508006EFCC7FF03005A425341DAB23E4B1A703D4B58
S31508006F0C1B78002B1BD03C4B1A0000210120FEF7E6
S31508006F1C73FC394B1800FEF7ABFA03001A00012371
S31508006F2C5340DBB2002B0ED0334B1800FEF7FFF99B
S31508006F3C314B1A0000210120FEF748FC03E02E4BCA
S31508006F4C1800FEF7F4F9FEF777FDFEF76BFCFFF772
S31508006F5CEFFB2A4B01225A70FDF752FB2849294BA5
S31508006F6C0A22180002F090FA642001F053FFFA2363
S31508006F7C5B001F480322782104F082FF03005A4263
S31508006F8C5341DAB2204B1A701F4B1B78002B0AD0D0
S31508006F9C00F098F801F0FAFCFA239B00180001F0AF
S31508006FAC39FFFEF76FF9134B1B78002B05D0164BE0
S31508006FBC1B78002B01D0012300E00023DAB2A023B2
S31508006FCCDB052021180004F00CFB01F019FF020068
S31508006FDC0E4B1A6001F014FF02000D4B1A600D4B94
S31508006FEC01221A70012001F0F5FCC046BD4680BD91
S31508006FFC800300203A040020200400200000002012
S3150800700CCC010020F4010020390400203C040020A7
S3150800701C400400203804002080B500AFFFF7F8FEC6
S3150800702C064B5B88002B05D0054B02221A700220F2
S3150800703C01F0D0FCC046BD4680BDC04654080020B1
S3150800704C3804002080B500AFFFF7E2FE064B5B88DC
S3150800705C002B05D1054B01221A70012001F0BAFC50
S3150800706CC046BD4680BDC0465408002038040020E2
S3150800707C80B500AFFDF77EFAC046BD4680BD000060
S3150800708C80B500AFFDF798FDFFF78AFE0C4B1B7811
S3150800709C022B0BD00DDC002B02D0012B03D008E001
S315080070ACFFF71EFF09E0FFF7B7FF06E0FFF7CAFF79
S315080070BC03E0034B00221A70C046C046BD4680BD8D
S315080070CC3804002080B582B000AF00F0CDFC5B4BD5
S315080070DC5B480122782104F0D3FE031E01D000235D
S315080070ECA8E0584B7B6002E07B68013B7B607B68C1
S315080070FC002BF9D1AE220021782000F035FD202294
S3150800710C0021782000F030FD10220021782000F0B4
S3150800711C2BFDB0220021782000F026FDC822002184
S3150800712C782000F021FD00220021782000F01CFDBB
S3150800713C10220021782000F017FD4022002178202B
S3150800714C00F012FD81220021782000F00DFDFF22AF
S3150800715C0021782000F008FDA1220021782000F0FB
S3150800716C03FDA6220021782000F0FEFCA8220021AF
S3150800717C782000F0F9FC3F220021782000F0F4FC7E
S3150800718CA4220021782000F0EFFCD32200217820DD
S3150800719C00F0EAFC00220021782000F0E5FCD5225C
S315080071AC0021782000F0E0FCF0220021782000F085
S315080071BCDBFCD9220021782000F0D6FC2222002103
S315080071CC782000F0D1FCDA220021782000F0CCFCE3
S315080071DC12220021782000F0C7FCDB22002178203F
S315080071EC00F0C2FC20220021782000F0BDFC8D2284
S315080071FC0021782000F0B8FC14220021782000F039
S3150800720CB3FCAF220021782000F0AEFC2E22002120
S3150800721C782000F0A9FC002000F04CF800F016F8D5
S3150800722C094B00221A80084B00225A80064B012271
S3150800723C5A7101231800BD4602B080BD204E0000CD
S3150800724C80030020C40900004408002080B582B0E1
S3150800725C00AFFB1D00221A7021E0FB1D1B78503B6A
S3150800726CDBB21A000021782000F07EFC00220021F7
S3150800727C782000F079FC10220021782000F074FCAC
S3150800728CFB1D1B78DA010A4BD21880234021782083
S3150800729C00F0FEFBFB1D1A78FB1D01321A70FB1D54
S315080072AC1B78072BD9D9C046C046BD4602B080BD4F
S315080072BC4404002080B582B000AF0200FB1D1A7092
S315080072CCFB1D1B78002B01D1002300E0FF23802235
S315080072DCD2000448190007F0A9FAC046BD4602B008
S315080072EC80BDC0464404002090B583B000AF0400AE
S315080072FC08001100BB1D221C1A803B1D021C1A809B
S3150800730CFB1C0A1C1A70BB1D1B887F2B52D83B1DF5
S3150800731C1B883F2B4ED8294B1B79002B06D0FB1C00
S3150800732C1B785A425341DAB2FB1C1A70FB1C1B78A9
S3150800733C012B1ED1BB1D1A883B1D1B88DB0898B276
S3150800734C0300DB01D3181E4AD35C5AB23B1D1B88BB
S3150800735C07210B40012199400B005BB2134359B22C
S3150800736CBB1D1A880300DB01D318C9B2144AD154C1
S3150800737C21E0BB1D1A883B1D1B88DB0898B203004D
S3150800738CDB01D3180E4AD35C5BB23A1D128807216F
S3150800739C0A40012191400A0052B2D24352B213401C
S315080073AC59B2BB1D1A880300DB01D318C9B2044AAB
S315080073BCD15400E0C046BD4603B090BD4408002039
S315080073CC4404002080B582B000AF0200BB1D1A80B1
S315080073DC3B1D0A1C1A80064BBA1D12881A80044BD0
S315080073EC3A1D12885A80C046BD4602B080BDC046BA
S315080073FC4408002080B586B000AF39601100FB1D2B
S3150800740C021C1A70BB1D0A1C1A703A4B1B881A00F0
S3150800741C3B681B78D3187F2B07DC364B5B881A0026
S3150800742C3B685B78D3183F2B01DD00235DE0002316
S3150800743C7B614AE03B685A68FB1D1B78203B396820
S3150800744C49784B4319007B69CB185B00D3181B880A
S3150800745CFB6000233B612FE0FA683B699A40802366
S3150800746C1B02134011D0234B1A883B699BB2D318C5
S3150800747C98B2204B5A887B699BB2D31899B2BB1D1C
S3150800748C1B781A00FFF730FF13E01A4B1A883B6972
S3150800749C9BB2D31898B2174B5A887B699BB2D318F0
S315080074AC99B2BB1D1B785A425341DBB21A00FFF73F
S315080074BC1BFF3B6901333B613B681B781A003B6930
S315080074CC9342C9D37B6901337B613B685B781A00AD
S315080074DC7B699342AED3074B1B883A6812789B1884
S315080074EC9AB2044B1A80FB1D1B781800BD4606B0D1
S315080074FC80BDC0464408002080B584B000AFF86053
S3150800750CB960FB1D1A7013E0FB681878FB1D1A7816
S3150800751CBB681900FFF76EFF03001A00FB681B789F
S3150800752C9A4202D0FB681B7808E0FB680133FB60C3
S3150800753CFB681B78002BE7D1FB681B781800BD4647
S3150800754C04B080BDB0B586B000AF05000C001000C5
S3150800755C1900BB1D2A1C1A803B1D221C1A80BB1C39
S3150800756C021C1A803B000A1C1A80BB1D1B887F2B29
S3150800757C02D9BB1D7F221A80BB1C1B887F2B02D904
S3150800758CBB1C7F221A803B1D1B883F2B02D93B1D37
S3150800759C3F221A803B001B883F2B02D93B003F2217
S315080075AC1A80BA1DBB1C12881B889A4207D2BA1CB1
S315080075BCBB1D12881B88D31A9BB21BB206E0BA1DD8
S315080075CCBB1C12881B88D31A9BB21BB21222BA1880
S315080075DC13803A1D3B0012881B889A4207D23A0040
S315080075EC3B1D12881B88D31A9BB21BB206E03A1DA8
S315080075FC3B0012881B88D31A9BB21BB21022BA18EE
S3150800760C1380BA1DBB1C12881B889A4201D2012210
S3150800761C01E001235A420E23FB181A803A1D3B003F
S3150800762C12881B889A4201D2012201E001235A4290
S3150800763C0C23FB181A8012217A181023FB18002029
S3150800764C125E00201B5E9A4208DD7B1800229B5EA8
S3150800765C002B00DA01335B101BB209E01023FB1870
S3150800766C00229B5E002B00DA01335B105B421BB2D7
S3150800767C1622BA1813801223FB1800229B5E002BC5
S3150800768C48D13A003B1D12881B889A420CD2082115
S3150800769C7B183A0012881A803B003A1D12881A8009
S315080076AC3B1D7A1812881A80BA1CBB1D12881B88B7
S315080076BC9A420CD208217B18BA1C12881A80BB1C59
S315080076CCBA1D12881A80BB1D7A1812881A801423C0
S315080076DCFB183A1D12881A8013E014243B191988D2
S315080076EC2823FB181A78BB1D1B881800FFF7FCFD0E
S315080076FC21007B1800229B5E9BB201339AB27B1841
S3150800770C1A801423FB1800229A5E3B001B889A42A7
S3150800771CE3DDA3E01023FB1800229B5E002B48D167
S3150800772C3A003B1D12881B889A420CD208217B18FA
S3150800773C3A0012881A803B003A1D12881A803B1DA3
S3150800774C7A1812881A80BA1CBB1D12881B889A4292
S3150800775C0CD208217B18BA1C12881A80BB1CBA1DBD
S3150800776C12881A80BB1D7A1812881A801423FB18E3
S3150800777CBA1D12881A8013E014243B19188828237A
S3150800778CFB181A783B1D1B881900FFF7ADFD210065
S3150800779C7B1800229B5E9BB201339AB27B181A8027
S315080077AC1423FB1800229A5EBB1C1B889A42E3DD45
S315080077BC54E02823FB181A783B1D1988BB1D1B8817
S315080077CC1800FFF791FDBA1DBB1C12881B889A423C
S315080077DC05D13A1D3B0012881B889A423DD00A20D7
S315080077EC3B1816217A1812881A803B1800229A5EC2
S315080077FC1223FB1800201B5E5B429A4210DD7B1895
S3150800780C1A881023FB181B88D31A9AB27B181A806D
S3150800781C0E23FB181988BB1DBA1D12888A181A80E4
S3150800782C0A23FA181023FB180021525E00215B5E0E
S3150800783C9A42BEDA16217B181A881223FB181B8863
S3150800784CD3189AB27B181A800C23FB1819883B1D7F
S3150800785C3A1D12888A181A80ABE7C046BD4606B090
S3150800786CB0BDB0B584B002AF05000C00100019000D
S3150800787CBB1D2A1C1A803B1D221C1A80BB1C021C11
S3150800788C1A803B000A1C1A80BB1D1B887F2B00D94B
S3150800789C7AE03B1D1B883F2B00D975E0BB1D1A8867
S315080078ACBB1C1B88D3187F2B05DDBB1CBA1D128885
S315080078BC80218A1A1A803B1D1A883B001B88D3180C
S315080078CC3F2B05DD3B003A1D128840218A1A1A8087
S315080078DCBA1DBB1C12881B88D3189AB23B1D1C8870
S315080078EC3B1D1988BB1D188818257B191B78009316
S315080078FC2300FFF727FE3A1D3B0012881B88D31876
S3150800790C99B2BA1DBB1C12881B88D3189CB23A1D97
S3150800791C3B0012881B88D3189AB2BB1D18887B1992
S3150800792C1B78009313002200FFF70CFE3A1D3B0050
S3150800793C12881B88D3189CB2BB1D1A883B1D198844
S3150800794CBB1D18887B191B7800932300FFF7FAFDDB
S3150800795CBA1DBB1C12881B88D31898B2BA1DBB1C3F
S3150800796C12881B88D3189CB23A1D3B0012881B88B8
S3150800797CD3189AB23B1D19887B191B7800931300F0
S3150800798C2200FFF7DFFD00E0C046BD4602B0B0BDE1
S3150800799CB0B586B002AF05000C0010001900BB1D6F
S315080079AC2A1C1A803B1D221C1A80BB1C021C1A801E
S315080079BC3B000A1C1A80BB1D1B887F2B50D83B1D0D
S315080079CC1B883F2B4CD8BB1D1A88BB1C1B88D3188D
S315080079DC7F2B05DDBB1CBA1D128880218A1A1A80DA
S315080079EC3B1D1A883B001B88D3183F2B05DD3B0033
S315080079FC3A1D128840218A1A1A800F23FB18002276
S31508007A0C1A7024E00F203B181B789AB23B1D1B8872
S31508007A1CD31899B2BA1DBB1C12881B88D3189CB2F2
S31508007A2C05003B181B789AB23B1D1B88D3189AB2D3
S31508007A3CBB1D18882023FB181B7800931300220003
S31508007A4CFFF780FD7B191A787B1901321A700F2300
S31508007A5CFB181B789BB23A0012889A42D2D200E0E5
S31508007A6CC046BD4604B0B0BD80B582B000AF074B6A
S31508007A7C7B6002E07B68013B7B607B68002BF9D15D
S31508007A8CC046C046BD4602B080BDC04690D0030075
S31508007A9CB0B5C6B002AF040008003A6019002D4B09
S31508007AAC88256D005B19DB19221C1A702A4B2C00D1
S31508007ABC1B19DB19021C1A70284B20001B18DB1922
S31508007ACC0A1C1A80264B1B18DB19234A1218D219C2
S31508007ADC12781A701023FF33FB1800221A7014E060
S31508007AEC1020FF303B181B783A68D2183B181B78C5
S31508007AFC013311781A4A882464001219D219D15400
S31508007B0C3B181A783B1801321A701023FF33FB18EE
S31508007B1C1B789BB2114A882149005218D21912882F
S31508007B2C9A42DDD80B4B0A009B18DB191B7899B2C5
S31508007B3C0A4B9B18DB191B8801339BB20C22BA180B
S31508007B4C08480A24009403F00FFEC046BD4644B00C
S31508007B5CB0BDC046F7FEFFFFF6FEFFFFF4FEFFFFC3
S31508007B6CFCFEFFFF8003002090B587B002AF04002F
S31508007B7C08001100FB1D221C1A70BB1D021C1A7072
S31508007B8C7B1D0A1C1A700C203B18BA1D12781A7029
S31508007B9C3B187A1D12785A70FB1D1B7899B23A1845
S31508007BAC04480A230093022303F0DEFDC046BD46B3
S31508007BBC05B090BD8003002080B582B000AF114B94
S31508007BCC1A6C104B01210A431A640E4B1B6C0122CA
S31508007BDC13407B607B680B4BDA6B0A4B802149059B
S31508007BEC0A43DA63074BDA6B80235B0513403B6069
S31508007BFC3B68C023DB00180001F030F9C046BD46CF
S31508007C0C02B080BD0010024090B58BB000AF786012
S31508007C1C14243B19180014231A00002106F006FE3A
S31508007C2C7B681B683B4A93426FD13B4B1A6C3A4BA9
S31508007C3C802149030A431A64374B1A6C80235B0369
S31508007C4C13403B613B69344B5A6B334B01210A4356
S31508007C5C5A63314B5B6B01221340FB60FB682E4B5E
S31508007C6C5A6B2D4B02210A435A632B4B5B6B022230
S31508007C7C1340BB60BB683B19DF221A603B19032211
S31508007C8C5A603B1900229A603A19A023DB051100A9
S31508007C9C180003F01DFB3B1907221A603B19032237
S31508007CAC5A603B1900229A603B191C4A19001000AD
S31508007CBC03F00EFB1A4B1B4A1A60194B05225A6025
S31508007CCC174B00229A60164B0022DA60144B80225E
S31508007CDC1A61134B802292005A61114B80221201B1
S31508007CEC9A610F4B2022DA610D4B00221A620C4B5B
S31508007CFC180002F02BFA031E01D0FEF713FD7B6861
S31508007D0C074A1A65064B7A689A62C046BD460BB096
S31508007D1C90BDC046002401400010024000040050EB
S31508007D2C580200200800024090B59FB000AF78605A
S31508007D3C6423FB18180014231A00002106F076FD9C
S31508007D4C18243B1918004C231A00002106F06EFD66
S31508007D5C7B681B68624A934251D13B198022920474
S31508007D6C1A603B1900229A643B19180005F042FA6E
S31508007D7C031E01D0FEF7D6FC5A4B1B685A1C594BEE
S31508007D8C1A60584B1B68012B0DD1574BDA6B564BA7
S31508007D9C802149010A43DA63534BDA6B80235B0172
S31508007DAC13407B617B69504B5A6B4F4B02210A433C
S31508007DBC5A634D4B5B6B022213403B613B69642152
S31508007DCC7B18C02292001A607B1802225A607B1814
S31508007DDC01229A607B180022DA607B1803221A614A
S31508007DEC7B18424A1900100003F072FA002200218F
S31508007DFC152002F079F9152002F08BF96BE07B68F7
S31508007E0C1B683B4A934266D118217B188022920440
S31508007E1C1A607B1800229A647B18180005F0EAF998
S31508007E2C031E01D0FEF77EFC2E4B1B685A1C2D4BED
S31508007E3C1A602C4B1B68012B0DD12B4BDA6B2A4B7A
S31508007E4C802149010A43DA63274BDA6B80235B01ED
S31508007E5C1340FB60FB68244B5A6B234B04210A43E3
S31508007E6C5A63214B5B6B04221340BB60BB686424CA
S31508007E7C3B1904221A603B1902225A603B1901224B
S31508007E8C9A603B190022DA603B1903221A613B19E6
S31508007E9C184A1900100003F01BFA21007B18082257
S31508007EAC1A607B1802225A607B1800229A607B188B
S31508007EBC0022DA607B1803221A617B180D4A190016
S31508007ECC100003F005FA00220021152002F00CF927
S31508007EDC152002F01EF9C046BD461FB090BDC0461F
S31508007EEC006400404C0800200010024000040050BA
S31508007EFC006800400008005090B59DB000AF78604F
S31508007F0C5C23FB18180014231A00002106F08EFCBB
S31508007F1C10243B1918004C231A00002106F086FC85
S31508007F2C7B681B68224A93423DD13B1920221A6072
S31508007F3C3B1900229A613B19180005F05BF9031EE0
S31508007F4C01D0FEF7EFFB1B4B5A6B1A4B02210A4367
S31508007F5C5A63184B5B6B02221340FB60FB685C216F
S31508007F6C7B18C0221A607B1812225A607B180122D1
S31508007F7C9A607B180022DA607B1806221A617B1835
S31508007F8C0D4A1900100003F0A3F90A4BDA6B094BDA
S31508007F9C802189030A43DA63064BDA6B80239B0339
S31508007FAC1340BB60BB68C046BD461DB090BDC046FD
S31508007FBC00540040001002400004005090B597B0E1
S31508007FCC00AF78600C243B1918004C231A000021CA
S31508007FDC06F02CFC7B681B68114A93421CD13B1992
S31508007FEC802292031A603B1900229A633B191800E7
S31508007FFC05F000F9031E01D0FEF794FB094B1A6C29
S3150800800C084B802109010A431A64064B1A6C802313
S3150800801C1B011340BB60BB68C046BD4617B090BD7C
S3150800802C002C01400010024090B589B000AF786072
S3150800803C0C243B19180014231A00002106F0F6FB31
S3150800804C7B681B68154A934223D1154B5A6B144B04
S3150800805C01210A435A63124B5B6B01221340BB6026
S3150800806CBB683B19802252001A6021007B18022239
S3150800807C5A607B1800229A607B180022DA607B18FB
S3150800808C02221A617A18A023DB051100180003F0E6
S3150800809C1FF9C046BD4609B090BDC046002C01402C
S315080080AC0010024080B500AFC046FDE780B500AFB2
S315080080BCC046FDE780B500AFC046BD4680BD80B55D
S315080080CC00AFC046BD4680BD80B500AF00F086FE49
S315080080DCC046BD4680BD000080B500AF054B1800F4
S315080080EC02F07AFE044B180002F076FEC046BD4636
S315080080FC80BDC046B80200201C03002080B586B09F
S3150800810C00AF7860144A154BD31A7B617B693B61C7
S3150800811C134B1B68002B02D1114B124A1A60104BD9
S3150800812C1A687B68D3183A699A4207D206F086FB16
S3150800813C03000C221A6001235B4209E0084B1B68FA
S3150800814CFB60074B1A687B68D218054B1A60FB68EC
S3150800815C1800BD4606B080BD004002200004000091
S3150800816C50080020C809002080B500AFC046BD469F
S3150800817C80BD000090B589B000AF02003960FB1DC8
S3150800818C1A703B680D4A0C243819142106F01AFB90
S3150800819CFB1D1B789BB21A1C9200D318DB189BB2DA
S315080081AC19000020FFF70EF905493B1901221800A2
S315080081BCFFF7A2F9C046BD4609B090BD30F40008D9
S315080081CC2C00002080B582B000AF3A60BB1D021CA3
S315080081DC1A803B1D0A1C1A803B1D1A88BB1D1B885E
S315080081EC11001800FFF7EEF804493B680122180045
S315080081FCFFF782F9C046BD4602B080BD2C000020B0
S3150800820C90B58BB002AFF8607A600B23FB180A1C8A
S3150800821C1A7000217868FBF717F8031E02D00123A1
S3150800822C5B4200E00123FB6100217868FBF70CF840
S3150800823C031E04D07B6880221206534000E07B683C
S3150800824CBB61B869FBF7C6FF03007B617869FBF76E
S3150800825CE1FF031C191CB869FBF764FD031C1449E0
S3150800826C181CFBF70DFC031C181CFBF7B3FF0300CB
S3150800827C3B61FB69002B0BDA0B23FB1819787C691D
S3150800828C0C4AF8683B690093230006F09BFA0AE04F
S3150800829C0B23FB1819787C69074AF8683B69009325
S315080082AC230006F08FFAC046BD4609B090BDC046FD
S315080082BC0000204138F4000840F4000890B58FB04F
S315080082CC02AF834B1B78032B06D8814B1B781A00FD
S315080082DC804B9200D35800E07F4BFB627C4B5B884B
S315080082EC1900FB6A7D4A1024381900911A2106F0E8
S315080082FC69FA3B1919000020FFF73CFF744B9B8861
S3150800830C1800FBF787FF031C7549181CFBF7EAF9DD
S3150800831C031C1A1C3B1D0A211800FFF771FF6C4B36
S3150800832C1B7C19003B1D6F4A381900911A2106F05F
S3150800833C49FA3B1919000120FFF71CFF644B1B89EE
S3150800834C1800FBF767FF031C6549181CFBF7CAF9ED
S3150800835C031C1A1C3B1D0A211800FFF751FF3B1D75
S3150800836C614A38191A2106F02DFA594BDB88180080
S3150800837CFBF750FF031C5A49181CFBF7B3F9031CEF
S3150800838C1A1C3B1D0A211800FFF73AFF3819093049
S3150800839C3B1D564A112106F015FA3B191900022005
S315080083ACFFF7E8FE4A4BDA683B1D0A211800FFF76F
S315080083BC27FF3B1D4E4A38191A2106F003FA444B7F
S315080083CC5B8A1800FBF726FF031C4549181CFBF7AC
S315080083DC89F9031C1A1C3B1D0A211800FFF710FF0C
S315080083EC381908303B1D434A122106F0EBF93B19A4
S315080083FC19000320FFF7BEFE354B1B8B1800FBF745
S3150800840C09FF031C3649181CFBF76CF9031C1A1CCC
S3150800841C3B1D0A211800FFF7F3FE3B1D364A381997
S3150800842C1A2106F0CFF92A4BDB8A1800FBF7F2FE65
S3150800843C031C2B49181CFBF755F9031C1A1C3B1D6E
S3150800844C0A211800FFF7DCFE381908303B1D2B4AA9
S3150800845C122106F0B7F93B1919000420FFF78AFE1A
S3150800846C1B4B5B8B1800FBF7D5FE031C1C49181C11
S3150800847CFBF738F9031C1A1C3B1D0A211800FFF7D9
S3150800848CBFFE3B1D1E4A38191A2106F09BF9104BE4
S3150800849C9B8B1800FBF7BEFE031C1149181CFBF737
S315080084AC21F9031C1A1C3B1D0A211800FFF7A8FE0C
S315080084BC381908303B1D134A122106F083F93B196B
S315080084CC19000520FFF756FEC046BD460DB090BDF7
S315080084DC54080020F0FD00087CF4000884F4000819
S315080084EC00007A4498F40008ACF40008B8F40008C4
S315080084FCC4F40008D0F40008DCF40008E4F400081E
