S0120000506F77657253746167652E7372656311
S3150800300000400220BD8F00087D82000885820008E6
S3150800301000000000000000000000000000000000A2
S315080030200000000000000000000000008D8200087B
S31508003030000000000000000097820008A182000836
S315080030400D9000080D9000080D9000080D900008DE
S315080030500D9000080D9000080D9000080D900008CE
S315080030600D9000080D9000080D9000080D900008BE
S315080030700D9000080D9000080D9000080D900008AE
S315080030800D9000080D9000080D9000080D9000089E
S315080030900D900008B18200080D9000080D900008F8
S315080030A00D9000080D9000080D9000080D9000087E
S311080030B00D9000080D9000080D90000817
S315080030BC10B5064C2378002B07D1054B002B02D0F4
S315080030CC044800E000BF0123237010BD1001002046
S315080030DC0000000014F70008044B10B5002B03D0B1
S315080030EC0349044800E000BF10BDC04600000000BC
S315080030FC1401002014F7000803B47146490840006F
S3150800310C4900095E49008E4403BC704700224308F7
S3150800311C8B4274D303098B425FD3030A8B4244D385
S3150800312C030B8B4228D3030C8B420DD3FF220902C7
S3150800313C12BA030C8B4202D31212090265D0030B86
S3150800314C8B4219D300E0090AC30B8B4201D3CB037C
S3150800315CC01A5241830B8B4201D38B03C01A5241BE
S3150800316C430B8B4201D34B03C01A5241030B8B42C0
S3150800317C01D30B03C01A5241C30A8B4201D3CB02AB
S3150800318CC01A5241830A8B4201D38B02C01A524190
S3150800319C430A8B4201D34B02C01A5241030A8B4293
S315080031AC01D30B02C01A5241CDD2C3098B4201D3AB
S315080031BCCB01C01A524183098B4201D38B01C01A29
S315080031CC524143098B4201D34B01C01A52410309A0
S315080031DC8B4201D30B01C01A5241C3088B4201D34F
S315080031ECCB00C01A524183088B4201D38B00C01AFC
S315080031FC524143088B4201D34B00C01A5241411A23
S3150800320C00D20146524110467047FFE701B500202F
S3150800321C00F006F802BDC0460029F7D076E77047DD
S3150800322C7047C046844608006146FFE71FB500F0A4
S3150800323CDFFB002801D40021C8421FBD10B500F0E1
S3150800324C67FB4042013010BD10B500F0D1FB0028D9
S3150800325C01DB002010BD012010BDC04610B500F0E2
S3150800326CC7FB002801DD002010BD012010BDC0469B
S3150800327C10B500F075FB002801DC002010BD0120FC
S3150800328C10BDC04610B500F06BFB002801DA002013
S3150800329C10BD012010BDC0469E2110B5C905041CE1
S315080032ACFFF7F0FF002803D1201C00F093FF10BD98
S315080032BC9E21201CC90500F035FD00F08BFF8023EC
S315080032CC1B069C466044F2E74A02F8B5530ACE46FA
S315080032DC99464B00C90F4746884646004502360EA6
S315080032EC1B0E80B5C40F6F0A9209AD09F11A444535
S315080032FC4BD0002938DD002B00D174E0FF2E00D10D
S3150800330CBEE08023DB041A431B2900DCFDE0013DEB
S3150800331C6B0100D4AFE001256D42AD01AF09380051
S3150800332C01F00EF83B0005388340864200DCD3E0FA
S3150800333CB94D311A1D405A0700D19EE00F22134091
S3150800334C042B00D199E004356B0100D495E0481C98
S3150800335CFE2951D1FF200023C0051843E40720435A
S3150800336CC0BCB946B046F8BD002949D0991B002EF9
S3150800337C72D1002D00D133E14C1E012900D159E13F
S3150800338CFF2900D14CE121006CE0002900DC81E02A
S3150800339C002B55D1002A70D04B1E012900D12BE1E8
S315080033ACFF296DD01B2B50DC190020235B1A10004B
S315080033BC9A40C840531E9A410243AD188023DB0439
S315080033CC1D4200D1ADE0711CFE2EC3D001206A0847
S315080033DC2840924D154005436A0700D08BE01D42E4
S315080033ECB5D1EF0834E0002A47D04B1E012966D028
S315080033FCFF2945D0190087E7C0B2AB015B0AABE7DA
S3150800340CFE239C46701C03006046184200D092E0CE
S3150800341C002E00D0E7E0002D00D119E1002A17D0C4
S3150800342C8023AF1ADB041F4200D142E14446551BE8
S3150800343C00D187E001201D42DFD10021EF0807E00B
S3150800344CFF2E1DD01B2900DC94E031000535EF0852
S3150800345C7B025B0AC8B27FE7FF2B00D1E0E0802035
S3150800346CC00405431B2900DC88E0551E44461E0093
S3150800347C690100D54FE731000435EF08FF29E7D17C
S3150800348C002F00D166E78023DB033B435B02FF205A
S3150800349C5B0A61E7002958D0991B002E00D089E0F9
S315080034AC002D00D19DE04E1E012900D1A4E0FF2974
S315080034BC00D1B6E01B2E00DDB8E0310081E0AA1A77
S315080034CC530100D4AFE09701BF09380000F038FF6C
S315080034DC3B000538834001261D00811B2020013145
S315080034ECCD40411A8B40591E8B411D432AD00021D1
S315080034FC6B0700D1F0E00F232B40042B00D022E7FA
S3150800350C6B0100D523E7EF08A2E720235B1A10000E
S3150800351C9A40C840531E9A410243AD1A6B0100D516
S3150800352CFBE66B0700D1D5E00F2331002B40042BAB
S3150800353C00D008E7A1E7AF1A7B014ED4002F00D0C4
S3150800354CEDE600240020002306E7FE23711C0B423F
S3150800355C21D1002E00D081E0002D00D19FE0002A59
S3150800356C00D1B2E0AB185A0100D4B0E09B0101209F
S3150800357C5B0AF1E68023DB041A4316E720242800AD
S3150800358CC840611A8D4029004C1EA141014344468E
S3150800359C1E00551AC2E7FF2900D1DBE6AF187F08D3
S315080035AC7B0705D00F233D1D3B40042B00D064E759
S315080035BCFF084DE7FF2B34D01B2937DC8020C004CD
S315080035CC054328002026C840711A8D4029004D1E37
S315080035DCA94101431E008D18F0E64446571B9EE68A
S315080035EC4446150049E7002D46D1002A66D18023AA
S315080035FC0024FF20DB03AFE6AA18530113D5074FA7
S3150800360C52081740530744D00F231340042B40D0BD
S3150800361C02213D1D31E7C046FFFFFFFBFFFFFF7D83
S3150800362C44464F462CE70121D70811E70532190005
S3150800363CD7080DE7571B7B0137D5BF01BF093800E3
S3150800364C00F07EFE3B00053883404446013643E7CE
S3150800365C002A00D175E744464F46F9E6002DE0D01E
S3150800366C8023DB03002A17D09F4200D20BE799452B
S3150800367C00D308E74F4606E78023DB03002A0BD066
S3150800368C9F4200D2FFE6994500D3FCE644464F46D6
S3150800369CF9E60221FF08DBE6FF203B435CE6002A3D
S315080036AC00D14FE70021D708D2E644460121FF088E
S315080036BCCEE6002F00D07BE7002443E780234A465A
S315080036CCDB034446FF20134346E60021C0E60021EF
S315080036DCDF08BDE63100D0E601206A0100D58BE68D
S315080036EC2A00DFE7F0B546464F46D6464502C0B532
S315080036FCC30F470098460E1C6D0A3F0E5BD0FF2F72
S3150800370C21D08023ED00DB041D43002399469A46FD
S3150800371C7F3F74027300640A1B0EF60F002B20D031
S3150800372CFF2B43D080220020E400D20414437F3BB5
S3150800373C4246FF1A4B4672400F2B00D99DE0714941
S3150800374C9B00CB589F46002D5AD108239946063B19
S3150800375C74029A467300FF27640A1B0EF60F002B99
S3150800376CDED1002C3BD1012342464946724019430F
S3150800377C0E2918D86448890041588F465346022B9F
S3150800378C00D1B8E0032B6ED042462C00012B40D159
S3150800379C00200024C0052043D2071043E0BCBA46DB
S315080037ACB146A846F0BDFF200024F3E7002C20D133
S315080037BC0223FF3FD8E7002D05D104239946033B86
S315080037CC00279A46A5E7280000F0BAFD7627431F7E
S315080037DC9D4000237F4299469A463F1A99E7200056
S315080037EC00F0AEFD431F9C4076235B421B1A00205B
S315080037FC9EE703234A461A4391460320FC3397E770
S3150800380C0C239946093BFF279A4682E703282CD0B6
S3150800381C320038007F30002847DD630704D00F23B9
S3150800382C2340042B00D00434230103D53800374B2E
S3150800383C80301C40FE28B6DCA401640AC0B2A9E795
S3150800384C80240022FF20E403A4E78023DB031D4227
S3150800385C01D01C420BD08024E4032C43640242465C
S3150800386CFF20640A96E746462C008023DB031C439C
S3150800387C64023200FF20640A8CE76D016001854200
S3150800388C2DD21B230024013F0126290064006D005C
S3150800389C002901DB854201D32D1A3443013B002B49
S315080038ACF3D16B1E9D412C43B3E701231B1A1B2B2B
S315080038BC00DD6DE721009E37D940BC400B00611E28
S315080038CC8C412343590704D00F211940042900D0F1
S315080038DC0433590113D49B0100205C0A5AE71A23B6
S315080038EC01242D1AD0E7981E434258414042320013
S315080038FC0024C0B24EE74246FF2000244AE70120C6
S3150800390C002447E7A8F80008E8F80008FFFFFFF7C7
S3150800391C70B542004E024C0045026D0A120EC30FDA
S3150800392C760A240EC90FFF2A10D0FF2C0CD00120C2
S3150800393CA2420AD1B54208D18B420FD0002A04D133
S3150800394C2800431E984100E0012070BD0120FF2C81
S3150800395CFBD13543F9D14B401800F6E70020F4E7C4
S3150800396C30B5420044024D02C30F4800640A120ED9
S3150800397C6D0A000EC90FFF2A18D0FF280AD0002A94
S3150800398C1ED100280AD1002D29D0002C2DD1480093
S3150800399C013830BD002D25D1002A01D1002CF6D0D6
S315080039AC8B4219D001205B421843F2E7002C19D13F
S315080039BCFF28F7D1002D15D100208B42F2D1E8E76C
S315080039CC0028EFD08B42EDD18242EBDC04DBAC4213
S315080039DCE8D80020AC42DCD258000138D9E7002CD4
S315080039ECD7D0DFE702204042D3E78B42DAD1EEE7A5
S315080039FC30B5420044024D02C30F4800640A120E49
S31508003A0C6D0A000EC90FFF2A17D0FF280AD0002A04
S31508003A1C1BD100280AD1002D1DD0002C2DD1480011
S31508003A2C013811E0002D0ED1002A01D1002CF6D058
S31508003A3C8B420CD15800013806E0002C03D1FF2824
S31508003A4C05D1002D15D0022030BD002806D1012045
S31508003A5C5B421843F8E7002CF6D0F8E78B42F6D110
S31508003A6C8242F4DCE6DBAC42F1D80020AC42EBD265
S31508003A7CE0E700208B42EAD1E6E78B42E7D1F2E792
S31508003A8CF0B54F464646D6464502C0B546000F1C0D
S31508003A9C6D0A360EC40F002E00D1CDE0FF2E72D063
S31508003AAC8023ED00DB041D43002399469A467F3E8E
S31508003ABC7B025B0A98467B001B0EFF0F002B72D00D
S31508003ACCFF2B00D1A9E07F3BF6184B460A2B00DDED
S31508003ADC85E043468022DB00D2041A434B469046C7
S31508003AEC7C400022022B0FDD494601238B40A62180
S31508003AFCC9000B4200D072E0902189000B4200D01D
S31508003B0CDAE08821194267D1280C42462D042D0C7F
S31508003B1C4346290012041B0C120C51435D434243C5
S31508003B2C5843AD180B0C5B199A4203D980225202E2
S31508003B3C9446604409041A04090C52189501691E26
S31508003B4C8D411B0C920E1B1815439B011D431B0123
S31508003B5C00D5CFE030007F30002800DCB1E06B07E1
S31508003B6C0BD00F2332002B40042B06D004352B0127
S31508003B7C03D5803210006A4B1D40FE2864DCAB016D
S31508003B8C5B0AC0B21FE0002D00D08FE008239946CF
S31508003B9C063B9A467B025B0A98467B00FF261B0E61
S31508003BACFF0F002B8CD14346002B5CD14A460133C0
S31508003BBC1A43914613000A2A11DC01227C40022B77
S31508003BCC92DC00200023C0051843E4072043E0BC20
S31508003BDCBA46B146A846F0BD3C0045469246534601
S31508003BEC022B31D0032B11D0012BEAD030008030B8
S31508003BFC721C002866DD6B07B9D00F232B40042BEB
S31508003C0CB4D1B4E70F2A7AD03C0045468023DB03AF
S31508003C1C2B435B02FF205B0AD5E74346FF36002B96
S31508003C2C34D14A46023313430A2BD8DC7C40002A8B
S31508003C3C0AD09946022257E7002D08D10423994643
S31508003C4C033B00269A4633E7FF200023BBE72800F0
S31508003C5C00F076FB7626431F9D4000237642994654
S31508003C6C9A46361A24E7404600F06AFB4B46361A43
S31508003C7C763E0A2BB3DC43460538834098464B46BA
S31508003C8C00227C40022B00DD2EE73DE703234A4643
S31508003C9C1A4313000A2AB5DC01229A40882113001C
S31508003CAC7C400322194200D12EE795E70C2399464E
S31508003CBC093BFF269A46FBE680230024FF20DB03FC
S31508003CCC81E7320001231B1A1B2B00DD79E79E3294
S31508003CDC29009540D9406A1E95410D436B0704D0BF
S31508003CEC0F232B40042B00D004356B0113D5012070
S31508003CFC002368E701236A081D40154376E78023ED
S31508003D0CDB031D4282D042461A4200D07EE73C00B5
S31508003D1CFF20134357E7AB0100205B0A53E7C04665
S31508003D2CFFFFFFF7F8B54746CE464B02460080B56F
S31508003D3CC40F4702580A844648007A0A360EBF0949
S31508003D4C000ECD0F9B09FF286DD001214D40311A6D
S31508003D5CAC423AD0002900DC9CE1002800D19EE058
S31508003D6CFF2E00D188E08022D20413431B2900DCE5
S31508003D7CF6E0013F7A0100D479E001277F42BF01C2
S31508003D8CBB099846404600F0DBFA434605388340A3
S31508003D9C864200DCCCE0B44F311A1F405A0768D073
S31508003DAC0F221340042B64D004377B0161D5481CC1
S31508003DBCFE2900D081E0FF200023C0051843E40744
S31508003DCC2043C0BCB946B046F8BD002900DC79E1F1
S31508003DDC002876D1002B4CD0481E012900D147E18A
S31508003DECFF2949D01B2871DC01001A002020CA4083
S31508003DFC411A8B40591E8B411343FF188023DB0451
S31508003E0C1F4200D1B8E0711CFE2ED4D0012297486F
S31508003E1C3A407F08074017437A0700D096E01F42BE
S31508003E2CC5D1FA0855E03100FF398946002B2CD14B
S31508003E3C01214D40AC4200D1B4E0494600294CD092
S31508003E4C002E00D0F9E0FF21002F00D108E14A1E10
S31508003E5C012900D156E1FF2900D142E11B2A00DCD9
S31508003E6C24E15F1E2C0006007A0100D585E7310097
S31508003E7C0437FA08FF292CD1002A9CD08023DB03AF
S31508003E8C13435B02FF205B0A97E7AC4200D1A7E01D
S31508003E9C002922D0002ED6D062462C00EEE7002B45
S31508003EACE7D0481E012936D0FF29E5D001005DE789
S31508003EBC01203B007A0100D457E1C0B2BB015B0A72
S31508003ECC7BE7FF2ED8D01B2900DC9FE03100053795
S31508003EDCFA0853025B0AC8B26FE7FE20711C084247
S31508003EEC54D1002E00D0B1E0002F00D102E1002BF6
S31508003EFC00D1F9E08021FA1AC9040A4200D13BE143
S31508003F0C0124DF1B2C40002F49D001200F42D5D1AC
S31508003F1C0021FA08DDE7FF1A7B0100D4DEE0BD01BB
S31508003F2CAD09280000F00CFA2B0005388340012651
S31508003F3C2022811B0131521A1F009340CF405A1E72
S31508003F4C93411F432BD000217B07B1D00F233B4055
S31508003F5C042B00D028E77B0100D528E7FA08B8E738
S31508003F6C1A002020CA40411A8B40591E8B41134314
S31508003F7CFF1A7B0100D502E77B0700D10DE10F2361
S31508003F8C31003B40042B00D00EE772E7FA1A904634
S31508003F9C520156D44346002B00D0F3E600240020E9
S31508003FAC00230AE7494600291CD0002E00D002E758
S31508003FBCFF21002F55D04A1E012959D0FF2900D1BF
S31508003FCC90E01B2A00DD91E011003A002025CA403A
S31508003FDC691A8F40791E8F4117430600FF180DE7A3
S31508003FEC002926D1FE20711C084213D1002E00D0C0
S31508003FFC96E0002F00D1B4E0002B75D0FB185A01BF
S3150800400C00D4B2E09B015B0AFD38D6E68022D204C6
S3150800401C1343EAE6FF2900D1CDE6FA1852085307EE
S3150800402C05D00F23171D1340042B00D021E7D20807
S3150800403C4FE7002EBCD0624620E72C00FF20002359
S3150800404CBBE60124DB1B98462C409BE6002F75D15A
S3150800405C002B00D096E080230024FF20DB03ACE67F
S3150800406C2C001F0005E7C046FFFFFFFBFFFFFF7D87
S3150800407CFB185A0100D48DE04A4A5B081A405907C6
S3150800408C00D18CE00F210B400D39042BCFD0022127
S3150800409C171DEEE6002900D11FE7821B1100002E22
S315080040AC00D1D1E68021C9040F43D7E63900202474
S315080040BCD140A21A97407A1E97410F432C0006004E
S315080040CCDF1B56E700298DD0811B002E00D170E727
S315080040DC1B290BDC8022D204174376E70121FA0848
S315080040ECF7E62C006246C7E60021F2E60533010026
S315080040FCDA08EEE6002B00D150E7012400216246CF
S3150800410C2C40E6E6DA1B530132D5920194092000BD
S3150800411C00F016F92300053883402C00012607E722
S3150800412C002FDFD0002B17D08023DB039A4200D256
S3150800413CA4E69C4500D3A1E662469FE6002B0BD06D
S3150800414C8023DB039A4200D298E69C4500D395E679
S3150800415C012462462C4091E68023DB03FF2013439F
S3150800416C2BE60020002B00D127E60021DA08B0E662
S3150800417C2C000121D208ACE6002A00D10EE700215A
S3150800418CD208A6E6802362460124DB03FF201343EC
S3150800419C2C4012E60121DA089BE6310069E6022179
S315080041ACD20896E6FFFFFF7D43024A02400049000B
S315080041BC5B0A520A090E000EFF2806D00020FF29BA
S315080041CC02D1531E9A4110007047FE38002BFBD1C2
S315080041DCF4E7C04641024200C30F490A0020120EFA
S315080041EC7E2A03DD9D2A02DD094A9818704780202D
S315080041FC00040143952A07DC9620821AD1404842CE
S3150800420C002BF3D10800F1E7963A9140F7E7C04640
S3150800421CFFFFFF7F70B5002812D0C317C5185D4085
S3150800422CC40F280000F08CF89E231B1A962B0FDC63
S3150800423C082838D0083885406D026D0AD8B202E0D5
S3150800424C002400200025C0052843E407204370BD40
S3150800425C992B14DC421F95402A0015491140550725
S3150800426C1CD00F252A40042A18D00431CA08490143
S3150800427C15D59F235202181A550AC0B2E3E7020055
S3150800428C29001B3291404A1E91410522121AD5402B
S3150800429C2A000A43064911405507E2D1CA085202B8
S315080042AC550AD8B2CFE76D026D0A8E30CBE7C046F9
S315080042BCFFFFFFFB10B5041E0DD000F041F89E233E
S315080042CC1B1A962B0CDC082834D008388440640258
S315080042DC640AD8B201E000200024C005204310BDB2
S315080042EC992B13DC421F9440144A224061071CD0B8
S315080042FC0F212140042918D00432D408520115D5AF
S3150800430C9F236402181A640AC0B2E6E70200210069
S3150800431C1B3291400A00511E8A410521091ACC40CC
S3150800432C1443064A22406107E2D1D4086402640A9F
S3150800433CD8B2D2E76402640A8E30CEE7FFFFFFFBE1
S3150800434C1C2101231B04984201D3000C10391B0AAB
S3150800435C984201D3000A08391B09984201D300096F
S3150800436C043902A2105C40187047C04604030202C6
S3150800437C01010101000000000000000080B582B0B8
S3150800438C00AF0200FB1D1A70FB1D1B78DAB2642AFB
S3150800439C00D96423DAB2034B1A70C046BD4602B084
S315080043AC80BDC0460000002080B500AF024B1B78CC
S315080043BC1800BD4680BDC0460000002080B582B0FE
S315080043CC00AF0200FB1D1A700A4B1B78002B07D096
S315080043DC084B1B78FA1D12789A4201D2012300E089
S315080043EC00231A1C01231340DBB21800BD4602B089
S315080043FC80BDC04600000020F0B58BB000AF0200AF
S3150800440CBB1D1A803B1D0A1C1A80BB1D1C883B1D34
S3150800441C1B88C8225343FA2291001800FEF776FE31
S3150800442C0300E318FB61354B1A00FB69934201D371
S3150800443C64235EE0324B1A00FB69934201D80023D1
S3150800444C57E000237B6250E01A243B192D4A796AFF
S3150800445C89008A5A1A807B6A591C18203B18294AE3
S3150800446C89008A5A1A803B191B88FA699A4239D8E4
S3150800447C3B181B88FA699A4234D31726BB1921496B
S3150800448C7A6A92008A18023212781A707B6A5A1C57
S3150800449C16257B191B4992008A18023212781A7053
S315080044AC3B181B88FA69D31ABA1911787A19127833
S315080044BC8A1A53433B613B191A883B181B88D31A33
S315080044CCFB607B191C78F9683869FEF71FFE030038
S315080044DCE3183B623B6A642B01D964233B623B6A53
S315080044ECDBB206E07B6A01337B627B6A0A2BABD9AB
S315080044FC00231800BD460BB0F0BDC0467062000024
S3150800450C904C000024F9000880B586B000AF020074
S3150800451CFB1D1A702A4B1B78002B10D1FB1D1B7820
S3150800452C9BB21B029AB2274B1A80274BFA1D12789C
S3150800453C1A70234B01221A70234B1B783CE0FB1D87
S3150800454C1B781B027B611F4B1B881A007B699B1A05
S3150800455C3B613B691B119AB21A4B1B88D3189AB24A
S3150800456C184B1A80174B1B881B0A9AB20F217B18FB
S3150800457C1A707B181B78144A12789B1ABB60BB6896
S3150800458C002B0ADA104B1B78002B13D00E4B1B781A
S3150800459C013BDAB20C4B1A700CE0BB68022B09DD36
S315080045AC094B1B78632B05D8074B1B780133DAB2FA
S315080045BC054B1A70044B1B781800BD4606B080BD17
S315080045CC2C0100202E0100203001002080B500AF00
S315080045DCBFF34F8FC046044B044ADA60BFF34F8FC4
S315080045ECC046C046FDE7C04600ED00E00400FA05EB
S315080045FC80B582B002AF1E4B00225A601C4B80223B
S3150800460C52001A601A4B0822DA60194B80221206DD
S3150800461C1A61174B00225A61154B00229A61144BEA
S3150800462C0022DA61124B00221A6212480023009308
S3150800463C00230022002106F049FA0E4B0022012124
S3150800464C180006F071FCE02319030A4B0022180027
S3150800465C06F06AFC074B180006F068FA064B0122AE
S3150800466C1A72054B0022DA70C046BD4680BDC0469C
S3150800467C5C010020C80200200400002080B582B02E
S3150800468C02AF1E4B00225A601C4B802252001A6045
S3150800469C1A4B0822DA60194B802212061A61174B3C
S315080046AC00225A61154B00229A61144B0022DA61DA
S315080046BC124B00221A621248002300930023002290
S315080046CC002106F003FA0E4B00220121180006F011
S315080046DC2BFCE02319030A4B0022180006F024FCD5
S315080046EC074B180006F022FA064B01221A74054BE2
S315080046FC00225A72C046BD4680BDC046380100200D
S3150800470C2C0300200400002080B584B000AF3A606A
S3150800471CBB1D021C1A807B1D0A1C1A70174B1B7AB0
S3150800472C01225340DBB2002B01D0012322E004F016
S3150800473CE5FC03000A33FB6007E004F0DFFC02002B
S3150800474CFB68934201D2012314E00D4B180006F0C6
S3150800475CDBFB031EF1D0BB1D1A880A4B1A607B1DA6
S3150800476C1A78084BDA603A680649054B180006F0C1
S3150800477C70FA03001800BD4604B080BD0400002082
S3150800478CC80200205C01002080B584B000AF3A60F6
S3150800479CBB1D021C1A807B1D0A1C1A70174B1B7C2E
S315080047AC01225340DBB2002B01D0012322E004F096
S315080047BCA5FC03000A33FB6007E004F09FFC02002B
S315080047CCFB68934201D2012314E00D4B180006F046
S315080047DC9BFB031EF1D0BB1D1A880A4B1A607B1D66
S315080047EC1A78084BDA603A680649054B180006F041
S315080047FC30FA03001800BD4604B080BD0400002042
S3150800480C2C03002038010020F0B585B000AF3A60C3
S3150800481CBB1D021C1A807B1D0A1C1A700F257C19DD
S3150800482C3A687B1D1978BB1D1B881800FFF76CFFAF
S3150800483C030023700E26BC193A687B1D1978BB1D1C
S3150800484C1B881800FFF7A0FF030023707B191B7841
S3150800485C002B03D1BB191B78002B01D0012300E0D8
S3150800486C0023DBB21800BD4605B0F0BD80B586B096
S3150800487C00AFF860B9607A60FA6898235B009A42D0
S3150800488C10D1BB681B78FF2B0CD17B680F22134009
S3150800489C022B07D1854B01221A70844B00225A70C1
S315080048ACFFF794FEFA68A0235B009A4225D11721DC
S315080048BC7B18BA6812781A701623FB18BA685278DD
S315080048CC1A707B181B78022B02D97B1802221A70D5
S315080048DC1622BB181B78642B02D9BB1864221A70D3
S315080048EC734B1722BA1812781A70714B1622BA180B
S315080048FC12785A706E4B01229A70FA684223FF336B
S3150800490C9A4223D11523FB1800221A7016E0BB68AD
S3150800491C1B781A0015203B181B781A411300DAB2BB
S3150800492C3B181B7801210A40D1B2614AD3180A1CDC
S3150800493CDA703B181A783B1801321A701523FB18D3
S3150800494C1B78042BE3D95A4B01221A72FA68A12355
S3150800495C5B009A4219D1BB681A78554B5A72BB68D8
S3150800496C5A78534B9A72BB6802331B781BB21B02DC
S3150800497C1AB2BB6803331B781BB213431BB29AB229
S3150800498C4B4B9A814A4B01229A73FA684423FF339C
S3150800499C9A4211D1BB681B781A000123134002D026
S315080049AC444B01221A70BB681B781A000223134069
S315080049BC02D0404B01225A70FA68A2235B009A4235
S315080049CC2ED1BB681B781BB21B021AB2BB6801330B
S315080049DC1B781BB213431BB29AB2354B1A82BB68AF
S315080049EC02331B781BB21B021AB2BB6803331B7843
S315080049FC1BB213431BB29AB22D4B5A82BB680433B3
S31508004A0C1B781BB21B021AB2BB6805331B781BB288
S31508004A1C13431BB29AB2264B9A82254B01229A75DE
S31508004A2CFA684623FF339A420AD1BB681A78204B98
S31508004A3CDA75BB685A781E4B1A761D4B01225A76C4
S31508004A4CFA68A3235B009A420ED1BB681A78184BF6
S31508004A5C9A76BB685A78164BDA76BB689A78144BF2
S31508004A6C1A77134B01225A77FA684823FF339A426E
S31508004A7C06D1BB681A780E4B9A770D4B0122DA775A
S31508004A8CBB681B78FF2B0DD17B680F221340012BBB
S31508004A9C08D1074B20220121995404F02FFB020060
S31508004AAC054B1A60C046BD4606B080BD0400002002
S31508004ABC80010020A401002034010020F0B599B033
S31508004ACC00AF786039603B68012213405AD0302613
S31508004ADCBB19180008231A0000210AF025F8BB197F
S31508004AEC38243A197868402106F0F8F8031E4BD199
S31508004AFC3B1918683B19DA68BB191900FFF7B6FE9B
S31508004B0C244B9B7801225340DBB2002B3ED10C255B
S31508004B1C7B19180024231A0000210AF005F83B1902
S31508004B2C1A687B191A603B19DA687B19DA602C004B
S31508004B3C7B19802212061A617B681B68164A9342F7
S31508004B4C0CD1164B180006F0DFF9031E1FD0BA1944
S31508004B5C3919124B180006F07CF818E07B681B68AC
S31508004B6C0F4A934213D10F4B180006F0CDF9031ECA
S31508004B7C0DD03023FA180C23F9180A4B180006F036
S31508004B8C68F804E0C04602E0C04600E0C046BD46F0
S31508004B9C19B0F0BD04000020006400402C0300206E
S31508004BAC00680040C802002080B586B000AF786067
S31508004BBC39603A6880231B0313404AD004F09EFAE6
S31508004BCC0300BB607B681B68244A934206D1244BBE
S31508004BDC7B61244B3B61244BFB6005E0234B7B61DB
S31508004BEC234B3B61234BFB603B691B68BA68D31AA2
S31508004BFC214A934205D97B6900221A703B69BA6827
S31508004C0C1A607B691B780133DAB27B691A707B6987
S31508004C1C1B78052B07D9FB6800221A707B681800CD
S31508004C2C05F0AAFF16E07B68180005F0A5FF7B685F
S31508004C3C180005F07BFF7B6800220121180006F09E
S31508004C4C73F9E02319037B680022180006F06CF947
S31508004C5C00E0C046BD4606B080BDC04600640040B4
S31508004C6C07000020080000200C0000200D00002082
S31508004C7C10000020140000201027000080B500AF9B
S31508004C8C04F03CFA0200074B1B68D21AFA235B00A5
S31508004C9C9A4203D9044B202200219954C046BD469A
S31508004CAC80BDC046340100208001002090B585B037
S31508004CBC00AF464B5B7801225340DBB2002B00D089
S31508004CCC7FE00F23FB1800221A700E23FB18002214
S31508004CDC1A700D23FB1800221A700C23FB180022DD
S31508004CEC1A7046E00C243B191A7813005B009B18C3
S31508004CFCDB00374A9B18180000F0B2FF031E18D0C9
S31508004D0C20003B181B7801229A401300D9B20D22B9
S31508004D1CBB18BA1812780A431A703B181B7801226A
S31508004D2C9A401300D9B20F22BB18BA1812780A4344
S31508004D3C1A700C243B191A7813005B009B18DB00BD
S31508004D4C234A9B18180000F077FF031E0BD03B195B
S31508004D5C1B7801229A401300D9B20E22BB18BA1836
S31508004D6C12780A431A700C217B181A787B180132B0
S31508004D7C1A700C23FB181B78042BB3D9154B0E2170
S31508004D8C7A1812785A703B1D0F22BA1812781A70B4
S31508004D9C3B1D7A1812785A703B1D0D22BA181278D8
S31508004DAC9A700C4B1A783B1DDA700A4B5A783B1DD5
S31508004DBC1A713A1DA8235B0005211800FFF724FD7C
S31508004DCC00E0C046BD4605B090BDC04604000020B4
S31508004DDC38000020A8010020F0B587B000AF786035
S31508004DEC2C4B5B7801225340DBB2002B4DD116219C
S31508004DFC7B187A6812881A8014243B197A685288A8
S31508004E0C1A8012257B197A6892881A801026BB1983
S31508004E1C7A68D2881A8008007B181B881B0A9BB2F2
S31508004E2CDAB208217B181A703B181B88DAB27B1881
S31508004E3C5A703B191B881B0A9BB2DAB27B189A70FC
S31508004E4C3B191B88DAB27B18DA707B191B881B0A8C
S31508004E5C9BB2DAB27B181A717B191B88DAB27B18EB
S31508004E6C5A71BB191B881B0A9BB2DAB27B189A714A
S31508004E7CBB191B88DAB27B18DA717A185223FF33FE
S31508004E8C08211800FFF7C0FC00E0C046BD4607B075
S31508004E9CF0BDC0460400002090B585B000AF786020
S31508004EAC1A4B5B7801225340DBB2002B2AD10E2019
S31508004EBC3B187A6812891A800C243B197A6852892D
S31508004ECC1A803B181B881B0A9BB2DAB208217B187E
S31508004EDC1A703B181B88DAB27B185A703B191B8858
S31508004EEC1B0A9BB2DAB27B189A703B191B88DAB28A
S31508004EFC7B18DA707A185623FF3304211800FFF74B
S31508004F0C83FC00E0C046BD4605B090BD04000020F9
S31508004F1C80B586B000AF7860464B5B78012253406B
S31508004F2CDBB2002B00D080E016217B187A689289B8
S31508004F3C1A801423FB187A68D2891A801223FB1854
S31508004F4C7A68128A1A803C4B00221A703A4B5B8894
S31508004F5C7A1812889A4206D2374B1B7801221343C9
S31508004F6CDAB2354B1A70344B9B881422BA1812884D
S31508004F7C9A4206D2304B1B7802221343DAB22E4BD6
S31508004F8C1A702D4BDB881222BA1812889A4206D24E
S31508004F9C294B1B7804221343DAB2274B1A707B6809
S31508004FAC1B7E1800FFF70AFA031E06D0224B1B7845
S31508004FBC08221343DAB2204B1A7016203B181B88AA
S31508004FCC1B0A9BB2DAB208217B181A703B181B888D
S31508004FDCDAB27B185A7014203B181B881B0A9BB232
S31508004FECDAB27B189A703B181B88DAB27B18DA701F
S31508004FFC12203B181B881B0A9BB2DAB27B181A7153
S3150800500C3B181B88DAB27B185A710B4B1A787B182B
S3150800501C9A717B681A7E7B18DA717A18A9235B0059
S3150800502C08211800FFF7F0FB00E0C046BD4606B0A5
S3150800503C80BDC0460400002018000020B0B584B01E
S3150800504C00AF786039601A4B5B7801225340DBB2AB
S3150800505C002B29D117493868FEF712FD031C0E25BB
S3150800506C7C19181CFFF7B6F8030023807B681A7A9C
S3150800507C08217B181A707B685A7A7B185A707B1928
S3150800508C00229B5E1B121BB2DAB27B189A707B1934
S3150800509C1B88DAB27B18DA707A185423FF3304218A
S315080050AC1800FFF7B1FB00E0C046BD4604B0B0BD22
S315080050BC040000200000204180B584B000AF786061
S315080050CC184B5B7801225340DBB2002B26D17B6848
S315080050DC9A7808217B181A707B68DA787B185A70CC
S315080050EC7B681A797B189A707B685A797B18DA7000
S315080050FC7B689A797B181A717B68DA797B185A71EE
S3150800510C7B1800229A717B180022DA717A18AA2366
S3150800511C5B0008211800FFF777FB00E0C046BD4688
S3150800512C04B080BD0400002080B582B000AF1B4BD4
S3150800513C5B7801225340DBB2002B2BD1184B5B88D2
S3150800514C1B0A9BB2DAB23B001A70154B5B88DAB2B3
S3150800515C3B005A70124B9B881B0A9BB2DAB23B0077
S3150800516C9A700F4B9B88DAB23B00DA700C4BDB88D3
S3150800517C1B0A9BB2DAB23B001A71094BDB88DAB20E
S3150800518C3B005A713A00AB235B0006211800FFF767
S3150800519C3BFB00E0C046BD4602B080BD04000020C3
S315080051AC1800002080B584B000AF2B4B5B78012229
S315080051BC5340DBB2002B4BD1284B5B881B0A9BB2A6
S315080051CCDAB208217B181A70244B5B88DAB27B1882
S315080051DC5A70224B9B881B0A9BB2DAB27B189A70C0
S315080051EC1E4B9B88DAB27B18DA701C4BDB881B0AC1
S315080051FC9BB2DAB27B181A71184BDB88DAB27B18B9
S3150800520C5A71164B1B891B0A9BB2DAB27B189A7118
S3150800521C124B1B89DAB27B18DA717A185823FF33CA
S3150800522C08211800FFF7F0FA0C4B5B891B0A9BB296
S3150800523CDAB23B1D1A70094B5B89DAB23B1D5A7000
S3150800524C3A1DAC235B0002211800FFF7DDFA00E0DB
S3150800525CC046BD4604B080BD04000020A80100204D
S3150800526C80B582B000AF154B5B7801225340DBB298
S3150800527C002B1ED1124B0221180006F013FB03005B
S3150800528C1A003B1D1A700E4B0121180006F00AFB7A
S3150800529C03001A003B1D5A70084B9B781A003B1DDD
S315080052AC9A703A1D5A23FF3303211800FFF7ACFAFC
S315080052BC00E0C046BD4602B080BDC04604000020D2
S315080052CC0008005090B585B000AF244B5B780122DE
S315080052DC5340DBB2002B3DD10E217B18204A1A8095
S315080052EC0C203B181F4A1A800A243B19C8221A801C
S315080052FC7B181B881B0A9BB2DAB23B001A707B1808
S3150800530C1B88DAB23B005A703B181B881B0A9BB2E7
S3150800531CDAB23B009A703B181B88DAB23B00DA709B
S3150800532C3B191B881B0A9BB2DAB23B001A713B1954
S3150800533C1B88DAB23B005A713B0006229A713B0075
S3150800534C0022DA713A00AD235B0008211800FFF73A
S3150800535C5BFA00E0C046BD4605B090BD04000020CF
S3150800536C904C00007062000080B500AF03F0C6FEDA
S3150800537C0200054B1A60054B00221A60044B0122E9
S3150800538C1A70C046BD4680BDB4010020B801002085
S3150800539CBC01002080B582B000AF03F0AFFE03005D
S315080053AC7B600A4B1B687A68D21AFA235B009A420E
S315080053BC05D3074B01221A70044B7A681A60044B02
S315080053CC1B781800BD4602B080BDC046B40100204B
S315080053DCBC01002080B500AF054B00221A70054BA6
S315080053EC1B685A1C034B1A60C046BD4680BDC04696
S315080053FCBC010020B801002080B500AFFFF7CAFF3A
S3150800540C031E03D003F05EFBFFF7E4FFC046BD4660
S3150800541C80BD80B582B000AF78607B681A780021B1
S3150800542C0A40111C16220A431A705A7800210A409F
S3150800543C111C552252420A435A707B6800229A70F4
S3150800544C7B681422DA707B6805221A717B68322213
S3150800545C5A717B682D229A717B680F22DA717B68E8
S3150800546C1A7A00210A40111C782252420A431A72EF
S3150800547C5A7A00210A40111C13220A435A727B6875
S3150800548C9A7A00210A40111C302252420A439A7217
S3150800549CDA7A00210A40111C07220A43DA727B6861
S315080054AC1A7B00210A40111C10220A431A735A7BD4
S315080054BC00210A40111C27220A435A737B689A7BDF
S315080054CC00210A40111C782252420A439A73DA7B4D
S315080054DC00210A40111C13220A43DA737B681A7CD2
S315080054EC00210A401A745A7C00210A405A747B68B7
S315080054FC9A7C00210A40111C50220A439A74DA7CC1
S3150800550C00210A40111C46220A43DA747B681A7D6C
S3150800551C00210A40111C50220A431A755A7D002193
S3150800552C0A40111C46220A435A757B689A7D00214B
S3150800553C0A40111C082252420A439A75DA7D002148
S3150800554C0A40111C2A220A43DA757B680A221A7643
S3150800555C7B6802225A767B6801229A767B68282217
S3150800556CDA76C046BD4602B080BD000080B582B072
S3150800557C00AF78607B681A785B781B0213439BB282
S3150800558C044A944663445A425341DBB21800BD465A
S3150800559C02B080BDEA54FFFF80B582B000AF0200AE
S315080055ACBB1D1A803B1D0A1C1A80BB1D1A883B1D85
S315080055BC1B88D3183F2B02DCBB1D1B8804E03B1D44
S315080055CC1B884022D31A9BB21800BD4602B080BD78
S315080055DCF0B58FB004AF04000800BA6019000E25A8
S315080055EC7B19221C1A800C243B19021C1A80BB1D21
S315080055FC0A1C1A800623BB612623FB187A19128803
S3150800560C1A803B191A88BB1D1B88D318002B00DA85
S3150800561C3F339B1199B216203B180E22BA181288E2
S3150800562C8A181A803A182623FB1812881B88D31A4C
S3150800563C9AB21423FB1801321A802423FB18002271
S3150800564C1A8000233B625DE02626BB191A88BB69C3
S3150800565C9A4013001AB20C217B1800201B5E1343C8
S3150800566C1AB21223FB181A8010257C197B181A8873
S3150800567CBB1D1B8811001800FFF78EFF0300238043
S3150800568C24243B191B88BA68D3181222BA18118815
S3150800569C2248FA22920002927A19128801920093F1
S315080056AC02230A00A02106F007FBBB19BA191288B7
S315080056BC01321A800C217B1800221A80BB1DB91DD9
S315080056CC7A19098812888A1A1A803B1939197A198B
S315080056DC098812888A181A800023FB610AE00F4889
S315080056EC64230122A02106F049FD031E06D0FB699E
S315080056FC0133FB61FB69092BF1DD00E0C0463B6A0F
S3150800570C01333B621423FB181B883A6A9A429BDBCB
S3150800571CC046C046BD460BB0F0BDC046900300203F
S3150800572CF0B58FB004AF04000800BA6019000E2556
S3150800573C7B19221C1A800C243B19021C1A80BB1DCF
S3150800574C0A1C1A800623FB612623FB187A19128871
S3150800575C1A803B191A88BB1D1B88D318002B00DA34
S3150800576C3F339B1199B21A203B180E22BA1812888D
S3150800577C8A181A803A182623FB1812881B88D31AFB
S3150800578C9AB21823FB1801321A802423FB1800221C
S3150800579C1A8000233B624AE02626BB191A88FB6945
S315080057AC9A4013001AB20C217B1800201B5E134377
S315080057BC1AB21623FB181A8014257C197B181A881A
S315080057CCBB1D1B8811001800FFF7E6FE030023809B
S315080057DC24243B191B88BA68D3181622BA181188C0
S315080057EC1848FA22920002927A19128801920093AA
S315080057FC02230A00A02106F08DFBBB19BA191288E0
S3150800580C01321A800C217B1800221A80BB1DB91D87
S3150800581C7A19098812888A1A1A803B1939197A1939
S3150800582C098812888A181A803B6A01333B62182346
S3150800583CFB181B883A6A9A42AEDBC046C046BD4680
S3150800584C0BB0F0BD90030020B0B59AB004AF0200BF
S3150800585CBB1D1A8006233B65BB1D1A883B6D9A40F7
S3150800586C4E243B191A800C257B194022FF2118005F
S3150800587C09F05AF93B191A881248FA239B00029325
S3150800588C402301937B1900930223A02106F014FAF6
S3150800589C052003F03DFC00237B650AE009486423D8
S315080058AC0122A02106F06AFC031E06D07B6D01338B
S315080058BC7B657B6D092BF1DD00E0C046C046BD4615
S315080058CC16B0B0BD9003002080B582B000AF3A6028
S315080058DCBB1D021C1A803B1D0A1C1A803A683B1D0C
S315080058EC1988BB1D18881C23FFF772FEC046BD46D7
S315080058FC02B080BD80B582B000AF3A60BB1D021CF9
S3150800590C1A803B1D0A1C1A803A683B1D1988BB1D58
S3150800591C18881C23FFF704FFC046BD4602B080BD9D
S3150800592C80B500AF204B1A681F4B5B681900100036
S3150800593C08F0D2F81C4B5B68002B05D11A4B1B6878
S3150800594C1B6800225A632CE0174B5B68042B05D1A5
S3150800595C154B1B681A680023936322E0124B5B688D
S3150800596C082B05D1104B1B681A680023D36318E063
S3150800597C0D4B5B680C2B05D10B4B1B681A68002367
S3150800598C13640EE0084B5B68102B05D1064B1B689D
S3150800599C1A680023936504E0034B1B681A680023F6
S315080059ACD365C046BD4680BD2000002080B500AF3B
S315080059BC80239900A023DB050122180005F08FFF30
S315080059CCC046BD4680BD80B500AF80239900A02394
S315080059DCDB050022180005F082FFC046BD4680BDD7
S315080059EC80B584B000AF78600A00FB1C1A707B681F
S315080059FC9B7AFA1C12789A4204D27B689A7A7B684C
S31508005A0C5A7203E07B68FA1C12785A727B681B6818
S31508005A1C1B68DB6AFB607B685B7A1A00FB6853437E
S31508005A2C64211800FDF772FB0300BB607B685B689A
S31508005A3C002B05D17B681B681B68BA685A632CE077
S31508005A4C7B685B68042B05D17B681B681A68BB6886
S31508005A5C936322E07B685B68082B05D17B681B681F
S31508005A6C1A68BB68D36318E07B685B680C2B05D196
S31508005A7C7B681B681A68BB6813640EE07B685B68F6
S31508005A8C102B05D17B681B681A68BB68936504E004
S31508005A9C7B681B681A68BB68D365C046BD4604B0EC
S31508005AAC80BD000080B582B000AF786039607B6835
S31508005ABC1B7A022B38D11E4B1B7801225340DBB2C2
S31508005ACC002B16D07B68DB7A1800FEF7F3FB031C59
S31508005ADC191C3868FDF7D6FB031E0AD0144B012295
S31508005AEC1A70FFF763FF7B6864211800FFF778FFCD
S31508005AFC1BE00F4B1B78002B17D07B681B7B180001
S31508005B0CFEF7D8FB031C191C3868FDF79DFB031E12
S31508005B1C0BD0074B00221A70FFF755FF7B68002144
S31508005B2C1800FFF75DFF00E0C046BD4602B080BD19
S31508005B3CBD01002080B582B000AF00F05FF864208C
S31508005B4C03F0E6FA114B1C220021180008F0ECFFB2
S31508005B5C0F4B28220021180008F0E6FF00237B6073
S31508005B6C0CE07A6813005B009B18DB00094A9B184B
S31508005B7C180000F061F87B6801337B607B68042BA6
S31508005B8CEFDDC046C046BD4602B080BDC001002050
S31508005B9CDC0100203800002080B582B000AF7860A8
S31508005BAC7B681B68002B0CD07B689B88002B08D065
S31508005BBC7B6818687B689B880122190005F08FFEA4
S31508005BCC00E0C046BD4602B080BD80B582B000AFCD
S31508005BDC78607B681B68002B0CD07B689B88002B35
S31508005BEC08D07B6818687B689B880022190005F02A
S31508005BFC76FE00E0C046BD4602B080BD80B500AF5B
S31508005C0C094B1800FFF7E1FF084B1800FFF7DDFFFB
S31508005C1C074B1800FFF7D9FF064B1800FFF7D5FFFF
S31508005C2CC046BD4680BDC046380000208000002016
S31508005C3C680000205000002080B582B000AF786064
S31508005C4C7B689A687B689B891900100005F02AFE08
S31508005C5C03005A425341DBB21800BD4602B080BD60
S31508005C6C80B582B000AF78607B681A697B689B8ABE
S31508005C7C1900100005F016FE03005A425341DBB218
S31508005C8C1800BD4602B080BD80B582B000AF786002
S31508005C9C0D4B1B681800FEF70DFB031C0B49181C53
S31508005CACFDF7EEFE031C0A49181CFDF71BFD031C29
S31508005CBC181CFDF7F1FA03009AB27B681A80C046E5
S31508005CCCBD4602B080BDC046DC010020CDCC4C3CA4
S31508005CDCA69B443B80B582B000AF78600D4B5B68E1
S31508005CEC1800FEF7E7FA031C0B49181CFDF7C8FE4B
S31508005CFC031C0A49181CFDF7F5FC031C181CFDF7B8
S31508005D0CCBFA03009AB27B685A80C046BD4602B0ED
S31508005D1C80BDC046DC010020CDCC4C3CA69B443B48
S31508005D2C80B582B000AF78600D4B9B681800FEF703
S31508005D3CC1FA031C0B49181CFDF7A2FE031C0A49E1
S31508005D4C181CFDF7CFFC031C181CFDF7A5FA03005D
S31508005D5C9AB27B689A80C046BD4602B080BDC046E2
S31508005D6CDC010020CDCC4C3CA69B443B80B582B0D4
S31508005D7C00AF78600D4BDB681800FEF79BFA031C26
S31508005D8C0B49181CFDF77CFE031C0A49181CFDF769
S31508005D9CA9FC031C181CFDF77FFA03009AB27B6852
S31508005DACDA80C046BD4602B080BDC046DC01002084
S31508005DBCCDCC4C3CA69B443B80B582B000AF7860FA
S31508005DCC0D4B5B691800FEF775FA031C0B49181C7A
S31508005DDCFDF756FE031C0A49181CFDF783FC031C29
S31508005DEC181CFDF759FA03009AB27B685A81C0460B
S31508005DFCBD4602B080BDC046DC010020CDCC4C3C73
S31508005E0C0AD7A33C80B582B000AF78600D4B1B69EE
S31508005E1C1800FEF74FFA031C0B49181CFDF730FE49
S31508005E2C031C0A49181CFDF75DFC031C181CFDF71E
S31508005E3C33FA03009AB27B681A81C046BD4602B093
S31508005E4C80BDC046DC010020CDCC4C3CA69B443B17
S31508005E5C90B585B000AF7860214B5B6A1800FEF7E9
S31508005E6C29FA041C1E4B5B6A1800FEF723FA031C5E
S31508005E7C191C8B20C005FDF755FF031C191C201C8B
S31508005E8CFDF730FC031C1749181CFDF7F9FD031C1C
S31508005E9CFB601449F868FDF725FC031C181C09F06F
S31508005EACBDFA031C1049181CFDF7EAFD031C0F4923
S31508005EBC181CFDF709FA031C191CFE208005FDF7B2
S31508005ECC11FC031CBB600A49B868FDF72BFF031CC1
S31508005EDC1A1C7B685A61C046BD4605B090BDC046C3
S31508005EECDC01002000401C46631D9B390FCF5B3B31
S31508005EFC3393884380B582B000AF78600A4B9B69B0
S31508005F0C1800FEF7D7F9031C0849181CFDF7B8FD4D
S31508005F1C031C181CFDF7C0F903009AB27B689A811A
S31508005F2CC046BD4602B080BDDC010020A245D24069
S31508005F3C80B582B000AF78600A4BDB691800FEF7B3
S31508005F4CB9F9031C0849181CFDF79AFD031C181C03
S31508005F5CFDF7A2F903009AB27B68DA81C046BD4602
S31508005F6C02B080BDDC0100207D3FC94080B582B0FF
S31508005F7C00AF78600A4B1B6A1800FEF79BF9031CE6
S31508005F8C0849181CFDF77CFD031C181CFDF784F941
S31508005F9C03009AB27B681A82C046BD4602B080BD21
S31508005FACDC0100207D3FC94080B500AF024B034A97
S31508005FBC9A60C046BD4680BD00ED00E00030000882
S31508005FCC80B500AFFFF7F0FF03F01CF800F015F8EA
S31508005FDC00F016FB00F0FEFA00F06EF800F05EF921
S31508005FEC00F0A4F900F0EAF900F028FA01F026F915
S31508005FFCFFF704FE01F02AF9FCE790B595B000AF5F
S3150800600C14243B1918003C231A00002108F08CFDB7
S3150800601C3B1D180010231A00002108F085FD80236B
S3150800602C9B00180006F03AFD3B1902221A603B1930
S3150800603C80225200DA6021007B1800221A617B1834
S3150800604C40225A617B1802221A627B1802225A6273
S3150800605C7B1800229A627B180F22DA627B18802240
S3150800606C92021A637B18802292045A637B18C02208
S3150800607CD2059A637B18180006F050FD031E01D052
S3150800608C00F0CEFB3B1D07221A603B1D02225A600C
S3150800609C3B1D00229A603B1D0022DA603B1D022143
S315080060AC180007F09BF8031E01D000F0B9FBC04698
S315080060BCBD4615B090BD000080B584B000AF3B1D41
S315080060CC18000C231A00002108F02EFD684B694AAB
S315080060DC1A60674B802212065A60654B00229A603A
S315080060EC634B0022DA60624B802212061A61604BFF
S315080060FC08225A615E4B00221A765D4B00225A76AC
S3150800610C5B4B01229A765A4B0122DA61584B0022D4
S3150800611C5A62574B00229A62554B2C2201219954EC
S3150800612C534B802252011A63514B04225A63504B2B
S3150800613C3C22002199544E4B0022DA644C4B180031
S3150800614C03F078F9031E01D000F06AFB3B1D01220F
S3150800615C1A603B1D01225A603A1D454B1100180066
S3150800616C03F0B6FB031E01D000F05AFB3B1D424A56
S3150800617C1A603A1D3E4B1100180003F0A9FB031ECA
S3150800618C01D000F04DFB3B1D3C4A1A603A1D384BBA
S3150800619C1100180003F09CFB031E01D000F040FB15
S315080061AC3B1D374A1A603A1D314B1100180003F093
S315080061BC8FFB031E01D000F033FB3B1D314A1A60DE
S315080061CC3A1D2B4B1100180003F082FB031E01D05D
S315080061DC00F026FB3B1D2C4A1A603A1D244B110075
S315080061EC180003F075FB031E01D000F019FB3B1DCC
S315080061FC264A1A603A1D1E4B1100180003F068FB5C
S3150800620C031E01D000F00CFB3B1D214A1A603A1DF7
S3150800621C174B1100180003F05BFB031E01D000F0AE
S3150800622CFFFA3B1D1B4A1A603A1D114B1100180048
S3150800623C03F04EFB031E01D000F0F2FA3B1D164A82
S3150800624C1A603A1D0A4B1100180003F041FB031E95
S3150800625C01D000F0E5FA064B180003F01BFF031EED
S3150800626C01D000F0DDFAC046BD4604B080BDC0467C
S3150800627C0402002000240140020000040400000867
S3150800628C0800000C10000010400000188000001CCC
S3150800629C00010020000200240004002880B500AF8D
S315080062AC204B214A1A601F4B00225A601D4B0022B4
S315080062BC9A601C4B0022DA601A4B01221A74194B8D
S315080062CC00225A74174B00229A74164B06225A61EE
S315080062DC144B04229A61134B1022DA61114B0322D8
S315080062EC1A62104B01225A620E4B01229A620D4B0E
S315080062FC0122DA620B4B01221A630A4B02225A63F9
S3150800630C084B02229A63074B0022DA63054B1800E6
S3150800631C04F076FA031E01D000F082FAC046BD4698
S3150800632C80BDC046C80200200064004080B500AF9E
S3150800633C204B214A1A601F4B00225A601D4B002223
S3150800634C9A601C4B0022DA601A4B01221A74194BFC
S3150800635C00225A74174B00229A74164B06225A615D
S3150800636C144B04229A61134B1022DA61114B032247
S3150800637C1A62104B01225A620E4B01229A620D4B7D
S3150800638C0122DA620B4B01221A630A4B02225A6368
S3150800639C084B00229A63074B0022DA63054B180058
S315080063AC04F02EFA031E01D000F03AFAC046BD4698
S315080063BC80BDC0462C0300200068004080B500AFA5
S315080063CC1B4B1C4A1A601A4B1B4A5A60184B002264
S315080063DC9A60174B0122DA60154B00221A61144B8E
S315080063EC00225A61124B00229A61114B0022DA6183
S315080063FC0F4B00221A620E4B180005F08DFA031E7D
S3150800640C01D000F00DFA0A4B0021180006F0AEFA7E
S3150800641C031E01D000F004FA054B0021180006F003
S3150800642CF1FA031E01D000F0FBF9C046BD4680BD4B
S3150800643C9003002000540040583D500080B59CB095
S3150800644C00AF6023FB18180010231A00002108F06F
S3150800645C6BFB5423FB1818000C231A00002108F0B8
S3150800646C63FB3823FB1818001C231A00002108F0BC
S3150800647C5BFB3B1D180034231A00002108F054FB63
S3150800648C514B524A1A60504B3B225A604E4B0022D3
S3150800649C9A604D4B4E4ADA604B4B00221A614A4BB6
S315080064AC00225A61484B80229A61474B180007F024
S315080064BC5BFA031E01D000F0B3F960217B18802229
S315080064CC52011A607A18404B1100180007F0F4FCB8
S315080064DC031E01D000F0A4F93B4B180007F09CFAF8
S315080064EC031E01D000F09CF954217B1800221A6077
S315080064FC7B1800225A607B1800229A607A18324B55
S3150800650C1100180008F0CAF9031E01D000F088F92A
S3150800651C38217B1860221A607B1864225A607B1813
S3150800652C00229A607B180022DA607B1800221A6116
S3150800653C7B1800225A617B1800229A617918224B23
S3150800654C0022180007F0B8FB031E01D000F068F90A
S3150800655C3B1D00221A603B1D00225A603B1D00227F
S3150800656C9A603B1D0022DA603B1D00221A613B1D16
S3150800657C802292015A613B1D00229A613B1D002222
S3150800658CDA613B1D00221A623B1D802292045A6274
S3150800659C3B1D00229A623B1D0022DA623B1D00223B
S315080065AC1A633A1D084B1100180008F0EDF9031E82
S315080065BC01D000F035F9044B180001F01BFEC0465B
S315080065CCBD461CB080BDC046E4030020002C01402B
S315080065DCE703000080B582B000AF084B9A6B074BF7
S315080065EC01210A439A63054B9B6B012213407B607E
S315080065FC7B68C046BD4602B080BDC046001002404E
S3150800660C90B58BB000AF14243B19180014231A004C
S3150800661C002108F089FA7C4B5A6B7B4B04210A4300
S3150800662C5A63794B5B6B042213403B613B69764B8F
S3150800663C5A6B754B20210A435A63734B5B6B2022AA
S3150800664C1340FB60FB68704B5A6B6F4B01210A4376
S3150800665C5A636D4B5B6B01221340BB60BB686A4B7C
S3150800666C5A6B694B02210A435A63674B5B6B0222CE
S3150800667C13407B607B68644B5A6B634B08210A4357
S3150800668C5A63614B5B6B082213403B603B685F4B5C
S3150800669C00220121180005F022F9C423D900A023F1
S315080066ACDB050022180005F01AF9594B00221221B5
S315080066BC180005F014F9574B00220821180005F0AC
S315080066CC0EF93B19802292011A603B198822520353
S315080066DC5A603B1900229A603B194C4A1900100063
S315080066EC04F074FF3B1901221A603B1901225A6007
S315080066FC3B1900229A603B190022DA603B19434A7F
S3150800670C1900100004F062FF3B19434A1A603B1942
S3150800671C00225A603B1901229A603B193B4A190020
S3150800672C100004F053FF3B1920221A603B19012272
S3150800673C5A603B1900229A603B190222DA603A1910
S3150800674CA023DB051100180004F040FF21007B187C
S3150800675CC022D2001A600C003B1901225A603B1960
S3150800676C00229A603B190022DA603A19A023DB054D
S3150800677C1100180004F02AFF3B19284A1A603B1925
S3150800678C00225A603B1901229A603B19204A1900CB
S3150800679C100004F01BFF3B1912221A603B19012248
S315080067AC5A603B1900229A603B190022DA603B19A1
S315080067BC174A1900100004F009FF3B1908221A6041
S315080067CC3B1901225A603B1900229A603B19002298
S315080067DCDA603B190F4A1900100004F0F7FE210085
S315080067EC7B1830221A607B1800225A607B1801220B
S315080067FC9A607B18074A1900100004F0E7FEC04699
S3150800680CBD460BB090BDC0460010024000080050B3
S3150800681C000C005000040050020200006D0300003A
S3150800682C80B500AF72B6C046C046FDE780B582B0EB
S3150800683C00AFFB1D00221A7012E0FB1D1978FB1D18
S3150800684C1B784D4A04314900895A4C4A5B00D318C7
S3150800685C02330A1C1A80FB1D1A78FB1D01321A70AA
S3150800686CFB1D1B78042BE8D9434B5A8A444B5A8098
S3150800687C414B9A8A424B9A803F4BDA8A404BDA80D4
S3150800688C3D4B9A783F4B1A723B4B1A793D4B9A7291
S3150800689C394B5A793B4BDA72374B9A79394B1A730F
S315080068AC384B1B7A012B09D1FFF780F8324BDA7873
S315080068BC344B11001800FFF793F80EE0314B1B7A96
S315080068CC022B04D12C4BDA782E4B5A7205E0FFF7C3
S315080068DC7AF8294BDA782B4B5A72BB1D00221A70A0
S315080068EC25E0254BDB791A00BB1D1B781A411300D2
S315080068FC012213400BD0BB1D1A7813005B009B18A2
S3150800690CDB00214A9B181800FFF746F90AE0BB1D65
S3150800691C1A7813005B009B18DB001B4A9B1818009F
S3150800692CFFF753F9BB1D1A78BB1D01321A70BB1D34
S3150800693C1B78042BD5D97B1D00221A700FE07B1D02
S3150800694C1B780D4AD3181A7E7B1D1B78110018006C
S3150800695C02F048F97B1D1A787B1D01321A707B1DD3
S3150800696C1B78022BEBD9044BDB7E1800FDF706FDD2
S3150800697CC046BD4602B080BD30040020A8010020E8
S3150800698C18000020200000203800002090B583B0A5
S3150800699C00AF204B1800FFF777F91E4B1800FFF7CE
S315080069AC99F91C4B1800FFF7BBF91A4B1800FFF79F
S315080069BCDDF9184B1800FFF725FA164B1800FFF7E8
S315080069CCFBF9144B1800FFF795FA124B1800FFF752
S315080069DCAFFA104B1800FFF7C9FA0E4B1800FFF761
S315080069EC37FA0C4B9A890B4B1B88FC1D19001000A7
S315080069FCFDF702FD03002370FB1D1B781800FDF73D
S31508006A0C83FD03001A00034B1A76C046BD4603B035
S31508006A1C90BDC046C001002090B585B000AF424B72
S31508006A2C1A893B1D1A80404B5A893B1D5A803E4B8E
S31508006A3CDA883B1D9A803C4B5A883B1DDA803A4BC8
S31508006A4C9A883B1D1A81394B00225A700F23FB1862
S31508006A5C00221A701FE00F243B191A7813005B00EA
S31508006A6C9B18DB00324A9B181800FFF7E5F8031E43
S31508006A7C0BD02E4B5A783B191B78012199400B00E9
S31508006A8CDBB21343DAB2294B5A700F217B181A78EA
S31508006A9C7B1801321A700F23FB181B78042BDAD9D2
S31508006AAC0E23FB1800221A7034E00E203B181B78B4
S31508006ABC1E4A5B00D31802331B88002B24D03B18C4
S31508006ACC1A783B1D5200D25A3B181B7817495B00A3
S31508006ADCCB1802331B889A4216D9144B1A783B18D2
S31508006AEC1B78012199400B00DBB21343DAB20F4B2A
S31508006AFC1A703B181A7813005B009B18DB000C4ABB
S31508006B0C9B181800FFF761F80E217B181A787B186A
S31508006B1C01321A700E23FB181B78042BC5D9C046F4
S31508006B2CC046BD4605B090BDC0010020A801002096
S31508006B3C3800002080B500AF164B00221A70164B91
S31508006B4C9A89144B5B889A4206D2124B1B780122FF
S31508006B5C1343DAB20F4B1A700F4BDA890D4B9B881D
S31508006B6C9A4206D20B4B1B7802221343DAB2094B14
S31508006B7C1A70094B1A8A074BDB889A4206D2054BC0
S31508006B8C1B7804221343DAB2024B1A70C046BD4670
S31508006B9C80BDC04618000020C001002090B583B007
S31508006BAC00AFD54B9B78002B1ED0D34B00229A7086
S31508006BBCD14B1A78D14B1A72CF4B5A78CF4B5A7293
S31508006BCCCE4B1B7A012B09D1FEF7F0FECB4B5A7A2A
S31508006BDCCA4B11001800FEF703FF05E0C74B1B7ADA
S31508006BEC002B01D1FEF7EFFEC34B1B7A002B33D0DB
S31508006BFCC14B00221A72FB1D00221A7028E0FB1DDD
S31508006C0C1B78042B1ED0FB1D1B78BB4AD318DB78CC
S31508006C1C002B0BD0FB1D1A7813005B009B18DB00AE
S31508006C2CB74A9B181800FEF7B7FF0CE0FB1D1A783D
S31508006C3C13005B009B18DB00B14A9B181800FEF783
S31508006C4CC4FF00E0C046FB1D1A78FB1D01321A7002
S31508006C5CFB1D1B78042BD2D9A74B9B7B002B5ED034
S31508006C6CA54B00229A73A44B9B7A012B2BD1BB1DE7
S31508006C7C00221A7022E0BB1D1B78042B18D09E4BE1
S31508006C8C5B7AFF2B09D09C4B5B7A1A00BB1D1B78D1
S31508006C9CDA401300012213400BD0BB1D1B78964A11
S31508006CAC9189984A5B00D31802330A1C1A8000E0B3
S31508006CBCC046BB1D1A78BB1D01321A70BB1D1B784A
S31508006CCC042BD8D92BE08C4B9B7A022B27D17B1D16
S31508006CDC00221A7019E08B4B1B781A007B1D1B7847
S31508006CECDA401300012213400AD07B1D1A781300D0
S31508006CFC5B009B18DB00824A9B181800FEF74CFFBA
S31508006D0C7B1D1A787B1D01321A707B1D1B78042B90
S31508006D1CE1D97C4B00225A707A4B00221A70764BBA
S31508006D2C9B7D002B0ED0744B00229A75724B1A8AD7
S31508006D3C754B5A80704B5A8A734B9A806E4B9A8A4B
S31508006D4C714BDA80714B1B78002B00D199E06F4B95
S31508006D5C00221A70694B1A7A6D4B9A70674B5A7ADD
S31508006D6C6B4BDA70654B9A7A694B1A71634BDA7A04
S31508006D7C674B5A71614B1A7B654B9A71644B0022AF
S31508006D8CDA713B1D00221A7028E03B1D1A785C4903
S31508006D9C13005B009B18DB0058583B1D1A785849A2
S31508006DAC13005B009B18DB00CB1804331B881900F7
S31508006DBC04F078FD0300012B0BD1554BDA793B1DFA
S31508006DCC1B78012199400B00DBB21343DAB2504B06
S31508006DDCDA713B1D1A783B1D01321A703B1D1B7864
S31508006DEC042BD2D9FB1C00221A7011E0FB1C1B7851
S31508006DFCFA1C127843495B00CB1802331988444BAA
S31508006E0C04325200D152FB1C1A78FB1C01321A7040
S31508006E1CFB1C1B78042BE9D93B4B5A883C4B5A82F2
S31508006E2C394B9A883A4B9A82374BDA88384BDA823E
S31508006E3CBB1C00221A7010E0BB1C1C78BB1C1B78F0
S31508006E4C180001F0FDFE03001A00314B1B191A76C7
S31508006E5CBB1C1A78BB1C01321A70BB1C1B78022B84
S31508006E6CEAD9FDF7A1FA03001A00294BDA76294B61
S31508006E7C1B78002B05D0264B1A0000210120FEF7A3
S31508006E8C23FD224B5B78002B12D0204B00225A7024
S31508006E9C1F4B1800FEF7BDFA1E4B1B78002B05D0AE
S31508006EAC1B4B1A0000210120FEF70EFDFFF7BEFC56
S31508006EBC114B5B7E002B14D00F4B00225A760E4BCF
S31508006ECCDB7D5A1E9341DBB21A00134B01211800C5
S31508006EDC04F005FD084B1B7E5A1E9341DAB20F4B84
S31508006EEC9A70054B5B7F002B2ED0034B00225A77EA
S31508006EFC7B1C00221A7023E0800100202000002051
S31508006F0C38000020A801002018000020A401002049
S31508006F1C300400204E040020000800500400002015
S31508006F2C7B1C1B78104AD3189A7E7B1C1B78110085
S31508006F3C180001F057FE7B1C1A787B1C01321A705C
S31508006F4C7B1C1B78022BEBD9074BDB7F002B07D05E
S31508006F5C054B0022DA77044B9B7F1800FDF70EFAD7
S31508006F6CC046BD4603B090BD8001002080B582B0F6
S31508006F7C00AF80239B01184A1900100004F092FCFC
S31508006F8C031E25D1642002F0C3F880239B01124A04
S31508006F9C1900100004F086FC031E19D1C046802384
S31508006FAC9B010D4A1900100004F07CFC031EF6D058
S31508006FBC00237B6007E07B689BB21800FEF744FC55
S31508006FCC7B6801337B607A6880239B009A42F2DBEC
S31508006FDCC046BD4602B080BD0008005080B582B0E0
S31508006FEC00AF02F08BF803007B602A4B1B687A68AB
S31508006FFCD31A632B08D9274B7A681A60FFF7C6FC95
S3150800700CFFF70AFDFFF796FD234B5A69234B111C14
S3150800701C1800FEF747FDFFF7C1FD204A1E4B11006D
S3150800702C180001F057FE1E4B1B687A68D21AFA2311
S3150800703C5B009A4223D31A4B7A681A60FDF736FE20
S3150800704C154B1800FDF7C8FE134B1800FDF724FF67
S3150800705C114B1800FDF75CFF0F4B5A690F4B111CAF
S3150800706C1800FDF7EBFF0F4B1800FEF725F8FEF797
S3150800707C5BF8FEF797F8FEF7F3F8FEF723F90A4BD9
S3150800708C1B78002B01D0FEF7B7F9C046BD4602B0F7
S3150800709C80BDC04650040020C001002020000020FE
S315080070AC54040020300400204D04002080B500AFA5
S315080070BCFA235B0041480322A02105F05FF8030080
S315080070CC5A425341DAB23E4B1A703D4B1B78002B91
S315080070DC1BD03C4B1A0000210120FEF70BFC394B48
S315080070EC1800FEF743FA03001A0001235340DBB2DB
S315080070FC002B0ED0334B1800FEF78BF9314B1A00C8
S3150800710C00210120FEF7E0FB03E02E4B1800FEF7EA
S3150800711C80F9FEF70FFDFEF703FCFFF787FB2A4BFA
S3150800712C01225A70FDF7AAFA2849294B0A22180097
S3150800713C02F028FB642001F0EBFFFA235B001F48E2
S3150800714C0322782105F01AF803005A425341DAB2A1
S3150800715C204B1A701F4B1B78002B0AD000F098F89E
S3150800716C01F084FDFA239B00180001F0D1FFFEF70D
S3150800717CFBF8134B1B78002B05D0164B1B78002BF2
S3150800718C01D0012300E00023DAB2A023DB0520217D
S3150800719C180004F0A4FB01F0B1FF02000E4B1A60B4
S315080071AC01F0ACFF02000D4B1A600D4B01221A7050
S315080071BC012001F07FFDC046BD4680BD900300202E
S315080071CC4E0400203004002004000020DC010020BE
S315080071DC040200204D040020500400205404002012
S315080071EC4C04002080B500AFFFF7F8FE064B5B8811
S315080071FC002B05D0054B02221A70022001F05AFD0D
S3150800720CC046BD4680BDC046680800204C04002018
S3150800721C80B500AFFFF7E2FE064B5B88002B05D165
S3150800722C054B01221A70012001F044FDC046BD46EB
S3150800723C80BDC046680800204C04002080B500AF0D
S3150800724CFDF7D6F9C046BD4680BD000080B500AF37
S3150800725CFDF714FDFFF78AFE0C4B1B78022B0BD09F
S3150800726C0DDC002B02D0012B03D008E0FFF71EFF24
S3150800727C09E0FFF7B7FF06E0FFF7CAFF03E0034B89
S3150800728C00221A70C046C046BD4680BD4C0400207C
S3150800729C80B582B000AF00F0CDFC5B4B5B48012299
S315080072AC782104F06BFF031E01D00023A8E0584B8D
S315080072BC7B6002E07B68013B7B607B68002BF9D125
S315080072CCAE220021782000F035FD202200217820FE
S315080072DC00F030FD10220021782000F02BFDB022A2
S315080072EC0021782000F026FDC8220021782000F025
S315080072FC21FD00220021782000F01CFD102200211F
S3150800730C782000F017FD40220021782000F012FDAD
S3150800731C81220021782000F00DFDFF220021782023
S3150800732C00F008FDA1220021782000F003FDA6221A
S3150800733C0021782000F0FEFCA8220021782000F01D
S3150800734CF9FC3F220021782000F0F4FCA42200214D
S3150800735C782000F0EFFCD3220021782000F0EAFC1C
S3150800736C00220021782000F0E5FCD52200217820A7
S3150800737C00F0E0FCF0220021782000F0DBFCD9229A
S3150800738C0021782000F0D6FC22220021782000F07B
S3150800739CD1FCDA220021782000F0CCFC1222002144
S315080073AC782000F0C7FCDB220021782000F0C2FC14
S315080073BC20220021782000F0BDFC8D2200217820A7
S315080073CC00F0B8FC14220021782000F0B3FCAF22A0
S315080073DC0021782000F0AEFC2E220021782000F047
S315080073ECA9FC002000F04CF800F016F8094B002216
S315080073FC1A80084B00225A80064B01225A71012327
S3150800740C1800BD4602B080BD204E00009003002037
S3150800741CC40900005808002080B582B000AFFB1DD7
S3150800742C00221A7021E0FB1D1B78503BDBB21A00B8
S3150800743C0021782000F07EFC00220021782000F044
S3150800744C79FC10220021782000F074FCFB1D1B78B7
S3150800745CDA010A4BD21880234021782000F0FEFB73
S3150800746CFB1D1A78FB1D01321A70FB1D1B78072BA6
S3150800747CD9D9C046C046BD4602B080BD58040020C6
S3150800748C80B582B000AF0200FB1D1A70FB1D1B787D
S3150800749C002B01D1002300E0FF238022D2000448F0
S315080074AC190007F041FBC046BD4602B080BDC04678
S315080074BC5804002090B583B000AF040008001100F2
S315080074CCBB1D221C1A803B1D021C1A80FB1C0A1CA5
S315080074DC1A70BB1D1B887F2B52D83B1D1B883F2B54
S315080074EC4ED8294B1B79002B06D0FB1C1B785A420D
S315080074FC5341DAB2FB1C1A70FB1C1B78012B1ED1EC
S3150800750CBB1D1A883B1D1B88DB0898B20300DB01E0
S3150800751CD3181E4AD35C5AB23B1D1B8807210B4055
S3150800752C012199400B005BB2134359B2BB1D1A8853
S3150800753C0300DB01D318C9B2144AD15421E0BB1D90
S3150800754C1A883B1D1B88DB0898B20300DB01D3188D
S3150800755C0E4AD35C5BB23A1D128807210A400121F8
S3150800756C91400A0052B2D24352B2134059B2BB1DD3
S3150800757C1A880300DB01D318C9B2044AD15400E0B7
S3150800758CC046BD4603B090BD5808002058040020DC
S3150800759C80B582B000AF0200BB1D1A803B1D0A1CC9
S315080075AC1A80064BBA1D12881A80044B3A1D12888B
S315080075BC5A80C046BD4602B080BDC0465808002059
S315080075CC80B586B000AF39601100FB1D021C1A701D
S315080075DCBB1D0A1C1A703A4B1B881A003B681B7891
S315080075ECD3187F2B07DC364B5B881A003B685B7815
S315080075FCD3183F2B01DD00235DE000237B614AE0B5
S3150800760C3B685A68FB1D1B78203B396849784B4305
S3150800761C19007B69CB185B00D3181B88FB60002309
S3150800762C3B612FE0FA683B699A4080231B021340A2
S3150800763C11D0234B1A883B699BB2D31898B2204BAE
S3150800764C5A887B699BB2D31899B2BB1D1B781A0052
S3150800765CFFF730FF13E01A4B1A883B699BB2D31815
S3150800766C98B2174B5A887B699BB2D31899B2BB1D33
S3150800767C1B785A425341DBB21A00FFF71BFF3B69D2
S3150800768C01333B613B681B781A003B699342C9D3AB
S3150800769C7B6901337B613B685B781A007B69934293
S315080076ACAED3074B1B883A6812789B189AB2044BD0
S315080076BC1A80FB1D1B781800BD4606B080BDC04657
S315080076CC5808002080B584B000AFF860B960FB1D7F
S315080076DC1A7013E0FB681878FB1D1A78BB6819003A
S315080076ECFFF76EFF03001A00FB681B789A4202D05C
S315080076FCFB681B7808E0FB680133FB60FB681B78AA
S3150800770C002BE7D1FB681B781800BD4604B080BD7A
S3150800771CB0B586B000AF05000C0010001900BB1DF3
S3150800772C2A1C1A803B1D221C1A80BB1C021C1A80A0
S3150800773C3B000A1C1A80BB1D1B887F2B02D9BB1D5C
S3150800774C7F221A80BB1C1B887F2B02D9BB1C7F226D
S3150800775C1A803B1D1B883F2B02D93B1D3F221A80E2
S3150800776C3B001B883F2B02D93B003F221A80BA1DCF
S3150800777CBB1C12881B889A4207D2BA1CBB1D1288DE
S3150800778C1B88D31A9BB21BB206E0BA1DBB1C128807
S3150800779C1B88D31A9BB21BB21222BA1813803A1D35
S315080077AC3B0012881B889A4207D23A003B1D128866
S315080077BC1B88D31A9BB21BB206E03A1D3B001288F3
S315080077CC1B88D31A9BB21BB21022BA181380BA1D87
S315080077DCBB1C12881B889A4201D2012201E00123A4
S315080077EC5A420E23FB181A803A1D3B0012881B8836
S315080077FC9A4201D2012201E001235A420C23FB18BA
S3150800780C1A8012217A181023FB180020125E002009
S3150800781C1B5E9A4208DD7B1800229B5E002B00DA61
S3150800782C01335B101BB209E01023FB1800229B5E88
S3150800783C002B00DA01335B105B421BB21622BA1816
S3150800784C13801223FB1800229B5E002B48D13A00AA
S3150800785C3B1D12881B889A420CD208217B183A00C9
S3150800786C12881A803B003A1D12881A803B1D7A181A
S3150800787C12881A80BA1CBB1D12881B889A420CD215
S3150800788C08217B18BA1C12881A80BB1CBA1D1288D0
S3150800789C1A80BB1D7A1812881A801423FB183A1DF5
S315080078AC12881A8013E014243B1919882823FB180C
S315080078BC1A78BB1D1B881800FFF7FCFD21007B18E6
S315080078CC00229B5E9BB201339AB27B181A80142352
S315080078DCFB1800229A5E3B001B889A42E3DDA3E064
S315080078EC1023FB1800229B5E002B48D13A003B1D47
S315080078FC12881B889A420CD208217B183A001288E7
S3150800790C1A803B003A1D12881A803B1D7A18128879
S3150800791C1A80BA1CBB1D12881B889A420CD20821E5
S3150800792C7B18BA1C12881A80BB1CBA1D12881A80BE
S3150800793CBB1D7A1812881A801423FB18BA1D1288D4
S3150800794C1A8013E014243B1918882823FB181A7874
S3150800795C3B1D1B881900FFF7ADFD21007B18002283
S3150800796C9B5E9BB201339AB27B181A801423FB18C0
S3150800797C00229A5EBB1C1B889A42E3DD54E028233E
S3150800798CFB181A783B1D1988BB1D1B881800FFF7B6
S3150800799C91FDBA1DBB1C12881B889A4205D13A1D4B
S315080079AC3B0012881B889A423DD00A203B181621A8
S315080079BC7A1812881A803B1800229A5E1223FB1832
S315080079CC00201B5E5B429A4210DD7B181A88102336
S315080079DCFB181B88D31A9AB27B181A800E23FB182D
S315080079EC1988BB1DBA1D12888A181A800A23FA1818
S315080079FC1023FB180021525E00215B5E9A42BEDA08
S31508007A0C16217B181A881223FB181B88D3189AB2CE
S31508007A1C7B181A800C23FB1819883B1D3A1D1288F3
S31508007A2C8A181A80ABE7C046BD4606B0B0BDB0B5DD
S31508007A3C84B002AF05000C0010001900BB1D2A1CEF
S31508007A4C1A803B1D221C1A80BB1C021C1A803B0088
S31508007A5C0A1C1A80BB1D1B887F2B00D97AE03B1D9C
S31508007A6C1B883F2B00D975E0BB1D1A88BB1C1B88CD
S31508007A7CD3187F2B05DDBB1CBA1D128880218A1AE8
S31508007A8C1A803B1D1A883B001B88D3183F2B05DD33
S31508007A9C3B003A1D128840218A1A1A80BA1DBB1C53
S31508007AAC12881B88D3189AB23B1D1C883B1D198853
S31508007ABCBB1D188818257B191B7800932300FFF724
S31508007ACC27FE3A1D3B0012881B88D31899B2BA1D9B
S31508007ADCBB1C12881B88D3189CB23A1D3B00128813
S31508007AEC1B88D3189AB2BB1D18887B191B78009370
S31508007AFC13002200FFF70CFE3A1D3B0012881B8868
S31508007B0CD3189CB2BB1D1A883B1D1988BB1D188837
S31508007B1C7B191B7800932300FFF7FAFDBA1DBB1CD3
S31508007B2C12881B88D31898B2BA1DBB1C12881B88DE
S31508007B3CD3189CB23A1D3B0012881B88D3189AB2EC
S31508007B4C3B1D19887B191B78009313002200FFF73D
S31508007B5CDFFD00E0C046BD4602B0B0BDB0B586B08C
S31508007B6C02AF05000C0010001900BB1D2A1C1A8058
S31508007B7C3B1D221C1A80BB1C021C1A803B000A1CCB
S31508007B8C1A80BB1D1B887F2B50D83B1D1B883F2B8F
S31508007B9C4CD8BB1D1A88BB1C1B88D3187F2B05DD3C
S31508007BACBB1CBA1D128880218A1A1A803B1D1A889A
S31508007BBC3B001B88D3183F2B05DD3B003A1D12886A
S31508007BCC40218A1A1A800F23FB1800221A7024E007
S31508007BDC0F203B181B789AB23B1D1B88D31899B2F9
S31508007BECBA1DBB1C12881B88D3189CB205003B18FF
S31508007BFC1B789AB23B1D1B88D3189AB2BB1D1888E2
S31508007C0C2023FB181B78009313002200FFF780FD36
S31508007C1C7B191A787B1901321A700F23FB181B78FB
S31508007C2C9BB23A0012889A42D2D200E0C046BD46B0
S31508007C3C04B0B0BD80B582B000AF074B7B6002E0E4
S31508007C4C7B68013B7B607B68002BF9D1C046C0463C
S31508007C5CBD4602B080BDC04690D00300B0B5C6B0D4
S31508007C6C02AF040008003A6019002D4B88256D00F8
S31508007C7C5B19DB19221C1A702A4B2C001B19DB19F1
S31508007C8C021C1A70284B20001B18DB190A1C1A80B8
S31508007C9C264B1B18DB19234A1218D21912781A709C
S31508007CAC1023FF33FB1800221A7014E01020FF3043
S31508007CBC3B181B783A68D2183B181B780133117895
S31508007CCC1A4A882464001219D219D1543B181A7806
S31508007CDC3B1801321A701023FF33FB181B789BB222
S31508007CEC114A882149005218D21912889A42DDD8AD
S31508007CFC0B4B0A009B18DB191B7899B20A4B9B187D
S31508007D0CDB191B8801339BB20C22BA1808480A24C3
S31508007D1C009403F0A7FEC046BD4644B0B0BDC046AD
S31508007D2CF7FEFFFFF6FEFFFFF4FEFFFFFCFEFFFF6C
S31508007D3C9003002090B587B002AF0400080011002C
S31508007D4CFB1D221C1A70BB1D021C1A707B1D0A1CFB
S31508007D5C1A700C203B18BA1D12781A703B187A1D2B
S31508007D6C12785A70FB1D1B7899B23A1804480A23E4
S31508007D7C0093022303F076FEC046BD4605B090BDBF
S31508007D8C9003002080B582B000AF114B1A6C104BD3
S31508007D9C01210A431A640E4B1B6C012213407B60AB
S31508007DAC7B680B4BDA6B0A4B802149050A43DA636D
S31508007DBC074BDA6B80235B0513403B603B68C0239B
S31508007DCCDB00180001F0C8F9C046BD4602B080BDFC
S31508007DDC0010024090B58BB000AF786014243B19A4
S31508007DEC180014231A00002106F09EFE7B681B68F7
S31508007DFC3B4A93426FD13B4B1A6C3A4B8021490351
S31508007E0C0A431A64374B1A6C80235B0313403B6195
S31508007E1C3B69344B5A6B334B01210A435A63314B3A
S31508007E2C5B6B01221340FB60FB682E4B5A6B2D4B88
S31508007E3C02210A435A632B4B5B6B02221340BB602D
S31508007E4CBB683B19DF221A603B1903225A603B199F
S31508007E5C00229A603A19A023DB051100180003F0DA
S31508007E6CB5FB3B1907221A603B1903225A603B19CA
S31508007E7C00229A603B191C4A1900100003F0A6FB55
S31508007E8C1A4B1B4A1A60194B05225A60174B0022CB
S31508007E9C9A60164B0022DA60144B80221A61134B37
S31508007EAC802292005A61114B802212019A610F4B63
S31508007EBC2022DA610D4B00221A620C4B180002F0D4
S31508007ECCC3FA031E01D0FEF7ABFC7B68074A1A659A
S31508007EDC064B7A689A62C046BD460BB090BDC04642
S31508007EEC00240140001002400004005068020020E3
S31508007EFC0800024090B59FB000AF78606423FB1869
S31508007F0C180014231A00002106F00EFE18243B193B
S31508007F1C18004C231A00002106F006FE7B681B6825
S31508007F2C624A934251D13B19802292041A603B193A
S31508007F3C00229A643B19180005F0DAFA031E01D0E0
S31508007F4CFEF76EFC5A4B1B685A1C594B1A60584B59
S31508007F5C1B68012B0DD1574BDA6B564B8021490107
S31508007F6C0A43DA63534BDA6B80235B0113407B615C
S31508007F7C7B69504B5A6B4F4B02210A435A634D4B44
S31508007F8C5B6B022213403B613B6964217B18C02260
S31508007F9C92001A607B1802225A607B1801229A609A
S31508007FAC7B180022DA607B1803221A617B18424A76
S31508007FBC1900100003F00AFB00220021152002F01C
S31508007FCC11FA152002F023FA6BE07B681B683B4A12
S31508007FDC934266D118217B18802292041A607B186A
S31508007FEC00229A647B18180005F082FA031E01D049
S31508007FFCFEF716FC2E4B1B685A1C2D4B1A602C4B85
S3150800800C1B68012B0DD12B4BDA6B2A4B80214901AE
S3150800801C0A43DA63274BDA6B80235B011340FB6058
S3150800802CFB68244B5A6B234B04210A435A63214B96
S3150800803C5B6B04221340BB60BB6864243B190422A7
S3150800804C1A603B1902225A603B1901229A603B19A5
S3150800805C0022DA603B1903221A613B19184A1900E7
S3150800806C100003F0B3FA21007B1808221A607B185B
S3150800807C02225A607B1800229A607B180022DA606A
S3150800808C7B1803221A617B180D4A1900100003F09D
S3150800809C9DFA00220021152002F0A4F9152002F001
S315080080ACB6F9C046BD461FB090BDC0460064004038
S315080080BC60080020001002400004005000680040D0
S315080080CC0008005090B59DB000AF78605C23FB1893
S315080080DC180014231A00002106F026FD10243B195B
S315080080EC18004C231A00002106F01EFD7B681B683D
S315080080FC224A93423DD13B1920221A603B19002291
S3150800810C9A613B19180005F0F3F9031E01D0FEF726
S3150800811C87FB1B4B5A6B1A4B02210A435A63184BA3
S3150800812C5B6B02221340FB60FB685C217B18C02248
S3150800813C1A607B1812225A607B1801229A607B18E7
S3150800814C0022DA607B1806221A617B180D4A190080
S3150800815C100003F03BFA0A4BDA6B094B80218903B2
S3150800816C0A43DA63064BDA6B80239B031340BB6026
S3150800817CBB68C046BD461DB090BDC0460054004005
S3150800818C001002400004005090B597B000AF78601C
S3150800819C0C243B1918004C231A00002106F0C4FCC9
S315080081AC7B681B68114A93421CD13B1980229203A7
S315080081BC1A603B1900229A633B19180005F098F9C6
S315080081CC031E01D0FEF72CFB094B1A6C084B8021B9
S315080081DC09010A431A64064B1A6C80231B011340C7
S315080081ECBB60BB68C046BD4617B090BD002C0140AD
S315080081FC0010024090B589B000AF78600C243B198A
S3150800820C180014231A00002106F08EFC7B681B68E4
S3150800821C154A934223D1154B5A6B144B01210A4329
S3150800822C5A63124B5B6B01221340BB60BB683B194C
S3150800823C802252001A6021007B1802225A607B1891
S3150800824C00229A607B180022DA607B1802221A61D7
S3150800825C7A18A023DB051100180003F0B7F9C046FD
S3150800826CBD4609B090BDC046002C01400010024026
S3150800827C80B500AFC046FDE780B500AFC046FDE748
S3150800828C80B500AFC046BD4680BD80B500AFC046C0
S3150800829CBD4680BD80B500AF00F01EFFC046BD468A
S315080082AC80BD000080B500AF054B180002F012FF28
S315080082BC044B180002F00EFFC046BD4680BDC046F2
S315080082CCC80200202C03002080B586B000AF786069
S315080082DC144A154BD31A7B617B693B61134B1B689C
S315080082EC002B02D1114B124A1A60104B1A687B6884
S315080082FCD3183A699A4207D206F01EFC03000C22E0
S3150800830C1A6001235B4209E0084B1B68FB60074BAC
S3150800831C1A687B68D218054B1A60FB681800BD46AC
S3150800832C06B080BD0040022000040000640800204E
S3150800833CE009002080B500AFC046BD4680BD0000F0
S3150800834C90B589B000AF02003960FB1D1A703B6806
S3150800835C0D4A0C243819142106F0B2FBFB1D1B78A8
S3150800836C9BB21A1C9200D318DB189BB2190000207A
S3150800837CFFF70EF905493B1901221800FFF7A2F978
S3150800838CC046BD4609B090BD2CF700083000002049
S3150800839C80B582B000AF3A60BB1D021C1A803B1D2B
S315080083AC0A1C1A803B1D1A88BB1D1B881100180055
S315080083BCFFF7EEF804493B6801221800FFF782F92B
S315080083CCC046BD4602B080BD3000002090B58BB0CB
S315080083DC02AFF8607A600B23FB180A1C1A7000218E
S315080083EC7868FAF731FF031E02D001235B4200E0DE
S315080083FC0123FB6100217868FAF726FF031E04D0D7
S3150800840C7B6880221206534000E07B68BB61B86922
S3150800841CFBF7E0FE03007B617869FBF7FBFE031CA8
S3150800842C191CB869FBF77EFC031C1449181CFBF7CE
S3150800843C27FB031C181CFBF7CDFE03003B61FB69ED
S3150800844C002B0BDA0B23FB1819787C690C4AF86895
S3150800845C3B690093230006F033FB0AE00B23FB1859
S3150800846C19787C69074AF8683B690093230006F07B
S3150800847C27FBC046BD4609B090BDC046000020414A
S3150800848C34F700083CF7000890B58FB002AF954B4F
S3150800849C1B78032B06D8934B1B781A00924B920029
S315080084ACD35800E0914BFB628E4B5B881900FB6A34
S315080084BC8F4A1024381900911A2106F001FB3B1932
S315080084CC19000020FFF73CFF864B9B881800FBF72A
S315080084DCA1FE031C8749181CFBF704F9031C1A1C7C
S315080084EC3B1D0A211800FFF771FF7E4B5B881A00AB
S315080084FC8023DB01134005D07F4B1B78002B01D062
