S0120000506F77657253746167652E7372656311
S3150800300000400220D54900084D49000855490008E6
S3150800301000000000000000000000000000000000A2
S315080030200000000000000000000000005D490008E4
S315080030300000000000000000674900087149000808
S31508003040254A0008254A0008254A0008254A000896
S31508003050254A0008254A0008254A0008254A000886
S31508003060254A000881490008254A0008254A00081B
S31508003070254A0008254A0008254A0008254A000866
S31508003080254A0008254A0008254A0008254A000856
S31508003090254A0008254A0008254A000899490008D3
S315080030A0254A0008254A0008254A0008254A000836
S311080030B0254A0008254A0008254A0008A1
S315080030BC10B5064C2378002B07D1054B002B02D0F4
S315080030CC044800E000BF0123237010BD0C0000204B
S315080030DC00000000B0B10008044B10B5002B03D05B
S315080030EC0349044800E000BF10BDC04600000000BC
S315080030FC10000020B0B10008002243088B4274D39C
S3150800310C03098B425FD3030A8B4244D3030B8B42CE
S3150800311C28D3030C8B420DD3FF22090212BA030CD7
S3150800312C8B4202D31212090265D0030B8B4219D3B8
S3150800313C00E0090AC30B8B4201D3CB03C01A5241D8
S3150800314C830B8B4201D38B03C01A5241430B8B4220
S3150800315C01D34B03C01A5241030B8B4201D30B0309
S3150800316CC01A5241C30A8B4201D3CB02C01A524130
S3150800317C830A8B4201D38B02C01A5241430A8B42F3
S3150800318C01D34B02C01A5241030A8B4201D30B02DC
S3150800319CC01A5241CDD2C3098B4201D3CB01C01AF6
S315080031AC524183098B4201D38B01C01A5241430900
S315080031BC8B4201D34B01C01A524103098B4201D3EE
S315080031CC0B01C01A5241C3088B4201D3CB00C01A5B
S315080031DC524183088B4201D38B00C01A52414308D3
S315080031EC8B4201D34B00C01A5241411A00D20146F8
S315080031FC524110467047FFE701B5002000F006F86B
S3150800320C02BDC0460029F7D076E770477047C0461E
S3150800321C80B500AF00F064FA00F056FA00F01CF81E
S3150800322CC046BD4680BD80B500AF00F01CF8C04650
S3150800323CBD4680BD80B500AFBFF34F8FC046044B6B
S3150800324C044ADA60BFF34F8FC046C046FDE7C04656
S3150800325C00ED00E00400FA0580B500AF00F00EF9A9
S3150800326CC046BD4680BD80B500AF00F0C7F9C04664
S3150800327CBD4680BD80B500AFFFF7DCFFF0B589B061
S3150800328C00AFF860B9607A601F23FB1800221A7029
S3150800329CFB68784A934200D8E5E0FB68764A934285
S315080032AC00D9E0E0BB68002B00D1DCE07B68002B82
S315080032BC00D1D8E0BB681A89BB689B89D3189AB227
S315080032CC1A23FB1801321A80BB685A89BB68DB893A
S315080032DCD3189AB21823FB1801321A801C23FB1830
S315080032ECBA6892881A80B4E0BB681A681A257B19E2
S315080032FC1B88F9684B439A4200D2B3E0BB681A683C
S3150800330C1C26BB191B8819001000FFF77BFF0B1E28
S3150800331C00D098E0BB681A68BB191B881900100006
S3150800332CFFF7EAFE0300F9681800FFF76BFF0B1EA0
S3150800333C00D088E0BB681A68BB191B8819001000F6
S3150800334CFFF7DAFE0300F9681800FFF7D5FE03004D
S3150800335C1A0016243B191A803A197B1912881B88ED
S3150800336C9A4200D26FE03A191823FB1812881B8868
S3150800337C9A4200D967E03B191B885B0009330A217E
S3150800338C1800FFF7B9FE03001A0014203B181A8020
S3150800339C21007A1804003B1912881B88D31A9AB292
S315080033AC12257B19013A1A80BB681B897A1912886F
S315080033BC9A4248D3BB685B897A1912889A4242D8D2
S315080033CCBB689B893A1912889A423CD3BB68DB893D
S315080033DC3A1912889A4236D87B191B88013364220B
S315080033EC5A437B181B8819001000FFF785FE03004B
S315080033FC1A0011217B181A700A00BB181B78402B6F
S3150800340C21D9BB181B78502B1DD87B68BA19128882
S3150800341C1A807B687A1912885A807B683A1912883E
S3150800342C9A807B689B885B089AB27B68DA807B6893
S3150800343CDB88002B02D17B680122DA801F23FB185C
S3150800344C01221A700FE01C217B181A887B1801328E
S3150800345C1A80BB68DB881C22BA1812889A4200D8D4
S3150800346C42E700E0C0461F23FB181B781800BD4630
S3150800347C09B0F0BD0F27000000127A0080B590B095
S3150800348C02AF594B7B633B1D180008231A00002119
S3150800349C07F052FE554B564A1A60544B180001F069
S315080034AC99F880239B04180006F08CF902000C216D
S315080034BC7B181A607B1801229A807B18802292004E
S315080034CCDA807B1801221A817B18802252005A81D5
S315080034DC7B1801229A817B188022DA813A1D7B1887
S315080034EC44481900FFF7CAFE404B00225A603F4B6E
S315080034FC00229A603D4B0022DA603C4B01221A747A
S3150800350C3A4B01225A74394B00229A743B1D1B887C
S3150800351C1A00364B5A613B1D5B881A00334BDA612D
S3150800352C3B1D9B881A00314B1A623B1DDB881A001F
S3150800353C2E4B9A612D4B01225A622C4B01229A6210
S3150800354C2A4B0122DA62294B01221A637B6B002B68
S3150800355C06DB264B01225A63244B00229A6305E0AC
S3150800356C224B00225A63214B01229A631F4B0022DD
S3150800357CDA631E4B180002F0D5FC7B6B002B04DBC0
S3150800358C1C23FB1800221A6008E01C23FB18802257
S3150800359CD2051A607B6B5B005B087B631C217B186E
S315080035AC00225A607B1800229A607B180122DA6086
S315080035BC7B1800221A617B180F4A5A617A180B4B32
S315080035CC1100180002F014FE084801230093012389
S315080035DC0222022102F069FE044B180002F095FE45
S315080035ECC046BD460EB080BD670600002800002008
S315080035FC0064004020A10700FF07000090B591B0B9
S3150800360C00AF2F4BBB633F23FB1800221A703E24D6
S3150800361C3B1901221A702B4B4021180002F0B2FFFD
S3150800362C031E09D03C193B1D0C22BA18254840210B
S3150800363C02F092FE030023703E23FB181B78002B26
S3150800364C3AD1BB6B002B0EDB0C217B181B68BA6BB3
S3150800365C9A421CD17B185B68002B18D13F23FB18A8
S3150800366C01221A7013E0BB6B5B005B08BB630C2171
S3150800367C7B181B68BA6B9A4209D17B185A68802347
S3150800368CDB059A4203D13F23FB1801221A703F230C
S3150800369CFB181B78012B0FD10C23FB18DA68372182
S315080036AC7B181A703B1D1B78FF2B05D17B181B78D2
S315080036BC022B01D1FFF7DEFDC046BD4611B090BD09
S315080036CC670600002800002080B500AFA023DB05A4
S315080036DC00222021180003F049F9C046BD4680BDDA
S315080036EC80B500AFC046BD4680BD000080B582B02F
S315080036FC00AF78607B6814220021180007F01CFDC7
S3150800370C7B680B4A1A807B680222FF325A807B68D8
S3150800371CE12252025A607B68064A1A817B680022AB
S3150800372C5A817B6803221A73C046BD4602B080BD17
S3150800373CC3A5FFFF8813000080B582B000AF786080
S3150800374C7B681B88044A944663445A425341DBB24D
S3150800375C1800BD4602B080BD3D5AFFFFB0B588B013
S3150800376C00AF7860796808243B191422180007F012
S3150800377C0FFD21007B18124A1A801F257C197B180D
S3150800378C14221900002000F071F8030023707B192D
S3150800379C1B78032B01D100230EE0FA239B0018009B
S315080037AC00F05EF903001A0001235340DBB2002B2C
S315080037BC01D0002300E001231800BD4608B0B0BDB7
S315080037CCC3A5FFFFB0B584B000AF78600F257C1990
S315080037DC7B6814221900002000F096F80300237069
S315080037EC7B191B78032B01D1002323E0FA239B00BA
S315080037FC180000F035F903001A0001235340DBB218
S3150800380C002B01D0002315E07B681800FFF794FF06
S3150800381C03001A0001235340DBB2002B09D07B6846
S3150800382C1800FFF763FF7B681800FFF797FF012363
S3150800383C00E001231800BD4604B0B0BD80B582B0C7
S3150800384C00AF7860064B7A681A60064B00221A702D
S3150800385C054B00221A70C046BD4602B080BDC04654
S3150800386C8C00002090000020A400002080B582B0B7
S3150800387C00AF39601100BB1D021C1A803B1D0A1CC7
S3150800388C1A801E4B1B78012B01D1012332E0BB1D7C
S3150800389C1A883B1D1B88D21880231B029A4201DD0D
S315080038AC032327E0154B01221A70144B3A685A6009
S315080038BC124BBA1D12881A81104B3A1D12885A815E
S315080038CC0E4B01221A73BB1D1B881B0A9BB2DBB25B
S315080038DC1F221340DAB20A4B1A70BB1D1B88DAB2C8
S315080038EC074B5A70074B1868054A0223A02103F0A8
S315080038FC1BF901231800BD4602B080BD90000020BC
S3150800390CA00000208C00002080B582B000AF396082
S3150800391C1100BB1D021C1A803B1D0A1C1A801E4B6B
S3150800392C1B78012B01D1012332E0BB1D1A883B1DE4
S3150800393C1B88D21880231B029A4201DD032327E039
S3150800394C154B01221A70144B3A685A60124BBA1D61
S3150800395C12881A81104B3A1D12885A810E4B002276
S3150800396C1A73BB1D1B881B0A9BB2DBB21F221340A2
S3150800397CDAB20A4B1A70BB1D1B88DAB2074B5A709F
S3150800398C074B1868054A0223A02103F0CDF801233A
S3150800399C1800BD4602B080BD90000020A000002093
S315080039AC8C00002080B500AF084B4022FF21180080
S315080039BC07F0C2FB064B01221A70054B00225A80EF
S315080039CC00F008F801231800BD4680BDA8000020A9
S315080039DCA400002080B582B000AF1C4B5A88802307
S315080039EC9B009A4203D3194B00221A702AE0174BF4
S315080039FC5A88BB1D92011A80154B01221A70144B5A
S31508003A0C144A5A60124BBA1D12881A81104B40225E
S31508003A1C5A810F4B01221A73BB1D1B881B0A9BB2BA
S31508003A2CDBB21F221340DAB20B4B1A70BB1D1B8874
S31508003A3CDAB2094B5A70094B1868074A0223A021B7
S31508003A4C03F072F8BD4602B080BDC046A400002043
S31508003A5C90000020A8000020A00000208C00002068
S31508003A6C80B584B000AF786001F054F80300FB60B1
S31508003A7C09E001F04FF80200FB68D31A7A689A42FB
S31508003A8C01D2002309E0074B1B78012BF1D0054B1B
S31508003A9C1B78023B5A425341DBB21800BD4604B0B0
S31508003AAC80BDC0469000002080B582B000AF78601B
S31508003ABC1D4B1B687A689A4231D11C4B1B7B002B19
S31508003ACC23D01A4B5B89002B0CD0174B1868174B55
S31508003ADC5A68164B5B89A02103F026F8134B002273
S31508003AEC5A811DE0114B02221A70114B1B78002BC0
S31508003AFC16D0052001F018F80D4B5B8801339AB2E5
S31508003B0C0B4B5A80FFF766FF0AE0074B1868074B02
S31508003B1C5A68064B5B89A02103F0B0F800E0C04652
S31508003B2CBD4602B080BDC0468C0000209000002027
S31508003B3CA400002080B582B000AF7860074B1B68E4
S31508003B4C7A689A4206D1064B02221A70044B002256
S31508003B5C5A8100E0C046BD4602B080BD8C000020EC
S31508003B6C9000002080B582B000AF7860064B1B68C9
S31508003B7C7A689A4203D1054B03221A7000E0C046B4
S31508003B8CBD4602B080BDC0468C00002090000020C7
S31508003B9C80B500AF024B034A9A60C046BD4680BD4D
S31508003BAC00ED00E00030000890B58BB000AFFFF7D1
S31508003BBCEFFF00F033FF00F06BF800F081FB00F02C
S31508003BCC61FB00F0C3F800F0B3F900F0F9F900F066
S31508003BDC3FFA00F08BFAFFF71BFB2B4B1800FFF78D
S31508003BEC2DFE14243B191800FFF7ECFD3B191800A1
S31508003BFCFFF7A2FD03001A0001235340DBB2002B8A
S31508003C0C03D03B191800FFF771FDC046FFF7CAFE33
S31508003C1C03001A0001235340DBB2002BF6D11424FF
S31508003C2C3B191800FFF762FD21007B180422FF32AE
S31508003C3C5A807B180A2252425A817B181800FFF7C1
S31508003C4C8DFD3B001800FFF7BDFD00F063FF020079
S31508003C5C0E4B1B68D21AFA235B009A4211D93B0009
S31508003C6C5A8880235B009A4205D9A023DB052021BC
S31508003C7C180002F098FE00F04DFF03001A00034BE3
S31508003C8C1A60FFF7D0FAE0E774020020140300204C
S31508003C9C90B595B000AF14243B1918003C231A00B4
S31508003CAC002107F049FA3B1D180010231A000021C1
S31508003CBC07F042FA80239B00180004F0F1FD3B192B
S31508003CCC02221A603B1980225200DA6021007B1806
S31508003CDC00221A617B1840225A617B1802221A624A
S31508003CEC7B1802225A627B1800229A627B180F22D2
S31508003CFCDA627B18802292021A637B18802292045D
S31508003D0C5A637B18C022D2059A637B18180004F0F4
S31508003D1C13FE031E01D000F09FFB3B1D07221A6001
S31508003D2C3B1D02225A603B1D00229A603B1D002255
S31508003D3CDA603B1D0221180005F05EF9031E01D05E
S31508003D4C00F08AFBC046BD4615B090BD80B584B060
S31508003D5C00AF3B1D18000C231A00002107F0ECF9E4
S31508003D6C684B694A1A60674B802212065A60654B83
S31508003D7C00229A60634B0022DA60624B802212069C
S31508003D8C1A61604B08225A615E4B00221A765D4B0B
S31508003D9C00225A765B4B01229A765A4B0122DA613B
S31508003DAC584B00225A62574B00229A62554B2C22CA
S31508003DBC00219954534B802252011A63514B042209
S31508003DCC5A63504B3C22002199544E4B0022DA641C
S31508003DDC4C4B180001F004F8031E01D000F03CFB14
S31508003DEC3B1D01221A603B1D01225A603A1D454BA8
S31508003DFC1100180001F09CF9031E01D000F02CFBF1
S31508003E0C3B1D424A1A603A1D3E4B1100180001F040
S31508003E1C8FF9031E01D000F01FFB3B1D3C4A1A60AC
S31508003E2C3A1D384B1100180001F082F9031E01D017
S31508003E3C00F012FB3B1D374A1A603A1D314B110034
S31508003E4C180001F075F9031E01D000F005FB3B1DA7
S31508003E5C314A1A603A1D2B4B1100180001F068F90B
S31508003E6C031E01D000F0F8FA3B1D2C4A1A603A1DC5
S31508003E7C244B1100180001F05BF9031E01D000F069
S31508003E8CEBFA3B1D264A1A603A1D1E4B1100180008
S31508003E9C01F04EF9031E01D000F0DEFA3B1D214A53
S31508003EAC1A603A1D174B1100180001F041F9031E50
S31508003EBC01D000F0D1FA3B1D1B4A1A603A1D114B72
S31508003ECC1100180001F034F9031E01D000F0C4FAF1
S31508003EDC3B1D164A1A603A1D0A4B1100180001F0D0
S31508003EEC27F9031E01D000F0B7FA064B180001F0AB
S31508003EFCEDFB031E01D000F0AFFAC046BD4604B078
S31508003F0C80BDC046E80000200024014002000004E1
S31508003F1C040000080800000C1000001040000018EF
S31508003F2C8000001C00010020000200240004002868
S31508003F3C80B500AF204B214A1A601F4B00225A60ED
S31508003F4C1D4B00229A601C4B0022DA601A4B002289
S31508003F5C1A74194B00225A74174B00229A74164B72
S31508003F6C10225A61144B01229A61134B0122DA6111
S31508003F7C114B01221A62104B01225A620E4B012276
S31508003F8C9A620D4B0122DA620B4B01221A630A4B19
S31508003F9C00225A63084B00229A63074B0022DA6305
S31508003FAC054B180001F0BEFF031E01D000F054FAB1
S31508003FBCC046BD4680BDC046AC010020006400402A
S31508003FCC80B500AF204B214A1A601F4B00225A605D
S31508003FDC1D4B00229A601C4B0022DA601A4B0022F9
S31508003FEC1A74194B00225A74174B00229A74164BE2
S31508003FFC10225A61144B01229A61134B0122DA6181
S3150800400C114B01221A62104B01225A620E4B0122E5
S3150800401C9A620D4B0122DA620B4B01221A630A4B88
S3150800402C00225A63084B00229A63074B0022DA6374
S3150800403C054B180001F076FF031E01D000F00CFAB0
S3150800404CC046BD4680BDC046100200200068004030
S3150800405C80B500AF224B1A68214B86210A431A6099
S3150800406C00220521172001F0D9FC172001F0EBFCE2
S3150800407C1C4B1B4A1A601B4B1B4A5A60194B0022D5
S3150800408C9A60184B0122DA60164B00221A61154BFE
S3150800409C00225A61134B00229A61124B0022DA61F4
S315080040AC104B00221A620F4B180002F097FC031EE5
S315080040BC01D000F0D1F90B4B0021180004F058FB85
S315080040CC031E01D000F0C8F9064B0021180004F0B5
S315080040DC9BFB031E01D000F0BFF9C046BD4680BD50
S315080040EC0054004074020020583D500080B59CB026
S315080040FC00AF6023FB18180010231A00002107F0E4
S3150800410C1BF85423FB1818000C231A00002107F07F
S3150800411C13F83823FB1818001C231A00002107F083
S3150800412C0BF83B1D180034231A00002107F004F87D
S3150800413C514B524A1A60504B00225A604E4B002281
S3150800414C9A604D4B4E4ADA604B4B00221A614A4B29
S3150800415C00225A61484B00229A61474B180006F018
S3150800416C53F8031E01D000F077F960217B188022E2
S3150800417C52011A607A18404B1100180006F0FCF927
S3150800418C031E01D000F068F93B4B180006F094F8B2
S3150800419C031E01D000F060F954217B1800221A6026
S315080041AC7B1800225A607B1800229A607A18324BC8
S315080041BC1100180006F0AEFE031E01D000F04CF9F3
S315080041CC38217B1860221A607B1800225A607B18EB
S315080041DC00229A607B180022DA607B1800221A618A
S315080041EC7B1800225A617B1800229A617918224B97
S315080041FC0022180006F0C0F8031E01D000F02CF9B6
S3150800420C3B1D00221A603B1D00225A603B1D0022F2
S3150800421C9A603B1D0022DA603B1D00221A613B1D89
S3150800422C802292015A613B1D00229A613B1D002295
S3150800423CDA613B1D00221A623B1D802292045A62E7
S3150800424C3B1D00229A623B1D0022DA623B1D0022AE
S3150800425C1A633A1D084B1100180006F0D1FE031E0E
S3150800426C01D000F0F9F8044B180000F02BFBC046FF
S3150800427CBD461CB080BDC046C8020020002C0140BB
S3150800428CFFFF000080B582B000AF0C4B9A6B0B4B4E
S3150800429C01210A439A63094B9B6B012213407B60ED
S315080042AC7B6800220021092001F0B8FB092001F0E7
S315080042BCCAFBC046BD4602B080BDC04600100240CF
S315080042CC90B58BB000AF14243B19180014231A00B0
S315080042DC002106F031FF5D4B5A6B5C4B04210A43F7
S315080042EC5A635A4B5B6B042213403B613B69574B31
S315080042FC5A6B564B20210A435A63544B5B6B20224C
S3150800430C1340FB60FB68514B5A6B504B01210A4317
S3150800431C5A634E4B5B6B01221340BB60BB684B4B1D
S3150800432C5A6B4A4B02210A435A63484B5B6B02226F
S3150800433C13407B607B68454B5A6B444B08210A43F8
S3150800434C5A63424B5B6B082213403B603B68404BFD
S3150800435C00228221180002F009FBC423D900A023ED
S3150800436CDB050022180002F001FB3B1980229201A2
S3150800437C1A603B19882252035A603B1900229A602C
S3150800438C3B19334A1900100002F084F93B194122F3
S3150800439C1A603B1900225A603B1900229A603B1995
S315080043AC2B4A1900100002F075F93B1982221A6083
S315080043BC3B1901225A603B1900229A603B190022CC
S315080043CCDA603B19224A1900100002F063F93B190E
S315080043DC20221A603B1901225A603B1900229A6066
S315080043EC3B190222DA603A19A023DB0511001800E2
S315080043FC02F050F921007B18C022D2001A600C007A
S3150800440C3B1901225A603B1900229A603B1900227B
S3150800441CDA603A19A023DB051100180002F03AF904
S3150800442C21007B18C02292001A607B1800225A6061
S3150800443C7B1800229A607B18064A1900100002F0B5
S3150800444C29F9C046BD460BB090BDC04600100240C7
S3150800445C00080050000C005080B500AF72B6C0467C
S3150800446CC046FDE780B582B000AF114B1A6C104BF5
S3150800447C01210A431A640E4B1B6C012213407B6004
S3150800448C7B680B4BDA6B0A4B802149050A43DA63C6
S3150800449C074BDA6B80235B0513403B603B68C023F4
S315080044ACDB00180000F064FBC046BD4602B080BDB8
S315080044BC0010024090B58BB000AF786014243B19FD
S315080044CC180014231A00002106F036FE7B681B68B8
S315080044DC3B4A93426FD13B4B1A6C3A4B80214903AA
S315080044EC0A431A64374B1A6C80235B0313403B61EF
S315080044FC3B69344B5A6B334B01210A435A63314B94
S3150800450C5B6B01221340FB60FB682E4B5A6B2D4BE1
S3150800451C02210A435A632B4B5B6B02221340BB6086
S3150800452CBB683B19DF221A603B1903225A603B19F8
S3150800453C00229A603A19A023DB051100180002F034
S3150800454CA9F83B1907221A603B1903225A603B1932
S3150800455C00229A603B191C4A1900100002F09AF8BE
S3150800456C1A4B1B4A1A60194B05225A60174B002224
S3150800457C9A60164B0022DA60144B80221A61134B90
S3150800458C802252005A61114B802212019A610F4BFC
S3150800459C0022DA610D4B00221A620C4B180001F04E
S315080045AC6FFA031E01D0FFF757FF7B68074A1A6597
S315080045BC064B7A689A62C046BD460BB090BDC0469B
S315080045CC0024014000100240000400504C01002059
S315080045DC0800024090B59FB000AF78606423FB18C2
S315080045EC180014231A00002106F0A6FD18243B19FE
S315080045FC18004C231A00002106F09EFD7B681B68E8
S3150800460C5A4A934249D13B19802292041A603B19A3
S3150800461C00229A643B19180004F098FE031E01D078
S3150800462CFFF71AFF524B1B685A1C514B1A60504B1A
S3150800463C1B68012B0DD14F4BDA6B4E4B8021490170
S3150800464C0A43DA634B4BDA6B80235B0113407B61BD
S3150800465C7B69484B5A6B474B02210A435A63454BB5
S3150800466C5B6B022213403B613B6964217B18C022B9
S3150800467C92001A607B1802225A607B1800229A60F4
S3150800468C7B180022DA607B1803221A617B183A4AD7
S3150800469C1900100001F0FEFF63E07B681B68374ABF
S315080046AC93425ED118217B18802292041A607B18DB
S315080046BC00229A647B18180004F048FE031E01D0E9
S315080046CCFFF7CAFE2A4B1B685A1C294B1A60284B43
S315080046DC1B68012B0DD1274BDA6B264B8021490120
S315080046EC0A43DA63234BDA6B80235B011340FB60C6
S315080046FCFB68204B5A6B1F4B04210A435A631D4B0C
S3150800470C5B6B04221340BB60BB6864243B19042210
S3150800471C1A603B1902225A603B1901229A603B190E
S3150800472C0022DA603B1903221A613B19144A190054
S3150800473C100001F0AFFF21007B1808221A607B18C5
S3150800474C02225A607B1800229A607B180022DA60D3
S3150800475C7B1803221A617B18094A1900100001F00C
S3150800476C99FFC046BD461FB090BDC04600640040C8
S3150800477C1803002000100240000400500068004096
S3150800478C0008005090B59DB000AF78605C23FB180C
S3150800479C180014231A00002106F0CEFC10243B192D
S315080047AC18004C231A00002106F0C6FC7B681B680F
S315080047BC264A934245D13B1920221A603B190022FE
S315080047CC9A613B19180004F0C1FD031E01D0FFF7CE
S315080047DC43FE1F4B5A6B1E4B02210A435A631C4B52
S315080047EC5B6B02221340FB60FB685C217B18C022C2
S315080047FC1A607B1812225A607B1800229A607B1862
S3150800480C0022DA607B1806221A617B18114A1900F5
S3150800481C100001F03FFF0E4BDA6B0D4B802189031C
S3150800482C0A43DA630A4BDA6B80239B031340BB609B
S3150800483CBB6800220321172001F0F0F8172001F0BD
S3150800484C02F9C046BD461DB090BDC0460054004096
S3150800485C001002400004005090B597B000AF786085
S3150800486C0C243B1918004C231A00002106F064FC92
S3150800487C7B681B68114A93421CD13B198022920310
S3150800488C1A603B1900229A633B19180004F05EFD66
S3150800489C031E01D0FFF7E0FD094B1A6C084B80216B
S315080048AC09010A431A64064B1A6C80231B01134030
S315080048BCBB60BB68C046BD4617B090BD002C014016
S315080048CC0010024090B589B000AF78600C243B19F3
S315080048DC180014231A00002106F02EFC7B681B68AE
S315080048EC154A934223D1154B5A6B144B01210A4393
S315080048FC5A63124B5B6B01221340BB60BB683B19B6
S3150800490C802252001A6021007B1802225A607B18FA
S3150800491C00229A607B180022DA607B1802221A6140
S3150800492C7A18A023DB051100180001F0B3FEC04667
S3150800493CBD4609B090BDC046002C0140001002408F
S3150800494C80B500AFC046FDE780B500AFC046FDE7B1
S3150800495C80B500AFC046BD4680BD80B500AFC04629
S3150800496CBD4680BD80B500AF00F0C2F8C046BD4656
S3150800497C80BD000080B500AF034B180001F094F918
S3150800498CC046BD4680BDC0464C01002080B500AF70
S3150800499C094B1B689A69E023DB00134004D0064BCD
S315080049AC180002F001FA03E0034B180002F0E2F9D2
S315080049BCC046BD4680BDC0467402002080B500AF17
S315080049CCC046BD4680BD00000D488546FFF7F6FF7C
S315080049DC0C480D490D4A002302E0D458C450043340
S315080049ECC4188C42F9D30A4A0A4C002301E0136016
S315080049FC0432A242FBD306F0A7FBFFF7D5F8FEE775
S31508004A0C00400220000000200C00002018B300080B
S31508004A1C0C00002020030020FEE7000080B582B0C1
S31508004A2C00AFFB1D00221A700B4B1A680A4B80212B
S31508004A3C49000A431A60002000F010F8031E03D040
S31508004A4CFB1D01221A7001E0FFF70CFDFB1D1B78FC
S31508004A5C1800BD4602B080BD0020024090B585B056
S31508004A6C00AF78600F23FB1800221A701D4B1B78B9
S31508004A7C002B2BD01C4B1C681A4B1B781900FA23DD
S31508004A8C9800FEF739FB030019002000FEF734FBEB
S31508004A9C0300180000F0E7FF031E12D17B68032BF6
S31508004AAC0AD8796801235B420022180000F0B6FF89
S31508004ABC0E4B7A681A600DE00F23FB1801221A7048
S31508004ACC08E00F23FB1801221A7003E00F23FB18CA
S31508004ADC01221A700F23FB181B781800BD4605B067
S31508004AEC90BDC046080000200000002004000020ED
S31508004AFC80B500AF054B1B781A00054B1B68D218FE
S31508004B0C034B1A60C046BD4680BDC046080000204F
S31508004B1C1C03002080B500AF024B1B681800BD466D
S31508004B2C80BDC0461C03002080B584B000AF7860F9
S31508004B3CFFF7F0FF0300BB607B68FB60FB68013383
S31508004B4C05D00A4B1B781A00FB689B18FB60C046FD
S31508004B5CFFF7E0FF0200BB68D31AFA689A42F7D847
S31508004B6CC046C046BD4604B080BDC04608000020FD
S31508004B7C80B582B000AF7860064B1B68064A1340B6
S31508004B8C1900044B7A680A431A60C046BD4602B03F
S31508004B9C80BDC04600000140FFF9FFFF80B582B01A
S31508004BAC00AF786039607B681B68054A1A403B6819
S31508004BBC1A437B681A60C046BD4602B080BDC04623
S31508004BCCFFFF3FFE80B582B000AF78607B681A683D
S31508004BDCE0235B0413401800BD4602B080BD80B5C7
S31508004BEC84B000AFF860B9607A60FB685B69BA6834
S31508004BFC04210A40072191400A00D2431A40BB6897
S31508004C0C04210B40796899400B001A43FB685A61DA
S31508004C1CC046BD4604B080BD80B582B000AF786092
S31508004C2C39607B685B693A6804210A400721914020
S31508004C3C0A001A403B6804210B40DA40130018009E
S31508004C4CBD4602B080BD80B584B000AFF860B960CF
S31508004C5C7A60FB689B6ABA681F210A400F2191404B
S31508004C6C0A00D2431A407B689B0E0F211940BB6879
S31508004C7C1F20034099400B001A43FB689A62C046F2
S31508004C8CBD4604B080BD80B582B000AF786039608F
S31508004C9C7B689A6A3B685B035B0B1A437B689A6270
S31508004CACC046BD4602B080BD80B582B000AF786004
S31508004CBC39607B689B6A3A685203520BD2431A4096
S31508004CCC7B689A62C046BD4602B080BD80B584B08A
S31508004CDC00AFF860B9607A60FB685B69BA68120263
S31508004CECD2431A40BB681B0279680B4004490B4037
S31508004CFC1A43FB685A61C046BD4604B080BDC0461F
S31508004D0C00FFFF0780B582B000AF78607B689B68B0
S31508004D1C054A1340802252051A437B689A60C0469E
S31508004D2CBD4602B080BDC046E8FFFF6F80B582B0B5
S31508004D3C00AF78607B689A6880235B051A408023ED
S31508004D4C5B059A4201D1012300E000231800BD46F9
S31508004D5C02B080BD80B582B000AF78607B689B6876
S31508004D6C044A134002221A437B689A60C046BD4621
S31508004D7C02B080BDE8FFFF7F80B582B000AF7860D7
S31508004D8C7B689B6801221340012B01D1012300E0AB
S31508004D9C00231800BD4602B080BD80B582B000AFB6
S31508004DAC78607B689B6802221340022B01D1012391
S31508004DBC00E000231800BD4602B080BD80B582B065
S31508004DCC00AF78607B689B6804221340042B01D1E2
S31508004DDC012300E000231800BD4602B080BD000088
S31508004DEC80B588B000AF78601F23FB1800221A70B4
S31508004DFC0023BB6100237B610023FB607B68002BCF
S31508004E0C01D101237FE17B689B6D002B0AD17B685E
S31508004E1C1800FFF74FFB7B680022DA657B68542283
S31508004E2C002199547B681B681800FFF77FFF031E47
S31508004E3C15D17B681B681800FFF764FFB44B1B6819
S31508004E4CB4491800FEF758F9030001335B00FB6000
S31508004E5C02E0FB68013BFB60FB68002BF9D17B6821
S31508004E6C1B681800FFF762FF031E0FD17B689B6D4A
S31508004E7C10221A437B689A657B68DB6D01221A43FC
S31508004E8C7B68DA651F23FB1801221A707B681B687E
S31508004E9C1800FFF793FF03003B617B689B6D10229C
S31508004EAC134000D022E13B69002B00D01EE17B6841
S31508004EBC9B6D994A134002221A437B689A657B6854
S31508004ECC1B681800FFF758FF031E00D0ADE07B687F
S31508004EDC9A687B681B7E9B031A437B685B7EDB03A5
S31508004EEC1A437B689B7E5B031A437B681B6B002B00
S31508004EFC02D080235B0100E000231A437B68DB6841
S31508004F0C1A437B681B69002B04DA7B681B695B00F8
S31508004F1C5B0801E080239B031A437B682C215B5CAE
S31508004F2C5B001343BA691343BB617B6820229B5C05
S31508004F3C012B15D17B689B7E002B05D1BB69802282
S31508004F4C52021343BB610BE07B689B6D20221A430C
S31508004F5C7B689A657B68DB6D01221A437B68DA6588
S31508004F6C7B685B6A002B0AD07B685A6AE0235B0075
S31508004F7C1A407B689B6A1343BA691343BB617B6807
S31508004F8C1B68DB68654A134019007B681B68BA699D
S31508004F9C0A43DA607B685B689B0F9A077B68DB6C55
S31508004FAC13437A6913437B617B683C229B5C012B18
S31508004FBC11D17B685B689B0F9A077B681B6C1A433D
S31508004FCC7B685B6C1A437B689B6C1A437B6913433F
S31508004FDC012213437B617B681B681B69504A13408B
S31508004FEC19007B681B687A690A431A617B685A68D8
S31508004FFCC0231B069A4218D07B685A688023DB05A7
S3150800500C9A4212D07B685A6880231B069A420CD0A7
S3150800501C444B1B68444A134019007B685A68F023B2
S3150800502C9B031A403F4B0A431A607B6818687B68D7
S3150800503C5B6B1A000021FFF7D2FD7B6818687B684A
S3150800504C9B6B3A491A00FFF7CAFD7B681B69002B54
S3150800505C09D17B681B689A6A7B681B6810214942D0
S3150800506C0A439A6218E07B681A6980239B039A4262
S3150800507C12D17B681B689B6A7B68DB69013B9B00CA
S3150800508C1C221340102252429A4011007B681A6E59
S3150800509C7B681B680A439A627B681B6800211800A8
S315080050ACFFF7BAFD02007B685B6B9A420BD17B68F3
S315080050BC0022DA657B689B6D0322934301221A430F
S315080050CC7B689A651CE07B689B6D122293431022C1
S315080050DC1A437B689A657B68DB6D01221A437B68E9
S315080050ECDA651F23FB1801221A7009E07B689B6D91
S315080050FC10221A437B689A651F23FB1801221A7023
S3150800510C1F23FB181B781800BD4608B080BDC04687
S3150800511C00000020400D0300FDFEFFFF0102DEFF2C
S3150800512C02FCFF1F08270140FFFFC3FF04FFFF0710
S3150800513C80B586B000AF786039601723FB1800225B
S3150800514C1A700023FB607B6854229B5C012B01D1EF
S3150800515C0223C0E17B685422012199547B681B68A1
S3150800516C1800FFF72BFE031E00D0A3E13B685B6813
S3150800517C022B00D143E17B681A6980231B069A42ED
S3150800518C04D07B681B69C14A934208D17B681A68AC
S3150800519C3B681B6819001000FFF775FDC9E07B68B2
S315080051AC1A6E3B685B681F210B400F2199400B0058
S315080051BCDB43134019003B681B685B035B0B05D18B
S315080051CC3B681B689B0E1F22134098E03B681B68C4
S315080051DC0122134000D091E03B681B680222134061
S315080051EC00D089E03B681B680422134000D081E09C
S315080051FC3B681B680822134000D079E03B681B68A3
S3150800520C1022134000D071E03B681B682022134023
S3150800521C00D069E03B681B684022134000D061E06F
S3150800522C3B681B688022134000D059E03B681A681B
S3150800523C80235B00134051D13B681A6880239B007E
S3150800524C134049D13B681A688023DB00134041D1CF
S3150800525C3B681A6880231B01134039D13B681A68CE
S3150800526C80235B01134031D13B681A6880239B016C
S3150800527C134029D13B681A688023DB01134021D1DE
S3150800528C3B681A6880231B02134019D13B681A68BD
S3150800529C80235B02134011D13B681A6880239B025A
S315080052AC134009D13B681A688023DB02134001D0EE
S315080052BC122324E0002322E0112320E010231EE011
S315080052CC0F231CE00E231AE00D2318E00C2316E01E
S315080052DC0B2314E00A2312E0092310E008230EE03E
S315080052EC07230CE006230AE0052308E0042306E05E
S315080052FC032304E0022302E0012300E000233A68BA
S3150800530C52681F20024093400A001A437B681A66AB
S3150800531C3B685B689B085A1C7B68DB699A4208D811
S3150800532C7B6818683B6859683B681B681A00FFF766
S3150800533C8AFC7B6818683B6819683B689B681A0086
S3150800534CFFF7C4FC3B681B68002B00DBBCE0504B2A
S3150800535C1800FFF737FC03003B613B681B684D4A96
S3150800536C934222D13A6980231B0413401DD13B6911
S3150800537C802212041343464A19001000FFF70EFC4C
S3150800538C454B1B6845491800FDF7B6FE03005A1C29
S3150800539C13005B009B189B00FB6002E0FB68013B5B
S315080053ACFB60FB68002BF9D18EE03B681B683C4A16
S315080053BC93420ED13A6980235B04134009D13B69A9
S315080053CC802252041343324A19001000FFF7E6FBF9
S315080053DC7AE03B681B68334A934200D074E03A691A
S315080053EC8023DB03134000D06EE03B698022D20396
S315080053FC1343274A19001000FFF7D0FB64E07B68BB
S3150800540C1A6980231B069A4204D07B681B691F4ABB
S3150800541C934207D17B681A683B681B681900100011
S3150800542CFFF742FC3B681B68002B4DDA184B18003B
S3150800543CFFF7C8FB03003B613B681B68154A9342A0
S3150800544C08D13B69184A1340114A19001000FFF796
S3150800545CA5FB39E03B681B68114A934208D13B69A6
S3150800546C124A13400A4A19001000FFF797FB2BE063
S3150800547C3B681B680B4A934226D13B690C4A13407E
S3150800548C034A19001000FFF789FB1DE00400008091
S3150800549C08270140001000B000000020400D030052
S315080054AC004000B8002000B4FFFF7FFFFFFFFFFE9F
S315080054BCFFFFBFFF7B689B6D20221A437B689A65AA
S315080054CC1723FB1801221A707B6854220021995461
S315080054DC1723FB181B781800BD4606B080BDC046BE
S315080054EC80B584B000AF78607B681B681800FFF73E
S315080054FC54FC0300FB607B681B681800FFF73CFC38
S3150800550C031E46D0FB68002B43D17B681B689B683F
S3150800551C05221340012B0DD17B681B681800FFF779
S3150800552C19FC7B681B6803221A60FFF7F3FA030061
S3150800553CBB6028E07B689B6D10221A437B689A65D2
S3150800554C7B68DB6D01221A437B68DA65012321E04F
S3150800555CFFF7E0FA0200BB68D31A022B13D97B6853
S3150800556C1B689B68012213400DD07B689B6D10222B
S3150800557C1A437B689A657B68DB6D01221A437B6844
S3150800558CDA65012306E07B681B689B6801221340D9
S3150800559CDED100231800BD4604B080BD80B582B0AC
S315080055AC00AF78607B681A68F0239B0313401800D9
S315080055BCBD4602B080BD80B582B000AF78607B680E
S315080055CC1B699B0F9B071800BD4602B080BD80B5B2
S315080055DC82B000AF786039607B68B4229B587F2212
S315080055EC93431A003B681A437B68B4215A50C04649
S315080055FCBD4602B080BD80B582B000AF78607B68CE
S3150800560CB4229B587F2213401800BD4602B080BDB9
S3150800561C80B582B000AF78607B689B68044A1340FB
S3150800562C01221A437B689A60C046BD4602B080BD0B
S3150800563CE8FFFF7F80B582B000AF78607B689B6817
S3150800564C044A134002221A437B689A60C046BD4638
S3150800565C02B080BDE8FFFF7F80B582B000AF7860EE
S3150800566C7B689B6801221340012B01D1012300E0C2
S3150800567C00231800BD4602B080BD000080B582B07C
S3150800568C00AF78607B689B68054A13408022120637
S3150800569C1A437B689A60C046BD4602B080BDC046B8
S315080056ACE8FFFF7F80B582B000AF78607B689B68A7
S315080056BCDB0FDA0780231B069A4201D1012300E08F
S315080056CC00231800BD4602B080BD000090B58BB013
S315080056DC00AF78600023FB6000233B627B68542292
S315080056EC9B5C012B01D10223DDE07B68542201214E
S315080056FC99541F23FC187B681800FFF7F1FE03006A
S3150800570C23707B681B681800FFF7A6FF031E00D0E2
S3150800571CBCE07B689B6D664A134002221A437B6881
S3150800572C9A657B681B68DB68624A1340BB617B68B9
S3150800573C1B68DA687B681B685F490A40DA600023D5
S3150800574C7B622DE07B681B681800FFF797FF14E057
S3150800575CFB680133FB60FB68584A93420DD97B689A
S3150800576C9B6D1222934310221A437B689A657B68B9
S3150800577C542200219954012395E07B681B68180074
S3150800578CFFF790FF031EE3D17B681B681800FFF731
S3150800579C32FF02003B6A9B183B627B6A01337B62D1
S315080057AC7B6A072BCED9796A386AFDF7A5FC030004
S315080057BC3B627B681B681800FFF72AFF7B681B682F
S315080057CC1800FFF7F8FE031E1BD13D4B1800FFF718
S315080057DCE5FE03007B617A69E0235B039A4210D3EA
S315080057EC7B699B0C033B01229A401300BB60BB6888
S315080057FC5B08BB6002E0BB68013BBB60BB68002B67
S3150800580CF9D17B681B683A6A11001800FFF7DFFEAE
S3150800581C7B681B681800FFF70DFFFFF77BF9030081
S3150800582C3B611BE0FFF776F902003B69D31A022BA2
S3150800583C14D97B681B681800FFF70EFF031E0DD0E2
S3150800584C7B689B6D10221A437B689A657B68DB6DB7
S3150800585C01221A437B68DA65012324E07B681B68FE
S3150800586C1800FFF7F9FE031EDCD17B681B68D968A4
S3150800587C7B681B68BA690A43DA607B689B6D0322EE
S3150800588C934301221A437B689A6505E07B689B6DF6
S3150800589C10221A437B689A657B6854220021995416
S315080058AC1F23FB181B781800BD460BB090BDC046CD
S315080058BCFDFEFFFF03800000FC7FFFFFFFF10200E7
S315080058CC0827014080B582B000AF0200FB1D1A7094
S315080058DCFB1D1B787F2B09D8FB1D1B781A001F2371
S315080058EC1A40044B012191400A001A60C046BD4675
S315080058FC02B080BD00E100E090B583B000AF0200B5
S3150800590C3960FB1D1A70FB1D1B787F2B28D82F4A74
S3150800591CFB1D1B785BB29B08C0339B009B58FA1D7A
S3150800592C1278110003220A40D200FF2191400A0086
S3150800593CD2431A4011003B689B01FF221A40FB1DFB
S3150800594C1B78180003230340DB009A401F48FB1DF5
S3150800595C1B785BB29B080A43C0339B001A5031E094
S3150800596C1B4AFB1D1B7819000F230B40083B9B0891
S3150800597C06339B00D31804331B68FA1D12781100E2
S3150800598C03220A40D200FF2191400A00D2431A4052
S3150800599C11003B689B01FF221A40FB1D1B7818005F
S315080059AC03230340DB009A400948FB1D1B781C00A7
S315080059BC0F232340083B9B080A4306339B00C31856
S315080059CC04331A60C046BD4603B090BD00E100E042
S315080059DC00ED00E080B582B000AF78607B685A1E97
S315080059EC80235B049A4201D3012310E00A4B7A68A0
S315080059FC013A5A6001235B4203211800FFF77CFF2A
S31508005A0C054B00229A60044B07221A6000231800E3
S31508005A1CBD4602B080BDC04610E000E080B584B03B
S31508005A2C00AFB9607A600F217B18021C1A70BA682D
S31508005A3C7B181B785BB211001800FFF75DFFC04698
S31508005A4CBD4604B080BD80B582B000AF0200FB1D18
S31508005A5C1A70FB1D1B785BB21800FFF733FFC046A4
S31508005A6CBD4602B080BD80B582B000AF78607B6859
S31508005A7C1800FFF7AFFF03001800BD4602B080BD43
S31508005A8C80B582B000AF78607B68002B01D101230A
S31508005A9C91E07B681B681A00494B9A4210D87B68C0
S31508005AAC1B68484A9446634414211800FDF724FBE6
S31508005ABC03009A007B685A647B68434A1A640FE0B1
S31508005ACC7B681B68414A9446634414211800FDF709
S31508005ADC13FB03009A007B685A647B683C4A1A6479
S31508005AEC7B682522022199547B681B681A687B6897
S31508005AFC1B6838490A401A607B681B6819687B68FA
S31508005B0C9A687B68DB681A437B681B691A437B684F
S31508005B1C5B691A437B689B691A437B68DB691A4382
S31508005B2C7B681B6A1A437B681B680A431A607B6886
S31508005B3C180000F089F97B689A688023DB019A4281
S31508005B4C02D17B6800225A607B685A687B689B6C1A
S31508005B5C7F210A401A607B68DB6C7A68126D5A6082
S31508005B6C7B685B68002B11D07B685B68042B0DD8AF
S31508005B7C7B68180000F0B2F97B685B6D00221A602E
S31508005B8C7B689B6D7A68D26D5A6008E07B68002248
S31508005B9C5A657B6800229A657B680022DA657B6801
S31508005BAC0022DA637B682522012199547B6824221A
S31508005BBC0021995400231800BD4602B080BDC0468A
S31508005BCC07040240F8FFFDBF00000240F8FBFDBFCA
S31508005BDC000402400F80FFFF80B584B000AF7860E8
S31508005BEC0F217B1800221A707B6825229B5CDBB27E
S31508005BFC022B06D07B680422DA637B1801221A7002
S31508005C0C48E07B681B681A687B681B680E218A4308
S31508005C1C1A607B681B681A687B681B6801218A43B3
S31508005C2C1A607B689B6C1A687B689B6C1D490A40DA
S31508005C3C1A607B685B6C1C221A407B681B6C012102
S31508005C4C91400A005A607B68DB6C7A68126D5A6060
S31508005C5C7B685B6D002B0CD07B685B6D1A687B6868
S31508005C6C5B6D10490A401A607B689B6D7A68D26D29
S31508005C7C5A607B682522012199547B6824220021CD
S31508005C8C99547B689B6B002B04D07B689B6B7A685A
S31508005C9C100098470F23FB181B781800BD4604B054
S31508005CAC80BDC046FFFEFFFF80B584B000AF7860AC
S31508005CBC7B681B6C1B68FB607B681B681B68BB607E
S31508005CCC7B685B6C1C22134004229A401300FA680A
S31508005CDC134026D0BB680422134022D07B681B686D
S31508005CEC1B682022134007D17B681B681A687B68DF
S31508005CFC1B6804218A431A607B685B6C1C221A4059
S31508005D0C7B681B6C042191400A005A607B681B6BEC
S31508005D1C002B00D180E07B681B6B7A6810009847D3
S31508005D2C7AE07B685B6C1C22134002229A401300B3
S31508005D3CFA6813403CD0BB680222134038D07B6803
S31508005D4C1B681B68202213400BD17B681B681A68DA
S31508005D5C7B681B680A218A431A607B682522012105
S31508005D6C99547B681B681A002E4B9A4209D97B6892
S31508005D7C5B6C1C221A402C4B022191400A005A607B
S31508005D8C08E07B685B6C1C221A40284B0221914068
S31508005D9C0A005A607B682422002199547B68DB6AC6
S31508005DAC002B39D07B68DB6A7A681000984733E099
S31508005DBC7B685B6C1C22134008229A401300FA6815
S31508005DCC13402AD0BB680822134026D07B681B6870
S31508005DDC1A687B681B680E218A431A607B685B6CA1
S31508005DEC1C221A407B681B6C012191400A005A60E0
S31508005DFC7B680122DA637B682522012199547B682A
S31508005E0C2422002199547B685B6B002B05D07B6898
S31508005E1C5B6B7A6810009847C046C046BD4604B00E
S31508005E2C80BDC046800002400004024000000240CB
S31508005E3C80B582B000AF78607B6825229B5CDBB2AC
S31508005E4C1800BD4602B080BD80B584B000AF78603E
S31508005E5C7B681B681A001D4B9A4214D87B685B6CCE
S31508005E6C9B089B001A4A9A187B689A647B681B687D
S31508005E7C1A00FF231340083B14211800FDF73CF9C0
S31508005E8C0300FB6014E07B685B6C9B089B00114A63
S31508005E9C9A187B689A647B681B681A00FF23134060
S31508005EAC083B14211800FDF727F903000733FB609C
S31508005EBC7B68094ADA64FB681F22134001229A4060
S31508005ECC7B681A65C046BD4604B080BD070402400F
S31508005EDC000802401C0802408008024080B584B0C5
S31508005EEC00AF78607B685B687F221340FB60FB68B9
S31508005EFC0A4A944663449B001A007B685A657B6879
S31508005F0C074A9A65FB68013B0322134001229A4013
S31508005F1C7B68DA65C046BD4604B080BD3F8200107A
S31508005F2C4009024080B584B000AF78607B68002BCE
S31508005F3C01D101234EE17B685C229B5CDBB2002B12
S31508005F4C07D17B685D22002199547B681800FEF7FF
S31508005F5C41FB7B681B689A697B681B6810218A431E
S31508005F6C9A61FEF7D7FD0300FB6012E0FEF7D2FD3F
S31508005F7C0200FB68D31A0A2B0BD97B681B6E01220D
S31508005F8C1A437B681A667B685C22032199540123A1
S31508005F9C20E17B681B689B6908221340082BE5D017
S31508005FAC7B681B689A697B681B6801210A439A619E
S31508005FBCFEF7B0FD0300FB6012E0FEF7ABFD020036
S31508005FCCFB68D31A0A2B0BD97B681B6E01221A4362
S31508005FDC7B681A667B685C22032199540123F9E0D5
S31508005FEC7B681B689B6901221340E6D07B681B689B
S31508005FFC9A697B681B6802210A439A617B681B684D
S3150800600C764A934203D1764A7B685B6813607B6851
S3150800601C1B7C012B08D17B681B689A697B681B68FB
S3150800602C40218A439A6107E07B681B689A697B68FA
S3150800603C1B6840210A439A617B685B7C012B09D15A
S3150800604C7B681B689A697B681B688021C9010A43AF
S3150800605C9A6107E07B681B689A697B681B686149CB
S3150800606C0A409A617B689B7C012B08D17B681B686C
S3150800607C9A697B681B685C490A409A6108E07B68E8
S3150800608C1B689A697B681B68802149010A439A61D7
S3150800609C7B681B689B69554A134019007B689A688C
S315080060AC7B681B680A439A617B681B689A697B68DC
S315080060BC1B68A4218A439A617B681B681A697B68EA
S315080060CC1B6810218A431A617B68DB68012B08D18F
S315080060DC7B681B689A697B681B6804210A439A616A
S315080060EC2CE07B68DB68002B28D07B68DB68022BEE
S315080060FC1CD07B681B689A697B681B6880210A43DD
S3150800610C9A617B681B681A697B681B6810210A43AD
S3150800611C1A617B68DB68032B10D17B681B689A694C
S3150800612C7B681B6820210A439A6107E07B681B6819
S3150800613C9A697B681B6820210A439A617B689B696C
S3150800614C013B5A067B68DB69013B1B021A437B68D9
S3150800615C1B6A013B1A4311007B685B69013B1A04F5
S3150800616C7B681B680A43DA617B689A68C0239B00C4
S3150800617C9A4215D17B689B6A5A1E7B68DB6A013B7F
S3150800618C1B021A437B681B6B013B1B011A4311004C
S3150800619C7B685B6A013B1A047B681B680A43DA60F6
S315080061AC7B681B68C02299587B68DA6B7B681B680E
S315080061BC0A43C0215A507B68180000F0FFF97B6827
S315080061CC00229A657B6800221A667B685C2201218C
S315080061DC995400231800BD4604B080BD00640040E5
S315080061EC00650040FFBFFFFFFFEFFFFFFFFCFFFF4F
S315080061FC80B586B000AF7860396017203B187A688E
S3150800620C5C21525C1A700200BB181B78012B03D058
S3150800621CBB181B78022B3DD13B681B68002B19D188
S3150800622C3B689B689A073B68DB68DB061A433B6846
S3150800623C1B691B041A433B685B6913433B617B6808
S3150800624C1A6C3B685B689B00D318BB60BB683A69E1
S3150800625C1A601DE03B68DB685A073B681B691343E9
S3150800626C3B613B689B689A073B685B691343FB6019
S3150800627C7B685A6C3B685B68DB00D318BB60BB68F1
S3150800628C3A691A60BB680433BB60BB68FA681A6063
S3150800629C002306E07B681B6E02221A437B681A668B
S315080062AC01231800BD4606B080BD80B584B000AF8A
S315080062BCF860B9607A603B60FB685C229B5CDBB279
S315080062CC012B17D1FB681B6880229B583F229343EE
S315080062DC1900BB681A017B689B001A433B685B0074
S315080062EC1A43BB691A43FB681B680A4380215A5038
S315080062FC002306E0FB681B6E04221A43FB681A6629
S3150800630C01231800BD4604B080BD80B582B000AF2D
S3150800631C78607B685C229B5CDBB2012B10D17B68B6
S3150800632C5C22022199547B681B689A697B681B68F6
S3150800633C01218A439A617B6800221A66002306E0CB
S3150800634C7B681B6E04221A437B681A6601231800A5
S3150800635CBD4602B080BD000080B58AB000AFF860BB
S3150800636CB9607A603B600023FB611B203B18FA6816
S3150800637C5C21525C1A703B181B78022B00D0F4E097
S3150800638CBB68402B3BD1FB681B6890229B580F229D
S3150800639C134008D1FB681B6E802252001A43FB6817
S315080063AC1A660123E8E0FB681B6890229A5880233A
S315080063BC5B041A4080235B049A420CD1FB681B6869
S315080063CC80229A5880239B001A4080239B009A426D
S315080063DC01D10123FB61FB681B6890229B581B0AA1
S315080063EC03221340FA69D318FB61FB68996CFA69A6
S315080063FC1300DB009B18DB00CB187B623AE0FB68CA
S3150800640C1B6898229B580F22134008D1FB681B6EF9
S3150800641C802252001A43FB681A660123ACE0FB681B
S3150800642C1B6898229A5880235B041A4080235B04C5
S3150800643C9A420CD1FB681B6880229A5880235B0011
S3150800644C1A4080235B009A4201D10123FB61FB6849
S3150800645C1B6898229B581B0A03221340FA69D31807
S3150800646CFB61FB68D96CFA691300DB009B18DB002F
S3150800647CCB187B627B6A1A688023DB051A407B681B
S3150800648C5A607B685B68002B07D17B6A1B689B0C80
S3150800649C5B055A0D7B681A6005E07B6A1B68DB0096
S315080064ACDA087B681A607B6A1A6880239B051A408F
S315080064BC7B689A607B6A1B68DB0FDA077B681A6154
S315080064CC7B6A04337B627B6A1B681B041A0C7B6829
S315080064DCDA617B6A1B681B0C0F221A407B68DA6030
S315080064EC7B6A1A6880235B031A407B685A617B6A4D
S315080064FC1A6880239B031A407B689A617B6A1B681F
S3150800650C1B0E7F221A407B681A627B6A1B68DA0F9D
S3150800651C7B685A627B6A04337B627B6A7B610023E5
S3150800652C3B620AE07A693B6AD21839683B6ACB182F
S3150800653C12781A703B6A01333B627B68DB68104A37
S3150800654CD35C1A003B6A9342ECD3BB68402B05D14B
S3150800655CFB681B689421FA695A5004E0FB681B68AF
S3150800656C9C21FA695A50002306E0FB681B6E082228
S3150800657C1A43FB681A6601231800BD460AB080BD8B
S3150800658C28B2000880B584B000AF786039603B68E3
S3150800659C402B07D17B681B6890229B580F2213400F
S315080065ACFB6006E07B681B6898229B580F221340F9
S315080065BCFB60FB681800BD4604B080BD80B584B08E
S315080065CC00AF78602F4BBB607B681B682E4A9342E2
S315080065DC05D1BB68D422920094466344BB607B68A1
S315080065ECBA681A647B681B6880229B58274A134032
S315080065FC19007B685B6B1A047B681B680A4380214D
S3150800660C5A50BB6870331A007B685A647B681B68DF
S3150800661C80229B581E4A134019007B689B6B1A06EE
S3150800662C7B681B680A4380215A50BB68B0331A0032
S3150800663C7B689A64BB688933FF331A007B68DA6413
S3150800664CBB68982292009A187B681A65BB689E22CA
S3150800665C92009A187B685A65BB68FB6005E0FB6874
S3150800666C00221A60FB680433FB60BB68D4229200D4
S3150800667C94466344FA689A42F1D3C046C046BD466E
S3150800668C04B080BD00B4004000680040FFFFE0FF86
S3150800669CFFFFFFF080B586B000AF78603960002345
S315080066AC7B614DE13B681B6801217A6991400A00C0
S315080066BC1340FB60FB68002B00D13EE13B685B682E
S315080066CC03221340012B05D03B685B680322134059
S315080066DC022B30D17B689B683B617B695B0003228C
S315080066EC9A401300DA433B6913403B613B68DA680E
S315080066FC7B695B009A4013003A6913433B617B68DC
S3150800670C3A699A607B685B683B6101227B699A40AF
S3150800671C1300DA433B6913403B613B685B681B0912
S3150800672C01221A407B699A4013003A6913433B616C
S3150800673C7B683A695A603B685B6803221340032BF3
S3150800674C17D07B68DB683B617B695B0003229A4048
S3150800675C1300DA433B6913403B613B689A687B69D3
S3150800676C5B009A4013003A6913433B617B683A69AC
S3150800677CDA603B685B6803221340022B23D17B69E2
S3150800678CDA087B6808329200D3583B617B6907228A
S3150800679C13409B000F229A401300DA433B691340BF
S315080067AC3B613B681A697B6907210B409B009A4041
S315080067BC13003A6913433B617B69DA087B68083234
S315080067CC92003969D1507B681B683B617B695B0019
S315080067DC03229A401300DA433B6913403B613B683A
S315080067EC5B6803221A407B695B009A4013003A697E
S315080067FC13433B617B683A691A603B685A68C02345
S3150800680C9B02134000D198E0534A7B699B081833C6
S3150800681C9B009B583B617B6903221340DB000F22CC
S3150800682C9A401300DA433B6913403B617A68A0230C
S3150800683CDB059A4219D07B68484A934213D07B6889
S3150800684C474A93420DD07B68464A934207D07B68E9
S3150800685C454A934201D1042308E0052306E00323A5
S3150800686C04E0022302E0012300E000237A690321F5
S3150800687C0A40D20093403A6913433B6136497B6917
S3150800688C9B0818339B003A695A50334B1B683B617B
S3150800689CFB68DA433B6913403B613B685A688023C3
S315080068AC5B03134003D03A69FB6813433B612A4BDD
S315080068BC3A691A60284B5B683B61FB68DA433B69AB
S315080068CC13403B613B685A6880239B03134003D0F3
S315080068DC3A69FB6813433B611F4B3A695A601E4A77
S315080068EC8423D3583B61FB68DA433B6913403B610D
S315080068FC3B685A6880239B02134003D03A69FB68AD
S3150800690C13433B61144984223B698B50124A8023FA
S3150800691CD3583B61FB68DA433B6913403B613B68E0
S3150800692C5A6880235B02134003D03A69FB68134309
S3150800693C3B61094980223B698B507B6901337B613A
S3150800694C3B681A687B69DA40131E00D0AAE6C04673
S3150800695CC046BD4606B080BD001802400004005073
S3150800696C00080050000C00500010005080B582B092
S3150800697C00AF786008001100BB1C021C1A807B1C37
S3150800698C0A1C1A707B1C1B78002B04D0BB1C1A889B
S3150800699C7B689A6103E0BB1C1A887B689A62C046BE
S315080069ACBD4602B080BD80B584B000AF78600A00E1
S315080069BCBB1C1A807B685B69FB60BB1C1B88FA686E
S315080069CC13401A04FB68DB43B91C09880B401A43AD
S315080069DC7B689A61C046BD4604B080BD80B582B05E
S315080069EC00AF78607B68002B01D101238FE07B68B0
S315080069FC41229B5CDBB2002B07D17B68402200212D
S31508006A0C99547B681800FDF7BDFE7B68412224214A
S31508006A1C99547B681B681A687B681B6801218A4332
S31508006A2C1A607B685A687B681B683B490A401A617E
S31508006A3C7B681B689A687B681B6838490A409A60A9
S31508006A4C7B68DB68012B08D17B689A687B681B68B6
S31508006A5C802109020A439A6007E07B689A687B687A
S31508006A6C1B68842109020A439A607B68DB68022B3F
S31508006A7C09D17B681B685A687B681B6880210901E9
S31508006A8C0A435A6007E07B681B685A687B681B6870
S31508006A9C23490A405A607B681B685A687B681B68DE
S31508006AAC20490A435A607B681B68DA687B681B684E
S31508006ABC1A490A40DA607B681A697B685B691A436B
S31508006ACC11007B689B691A027B681B680A43DA60AB
S31508006ADC7B68D9697B681A6A7B681B680A431A60E3
S31508006AEC7B681B681A687B681B6801210A431A6055
S31508006AFC7B6800225A647B684122202199547B6862
S31508006B0C00221A637B68422200219954002318003C
S31508006B1CBD4602B080BDC046FFFFFFF0FF7FFFFFFA
S31508006B2CFFF7FFFF0080000290B589B002AFF8604E
S31508006B3C08007A6019000A23FB18021C1A8008231D
S31508006B4CFB180A1C1A80FB6841229B5CDBB2202BC3
S31508006B5C00D087E0FB681B689A6980231B021A40E1
S31508006B6C80231B029A4201D102237CE0FB68402257
S31508006B7C9B5C012B01D1022375E0FB6840220121A5
S31508006B8C9954FB68412221219954FB684222102111
S31508006B9C9954FB6800225A64FB687A685A62FB6847
S31508006BAC0822BA1812885A85FB68314ADA62FB68D9
S31508006BBC304A5A63FB685B8D9BB2FF2B06D9FB6880
S31508006BCCFF221A8580235B047B6107E0FB685B8DDB
S31508006BDC9AB2FB681A8580239B047B61FB681B8D24
S31508006BEC002B27D0FB685B6A1A78FB681B689A62CD
S31508006BFCFB685B6A5A1CFB685A62FB685B8D9BB226
S31508006C0C013B9AB2FB685A85FB681B8D013B9AB20D
S31508006C1CFB681A85FB681B8DDBB20133DAB27C691B
S31508006C2C0A23FB181988F868134B0093230001F004
S31508006C3C77FC0CE0FB681B8DDAB27C690A23FB181F
S31508006C4C1988F8680C4B0093230001F069FCFB6863
S31508006C5C402200219954FB680121180001F09AFC86
S31508006C6C002300E002231800BD4607B090BDC046BD
S31508006C7C0000FFFFF96E00080020008090B589B06F
S31508006C8C02AFF86008007A6019000A23FB18021C88
S31508006C9C1A800823FB180A1C1A80FB6841229B5C85
S31508006CACDBB2202B5BD1FB681B689A6980231B021D
S31508006CBC1A4080231B029A4201D1022350E0FB683A
S31508006CCC40229B5C012B01D1022349E0FB68402240
S31508006CDC01219954FB68412222219954FB684222CE
S31508006CEC10219954FB6800225A64FB687A685A6228
S31508006CFCFB680822BA1812885A85FB681A4ADA629F
S31508006D0CFB681A4A5A63FB685B8D9BB2FF2B06D944
S31508006D1CFB68FF221A8580235B047B6107E0FB680E
S31508006D2C5B8D9AB2FB681A8580239B047B61FB6892
S31508006D3C1B8DDAB27C690A23FB181988F8680C4B88
S31508006D4C0093230001F0ECFBFB68402200219954C8
S31508006D5CFB680221180001F01DFC002300E0022349
S31508006D6C1800BD4607B090BD0000FFFFF96E00087D
S31508006D7C0024008080B584B000AF78607B681B68FF
S31508006D8C9B69FB607B681B681B68BB607B685B6BDD
S31508006D9C002B05D07B685B6BBA68F96878689847EE
S31508006DACC046BD4604B080BD80B586B000AF7860DD
S31508006DBC7B681B689B697B617B681B681B683B61EE
S31508006DCC7B691B0A1A000123134010D03B69DB09A7
S31508006DDC1A00012313400AD07B685B6C01221A4304
S31508006DEC7B685A647B681B6880225200DA617B696F
S31508006DFC9B0A1A000123134010D03B69DB091A00C1
S31508006E0C012313400AD07B685B6C08221A437B6803
S31508006E1C5A647B681B688022D200DA617B695B0A3C
S31508006E2C1A000123134010D03B69DB091A00012311
S31508006E3C13400AD07B685B6C02221A437B685A643F
S31508006E4C7B681B6880229200DA617B685B6CFB604E
S31508006E5CFB680B22134005D0FA687B6811001800F2
S31508006E6C01F0F2F9C046BD4606B080BD80B582B0C9
S31508006E7C00AF7860C046BD4602B080BD80B582B012
S31508006E8C00AF7860C046BD4602B080BD80B582B002
S31508006E9C00AF786008001100FB1C021C1A703B003E
S31508006EAC0A1C1A80C046BD4602B080BD80B582B0A9
S31508006EBC00AF7860C046BD4602B080BD80B582B0D2
S31508006ECC00AF7860C046BD4602B080BD80B582B0C2
S31508006EDC00AF7860C046BD4602B080BD80B582B0B2
S31508006EEC00AF7860C046BD4602B080BD90B589B08B
S31508006EFC02AFF860B9607A60BB687B61FB684022B8
S31508006F0C9B5C012B01D1022337E1FB68402201214E
S31508006F1C99547B691B091A000123134014D07B680A
S31508006F2C1B091A00012313400ED0FB681B6810229C
S31508006F3CDA61FB685B6C04221A43FB685A64FB68CB
S31508006F4C180001F0ACFA01E17B699B081A000123D1
S31508006F5C134023D07B689B081A00012313401DD0CD
S31508006F6C7B69042293437B61FB681B685A6AFB683E
S31508006F7C5B6AD2B21A70FB685B6A5A1CFB685A6267
S31508006F8CFB681B8D013B9AB2FB681A85FB685B8D07
S31508006F9C9BB2013B9AB2FB685A85D7E07B699B0981
S31508006FAC1A00012313402AD17B695B081A000123B6
S31508006FBC134024D07B685B081A00012313401ED0AB
S31508006FCCFB685B8D9BB2002B00D1BFE0FB685B6A4C
S31508006FDC1A78FB681B689A62FB685B6A5A1CFB6822
S31508006FEC5A62FB681B8D013B9AB2FB681A85FB68D3
S31508006FFC5B8D9BB2013B9AB2FB685A85A6E07B690E
S3150800700CDB091A000123134000D16BE07B689B094E
S3150800701C1A000123134065D0FB685B8D9BB2002BCD
S3150800702C4AD0FB681B8D002B46D1FB681B685B6836
S3150800703C9AB212217B189205920D1A80FB685B8D09
S3150800704C9BB2FF2B10D9FB68FF221A85FB681B8D98
S3150800705CDAB280235C047B181988F868002300933D
S3150800706C230001F05DFA3CE0FB685B8D9AB2FB6885
S3150800707C1A85FB68DB6A434A93420ED0FB681B8D64
S3150800708CDAB2FB68DC6A1223FB181988F868002345
S3150800709C0093230001F044FA23E0FB681B8DDAB257
S315080070AC80239C041223FB181988F8680023009384
S315080070BC230001F035FA14E0FB681B685A68802334
S315080070CC9B041A4080239B049A4204D0FB68180040
S315080070DC00F056FD3AE0FB684021180001F0B4F8C0
S315080070EC34E033E07B699B091A00012313402DD049
S315080070FC7B689B091A000123134027D0FB685B8D1C
S3150800710C9BB2002B1DD1FB681B685A6880239B0415
S3150800711C1A4080239B049A4218D0FB68DB6A194AEA
S3150800712C934209D1FB681B685A68FB681B68802167
S3150800713CC9010A435A6009E0FB68180000F020FDF3
S3150800714C04E0FB684021180001F07EF87B695B09B6
S3150800715C1A00012313400BD07B685B091A00012324
S3150800716C134005D07A69FB681100180000F0B0FDD1
S3150800717CFB6840220021995400231800BD4607B02D
S3150800718C90BDC0460000FFFF80B586B000AFF86022
S3150800719CB9607A60FB68DB6A7B61BB683B61FB683C
S315080071AC40229B5C012B01D10223FBE0FB684022A9
S315080071BC012199543B695B091A00012313400CD031
S315080071CC7B685B091A000123134006D03A69FB68F1
S315080071DC1100180000F04EFEDFE03B691B091A008F
S315080071EC0123134054D07B681B091A000123134052
S315080071FC4ED0FB685B8D9BB2002B2DD1FB684122D0
S3150800720C9B5CDBB2282B0BD17A6980239B049A42B0
S3150800721C06D13A69FB681100180000F0BBFF36E08E
S3150800722CFB6841229B5CDBB2292B10D17B695F4A38
S3150800723C93420CD0FB681B681022DA61FB681800B5
S3150800724C01F02DF9FB68180000F0DCFC1FE0FB6868
S3150800725C1B681022DA619DE0FB681B681022DA6154
S3150800726CFB685B6C04221A43FB685A647B69002B27
S3150800727C05D07A6980235B049A4200D08AE0FB68C1
S3150800728C5A6CFB681100180000F0DEFF82E081E002
S3150800729C3B699B081A000123134031D07B689B0875
S315080072AC1A00012313402BD0FB685B8D9BB2002B75
S315080072BC18D0FB681B685A6AFB685B6AD2B21A70EC
S315080072CCFB685B6A5A1CFB685A62FB681B8D013BA0
S315080072DC9AB2FB681A85FB685B8D9BB2013B9AB226
S315080072ECFB685A85FB685B8D9BB2002B54D17B6976
S315080072FC2E4A934250D0FB68180000F083FC4BE0F2
S3150800730C3B69DB081A00012313400CD07B68DB08A9
S3150800731C1A000123134006D03A69FB6811001800BD
S3150800732C00F08AFB39E03B695B081A00012313401D
S3150800733C33D07B685B081A00012313402DD0FB68F9
S3150800734C5B8D9BB2002B18D0FB685B6A1A78FB68BE
S3150800735C1B689A62FB685B6A5A1CFB685A62FB6874
S3150800736C5B8D9BB2013B9AB2FB685A85FB681B8DF9
S3150800737C013B9AB2FB681A850FE07A6980235B0495
S3150800738C9A4202D07B69002B07D1FB68180000F0E3
S3150800739C39FC02E0C04600E0C046FB6840220021EA
S315080073AC995400231800BD4606B080BD0000FFFFA7
S315080073BC90B589B002AFF860B9607A60FB68402274
S315080073CC9B5C012B01D10223F7E0FB6840220121CB
S315080073DC9954BB681B091A000123134019D07B6802
S315080073EC1B091A000123134013D0FB681B681022D3
S315080073FCDA61FB685B6C04221A43FB685A64FB6807
S3150800740C2021180001F0C6F8FB68180001F047F8AF
S3150800741CCEE0BB68DB091A000123134000D17EE0DD
S3150800742C7B689B091A000123134000D177E0FB689F
S3150800743C1B681A68FB681B6840218A431A60FB683C
S3150800744C5B8D9BB2002B55D0FB681B685B689AB2A8
S3150800745C1223FB189205920D1A80FB685B8D9BB262
S3150800746CFF2B06D9FB68FF221A8580235B047B61F8
S3150800747C10E0FB685B8D9AB2FB681A85FB68DB6AC1
S3150800748C504A934203D0FB68DB6A7B6102E0802397
S3150800749C9B047B61FB681B8DDAB27C691223FB1893
S315080074AC1988F86800230093230001F039F8FB6863
S315080074BC5B8D9AB2FB681B8DD31A9AB2FB685A85F8
S315080074CCFB6841229B5CDBB2222B09D1FB681B684B
S315080074DC1A68FB681B68802109020A431A6067E070
S315080074ECFB681B681A68FB681B688021C9010A437C
S315080074FC1A605DE0FB681B685A6880239B041A4077
S3150800750C80239B049A4204D0FB68180000F038FBD1
S3150800751C4EE0FB684021180000F096FE48E0BB6878
S3150800752C9B091A00012313402ED07B689B091A006D
S3150800753C0123134028D0FB685B8D9BB2002B1DD111
S3150800754CFB681B685A6880239B041A4080239B049B
S3150800755C9A422CD0FB68DB6A1A4A934209D1FB681B
S3150800756C1B685A68FB681B688021C9010A435A6064
S3150800757C1DE0FB68180000F003FB18E0FB684021CF
S3150800758C180000F061FE12E0BB685B091A000123C3
S3150800759C13400DD07B685B091A000123134007D0F2
S315080075ACBA68FB681100180000F092FB00E0C046B0
S315080075BCFB6840220021995400231800BD4607B0E9
S315080075CC90BDC0460000FFFF90B589B002AFF860C9
S315080075DCB9607A609A4B7B61FB6840229B5C012BF5
S315080075EC01D1022327E1FB68402201219954BB688B
S315080075FC1B091A000123134019D07B681B091A00B2
S3150800760C0123134013D0FB681B681022DA61FB6850
S3150800761C5B6C04221A43FB685A64FB682021180029
S3150800762C00F0B8FFFB68180000F039FFFEE0BB68F5
S3150800763C5B081A00012313400FD07B685B081A00FD
S3150800764C0123134009D0FB681B68FA68126D9A620D
S3150800765CFB68012252421A65E8E0BB68DB091A008E
S3150800766C0123134065D07B689B091A00012313403C
S3150800767C5FD0FB680121180001F016F8FB68102191
S3150800768C180000F087FFFB685B8D9BB2002B4AD075
S3150800769CFB685B8D9BB2FF2B10D9FB68FF221A8502
S315080076ACFB68DB6C99B2FB681B8DDAB280235B0432
S315080076BCF8680024009400F033FF11E0FB685B8D3A
S315080076CC9AB2FB681A85FB68DB6C99B2FB681B8D52
S315080076DCDAB280239B04F8680024009400F020FF9B
S315080076ECFB685B8D9AB2FB681B8DD31A9AB2FB6842
S315080076FC5A85FB6841229B5CDBB2222B09D1FB68BD
S3150800770C1B681A68FB681B68802109020A431A6001
S3150800771C8CE0FB681B681A68FB681B688021C9012A
S3150800772C0A431A6082E0FB684021180000F08CFDC1
S3150800773C7CE0BB689B091A000123134064D07B6864
S3150800774C9B091A00012313405ED0FB68012118001F
S3150800775C00F0AAFFFB681021180000F01BFFFB685D
S3150800776C41229B5CDBB2222B01D1364B7B61FB6839
S3150800777C5B8D9BB2FF2B11D9FB68FF221A85FB6820
S3150800778CDB6C99B2FB681B8DDAB280235C04F86853
S3150800779C7B690093230000F0C3FE12E0FB685B8D47
S315080077AC9AB2FB681A85FB68DB6C99B2FB681B8D71
S315080077BCDAB280239C04F8687B690093230000F0F6
S315080077CCAFFEFB685B8D9AB2FB681B8DD31A9AB217
S315080077DCFB685A85FB6841229B5CDBB2222B09D1DC
S315080077ECFB681B681A68FB681B68802109020A4338
S315080077FC1A601BE0FB681B681A68FB681B6880210B
S3150800780CC9010A431A6011E0BB685B091A00012317
S3150800781C13400BD07B685B091A000123134005D073
S3150800782CBA68FB681100180000F052FAFB6840228F
S3150800783C0021995400231800BD4607B090BDC046D8
S3150800784C002000800024008080B588B000AFF86066
S3150800785CB9607A60FB68DB6ABB610023FB61FB6875
S3150800786C40229B5C012B01D10223DEE0FB684022FF
S3150800787C01219954BB685B091A00012313400CD0EB
S3150800788C7B685B091A000123134006D0BA68FB68AB
S3150800789C1100180000F0EEFAC2E0BB681B091A00CA
S315080078AC0123134000D1A9E07B681B091A000123A8
S315080078BC134000D1A2E07B689B0B1A0001231340EE
S315080078CC06D17B68DB0B1A000123134000D18EE02E
S315080078DCFB68DB6B002B0DD07B68DB0B1A000123D6
S315080078EC134007D0FB68DB6B1B685B68002B01D168
S315080078FC0123FB61FB689B6B002B0DD07B689B0BF4
S3150800790C1A000123134007D0FB689B6B1B685B6846
S3150800791C002B01D10123FB61FB69012B2DD1FB68DF
S3150800792C41229B5CDBB2282B0BD1BA6980239B04C2
S3150800793C9A4206D1BA68FB681100180000F02AFCB6
S3150800794C54E0FB6841229B5CDBB2292B10D1BB6946
S3150800795C384A93420CD0FB681B681022DA61FB6824
S3150800796C180000F09CFDFB68180000F04BF93DE090
S3150800797CFB681B681022DA613EE0FB681B68102264
S3150800798CDA61FB685B6C04221A43FB685A6417239A
S3150800799CFB18FA684121525C1A70BB69002B04D09B
S315080079ACBA6980235B049A4226D11722BB181B7826
S315080079BC212B03D0BB181B78292B03D1FB6821225A
S315080079CC1A630BE01722BB181B78222B03D0BB18A3
S315080079DC1B782A2B02D1FB6822221A63FB685A6C85
S315080079ECFB681100180000F02FFC05E004E0FB68AA
S315080079FC1B681022DA6113E0C04611E0BB68DB088D
S31508007A0C1A00012313400BD07B68DB081A000123EC
S31508007A1C134005D0BA68FB681100180000F00CF882
S31508007A2CFB6840220021995400231800BD4608B073
S31508007A3C80BDC0460000FFFFB0B584B000AF7860CB
S31508007A4C39607B6841229B5CDBB21A002823134001
S31508007A5C282B00D088E07B681B689B691B0CDAB264
S31508007A6C0F257B1901210A401A707B681B689B69D4
S31508007A7C1B0C9AB20C203B18FE210A401A807B6814
S31508007A8C1B689B689AB20A243B199205920D1A80B8
S31508007A9C7B681B68DB689AB20823FB18FE210A4030
S31508007AAC1A807B68DB68022B48D121007B181B885F
S31508007ABCDB099AB23B181B8853409BB21A00062363
S31508007ACC134020D13B187A1812881A807B689B6C55
S31508007ADC5A1C7B689A647B689B6C022B4CD17B681E
S31508007AEC00229A647B681B680822DA617B6840224C
S31508007AFC002199543B181A887B1919787B68180049
S31508007B0CFFF7C4F938E00C243B190822BA18128876
S31508007B1C1A8080231A027B681100180000F0C4FD35
S31508007B2C7B684022002199543B191A880F23FB18AD
S31508007B3C19787B681800FFF7A9F91DE080231A024B
S31508007B4C7B681100180000F0AFFD7B68402200210D
S31508007B5C99540C23FB181A880F23FB1819787B6881
S31508007B6C1800FFF793F907E07B681B680822DA61AF
S31508007B7C7B68402200219954C046BD4604B0B0BD6E
S31508007B8C80B582B000AF78607B6842220021995498
S31508007B9C7B6841229B5CDBB2212B17D17B68412287
S31508007BAC202199547B6811221A637B6800225A6338
S31508007BBC7B680121180000F077FD7B6840220021C4
S31508007BCC99547B681800FBF76FFF16E07B68412217
S31508007BDC202199547B6812221A637B6800225A6307
S31508007BEC7B680221180000F05FFD7B6840220021AB
S31508007BFC99547B681800FBF79DFFC046BD4602B03A
S31508007C0C80BD000080B584B000AF78607B681B68C7
S31508007C1C1B68FB607B68422200219954FB689B0B0E
S31508007C2C1A000123134008D07B681B681A687B6806
S31508007C3C1B6825490A401A600DE0FB68DB0B1A0025
S31508007C4C0123134007D07B681B681A687B681B687E
S31508007C5C1E490A401A607B6841229B5CDBB2292BC1
S31508007C6C14D17B684122282199547B6821221A63F6
S31508007C7C7B680121180000F017FD7B684022002163
S31508007C8C99547B681800FFF7F1F819E07B684122D4
S31508007C9C9B5CDBB22A2B13D17B6841222821995491
S31508007CAC7B6822221A637B680221180000F0FCFC10
S31508007CBC7B684022002199547B681800FFF7DEF890
S31508007CCCC046BD4604B080BDFFBFFFFFFF7FFFFF68
S31508007CDC80B586B000AF786039603B687B617B689D
S31508007CEC1B682022DA617B6841229B5CDBB2212B64
S31508007CFC08D17B680121180000F0D6FC7B6811229C
S31508007D0C1A630DE07B6841229B5CDBB2222B07D100
S31508007D1C7B680221180000F0C7FC7B6812221A63E4
S31508007D2C7B681B685A687B681B6850490A405A600E
S31508007D3C7B6800225A637B684D4ADA627B691B09A9
S31508007D4C1A000123134009D07B681B681022DA61DC
S31508007D5C7B685B6C04221A437B685A647B684122F5
S31508007D6C9B5CDBB2602B0BD17B699B081A00012349
S31508007D7C134005D07B681B685B6ADBB2FB60FB684B
S31508007D8C7B68180000F08BFB7B685B6C3B617B683F
S31508007D9C41229B5CDBB2602B02D03B69002B07D0DF
S31508007DAC7B685A6C7B681100180000F04DFA58E095
S31508007DBC7B6841229B5CDBB2212B26D17B68412256
S31508007DCC202199547B6800221A637B6842229B5CAB
S31508007DDCDBB2402B0CD17B684222002199547B687C
S31508007DEC4022002199547B681800FFF767F838E0A1
S31508007DFC7B684222002199547B68402200219954C1
S31508007E0C7B681800FBF750FE2BE07B6841229B5CD5
S31508007E1CDBB2222B25D17B684122202199547B6821
S31508007E2C00221A637B6842229B5CDBB2402B0CD186
S31508007E3C7B684222002199547B6840220021995480
S31508007E4C7B681800FFF742F80BE07B68422200219A
S31508007E5C99547B684022002199547B681800FBF7DB
S31508007E6C69FEC046BD4606B080BDC04600E800FEA9
S31508007E7C0000FFFF80B586B000AF786039607B687C
S31508007E8C1B681B683B613B687B617B68DB6AFB6034
S31508007E9C0B203B187A684121525C1A707B681B6868
S31508007EAC2022DA613B181B78212B03D03B181B7850
S31508007EBC292B09D1B04A7B681100180000F0F4FB95
S31508007ECC7B6821221A6320E00B22BB181B78222B15
S31508007EDC03D0BB181B782A2B09D1A84A7B6811003A
S31508007EEC180000F0E1FB7B6822221A630DE00B23D5
S31508007EFCFB181B78282B08D1A14A7B68110018009F
S31508007F0C00F0D2FB7B6800221A637B681B685A68F0
S31508007F1C7B681B68802109020A435A607B681B68C8
S31508007F2C5A687B681B6897490A405A607B68180030
S31508007F3C00F0B5FA3B699B0B1A000123134013D0CA
S31508007F4C7B681B681A687B681B688F490A401A602D
S31508007F5C7B689B6B002B20D07B689B6B1B685B68D4
S31508007F6C9AB27B685A8518E03B69DB0B1A00012329
S31508007F7C134012D07B681B681A687B681B68834998
S31508007F8C0A401A607B68DB6B002B06D07B68DB6BC0
S31508007F9C1B685B689AB27B685A857B699B081A00D2
S31508007FAC0123134020D07B69042293437B617B68B1
S31508007FBC1B685A6A7B685B6AD2B21A707B685B6A02
S31508007FCC5A1C7B685A627B681B8D002B0CD07B680D
S31508007FDC1B8D013B9AB27B681A857B685B8D9BB2BD
S31508007FEC013B9AB27B685A857B685B8D9BB2002BEA
S31508007FFC05D07B685B6C04221A437B685A647B69E0
S3150800800C1B091A000123134051D03B691B091A009E
S3150800801C012313404BD07B685B8D9BB2002B2DD173
S3150800802C7B6841229B5CDBB2282B0BD1FA68802338
S3150800803C9B049A4206D17A697B681100180000F0F5
S3150800804CA9F834E07B6841229B5CDBB2292B10D162
S3150800805CFB684F4A93420CD07B681B681022DA6186
S3150800806C7B68180000F01BFA7B681800FFF7CAFD3E
S3150800807C1DE07B681B681022DA6118E07B681B68B8
S3150800808C1022DA617B685B6C04221A437B685A649B
S3150800809CFB68002B04D0FA6880235B049A4206D14D
S315080080AC7B685A6C7B681100180000F0CDF87B6869
S315080080BC4222002199547B6800225A637B685B6CC8
S315080080CC002B13D07B685A6C7B681100180000F0E3
S315080080DCBBF87B6841229B5CDBB2282B47D17A69BB
S315080080EC7B681100180000F055F840E07B68DB6AE5
S315080080FC274A934216D07B681800FFF783FD7B68E6
S3150800810C234ADA627B684122202199547B68002233
S3150800811C1A637B684022002199547B681800FEF785
S3150800812CC5FE24E07B6841229B5CDBB2222B0FD177
S3150800813C7B684122202199547B6800221A637B684C
S3150800814C4022002199547B681800FEF797FE0EE032
S3150800815C7B684122202199547B6800221A637B682C
S3150800816C4022002199547B681800FEF77FFEC04612
S3150800817CBD4606B080BDC0460180000002800000E6
S3150800818C0380000000E800FEFFBFFFFFFF7FFFFF34
S3150800819C0000FFFF80B582B000AF786039607B685D
S315080081AC274ADA627B6800221A637B6841222021FF
S315080081BC99547B684222002199547B6800225A63A1
S315080081CC3B689B081A000123134022D07B681B6866
S315080081DC5A6A7B685B6AD2B21A707B685B6A5A1CED
S315080081EC7B685A627B681B8D002B12D07B681B8DB3
S315080081FC013B9AB27B681A857B685B8D9BB2013B07
S3150800820C9AB27B685A857B685B6C04221A437B6836
S3150800821C5A640C4A7B681100180000F045FA7B6812
S3150800822C1B681022DA617B684022002199547B680E
S3150800823C1800FEF73BFEC046BD4602B080BDC046E0
S3150800824C0000FFFF0380000080B584B000AF7860A3
S3150800825C39600F203B187A684121525C1A707B688A
S3150800826C4222002199547B68724ADA627B680022A2
S3150800827C5A857B685A6C3B681A437B685A643B1868
S3150800828C1B78282B07D03B181B78292B03D03B18B7
S3150800829C1B782A2B0CD17B680321180000F004FAF2
S315080082AC7B684122282199547B68634A5A6332E0D9
S315080082BC624A7B681100180000F0F6F97B68180012
S315080082CC00F0EDF87B6841229B5CDBB2602B1FD07B
S315080082DC7B684122202199547B681B689B69202264
S315080082EC1340202B14D17B681B689B691022134002
S315080082FC102B09D17B681B681022DA617B685B6CD2
S3150800830C04221A437B685A647B681B682022DA614C
S3150800831C7B6800225A637B681B6BBB607B689B6B14
S3150800832C002B3BD0BB68112B02D0BB68212B35D157
S3150800833C7B681B681A688023DB011A408023DB01E3
S3150800834C9A4207D17B681B681A687B681B683C498C
S3150800835C0A401A607B689B6B1800FDF769FD0300E1
S3150800836C012B16D07B689B6B364A9A637B68402236
S3150800837C002199547B689B6B1800FDF72DFC031E96
S3150800838C51D07B689B6B9A6B7B689B6B18009047EC
S3150800839C49E07B68180000F059F844E07B68DB6B11
S315080083AC002B3BD0BB68122B02D0BB68222B35D1D5
S315080083BC7B681B681A6880231B021A4080231B02E1
S315080083CC9A4207D17B681B681A687B681B681E492A
S315080083DC0A401A607B68DB6B1800FDF729FD030061
S315080083EC012B16D07B68DB6B164A9A637B68402296
S315080083FC002199547B68DB6B1800FDF7EDFB031E17
S3150800840C13D07B68DB6B9A6B7B68DB6B1800904729
S3150800841C0BE07B68180000F019F806E07B6818007A
S3150800842C00F014F802E0C04600E0C046C046BD465F
S3150800843C04B080BD0000FFFF9571000803800000A2
S3150800844CFFBFFFFFEF840008FF7FFFFF80B582B0F8
S3150800845C00AF78607B6841229B5CDBB2602B0FD146
S3150800846C7B684122202199547B6800221A637B6819
S3150800847C4022002199547B681800FEF72FFD0AE06C
S3150800848C7B6800221A637B684022002199547B681A
S3150800849C1800FBF767FBC046BD4602B080BD80B529
S315080084AC82B000AF78607B681B689B690222134018
S315080084BC022B03D17B681B6800229A627B681B68B7
S315080084CC9B6901221340012B07D07B681B689A69AC
S315080084DC7B681B6801210A439A61C046BD4602B0F7
S315080084EC80BD80B584B000AF78607B689B6AFB6002
S315080084FCFB689B6B002B03D0FB689B6B00229A6373
