S0120000506F77657253746167652E7372656311
S31508003000004002208D8C0008C1800008C980000895
S3150800301000000000000000000000000000000000A2
S31508003020000000000000000000000000D180000839
S315080030300000000000000000DB800008E5800008B2
S31508003040DD8C0008DD8C0008DD8C0008DD8C0008AE
S31508003050DD8C0008DD8C0008DD8C0008DD8C00089E
S31508003060DD8C0008DD8C0008DD8C0008DD8C00088E
S31508003070DD8C0008DD8C0008DD8C0008DD8C00087E
S31508003080DD8C0008DD8C0008DD8C0008DD8C00086E
S31508003090DD8C0008F5800008DD8C0008DD8C000852
S315080030A0DD8C0008DD8C0008DD8C0008DD8C00084E
S311080030B0DD8C0008DD8C0008DD8C0008B3
S315080030BC10B5064C2378002B07D1054B002B02D0F4
S315080030CC044800E000BF0123237010BDF80000205F
S315080030DC00000000A8FE0008044B10B5002B03D016
S315080030EC0349044800E000BF10BDC04600000000BC
S315080030FCFC000020A8FE000803B4714649084000ED
S3150800310C4900095E49008E4403BC704700224308F7
S3150800311C8B4274D303098B425FD3030A8B4244D385
S3150800312C030B8B4228D3030C8B420DD3FF220902C7
S3150800313C12BA030C8B4202D31212090265D0030B86
S3150800314C8B4219D300E0090AC30B8B4201D3CB037C
S3150800315CC01A5241830B8B4201D38B03C01A5241BE
S3150800316C430B8B4201D34B03C01A5241030B8B42C0
S3150800317C01D30B03C01A5241C30A8B4201D3CB02AB
S3150800318CC01A5241830A8B4201D38B02C01A524190
S3150800319C430A8B4201D34B02C01A5241030A8B4293
S315080031AC01D30B02C01A5241CDD2C3098B4201D3AB
S315080031BCCB01C01A524183098B4201D38B01C01A29
S315080031CC524143098B4201D34B01C01A52410309A0
S315080031DC8B4201D30B01C01A5241C3088B4201D34F
S315080031ECCB00C01A524183088B4201D38B00C01AFC
S315080031FC524143088B4201D34B00C01A5241411A23
S3150800320C00D20146524110467047FFE701B500202F
S3150800321C00F006F802BDC0460029F7D076E77047DD
S3150800322C7047C046844608006146FFE71FB500F0A4
S3150800323CDFFB002801D40021C8421FBD10B500F0E1
S3150800324C67FB4042013010BD10B500F0D1FB0028D9
S3150800325C01DB002010BD012010BDC04610B500F0E2
S3150800326CC7FB002801DD002010BD012010BDC0469B
S3150800327C10B500F075FB002801DC002010BD0120FC
S3150800328C10BDC04610B500F06BFB002801DA002013
S3150800329C10BD012010BDC0469E2110B5C905041CE1
S315080032ACFFF7F0FF002803D1201C00F093FF10BD98
S315080032BC9E21201CC90500F035FD00F08BFF8023EC
S315080032CC1B069C466044F2E74A02F8B5530ACE46FA
S315080032DC99464B00C90F4746884646004502360EA6
S315080032EC1B0E80B5C40F6F0A9209AD09F11A444535
S315080032FC4BD0002938DD002B00D174E0FF2E00D10D
S3150800330CBEE08023DB041A431B2900DCFDE0013DEB
S3150800331C6B0100D4AFE001256D42AD01AF09380051
S3150800332C01F00EF83B0005388340864200DCD3E0FA
S3150800333CB94D311A1D405A0700D19EE00F22134091
S3150800334C042B00D199E004356B0100D495E0481C98
S3150800335CFE2951D1FF200023C0051843E40720435A
S3150800336CC0BCB946B046F8BD002949D0991B002EF9
S3150800337C72D1002D00D133E14C1E012900D159E13F
S3150800338CFF2900D14CE121006CE0002900DC81E02A
S3150800339C002B55D1002A70D04B1E012900D12BE1E8
S315080033ACFF296DD01B2B50DC190020235B1A10004B
S315080033BC9A40C840531E9A410243AD188023DB0439
S315080033CC1D4200D1ADE0711CFE2EC3D001206A0847
S315080033DC2840924D154005436A0700D08BE01D42E4
S315080033ECB5D1EF0834E0002A47D04B1E012966D028
S315080033FCFF2945D0190087E7C0B2AB015B0AABE7DA
S3150800340CFE239C46701C03006046184200D092E0CE
S3150800341C002E00D0E7E0002D00D119E1002A17D0C4
S3150800342C8023AF1ADB041F4200D142E14446551BE8
S3150800343C00D187E001201D42DFD10021EF0807E00B
S3150800344CFF2E1DD01B2900DC94E031000535EF0852
S3150800345C7B025B0AC8B27FE7FF2B00D1E0E0802035
S3150800346CC00405431B2900DC88E0551E44461E0093
S3150800347C690100D54FE731000435EF08FF29E7D17C
S3150800348C002F00D166E78023DB033B435B02FF205A
S3150800349C5B0A61E7002958D0991B002E00D089E0F9
S315080034AC002D00D19DE04E1E012900D1A4E0FF2974
S315080034BC00D1B6E01B2E00DDB8E0310081E0AA1A77
S315080034CC530100D4AFE09701BF09380000F038FF6C
S315080034DC3B000538834001261D00811B2020013145
S315080034ECCD40411A8B40591E8B411D432AD00021D1
S315080034FC6B0700D1F0E00F232B40042B00D022E7FA
S3150800350C6B0100D523E7EF08A2E720235B1A10000E
S3150800351C9A40C840531E9A410243AD1A6B0100D516
S3150800352CFBE66B0700D1D5E00F2331002B40042BAB
S3150800353C00D008E7A1E7AF1A7B014ED4002F00D0C4
S3150800354CEDE600240020002306E7FE23711C0B423F
S3150800355C21D1002E00D081E0002D00D19FE0002A59
S3150800356C00D1B2E0AB185A0100D4B0E09B0101209F
S3150800357C5B0AF1E68023DB041A4316E720242800AD
S3150800358CC840611A8D4029004C1EA141014344468E
S3150800359C1E00551AC2E7FF2900D1DBE6AF187F08D3
S315080035AC7B0705D00F233D1D3B40042B00D064E759
S315080035BCFF084DE7FF2B34D01B2937DC8020C004CD
S315080035CC054328002026C840711A8D4029004D1E37
S315080035DCA94101431E008D18F0E64446571B9EE68A
S315080035EC4446150049E7002D46D1002A66D18023AA
S315080035FC0024FF20DB03AFE6AA18530113D5074FA7
S3150800360C52081740530744D00F231340042B40D0BD
S3150800361C02213D1D31E7C046FFFFFFFBFFFFFF7D83
S3150800362C44464F462CE70121D70811E70532190005
S3150800363CD7080DE7571B7B0137D5BF01BF093800E3
S3150800364C00F07EFE3B00053883404446013643E7CE
S3150800365C002A00D175E744464F46F9E6002DE0D01E
S3150800366C8023DB03002A17D09F4200D20BE799452B
S3150800367C00D308E74F4606E78023DB03002A0BD066
S3150800368C9F4200D2FFE6994500D3FCE644464F46D6
S3150800369CF9E60221FF08DBE6FF203B435CE6002A3D
S315080036AC00D14FE70021D708D2E644460121FF088E
S315080036BCCEE6002F00D07BE7002443E780234A465A
S315080036CCDB034446FF20134346E60021C0E60021EF
S315080036DCDF08BDE63100D0E601206A0100D58BE68D
S315080036EC2A00DFE7F0B546464F46D6464502C0B532
S315080036FCC30F470098460E1C6D0A3F0E5BD0FF2F72
S3150800370C21D08023ED00DB041D43002399469A46FD
S3150800371C7F3F74027300640A1B0EF60F002B20D031
S3150800372CFF2B43D080220020E400D20414437F3BB5
S3150800373C4246FF1A4B4672400F2B00D99DE0714941
S3150800374C9B00CB589F46002D5AD108239946063B19
S3150800375C74029A467300FF27640A1B0EF60F002B99
S3150800376CDED1002C3BD1012342464946724019430F
S3150800377C0E2918D86448890041588F465346022B9F
S3150800378C00D1B8E0032B6ED042462C00012B40D159
S3150800379C00200024C0052043D2071043E0BCBA46DB
S315080037ACB146A846F0BDFF200024F3E7002C20D133
S315080037BC0223FF3FD8E7002D05D104239946033B86
S315080037CC00279A46A5E7280000F0BAFD7627431F7E
S315080037DC9D4000237F4299469A463F1A99E7200056
S315080037EC00F0AEFD431F9C4076235B421B1A00205B
S315080037FC9EE703234A461A4391460320FC3397E770
S3150800380C0C239946093BFF279A4682E703282CD0B6
S3150800381C320038007F30002847DD630704D00F23B9
S3150800382C2340042B00D00434230103D53800374B2E
S3150800383C80301C40FE28B6DCA401640AC0B2A9E795
S3150800384C80240022FF20E403A4E78023DB031D4227
S3150800385C01D01C420BD08024E4032C43640242465C
S3150800386CFF20640A96E746462C008023DB031C439C
S3150800387C64023200FF20640A8CE76D016001854200
S3150800388C2DD21B230024013F0126290064006D005C
S3150800389C002901DB854201D32D1A3443013B002B49
S315080038ACF3D16B1E9D412C43B3E701231B1A1B2B2B
S315080038BC00DD6DE721009E37D940BC400B00611E28
S315080038CC8C412343590704D00F211940042900D0F1
S315080038DC0433590113D49B0100205C0A5AE71A23B6
S315080038EC01242D1AD0E7981E434258414042320013
S315080038FC0024C0B24EE74246FF2000244AE70120C6
S3150800390C002447E72800010868000108FFFFFFF7B5
S3150800391C70B542004E024C0045026D0A120EC30FDA
S3150800392C760A240EC90FFF2A10D0FF2C0CD00120C2
S3150800393CA2420AD1B54208D18B420FD0002A04D133
S3150800394C2800431E984100E0012070BD0120FF2C81
S3150800395CFBD13543F9D14B401800F6E70020F4E7C4
S3150800396C30B5420044024D02C30F4800640A120ED9
S3150800397C6D0A000EC90FFF2A18D0FF280AD0002A94
S3150800398C1ED100280AD1002D29D0002C2DD1480093
S3150800399C013830BD002D25D1002A01D1002CF6D0D6
S315080039AC8B4219D001205B421843F2E7002C19D13F
S315080039BCFF28F7D1002D15D100208B42F2D1E8E76C
S315080039CC0028EFD08B42EDD18242EBDC04DBAC4213
S315080039DCE8D80020AC42DCD258000138D9E7002CD4
S315080039ECD7D0DFE702204042D3E78B42DAD1EEE7A5
S315080039FC30B5420044024D02C30F4800640A120E49
S31508003A0C6D0A000EC90FFF2A17D0FF280AD0002A04
S31508003A1C1BD100280AD1002D1DD0002C2DD1480011
S31508003A2C013811E0002D0ED1002A01D1002CF6D058
S31508003A3C8B420CD15800013806E0002C03D1FF2824
S31508003A4C05D1002D15D0022030BD002806D1012045
S31508003A5C5B421843F8E7002CF6D0F8E78B42F6D110
S31508003A6C8242F4DCE6DBAC42F1D80020AC42EBD265
S31508003A7CE0E700208B42EAD1E6E78B42E7D1F2E792
S31508003A8CF0B54F464646D6464502C0B546000F1C0D
S31508003A9C6D0A360EC40F002E00D1CDE0FF2E72D063
S31508003AAC8023ED00DB041D43002399469A467F3E8E
S31508003ABC7B025B0A98467B001B0EFF0F002B72D00D
S31508003ACCFF2B00D1A9E07F3BF6184B460A2B00DDED
S31508003ADC85E043468022DB00D2041A434B469046C7
S31508003AEC7C400022022B0FDD494601238B40A62180
S31508003AFCC9000B4200D072E0902189000B4200D01D
S31508003B0CDAE08821194267D1280C42462D042D0C7F
S31508003B1C4346290012041B0C120C51435D434243C5
S31508003B2C5843AD180B0C5B199A4203D980225202E2
S31508003B3C9446604409041A04090C52189501691E26
S31508003B4C8D411B0C920E1B1815439B011D431B0123
S31508003B5C00D5CFE030007F30002800DCB1E06B07E1
S31508003B6C0BD00F2332002B40042B06D004352B0127
S31508003B7C03D5803210006A4B1D40FE2864DCAB016D
S31508003B8C5B0AC0B21FE0002D00D08FE008239946CF
S31508003B9C063B9A467B025B0A98467B00FF261B0E61
S31508003BACFF0F002B8CD14346002B5CD14A460133C0
S31508003BBC1A43914613000A2A11DC01227C40022B77
S31508003BCC92DC00200023C0051843E4072043E0BC20
S31508003BDCBA46B146A846F0BD3C0045469246534601
S31508003BEC022B31D0032B11D0012BEAD030008030B8
S31508003BFC721C002866DD6B07B9D00F232B40042BEB
S31508003C0CB4D1B4E70F2A7AD03C0045468023DB03AF
S31508003C1C2B435B02FF205B0AD5E74346FF36002B96
S31508003C2C34D14A46023313430A2BD8DC7C40002A8B
S31508003C3C0AD09946022257E7002D08D10423994643
S31508003C4C033B00269A4633E7FF200023BBE72800F0
S31508003C5C00F076FB7626431F9D4000237642994654
S31508003C6C9A46361A24E7404600F06AFB4B46361A43
S31508003C7C763E0A2BB3DC43460538834098464B46BA
S31508003C8C00227C40022B00DD2EE73DE703234A4643
S31508003C9C1A4313000A2AB5DC01229A40882113001C
S31508003CAC7C400322194200D12EE795E70C2399464E
S31508003CBC093BFF269A46FBE680230024FF20DB03FC
S31508003CCC81E7320001231B1A1B2B00DD79E79E3294
S31508003CDC29009540D9406A1E95410D436B0704D0BF
S31508003CEC0F232B40042B00D004356B0113D5012070
S31508003CFC002368E701236A081D40154376E78023ED
S31508003D0CDB031D4282D042461A4200D07EE73C00B5
S31508003D1CFF20134357E7AB0100205B0A53E7C04665
S31508003D2CFFFFFFF7F8B54746CE464B02460080B56F
S31508003D3CC40F4702580A844648007A0A360EBF0949
S31508003D4C000ECD0F9B09FF286DD001214D40311A6D
S31508003D5CAC423AD0002900DC9CE1002800D19EE058
S31508003D6CFF2E00D188E08022D20413431B2900DCE5
S31508003D7CF6E0013F7A0100D479E001277F42BF01C2
S31508003D8CBB099846404600F0DBFA434605388340A3
S31508003D9C864200DCCCE0B44F311A1F405A0768D073
S31508003DAC0F221340042B64D004377B0161D5481CC1
S31508003DBCFE2900D081E0FF200023C0051843E40744
S31508003DCC2043C0BCB946B046F8BD002900DC79E1F1
S31508003DDC002876D1002B4CD0481E012900D147E18A
S31508003DECFF2949D01B2871DC01001A002020CA4083
S31508003DFC411A8B40591E8B411343FF188023DB0451
S31508003E0C1F4200D1B8E0711CFE2ED4D0012297486F
S31508003E1C3A407F08074017437A0700D096E01F42BE
S31508003E2CC5D1FA0855E03100FF398946002B2CD14B
S31508003E3C01214D40AC4200D1B4E0494600294CD092
S31508003E4C002E00D0F9E0FF21002F00D108E14A1E10
S31508003E5C012900D156E1FF2900D142E11B2A00DCD9
S31508003E6C24E15F1E2C0006007A0100D585E7310097
S31508003E7C0437FA08FF292CD1002A9CD08023DB03AF
S31508003E8C13435B02FF205B0A97E7AC4200D1A7E01D
S31508003E9C002922D0002ED6D062462C00EEE7002B45
S31508003EACE7D0481E012936D0FF29E5D001005DE789
S31508003EBC01203B007A0100D457E1C0B2BB015B0A72
S31508003ECC7BE7FF2ED8D01B2900DC9FE03100053795
S31508003EDCFA0853025B0AC8B26FE7FE20711C084247
S31508003EEC54D1002E00D0B1E0002F00D102E1002BF6
S31508003EFC00D1F9E08021FA1AC9040A4200D13BE143
S31508003F0C0124DF1B2C40002F49D001200F42D5D1AC
S31508003F1C0021FA08DDE7FF1A7B0100D4DEE0BD01BB
S31508003F2CAD09280000F00CFA2B0005388340012651
S31508003F3C2022811B0131521A1F009340CF405A1E72
S31508003F4C93411F432BD000217B07B1D00F233B4055
S31508003F5C042B00D028E77B0100D528E7FA08B8E738
S31508003F6C1A002020CA40411A8B40591E8B41134314
S31508003F7CFF1A7B0100D502E77B0700D10DE10F2361
S31508003F8C31003B40042B00D00EE772E7FA1A904634
S31508003F9C520156D44346002B00D0F3E600240020E9
S31508003FAC00230AE7494600291CD0002E00D002E758
S31508003FBCFF21002F55D04A1E012959D0FF2900D1BF
S31508003FCC90E01B2A00DD91E011003A002025CA403A
S31508003FDC691A8F40791E8F4117430600FF180DE7A3
S31508003FEC002926D1FE20711C084213D1002E00D0C0
S31508003FFC96E0002F00D1B4E0002B75D0FB185A01BF
S3150800400C00D4B2E09B015B0AFD38D6E68022D204C6
S3150800401C1343EAE6FF2900D1CDE6FA1852085307EE
S3150800402C05D00F23171D1340042B00D021E7D20807
S3150800403C4FE7002EBCD0624620E72C00FF20002359
S3150800404CBBE60124DB1B98462C409BE6002F75D15A
S3150800405C002B00D096E080230024FF20DB03ACE67F
S3150800406C2C001F0005E7C046FFFFFFFBFFFFFF7D87
S3150800407CFB185A0100D48DE04A4A5B081A405907C6
S3150800408C00D18CE00F210B400D39042BCFD0022127
S3150800409C171DEEE6002900D11FE7821B1100002E22
S315080040AC00D1D1E68021C9040F43D7E63900202474
S315080040BCD140A21A97407A1E97410F432C0006004E
S315080040CCDF1B56E700298DD0811B002E00D170E727
S315080040DC1B290BDC8022D204174376E70121FA0848
S315080040ECF7E62C006246C7E60021F2E60533010026
S315080040FCDA08EEE6002B00D150E7012400216246CF
S3150800410C2C40E6E6DA1B530132D5920194092000BD
S3150800411C00F016F92300053883402C00012607E722
S3150800412C002FDFD0002B17D08023DB039A4200D256
S3150800413CA4E69C4500D3A1E662469FE6002B0BD06D
S3150800414C8023DB039A4200D298E69C4500D395E679
S3150800415C012462462C4091E68023DB03FF2013439F
S3150800416C2BE60020002B00D127E60021DA08B0E662
S3150800417C2C000121D208ACE6002A00D10EE700215A
S3150800418CD208A6E6802362460124DB03FF201343EC
S3150800419C2C4012E60121DA089BE6310069E6022179
S315080041ACD20896E6FFFFFF7D43024A02400049000B
S315080041BC5B0A520A090E000EFF2806D00020FF29BA
S315080041CC02D1531E9A4110007047FE38002BFBD1C2
S315080041DCF4E7C04641024200C30F490A0020120EFA
S315080041EC7E2A03DD9D2A02DD094A9818704780202D
S315080041FC00040143952A07DC9620821AD1404842CE
S3150800420C002BF3D10800F1E7963A9140F7E7C04640
S3150800421CFFFFFF7F70B5002812D0C317C5185D4085
S3150800422CC40F280000F08CF89E231B1A962B0FDC63
S3150800423C082838D0083885406D026D0AD8B202E0D5
S3150800424C002400200025C0052843E407204370BD40
S3150800425C992B14DC421F95402A0015491140550725
S3150800426C1CD00F252A40042A18D00431CA08490143
S3150800427C15D59F235202181A550AC0B2E3E7020055
S3150800428C29001B3291404A1E91410522121AD5402B
S3150800429C2A000A43064911405507E2D1CA085202B8
S315080042AC550AD8B2CFE76D026D0A8E30CBE7C046F9
S315080042BCFFFFFFFB10B5041E0DD000F041F89E233E
S315080042CC1B1A962B0CDC082834D008388440640258
S315080042DC640AD8B201E000200024C005204310BDB2
S315080042EC992B13DC421F9440144A224061071CD0B8
S315080042FC0F212140042918D00432D408520115D5AF
S3150800430C9F236402181A640AC0B2E6E70200210069
S3150800431C1B3291400A00511E8A410521091ACC40CC
S3150800432C1443064A22406107E2D1D4086402640A9F
S3150800433CD8B2D2E76402640A8E30CEE7FFFFFFFBE1
S3150800434C1C2101231B04984201D3000C10391B0AAB
S3150800435C984201D3000A08391B09984201D300096F
S3150800436C043902A2105C40187047C04604030202C6
S3150800437C01010101000000000000000080B500AF3B
S3150800438C00F064FA00F056FA00F01CF8C046BD4678
S3150800439C80BD80B500AF00F01CF8C046BD4680BD98
S315080043AC80B500AFBFF34F8FC046044B044ADA60A2
S315080043BCBFF34F8FC046C046FDE7C04600ED00E090
S315080043CC0400FA0580B500AF00F00EF9C046BD46EC
S315080043DC80BD80B500AF00F0C7F9C046BD4680BDAC
S315080043EC80B500AFFFF7DCFFF0B589B000AFF86019
S315080043FCB9607A601F23FB1800221A70FB68784A8A
S3150800440C934200D8E5E0FB68764A934200D9E0E08F
S3150800441CBB68002B00D1DCE07B68002B00D1D8E010
S3150800442CBB681A89BB689B89D3189AB21A23FB18DE
S3150800443C01321A80BB685A89BB68DB89D3189AB2D1
S3150800444C1823FB1801321A801C23FB18BA689288A9
S3150800445C1A80B4E0BB681A681A257B191B88F96898
S3150800446C4B439A4200D2B3E0BB681A681C26BB19A8
S3150800447C1B8819001000FEF7CFFE0B1E00D098E023
S3150800448CBB681A68BB191B8819001000FEF73EFE9C
S3150800449C0300F9681800FEF7BFFE0B1E00D088E073
S315080044ACBB681A68BB191B8819001000FEF72EFE8C
S315080044BC0300F9681800FEF729FE03001A001624F3
S315080044CC3B191A803A197B1912881B889A4200D212
S315080044DC6FE03A191823FB1812881B889A4200D9E0
S315080044EC67E03B191B885B0009330A211800FEF7A5
S315080044FC0DFE03001A0014203B181A8021007A18A6
S3150800450C04003B1912881B88D31A9AB212257B19F8
S3150800451C013A1A80BB681B897A1912889A4248D3C1
S3150800452CBB685B897A1912889A4242D8BB689B8900
S3150800453C3A1912889A423CD3BB68DB893A19128815
S3150800454C9A4236D87B191B88013364225A437B1846
S3150800455C1B8819001000FEF7D9FD03001A0011215B
S3150800456C7B181A700A00BB181B78402B21D9BB186C
S3150800457C1B78502B1DD87B68BA1912881A807B6851
S3150800458C7A1912885A807B683A1912889A807B683D
S3150800459C9B885B089AB27B68DA807B68DB88002B81
S315080045AC02D17B680122DA801F23FB1801221A70BC
S315080045BC0FE01C217B181A887B1801321A80BB68FD
S315080045CCDB881C22BA1812889A4200D842E700E007
S315080045DCC0461F23FB181B781800BD4609B0F0BD52
S315080045EC0F27000000127A0080B590B002AF594B25
S315080045FC7B633B1D180008231A0000210AF05EFE97
S3150800460C554B564A1A60544B180003F095FB8023F9
S3150800461C9B04180009F050F802000C217B181A604C
S3150800462C7B1801229A807B1880229200DA807B18EC
S3150800463C01221A817B18802252005A817B1801228A
S3150800464C9A817B188022DA813A1D7B184448190016
S3150800465CFFF7CAFE404B00225A603F4B00229A6075
S3150800466C3D4B0022DA603C4B01221A743A4B01226C
S3150800467C5A74394B00229A743B1D1B881A00364B08
S3150800468C5A613B1D5B881A00334BDA613B1D9B88CC
S3150800469C1A00314B1A623B1DDB881A002E4B9A61A5
S315080046AC2D4B01225A622C4B01229A622A4B01226B
S315080046BCDA62294B01221A637B6B002B06DB264B2D
S315080046CC01225A63244B00229A6305E0224B0022EE
S315080046DC5A63214B01229A631F4B0022DA631E4B45
S315080046EC180005F0F5FE7B6B002B04DB1C23FB186E
S315080046FC00221A6008E01C23FB188022D2051A60D7
S3150800470C7B6B5B005B087B631C217B1800225A6061
S3150800471C7B1800229A607B180122DA607B1800222B
S3150800472C1A617B180F4A5A617A180B4B110018003C
S3150800473C06F034F8084801230093012302220221CB
S3150800474C06F089F8044B180006F0B5F8C046BD46C5
S3150800475C0EB080BD67060000AC0200200064004065
S3150800476C20A10700FF07000090B591B000AF2F4BB2
S3150800477CBB633F23FB1800221A703E243B19012207
S3150800478C1A702B4B4021180006F016FA031E09D096
S3150800479C3C193B1D0C22BA182548402106F0F6F8A0
S315080047AC030023703E23FB181B78002B3AD1BB6BF6
S315080047BC002B0EDB0C217B181B68BA6B9A421CD19A
S315080047CC7B185B68002B18D13F23FB1801221A7043
S315080047DC13E0BB6B5B005B08BB630C217B181B6887
S315080047ECBA6B9A4209D17B185A688023DB059A4220
S315080047FC03D13F23FB1801221A703F23FB181B78A1
S3150800480C012B0FD10C23FB18DA6837217B181A7089
S3150800481C3B1D1B78FF2B05D17B181B78022B01D16E
S3150800482CFFF7DEFDC046BD4611B090BD6706000019
S3150800483CAC02002080B500AFA023DB0500222021A6
S3150800484C180006F0C8FEC046BD4680BD80B500AF50
S3150800485CC046BD4680BD000080B500AFBFF34F8F84
S3150800486CC046044B044ADA60BFF34F8FC046C046B5
S3150800487CFDE7C04600ED00E00400FA0580B500AF80
S3150800488C134B00225A60124B802252001A60104BAE
S3150800489C0822DA600E4B802212061A610C4B002293
S315080048AC5A610B4B00229A61094B0022DA61084BBC
S315080048BC00221A62074B00220121180006F0A8F9FB
S315080048CC044B180005F0F7FFC046BD4680BDC04630
S315080048DC3C010020AC02002080B582B002AF174B19
S315080048EC00225A60154B802252001A60134B08227C
S315080048FCDA60124B802212061A61104B00225A619A
S3150800490C0E4B00229A610D4B0022DA610B4B0022EA
S3150800491C1A620B480023009300230022002105F09D
S3150800492C9AFF074B00220121180006F071F9044B77
S3150800493C180005F0C0FFC046BD4680BD1801002012
S3150800494C1003002080B584B000AF3A60BB1D021C72
S3150800495C1A807B1D0A1C1A7004F038FA03000A33F5
S3150800496CFB6007E004F032FA0200FB68934201D2BE
S3150800497C012314E00C4B180006F03AF9031EF1D08B
S3150800498CBB1D1A88094B1A607B1D1A78074BDA600F
S3150800499C3A680649044B180005F0B3FF03001800E3
S315080049ACBD4604B080BDC046AC0200203C010020C8
S315080049BC80B584B000AF3A60BB1D021C1A807B1D03
S315080049CC0A1C1A7004F002FA03000A33FB6007E0AB
S315080049DC04F0FCF90200FB68934201D2012314E0AF
S315080049EC0C4B180006F004F9031EF1D0BB1D1A88EF
S315080049FC094B1A607B1D1A78074BDA603A68064928
S31508004A0C044B180005F07DFF03001800BD4604B0E2
S31508004A1C80BDC0461003002018010020F0B585B0F3
S31508004A2C00AF3A60BB1D021C1A807B1D0A1C1A704B
S31508004A3C0F257C193A687B1D1978BB1D1B88180035
S31508004A4CFFF780FF030023700E26BC193A687B1DFE
S31508004A5C1978BB1D1B881800FFF7AAFF03002370E3
S31508004A6C7B191B78002B03D1BB191B78002B01D0A3
S31508004A7C012300E00023DBB21800BD4605B0F0BDEB
S31508004A8C80B586B000AFF860B9607A60FB68764A84
S31508004A9C93420ED1BB681B78FF2B0AD17B68022B7D
S31508004AAC07D1724B01221A70704B00225A70FFF70D
S31508004ABCD3FEFB686E4A934225D117217B18BA6838
S31508004ACC12781A701623FB18BA6852781A707B1863
S31508004ADC1B78022B02D97B1802221A701622BB18D5
S31508004AEC1B78642B02D9BB1864221A70614B1722E7
S31508004AFCBA1812781A705F4B1622BA1812785A70AE
S31508004B0C5C4B01229A70FB685B4A934222D11523AF
S31508004B1CFB1800221A7015E015217B181B78BA6849
S31508004B2CD3181B785A1E9341DAB208007B181B78E7
S31508004B3C1100504AD3180A1CDA703B181A783B181D
S31508004B4C01321A701523FB181B78042BE4D9494B30
S31508004B5C01221A72FA68CD23DB009A4219D1BB6876
S31508004B6C1A78444B5A72BB685A78424B9A72BB688D
S31508004B7C02331B781BB21B021AB2BB6803331B78B1
S31508004B8C1BB213431BB29AB23A4B9A81394B012288
S31508004B9C9A73FB68394A934211D1BB681B781A0081
S31508004BAC0123134002D0364B01221A70BB681B78BE
S31508004BBC1A000223134002D0314B01225A70FB68AB
S31508004BCC304A93422ED1BB681B781BB21B021AB211
S31508004BDCBB6801331B781BB213431BB29AB2254B25
S31508004BEC1A82BB6802331B781BB21B021AB2BB684B
S31508004BFC03331B781BB213431BB29AB21D4B5A8252
S31508004C0CBB6804331B781BB21B021AB2BB6805338C
S31508004C1C1B781BB213431BB29AB2164B9A82154BCE
S31508004C2C01229A75FB68184A93420AD1BB681A780E
S31508004C3C104BDA75BB685A780E4B1A760D4B012257
S31508004C4C5A76BB681B78FF2B0AD17B68012B07D1D8
S31508004C5C084B01229A7604F0B9F802000B4B1A603D
S31508004C6CC046BD4606B080BD6706000000000020A1
S31508004C7C6506000060010020660600006906000053
S31508004C8C7C0100206D06000071060000140100204E
S31508004C9CF0B599B000AF786039603B6801221340D3
S31508004CAC5AD03026BB19180008231A0000210AF01E
S31508004CBC05FBBB1938243A197868402105F066FEBD
S31508004CCC031E4BD13B1918683B19DA68BB19190036
S31508004CDCFFF7D6FE244B9B7801225340DBB2002B00
S31508004CEC3ED10C257B19180024231A0000210AF042
S31508004CFCE5FA3B191A687B191A603B19DA687B19AD
S31508004D0CDA602C007B19802212061A617B681B68F4
S31508004D1C164A93420CD1164B180005F069FF031E70
S31508004D2C1FD0BA193919124B180005F0EAFD18E00C
S31508004D3C7B681B680F4A934213D10F4B180005F07A
S31508004D4C57FF031E0DD03023FA180C23F9180A4BFB
S31508004D5C180005F0D6FD04E0C04602E0C04600E0A7
S31508004D6CC046BD4619B0F0BD0000002000640040E6
S31508004D7C1003002000680040AC02002080B500AF8C
S31508004D8C04F024F80200064B1B68D21AFA235B00BF
S31508004D9C9A4202D9034B00229A76C046BD4680BD7C
S31508004DAC140100206001002090B585B000AF454B7A
S31508004DBC5B7801225340DBB2002B00D07EE00F2338
S31508004DCCFB1800221A700E23FB1800221A700D23EA
S31508004DDCFB1800221A700C23FB1800221A7046E0E6
S31508004DEC0C243B191A7813005B009B18DB00364A17
S31508004DFC9B18180000F08CFF031E18D020003B18D7
S31508004E0C1B7801229A401300D9B20D22BB18BA1886
S31508004E1C12780A431A703B181B7801229A40130021
S31508004E2CD9B20F22BB18BA1812780A431A700C2476
S31508004E3C3B191A7813005B009B18DB00224A9B1857
S31508004E4C180000F051FF031E0BD03B191B780122EA
S31508004E5C9A401300D9B20E22BB18BA1812780A4314
S31508004E6C1A700C217B181A787B1801321A700C23CD
S31508004E7CFB181B78042BB3D9144B0E217A1812780D
S31508004E8C5A703B1D0F22BA1812781A703B1D7A18E5
S31508004E9C12785A703B1D0D22BA1812789A700B4B61
S31508004EAC1A783B1DDA70094B5A783B1D1A713B1D53
S31508004EBC07481A000521FFF7B1FD00E0C046BD46BC
S31508004ECC05B090BD000000202400002080010020C1
S31508004EDC62060000F0B587B000AF7860344B5B789B
S31508004EEC01225340DBB2002B5DD17B681B6816256B
S31508004EFC7C19181CFEF7D0F9030023807B685B68C5
S31508004F0C1426BC19181CFEF7C7F9030023807B6806
S31508004F1C9B6812203C18181CFEF7BEF90300238068
S31508004F2C7B68DB681022BC18181CFEF7B5F9030061
S31508004F3C23807B191B881B0A9BB2DAB208217B18C3
S31508004F4C1A707B191B88DAB27B185A70BB191B8826
S31508004F5C1B0A9BB2DAB27B189A70BB191B88DAB299
S31508004F6C7B18DA7012203B181B881B0A9BB2DAB224
S31508004F7C7B181A713B181B88DAB27B185A711020E9
S31508004F8C3B181B881B0A9BB2DAB27B189A713B1822
S31508004F9C1B88DAB27B18DA717B1806481A000821C6
S31508004FACFFF73CFD00E0C046BD4607B0F0BDC04665
S31508004FBC0000002063060000F0B585B000AF7860ED
S31508004FCC1E4B5B7801225340DBB2002B31D17B6838
S31508004FDC1B690E257C19181CFEF75EF90300238045
S31508004FEC7B685B690C26BC19181CFEF755F903007F
S31508004FFC23807B191B881B0A9BB2DAB208217B1803
S3150800500C1A707B191B88DAB27B185A70BB191B8865
S3150800501C1B0A9BB2DAB27B189A70BB191B88DAB2D8
S3150800502C7B18DA707B1806481A000421FFF7F6FC81
S3150800503C00E0C046BD4605B0F0BDC04600000020E5
S3150800504C6C060000B0B586B000AF78604B4B5B7849
S3150800505C01225340DBB2002B00D08BE07B689B69A6
S3150800506C4749181CFEF70CFD031C16257C19181C41
S3150800507CFEF712F9030023807B68DB694049181C8C
S3150800508CFEF7FEFC031C1422BC18181CFEF704F9C8
S3150800509C030023807B681B6A3949181CFEF7F0FC51
S315080050AC031C1222BC18181CFEF7F6F80300238002
S315080050BC344B00221A70334B5B887A1912889A4241
S315080050CC06D2304B1B7801221343DAB22D4B1A70D9
S315080050DC2C4B9B881422BA1812889A4206D2294B52
S315080050EC1B7802221343DAB2264B1A70254BDB883F
S315080050FC1222BA1812889A4206D2224B1B7804221C
S3150800510C1343DAB21F4B1A7016203B181B881B0A5E
S3150800511C9BB2DAB208217B181A703B181B88DAB2D4
S3150800512C7B185A7014203B181B881B0A9BB2DAB2E0
S3150800513C7B189A703B181B88DAB27B18DA70122027
S3150800514C3B181B881B0A9BB2DAB27B181A713B18E0
S3150800515C1B88DAB27B185A710A4B1A787B189A7123
S3150800516C7B180022DA717B1807481A000821FFF70A
S3150800517C55FC00E0C046BD4606B0B0BD0000002098
S3150800518C00007A440400002064060000B0B584B020
S3150800519C00AF786039601A4B5B7801225340DBB25A
S315080051AC002B28D117493868FEF76AFC031C0E2514
S315080051BC7C19181CFFF70EF8030023807B681A7AF3
S315080051CC08217B181A707B685A7A7B185A707B19D7
S315080051DC00229B5E1B121BB2DAB27B189A707B19E3
S315080051EC1B88DAB27B18DA707B1807481A00042178
S315080051FCFFF714FC00E0C046BD4604B0B0BDC0467F
S3150800520C00000020000020416A06000080B584B02A
S3150800521C00AF7860184B5B7801225340DBB2002B49
S3150800522C25D17B689A7808217B181A707B68DA78FE
S3150800523C7B185A707B681A797B189A707B685A792E
S3150800524C7B18DA707B689A797B181A717B68DA791D
S3150800525C7B185A717B1800229A717B180022DA7116
S3150800526C7B1806481A000821FFF7D8FB00E0C04651
S3150800527CBD4604B080BDC046000000206B06000089
S3150800528C80B582B000AF1B4B5B7801225340DBB272
S3150800529C002B2AD1184B5B881B0A9BB2DAB23B004F
S315080052AC1A70154B5B88DAB23B005A70124B9B8806
S315080052BC1B0A9BB2DAB23B009A700F4B9B88DAB288
S315080052CC3B00DA700C4BDB881B0A9BB2DAB23B004C
S315080052DC1A71094BDB88DAB23B005A713B00074856
S315080052EC1A000621FFF79AFB00E0C046BD4602B03D
S315080052FC80BDC04600000020040000206E06000099
S3150800530C80B584B000AF2B4B5B7801225340DBB2DF
S3150800531C002B4AD1284B5B881B0A9BB2DAB20821B0
S3150800532C7B181A70244B5B88DAB27B185A70224B9E
S3150800533C9B881B0A9BB2DAB27B189A701E4B9B8809
S3150800534CDAB27B18DA701C4BDB881B0A9BB2DAB212
S3150800535C7B181A71184BDB88DAB27B185A71164B04
S3150800536C1B891B0A9BB2DAB27B189A71124B1B89E2
S3150800537CDAB27B18DA717B1810481A000821FFF785
S3150800538C4DFB0D4B5B891B0A9BB2DAB23B1D1A709F
S3150800539C094B5B89DAB23B1D5A703A1DCE23DB00EA
S315080053AC02211800FFF73AFB00E0C046BD4604B0E0
S315080053BC80BDC04600000020800100206F0600005A
S315080053CC80B582B000AF144B5B7801225340DBB238
S315080053DC002B1DD1114B0221180006F0DFF8030033
S315080053EC1A003B1D1A700D4B0121180006F0D6F851
S315080053FC03001A003B1D5A70074B9B781A003B1D7D
S3150800540C9A703B1D06481A000321FFF707FB00E0BC
S3150800541CC046BD4602B080BD000000200008005002
S3150800542C7206000080B500AF03F0D0FC0200054BF5
S3150800543C1A60054B00221A60044B01221A70C046EA
S3150800544CBD4680BD8C0100209001002094010020EF
S3150800545C80B582B000AF03F0B9FC03007B600A4B41
S3150800546C1B687A68D21AFA235B009A4205D3074B53
S3150800547C01221A70044B7A681A60044B1B781800C0
S3150800548CBD4602B080BDC0468C01002094010020A8
S3150800549C80B500AF054B00221A70054B1B685A1CC9
S315080054AC034B1A60C046BD4680BDC0469401002019
S315080054BC9001002080B500AFFFF7CAFF031E03D08A
S315080054CC03F0DAF9FFF7E4FFC046BD4680BD80B5A8
S315080054DC82B000AF78607B681A7800210A40111CEC
S315080054EC13220A431A705A7800210A40111C5522B5
S315080054FC52420A435A707B6800229A707B683222A1
S3150800550CDA707B6814221A717B6832225A717B68AE
S3150800551C2D229A717B680022DA717B681A7A00212F
S3150800552C0A40111C782252420A431A725A7A0021EE
S3150800553C0A40111C13220A435A727B689A7A002174
S3150800554C0A40111C302252420A439A72DA7A002116
S3150800555C0A40111C07220A43DA727B681A7B00215F
S3150800556C0A40111C782252420A431A735A7B0021AC
S3150800557C0A40111C13220A435A737B689A7B002132
S3150800558C0A40111C782252420A439A73DA7B00218C
S3150800559C0A40111C13220A43DA737B681A7C002111
S315080055AC0A40111C782252420A431A745A7C00216A
S315080055BC0A40111C13220A435A747B689A7C0021F0
S315080055CC0A40111C20220A439A74DA7C00210A40EC
S315080055DC111C4E220A43DA747B681A7D00210A4094
S315080055EC111C20220A431A755A7D00210A40111CE7
S315080055FC4E220A435A757B689A7D00210A40111C73
S3150800560C10220A439A75DA7D00210A40111C2722BA
S3150800561C0A43DA75C046BD4602B080BD80B582B075
S3150800562C00AF78607B681A785B781B0213439BB2D1
S3150800563C044A944663445A425341DBB21800BD46A9
S3150800564C02B080BDED54FFFF80B582B000AF0200FA
S3150800565CBB1D1A803B1D0A1C1A80BB1D1A883B1DD4
S3150800566C1B88D3183F2B02DCBB1D1B8804E03B1D93
S3150800567C1B884022D31A9BB21800BD4602B080BDC7
S3150800568CF0B58FB004AF04000800BA6019000E25F7
S3150800569C7B19221C1A800C243B19021C1A80BB1D70
S315080056AC0A1C1A800623BB612623FB187A19128852
S315080056BC1A803B191A88BB1D1B88D318002B00DAD5
S315080056CC3F339B1199B216203B180E22BA18128832
S315080056DC8A181A803A182623FB1812881B88D31A9C
S315080056EC9AB21423FB1801321A802423FB180022C1
S315080056FC1A8000233B625DE02626BB191A88BB6913
S3150800570C9A4013001AB20C217B1800201B5E134317
S3150800571C1AB21223FB181A8010257C197B181A88C2
S3150800572CBB1D1B8811001800FFF78EFF0300238092
S3150800573C24243B191B88BA68D3181222BA18118864
S3150800574C2248FA22920002927A1912880192009340
S3150800575C02230A00A02106F02BF9BB19BA191288E4
S3150800576C01321A800C217B1800221A80BB1DB91D28
S3150800577C7A19098812888A1A1A803B1939197A19DA
S3150800578C098812888A181A800023FB610AE00F48D8
S3150800579C64230122A02106F06DFB031E06D0FB69CB
S315080057AC0133FB61FB69092BF1DD00E0C0463B6A5E
S315080057BC01333B621423FB181B883A6A9A429BDB1B
S315080057CCC046C046BD460BB0F0BDC04674030020AB
S315080057DCF0B58FB004AF04000800BA6019000E25A6
S315080057EC7B19221C1A800C243B19021C1A80BB1D1F
S315080057FC0A1C1A800623FB612623FB187A191288C1
S3150800580C1A803B191A88BB1D1B88D318002B00DA83
S3150800581C3F339B1199B21A203B180E22BA181288DC
S3150800582C8A181A803A182623FB1812881B88D31A4A
S3150800583C9AB21823FB1801321A802423FB1800226B
S3150800584C1A8000233B624AE02626BB191A88FB6994
S3150800585C9A4013001AB20C217B1800201B5E1343C6
S3150800586C1AB21623FB181A8014257C197B181A8869
S3150800587CBB1D1B8811001800FFF7E6FE03002380EA
S3150800588C24243B191B88BA68D3181622BA1811880F
S3150800589C1848FA22920002927A19128801920093F9
S315080058AC02230A00A02106F0B1F9BB19BA1912880D
S315080058BC01321A800C217B1800221A80BB1DB91DD7
S315080058CC7A19098812888A1A1A803B1939197A1989
S315080058DC098812888A181A803B6A01333B62182396
S315080058ECFB181B883A6A9A42AEDBC046C046BD46D0
S315080058FC0BB0F0BD74030020B0B59AB004AF02002B
S3150800590CBB1D1A8006233B65BB1D1A883B6D9A4046
S3150800591C4E243B191A800C257B194022FF211800AE
S3150800592C09F0CCFC3B191A881248FA239B000293FF
S3150800593C402301937B1900930223A02106F038F823
S3150800594C052003F04DFA00237B650AE00948642319
S3150800595C0122A02106F08EFA031E06D07B6D0133B8
S3150800596C7B657B6D092BF1DD00E0C046C046BD4664
S3150800597C16B0B0BD7403002080B582B000AF3A6093
S3150800598CBB1D021C1A803B1D0A1C1A803A683B1D5B
S3150800599C1988BB1D18881823FFF772FEC046BD462A
S315080059AC02B080BD80B582B000AF3A60BB1D021C48
S315080059BC1A803B1D0A1C1A803A683B1D1988BB1DA8
S315080059CC18881823FFF704FFC046BD4602B080BDF1
S315080059DC80B500AF204B1A681F4B5B681900100086
S315080059EC08F044FC1C4B5B68002B05D11A4B1B6852
S315080059FC1B6800225A632CE0174B5B68042B05D1F5
S31508005A0C154B1B681A680023936322E0124B5B68DC
S31508005A1C082B05D1104B1B681A680023D36318E0B2
S31508005A2C0D4B5B680C2B05D10B4B1B681A680023B6
S31508005A3C13640EE0084B5B68102B05D1064B1B68EC
S31508005A4C1A680023936504E0034B1B681A68002345
S31508005A5CD365C046BD4680BD0C00002080B500AF9E
S31508005A6C80239900A023DB050122180005F0B3FD5D
S31508005A7CC046BD4680BD80B500AF80239900A023E3
S31508005A8CDB050022180005F0A6FDC046BD4680BD04
S31508005A9C80B584B000AF78600A00FB1C1A707B686E
S31508005AAC9B7AFA1C12789A4204D27B689A7A7B689B
S31508005ABC5A7203E07B68FA1C12785A727B681B6868
S31508005ACC1B68DB6AFB607B685B7A1A00FB685343CE
S31508005ADC64211800FDF71AFB0300BB607B685B6842
S31508005AEC002B05D17B681B681B68BA685A632CE0C7
S31508005AFC7B685B68042B05D17B681B681A68BB68D6
S31508005B0C936322E07B685B68082B05D17B681B686E
S31508005B1C1A68BB68D36318E07B685B680C2B05D1E5
S31508005B2C7B681B681A68BB6813640EE07B685B6845
S31508005B3C102B05D17B681B681A68BB68936504E053
S31508005B4C7B681B681A68BB68D365C046BD4604B03B
S31508005B5C80BD000080B582B000AF786039607B6884
S31508005B6C1B7A022B38D11E4B1B7801225340DBB211
S31508005B7C002B16D07B68DB7A1800FEF79BFB031C00
S31508005B8C191C3868FDF77EFB031E0AD0144B01223C
S31508005B9C1A70FFF763FF7B6864211800FFF778FF1C
S31508005BAC1BE00F4B1B78002B17D07B681B7B180050
S31508005BBCFEF780FB031C191C3868FDF745FB031E12
S31508005BCC0BD0074B00221A70FFF755FF7B68002194
S31508005BDC1800FFF75DFF00E0C046BD4602B080BD69
S31508005BEC9501002080B582B000AF00F05FF8642004
S31508005BFC03F0F6F8114B28220021180009F05EFB79
S31508005C0C0F4B28220021180009F058FB00237B6053
S31508005C1C0CE07A6813005B009B18DB00094A9B189A
S31508005C2C180000F061F87B6801337B607B68042BF5
S31508005C3CEFDDC046C046BD4602B080BD98010020C7
S31508005C4CC00100202400002080B582B000AF786027
S31508005C5C7B681B68002B0CD07B689B88002B08D0B4
S31508005C6C7B6818687B689B880122190005F0B3FCD1
S31508005C7C00E0C046BD4602B080BD80B582B000AF1C
S31508005C8C78607B681B68002B0CD07B689B88002B84
S31508005C9C08D07B6818687B689B880022190005F079
S31508005CAC9AFC00E0C046BD4602B080BD80B500AF88
S31508005CBC094B1800FFF7E1FF084B1800FFF7DDFF4B
S31508005CCC074B1800FFF7D9FF064B1800FFF7D5FF4F
S31508005CDCC046BD4680BDC046240000206C0000208E
S31508005CEC540000203C00002080B582B000AF7860DC
S31508005CFC7B689A687B689B891900100005F04EFC36
S31508005D0C03005A425341DBB21800BD4602B080BDAF
S31508005D1C80B582B000AF78607B681A697B689B8A0D
S31508005D2C1900100005F03AFC03005A425341DBB245
S31508005D3C1800BD4602B080BD80B582B000AF786051
S31508005D4C0B4B1B681800FEF7B5FA031C0949181CFF
S31508005D5CFDF796FE031C0849181CFDF7C3FC031C2B
S31508005D6C1A1C7B681A60C046BD4602B080BDC04688
S31508005D7CC00100203ECBF33BA69B443B80B582B0CA
S31508005D8C00AF78600B4B5B681800FEF793FA031CA0
S31508005D9C0949181CFDF774FE031C0849181CFDF765
S31508005DACA1FC031C1A1C7B685A60C046BD4602B08F
S31508005DBC80BDC046C00100203ECBF33BA69B443BAE
S31508005DCC80B582B000AF78600B4B9B681800FEF765
S31508005DDC71FA031C0949181CFDF752FE031C0849E5
S31508005DEC181CFDF77FFC031C1A1C7B689A60C046BE
S31508005DFCBD4602B080BDC046C00100203ECBF33B79
S31508005E0CA69B443B80B582B000AF78600B4BDB6831
S31508005E1C1800FEF74FFA031C0949181CFDF730FE4B
S31508005E2C031C0849181CFDF75DFC031C1A1C7B682F
S31508005E3CDA60C046BD4602B080BDC046C00100202F
S31508005E4C3ECBF33BA69B443B80B582B000AF786053
S31508005E5C0B4B5B691800FEF72DFA031C0949181C35
S31508005E6CFDF70EFE031C0849181CFDF73BFC031C2A
S31508005E7C1A1C7B685A61C046BD4602B080BDC04636
S31508005E8CC00100203ECBF33BA69B443B80B582B0B9
S31508005E9C00AF78600B4B1B691800FEF70BFA031C56
S31508005EAC0949181CFDF7ECFD031C0849181CFDF7DD
S31508005EBC19FC031C1A1C7B681A61C046BD4602B045
S31508005ECC80BDC046C00100203ECBF33BA69B443B9D
S31508005EDC90B585B000AF7860214B5B6A1800FEF769
S31508005EECE9F9041C1E4B5B6A1800FEF7E3F9031C60
S31508005EFC191C8B20C005FDF715FF031C191C201C4B
S31508005F0CFDF7F0FB031C1749181CFDF7B9FD031C1C
S31508005F1CFB601449F868FDF7E5FB031C181C09F02F
S31508005F2C47FE031C1049181CFDF7AAFD031C0F4954
S31508005F3C181CFDF7C9F9031C191CFE208005FDF772
S31508005F4CD1FB031CBB600A49B868FDF7EBFE031CC2
S31508005F5C1A1C7B685A62C046BD4605B090BDC04641
S31508005F6CC001002000401C46631D9B390FCF5B3BCC
S31508005F7C3393884380B582B000AF7860084B9B6931
S31508005F8C1800FEF797F9031C0649181CFDF778FD4F
S31508005F9C031C1A1C7B689A61C046BD4602B080BDBC
S31508005FACC0010020CAFACD3B80B582B000AF78603C
S31508005FBC084BDB691800FEF77DF9031C0649181C0B
S31508005FCCFDF75EFD031C1A1C7B68DA61C046BD46EC
S31508005FDC02B080BDC0010020CAFACD3B80B582B0A4
S31508005FEC00AF7860084B1B6A1800FEF763F9031CB0
S31508005FFC0649181CFDF744FD031C1A1C7B681A621B
S3150800600CC046BD4602B080BDC0010020CAFACD3BD1
S3150800601C80B500AF024B034A9A60C046BD4680BDA8
S3150800602C00ED00E00030000880B500AFFFF7F0FF88
S3150800603C02F050FE00F01AF800F01AFB00F002FB12
S3150800604C00F072F800F062F900F0A8F900F0EEF929
S3150800605C00F02CFAFEF792F901F012F8FFF726FE7B
S3150800606CFEF797F901F014F8C046F9E790B595B024
S3150800607C00AF14243B1918003C231A00002109F020
S3150800608C1DF93B1D180010231A00002109F016F9FA
S3150800609C80239B00180006F07DFB3B1902221A6030
S315080060AC3B1980225200DA6021007B1800221A6103
S315080060BC7B1840225A617B1802221A627B1802222C
S315080060CC5A627B1800229A627B180F22DA627B18B6
S315080060DC802292021A637B18802292045A637B18D8
S315080060ECC022D2059A637B18180006F09FFB031E84
S315080060FC01D000F0CDFB3B1D07221A603B1D022286
S3150800610C5A603B1D00229A603B1D0022DA603B1D3B
S3150800611C0221180006F0EAFE031E01D000F0B8FBB7
S3150800612CC046BD4615B090BD80B584B000AF3B1DCA
S3150800613C18000C231A00002109F0C0F8684B694AAC
S3150800614C1A60674B802212065A60654B00229A60C9
S3150800615C634B0022DA60624B802212061A61604B8E
S3150800616C08225A615E4B00221A765D4B00225A763B
S3150800617C5B4B01229A765A4B0122DA61584B002264
S3150800618C5A62574B00229A62554B2C22012199547C
S3150800619C534B802252011A63514B04225A63504BBB
S315080061AC3C22002199544E4B0022DA644C4B1800C1
S315080061BC02F0A8FF031E01D000F06AFB3B1D01226A
S315080061CC1A603B1D01225A603A1D454B11001800F6
S315080061DC03F0E6F9031E01D000F05AFB3B1D424AB8
S315080061EC1A603A1D3E4B1100180003F0D9F9031E2C
S315080061FC01D000F04DFB3B1D3C4A1A603A1D384B4A
S3150800620C1100180003F0CCF9031E01D000F040FB76
S3150800621C3B1D374A1A603A1D314B1100180003F022
S3150800622CBFF9031E01D000F033FB3B1D314A1A603F
S3150800623C3A1D2B4B1100180003F0B2F9031E01D0BE
S3150800624C00F026FB3B1D2C4A1A603A1D244B110004
S3150800625C180003F0A5F9031E01D000F019FB3B1D2D
S3150800626C264A1A603A1D1E4B1100180003F098F9BD
S3150800627C031E01D000F00CFB3B1D214A1A603A1D87
S3150800628C174B1100180003F08BF9031E01D000F010
S3150800629CFFFA3B1D1B4A1A603A1D114B11001800D8
S315080062AC03F07EF9031E01D000F0F2FA3B1D164AE4
S315080062BC1A603A1D0A4B1100180003F071F9031EF7
S315080062CC01D000F0E5FA064B180003F04BFD031E4F
S315080062DC01D000F0DDFAC046BD4604B080BDC0460C
S315080062ECE801002000240140020000040400000814
S315080062FC0800000C10000010400000188000001C5C
S3150800630C00010020000200240004002880B500AF1C
S3150800631C204B214A1A601F4B00225A601D4B002243
S3150800632C9A601C4B0022DA601A4B01221A74194B1C
S3150800633C00225A74174B00229A74164B06225A617D
S3150800634C144B04229A61134B1022DA61114B032267
S3150800635C1A62104B01225A620E4B01229A620D4B9D
S3150800636C0122DA620B4B01221A630A4B02225A6388
S3150800637C084B02229A63074B0022DA63054B180076
S3150800638C04F0A6F8031E01D000F082FAC046BD46FA
S3150800639C80BDC046AC0200200064004080B500AF4A
S315080063AC204B214A1A601F4B00225A601D4B0022B3
S315080063BC9A601C4B0022DA601A4B01221A74194B8C
S315080063CC00225A74174B00229A74164B06225A61ED
S315080063DC144B04229A61134B1022DA61114B0322D7
S315080063EC1A62104B01225A620E4B01229A620D4B0D
S315080063FC0122DA620B4B01221A630A4B02225A63F8
S3150800640C084B00229A63074B0022DA63054B1800E7
S3150800641C04F05EF8031E01D000F03AFAC046BD46F9
S3150800642C80BDC046100300200068004080B500AF50
S3150800643C1B4B1C4A1A601A4B1B4A5A60184B0022F3
S3150800644C9A60174B0122DA60154B00221A61144B1D
S3150800645C00225A61124B00229A61114B0022DA6112
S3150800646C0F4B00221A620E4B180005F0D1F8031ECA
S3150800647C01D000F00DFA0A4B0021180006F0F2F8CC
S3150800648C031E01D000F004FA054B0021180006F093
S3150800649C35F9031E01D000F0FBF9C046BD4680BD98
S315080064AC7403002000540040583D500080B59CB041
S315080064BC00AF6023FB18180010231A00002108F0FF
S315080064CCFDFE5423FB1818000C231A00002108F0B3
S315080064DCF5FE3823FB1818001C231A00002108F0B7
S315080064ECEDFE3B1D180034231A00002108F0E6FEC9
S315080064FC514B524A1A60504B3B225A604E4B002263
S3150800650C9A604D4B4E4ADA604B4B00221A614A4B45
S3150800651C00225A61484B00229A61474B180007F033
S3150800652CEDFD031E01D000F0B3F960217B18802223
S3150800653C52011A607A18404B1100180008F086F8B8
S3150800654C031E01D000F0A4F93B4B180007F02EFEF1
S3150800655C031E01D000F09CF954217B1800221A6006
S3150800656C7B1800225A607B1800229A607A18324BE4
S3150800657C1100180008F05CFD031E01D000F088F924
S3150800658C38217B1860221A607B1864225A607B18A3
S3150800659C02229A607B180022DA607B1800221A61A4
S315080065AC7B1800225A617B1800229A617918224BB3
S315080065BC0022180007F04AFF031E01D000F068F904
S315080065CC3B1D00221A603B1D00225A603B1D00220F
S315080065DC9A603B1D0022DA603B1D00221A613B1DA6
S315080065EC802292015A613B1D00229A613B1D0022B2
S315080065FCDA613B1D00221A623B1D802292045A6204
S3150800660C3B1D00229A623B1D0022DA623B1D0022CA
S3150800661C1A633A1D084B1100180008F07FFD031E7B
S3150800662C01D000F035F9044B180001F005FDC04601
S3150800663CBD461CB080BDC046C8030020002C0140D6
S3150800664CE703000080B582B000AF084B9A6B074B86
S3150800665C01210A439A63054B9B6B012213407B600D
S3150800666C7B68C046BD4602B080BDC04600100240DD
S3150800667C90B58BB000AF14243B19180014231A00DC
S3150800668C002108F01BFE7D4B5A6B7C4B04210A43F8
S3150800669C5A637A4B5B6B042213403B613B69774B1D
S315080066AC5A6B764B20210A435A63744B5B6B202238
S315080066BC1340FB60FB68714B5A6B704B01210A4304
S315080066CC5A636E4B5B6B01221340BB60BB686B4B0A
S315080066DC5A6B6A4B02210A435A63684B5B6B02225C
S315080066EC13407B607B68654B5A6B644B08210A43E5
S315080066FC5A63624B5B6B082213403B603B68604BEA
S3150800670C00220321180004F066FFC423D900A02335
S3150800671CDB050022180004F05EFF5A4B00221221FA
S3150800672C180004F058FF584B00220821180004F0F2
S3150800673C52FF3B19802292011A603B198822520398
S3150800674C5A603B1900229A603B194D4A19001000F1
S3150800675C04F0B8FD3B1903221A603B1901225A6052
S3150800676C3B1900229A603B190022DA603B19444A0D
S3150800677C1900100004F0A6FD3B1920221A603B19DB
S3150800678C01225A603B1900229A603B190222DA60F0
S3150800679C3A19A023DB051100180004F093FD21001B
S315080067AC7B18C022D2001A600C003B1901225A60D1
S315080067BC3B1900229A603B190022DA603A19A02389
S315080067CCDB051100180004F07DFD3B192F4A1A60F1
S315080067DC3B1900225A603B1901229A603B19294A37
S315080067EC1900100004F06EFD21007B18802292001F
S315080067FC1A600C003B1900225A603B1901229A6058
S3150800680C3B191F4A1900100004F05CFD3B191222B3
S3150800681C1A603B1901225A603B1900229A603B19EF
S3150800682C0022DA603B19174A1900100004F04AFDD9
S3150800683C3B1908221A603B1901225A603B1900229F
S3150800684C9A603B190022DA603B190F4A19001000AE
S3150800685C04F038FD21007B1830221A607B180022C0
S3150800686C5A607B1801229A607B18074A1900100097
S3150800687C04F028FDC046BD460BB090BD0010024082
S3150800688C00080050000C0050000400506D03000076
S3150800689C80B500AF72B6C046C046FDE780B582B07B
S315080068AC00AFFB1D00221A7012E0FB1D1978FB1DA8
S315080068BC1B781B4A04314900895A1A4A5B00D318BB
S315080068CC02330A1C1A80FB1D1A78FB1D01321A703A
S315080068DCFB1D1B78042BE8D9114B5A8A124B5A808C
S315080068EC0F4B9A8A104B9A800D4BDA8A0E4BDA802C
S315080068FC0B4B9A780D4B1A72094BDA780B4B5A726A
S3150800690C074B1A79094B9A72054B5A79074BDA7267
S3150800691C034B9A79054B1A73C046BD4602B080BD27
S3150800692C1404002080010020040000200C00002024
S3150800693C80B500AF154B1800FFF7FEF9134B18007E
S3150800694CFFF71CFA114B1800FFF73AFA0F4B180011
S3150800695CFFF758FA0D4B1800FFF798FA0B4B18006F
S3150800696CFFF772FA094B1800FFF704FB074B1800E0
S3150800697CFFF71AFB054B1800FFF730FB034B180003
S3150800698CFFF7A6FAC046BD4680BDC0469801002052
S3150800699CB0B586B000AF364B1A693B001A60344B5B
S315080069AC5A693B005A60324BDA683B009A60304BA6
S315080069BC5A683B00DA602E4B9A683B001A612D4BDD
S315080069CC00225A702B4B00221A701723FB18002230
S315080069DC1A7042E017243B191A7813005B009B18AF
S315080069ECDB00254A9B181800FFF77EF9031E0BD00F
S315080069FC204B5A783B191B78012199400B00DBB2C6
S31508006A0C1343DAB21B4B5A7017257B191A783B00BD
S31508006A1C9200D4587B191B78164A5B00D31802339C
S31508006A2C1B881800FDF746FC031C191C201CFCF7D8
S31508006A3C1FFC031E0BD00F4B1A787B191B780121F0
S31508006A4C99400B00DBB21343DAB20A4B1A701721C2
S31508006A5C7B181A787B1801321A701723FB181B78C7
S31508006A6C042BB7D9C046C046BD4606B0B0BDC04615
S31508006A7C980100208001002024000020B0B500AF4A
S31508006A8C2B4B00221A702B4B9B692B49181CFCF7B5
S31508006A9CF7FF031C1C1C264B5B881800FDF70AFC29
S31508006AAC031C191C201CFCF7CFFB031E06D0204B1D
S31508006ABC1B7801221343DAB21D4B1A701D4BDB6986
S31508006ACC1D49181CFCF7DCFF031C1C1C184B9B8867
S31508006ADC1800FDF7EFFB031C191C201CFCF7B4FB74
S31508006AEC031E06D0124B1B7802221343DAB2104B44
S31508006AFC1A70104B1B6A1049181CFCF7C1FF031CB3
S31508006B0C1C1C0B4BDB881800FDF7D4FB031C191C4B
S31508006B1C201CFCF799FB031E00D106E0044B1B78DE
S31508006B2C04221343DAB2024B1A70C046BD46B0BDF6
S31508006B3C040000209801002000007A4480B582B039
S31508006B4C00AF914B9B78002B1ED08F4B00229A706E
S31508006B5C8D4B1A788D4B1A728B4B5A788B4B5A7203
S31508006B6C8A4B1B7A012B09D1FEF778FF874B5A7A89
S31508006B7C864B11001800FEF78BFF05E0834B1B7A3A
S31508006B8C002B01D1FEF777FF7F4B1B7A002B2DD0FC
S31508006B9C7D4B00221A72FB1D00221A7022E0FB1D87
S31508006BAC1B78794AD318DB78002B0BD0FB1D1A7887
S31508006BBC13005B009B18DB00754A9B181800FFF73F
S31508006BCC43F80AE0FB1D1A7813005B009B18DB00E0
S31508006BDC6F4A9B181800FFF750F8FB1D1A78FB1D17
S31508006BEC01321A70FB1D1B78042BD8D9664B9B7B7C
S31508006BFC002B36D0644B00229A73634B9B7A012B7D
S31508006C0C25D1BB1D00221A701CE05F4B5B7AFF2B4B
S31508006C1C09D05D4B5B7A1A00BB1D1B78DA40130052
S31508006C2C0122134009D0BB1D1B78574A9189594A32
S31508006C3C5B00D31802330A1C1A80BB1D1A78BB1DBD
S31508006C4C01321A70BB1D1B78042BDED909E04E4B9A
S31508006C5C9B7A022B05D14F4B00225A704D4B0022C2
S31508006C6C1A70494B9B7D002B0ED0474B00229A7508
S31508006C7C454B1A8A484B5A80434B5A8A464B9A803C
S31508006C8C414B9A8A444BDA80444B1B78002B46D0EE
S31508006C9C424B00221A703D4B1A7A414B9A703B4B69
S31508006CAC5A7A3F4BDA70394B9A7A3D4B1A71374BF5
S31508006CBCDA7A3B4B5A71354B1A7B394B9A717B1DD9
S31508006CCC00221A7011E07B1D1B787A1D1278314947
S31508006CDC5B00CB1802331988314B04325200D1525F
S31508006CEC7B1D1A787B1D01321A707B1D1B78042BB1
S31508006CFCE9D9294B5A882A4B5A82274B9A88284B0A
S31508006D0C9A82254BDA88264BDA82264B1B78002B7F
S31508006D1C05D0234B1A0000210120FEF72DFE1F4B30
S31508006D2C5B78002B12D01D4B00225A701C4B180096
S31508006D3CFEF7CDFB1B4B1B78002B05D0184B1A0006
S31508006D4C00210120FEF718FEFFF7A8FD0E4B5B7E0F
S31508006D5C002B14D00C4B00225A760B4BDB7D5A1E9B
S31508006D6C9341DBB21A00104B0121180004F033FCD6
S31508006D7C054B1B7E5A1E9341DAB20C4B9A70C046D1
S31508006D8CBD4602B080BDC046600100200C00002044
S31508006D9C2400002080010020040000207C01002033
S31508006DAC140400202E0400200008005000000020C7
S31508006DBC80B582B000AF80239B01184A19001000D9
S31508006DCC04F0ECFB031E25D1642002F009F880239D
S31508006DDC9B01124A1900100004F0E0FB031E19D19E
S31508006DECC04680239B010D4A1900100004F0D6FBFF
S31508006DFC031EF6D000237B6007E07B689BB2180065
S31508006E0CFEF77AFD7B6801337B607A6880239B00EA
S31508006E1C9A42F2DBC046BD4602B080BD000800505F
S31508006E2C80B582B000AF01F0D1FF03007B60294B1F
S31508006E3C1B687A68D31A632B08D9264B7A681A60AA
S31508006E4CFFF776FDFFF7A4FDFFF718FE224B5A6AEB
S31508006E5C224B111C1800FEF77DFEFFF76FFE1F4A2A
S31508006E6C1D4B1100180001F0ADFD1D4B1B687A680F
S31508006E7CD21AFA235B009A4221D3194B7A681A6004
S31508006E8CFDF792FF144B1800FEF724F8124B180066
S31508006E9CFEF792F8104B1800FEF7D4F80E4B5A6A08
S31508006EAC0E4B111C1800FEF771F90E4B1800FEF765
S31508006EBCADF9FEF7E5F9FEF723FAFEF781FA0A4B68
S31508006ECC1B78002B01D0FEF7F5FAC046BD4602B07A
S31508006EDC80BDC04630040020980100200C0000201C
S31508006EEC34040020140400202D04002080B500AFC3
S31508006EFCFA235B0042480322A02104F0BBFF0300DF
S31508006F0C5A425341DAB23F4B1A703E4B1B78002B50
S31508006F1C1BD03D4B1A0000210120FEF743FD3A4BCE
S31508006F2C1800FEF77BFB03001A0001235340DBB263
S31508006F3C002B0ED0344B1800FEF7C9FA324B1A0048
S31508006F4C00210120FEF718FD03E02F4B1800FEF771
S31508006F5CBEFAFEF747FEFEF73BFDFFF79FFCFEF772
S31508006F6C7DFD2A4B01225A70FDF7B6FC2849294BA0
S31508006F7C0A22180002F06EFA642001F031FFFA2397
S31508006F8C5B001F480322782104F074FF03005A4261
S31508006F9C5341DAB2204B1A701F4B1B78002B0AD0C0
S31508006FAC00F098F801F0DAFCFA239B00180001F0BF
S31508006FBC17FFFEF737FA134B1B78002B05D0164B29
S31508006FCC1B78002B01D0012300E00023DAB2A023A2
S31508006FDCDB052021180004F0FEFA01F0F7FE02008A
S31508006FEC0E4B1A6001F0F2FE02000D4B1A600D4BA7
S31508006FFC01221A70012001F0D5FCC046BD4680BDA1
S3150800700C740300202E040020140400200000002025
S3150800701CC0010020E80100202D04002030040020C7
S3150800702C340400202C04002080B500AFFFF7F8FECE
S3150800703C064B5B88002B05D0054B02221A700220E2
S3150800704C01F0B0FCC046BD4680BDC04648080020CD
S3150800705C2C04002080B500AFFFF7E2FE064B5B88D8
S3150800706C002B05D1054B01221A70012001F09AFC60
S3150800707CC046BD4680BDC046480800202C040020EA
S3150800708C80B500AFFDF7FAFBC046BD4680BD0000D3
S3150800709C80B500AFFDF772FEFFF78AFE0C4B1B7826
S315080070AC022B0BD00DDC002B02D0012B03D008E0F1
S315080070BCFFF71CFF09E0FFF7B7FF06E0FFF7CAFF6B
S315080070CC03E0034B00221A70C046C046BD4680BD7D
S315080070DC2C04002080B582B000AF00F0CDFC5B4BD1
S315080070EC5B480122782104F0C5FE031E01D000235B
S315080070FCA8E0584B7B6002E07B68013B7B607B68B1
S3150800710C002BF9D1AE220021782000F035FD202283
S3150800711C0021782000F030FD10220021782000F0A4
S3150800712C2BFDB0220021782000F026FDC822002174
S3150800713C782000F021FD00220021782000F01CFDAB
S3150800714C10220021782000F017FD4022002178201B
S3150800715C00F012FD81220021782000F00DFDFF229F
S3150800716C0021782000F008FDA1220021782000F0EB
S3150800717C03FDA6220021782000F0FEFCA82200219F
S3150800718C782000F0F9FC3F220021782000F0F4FC6E
S3150800719CA4220021782000F0EFFCD32200217820CD
S315080071AC00F0EAFC00220021782000F0E5FCD5224C
S315080071BC0021782000F0E0FCF0220021782000F075
S315080071CCDBFCD9220021782000F0D6FC22220021F3
S315080071DC782000F0D1FCDA220021782000F0CCFCD3
S315080071EC12220021782000F0C7FCDB22002178202F
S315080071FC00F0C2FC20220021782000F0BDFC8D2274
S3150800720C0021782000F0B8FC14220021782000F028
S3150800721CB3FCAF220021782000F0AEFC2E22002110
S3150800722C782000F0A9FC002000F04CF800F016F8C5
S3150800723C094B00221A80084B00225A80064B012261
S3150800724C5A7101231800BD4602B080BD204E0000BD
S3150800725C74030020C40900003808002080B582B0E9
S3150800726C00AFFB1D00221A7021E0FB1D1B78503B5A
S3150800727CDBB21A000021782000F07EFC00220021E7
S3150800728C782000F079FC10220021782000F074FC9C
S3150800729CFB1D1B78DA010A4BD21880234021782073
S315080072AC00F0FEFBFB1D1A78FB1D01321A70FB1D44
S315080072BC1B78072BD9D9C046C046BD4602B080BD3F
S315080072CC3804002080B582B000AF0200FB1D1A708E
S315080072DCFB1D1B78002B01D1002300E0FF23802225
S315080072ECD2000448190007F0E9FFC046BD4602B0B3
S315080072FC80BDC0463804002090B583B000AF0400AA
S3150800730C08001100BB1D221C1A803B1D021C1A808A
S3150800731CFB1C0A1C1A70BB1D1B887F2B52D83B1DE5
S3150800732C1B883F2B4ED8294B1B79002B06D0FB1CF0
S3150800733C1B785A425341DAB2FB1C1A70FB1C1B7899
S3150800734C012B1ED1BB1D1A883B1D1B88DB0898B266
S3150800735C0300DB01D3181E4AD35C5AB23B1D1B88AB
S3150800736C07210B40012199400B005BB2134359B21C
S3150800737CBB1D1A880300DB01D318C9B2144AD154B1
S3150800738C21E0BB1D1A883B1D1B88DB0898B203003D
S3150800739CDB01D3180E4AD35C5BB23A1D128807215F
S315080073AC0A40012191400A0052B2D24352B213400C
S315080073BC59B2BB1D1A880300DB01D318C9B2044A9B
S315080073CCD15400E0C046BD4603B090BD3808002035
S315080073DC3804002080B582B000AF0200BB1D1A80AD
S315080073EC3B1D0A1C1A80064BBA1D12881A80044BC0
S315080073FC3A1D12885A80C046BD4602B080BDC046AA
S3150800740C3808002080B586B000AF39601100FB1D26
S3150800741C021C1A70BB1D0A1C1A703A4B1B881A00E0
S3150800742C3B681B78D3187F2B07DC364B5B881A0016
S3150800743C3B685B78D3183F2B01DD00235DE0002306
S3150800744C7B614AE03B685A68FB1D1B78203B396810
S3150800745C49784B4319007B69CB185B00D3181B88FA
S3150800746CFB6000233B612FE0FA683B699A40802356
S3150800747C1B02134011D0234B1A883B699BB2D318B5
S3150800748C98B2204B5A887B699BB2D31899B2BB1D0C
S3150800749C1B781A00FFF730FF13E01A4B1A883B6962
S315080074AC9BB2D31898B2174B5A887B699BB2D318E0
S315080074BC99B2BB1D1B785A425341DBB21A00FFF72F
S315080074CC1BFF3B6901333B613B681B781A003B6920
S315080074DC9342C9D37B6901337B613B685B781A009D
S315080074EC7B699342AED3074B1B883A6812789B1874
S315080074FC9AB2044B1A80FB1D1B781800BD4606B0C1
S3150800750C80BDC0463808002080B584B000AFF8604E
S3150800751CB960FB1D1A7013E0FB681878FB1D1A7806
S3150800752CBB681900FFF76EFF03001A00FB681B788F
S3150800753C9A4202D0FB681B7808E0FB680133FB60B3
S3150800754CFB681B78002BE7D1FB681B781800BD4637
S3150800755C04B080BDB0B586B000AF05000C001000B5
S3150800756C1900BB1D2A1C1A803B1D221C1A80BB1C29
S3150800757C021C1A803B000A1C1A80BB1D1B887F2B19
S3150800758C02D9BB1D7F221A80BB1C1B887F2B02D9F4
S3150800759CBB1C7F221A803B1D1B883F2B02D93B1D27
S315080075AC3F221A803B001B883F2B02D93B003F2207
S315080075BC1A80BA1DBB1C12881B889A4207D2BA1CA1
S315080075CCBB1D12881B88D31A9BB21BB206E0BA1DC8
S315080075DCBB1C12881B88D31A9BB21BB21222BA1870
S315080075EC13803A1D3B0012881B889A4207D23A0030
S315080075FC3B1D12881B88D31A9BB21BB206E03A1D98
S3150800760C3B0012881B88D31A9BB21BB21022BA18DD
S3150800761C1380BA1DBB1C12881B889A4201D2012200
S3150800762C01E001235A420E23FB181A803A1D3B002F
S3150800763C12881B889A4201D2012201E001235A4280
S3150800764C0C23FB181A8012217A181023FB18002019
S3150800765C125E00201B5E9A4208DD7B1800229B5E98
S3150800766C002B00DA01335B101BB209E01023FB1860
S3150800767C00229B5E002B00DA01335B105B421BB2C7
S3150800768C1622BA1813801223FB1800229B5E002BB5
S3150800769C48D13A003B1D12881B889A420CD2082105
S315080076AC7B183A0012881A803B003A1D12881A80F9
S315080076BC3B1D7A1812881A80BA1CBB1D12881B88A7
S315080076CC9A420CD208217B18BA1C12881A80BB1C49
S315080076DCBA1D12881A80BB1D7A1812881A801423B0
S315080076ECFB183A1D12881A8013E014243B191988C2
S315080076FC2823FB181A78BB1D1B881800FFF7FCFDFE
S3150800770C21007B1800229B5E9BB201339AB27B1830
S3150800771C1A801423FB1800229A5E3B001B889A4297
S3150800772CE3DDA3E01023FB1800229B5E002B48D157
S3150800773C3A003B1D12881B889A420CD208217B18EA
S3150800774C3A0012881A803B003A1D12881A803B1D93
S3150800775C7A1812881A80BA1CBB1D12881B889A4282
S3150800776C0CD208217B18BA1C12881A80BB1CBA1DAD
S3150800777C12881A80BB1D7A1812881A801423FB18D3
S3150800778CBA1D12881A8013E014243B19188828236A
S3150800779CFB181A783B1D1B881900FFF7ADFD210055
S315080077AC7B1800229B5E9BB201339AB27B181A8017
S315080077BC1423FB1800229A5EBB1C1B889A42E3DD35
S315080077CC54E02823FB181A783B1D1988BB1D1B8807
S315080077DC1800FFF791FDBA1DBB1C12881B889A422C
S315080077EC05D13A1D3B0012881B889A423DD00A20C7
S315080077FC3B1816217A1812881A803B1800229A5EB2
S3150800780C1223FB1800201B5E5B429A4210DD7B1884
S3150800781C1A881023FB181B88D31A9AB27B181A805D
S3150800782C0E23FB181988BB1DBA1D12888A181A80D4
S3150800783C0A23FA181023FB180021525E00215B5EFE
S3150800784C9A42BEDA16217B181A881223FB181B8853
S3150800785CD3189AB27B181A800C23FB1819883B1D6F
S3150800786C3A1D12888A181A80ABE7C046BD4606B080
S3150800787CB0BDB0B584B002AF05000C0010001900FD
S3150800788CBB1D2A1C1A803B1D221C1A80BB1C021C01
S3150800789C1A803B000A1C1A80BB1D1B887F2B00D93B
S315080078AC7AE03B1D1B883F2B00D975E0BB1D1A8857
S315080078BCBB1C1B88D3187F2B05DDBB1CBA1D128875
S315080078CC80218A1A1A803B1D1A883B001B88D318FC
S315080078DC3F2B05DD3B003A1D128840218A1A1A8077
S315080078ECBA1DBB1C12881B88D3189AB23B1D1C8860
S315080078FC3B1D1988BB1D188818257B191B78009306
S3150800790C2300FFF727FE3A1D3B0012881B88D31865
S3150800791C99B2BA1DBB1C12881B88D3189CB23A1D87
S3150800792C3B0012881B88D3189AB2BB1D18887B1982
S3150800793C1B78009313002200FFF70CFE3A1D3B0040
S3150800794C12881B88D3189CB2BB1D1A883B1D198834
S3150800795CBB1D18887B191B7800932300FFF7FAFDCB
S3150800796CBA1DBB1C12881B88D31898B2BA1DBB1C2F
S3150800797C12881B88D3189CB23A1D3B0012881B88A8
S3150800798CD3189AB23B1D19887B191B7800931300E0
S3150800799C2200FFF7DFFD00E0C046BD4602B0B0BDD1
S315080079ACB0B586B002AF05000C0010001900BB1D5F
S315080079BC2A1C1A803B1D221C1A80BB1C021C1A800E
S315080079CC3B000A1C1A80BB1D1B887F2B50D83B1DFD
S315080079DC1B883F2B4CD8BB1D1A88BB1C1B88D3187D
S315080079EC7F2B05DDBB1CBA1D128880218A1A1A80CA
S315080079FC3B1D1A883B001B88D3183F2B05DD3B0023
S31508007A0C3A1D128840218A1A1A800F23FB18002265
S31508007A1C1A7024E00F203B181B789AB23B1D1B8862
S31508007A2CD31899B2BA1DBB1C12881B88D3189CB2E2
S31508007A3C05003B181B789AB23B1D1B88D3189AB2C3
S31508007A4CBB1D18882023FB181B78009313002200F3
S31508007A5CFFF780FD7B191A787B1901321A700F23F0
S31508007A6CFB181B789BB23A0012889A42D2D200E0D5
S31508007A7CC046BD4604B0B0BD80B582B000AF074B5A
S31508007A8C7B6002E07B68013B7B607B68002BF9D14D
S31508007A9CC046C046BD4602B080BDC04690D0030065
S31508007AACB0B5C6B002AF040008003A6019002D4BF9
S31508007ABC88256D005B19DB19221C1A702A4B2C00C1
S31508007ACC1B19DB19021C1A70284B20001B18DB1912
S31508007ADC0A1C1A80264B1B18DB19234A1218D219B2
S31508007AEC12781A701023FF33FB1800221A7014E050
S31508007AFC1020FF303B181B783A68D2183B181B78B5
S31508007B0C013311781A4A882464001219D219D154EF
S31508007B1C3B181A783B1801321A701023FF33FB18DE
S31508007B2C1B789BB2114A882149005218D21912881F
S31508007B3C9A42DDD80B4B0A009B18DB191B7899B2B5
S31508007B4C0A4B9B18DB191B8801339BB20C22BA18FB
S31508007B5C08480A24009403F001FEC046BD4644B00A
S31508007B6CB0BDC046F7FEFFFFF6FEFFFFF4FEFFFFB3
S31508007B7CFCFEFFFF7403002090B587B002AF04002B
S31508007B8C08001100FB1D221C1A70BB1D021C1A7062
S31508007B9C7B1D0A1C1A700C203B18BA1D12781A7019
S31508007BAC3B187A1D12785A70FB1D1B7899B23A1835
S31508007BBC04480A230093022303F0D0FDC046BD46B1
S31508007BCC05B090BD7403002080B582B000AF114B90
S31508007BDC1A6C104B01210A431A640E4B1B6C0122BA
S31508007BEC13407B607B680B4BDA6B0A4B802149058B
S31508007BFC0A43DA63074BDA6B80235B0513403B6059
S31508007C0C3B68C023DB00180001F00EF9C046BD46E0
S31508007C1C02B080BD0010024090B58BB000AF786002
S31508007C2C14243B19180014231A00002107F046FBEC
S31508007C3C7B681B683B4A93426FD13B4B1A6C3A4B99
S31508007C4C802149030A431A64374B1A6C80235B0359
S31508007C5C13403B613B69344B5A6B334B01210A4346
S31508007C6C5A63314B5B6B01221340FB60FB682E4B4E
S31508007C7C5A6B2D4B02210A435A632B4B5B6B022220
S31508007C8C1340BB60BB683B19DF221A603B19032201
S31508007C9C5A603B1900229A603A19A023DB05110099
S31508007CAC180003F00FFB3B1907221A603B19032235
S31508007CBC5A603B1900229A603B191C4A190010009D
S31508007CCC03F000FB1A4B1B4A1A60194B05225A6023
S31508007CDC174B00229A60164B0022DA60144B80224E
S31508007CEC1A61134B802292005A61114B80221201A1
S31508007CFC9A610F4B2022DA610D4B00221A620C4B4B
S31508007D0C180002F009FA031E01D0FEF7C1FD7B68C4
S31508007D1C074A1A65064B7A689A62C046BD460BB086
S31508007D2C90BDC046002401400010024000040050DB
S31508007D3C4C0200200800024090B59FB000AF786056
S31508007D4C6423FB18180014231A00002107F0B6FA4E
S31508007D5C18243B1918004C231A00002107F0AEFA18
S31508007D6C7B681B68624A934251D13B198022920464
S31508007D7C1A603B1900229A643B19180005F060FA40
S31508007D8C031E01D0FEF784FD5A4B1B685A1C594B2F
S31508007D9C1A60584B1B68012B0DD1574BDA6B564B97
S31508007DAC802149010A43DA63534BDA6B80235B0162
S31508007DBC13407B617B69504B5A6B4F4B02210A432C
S31508007DCC5A634D4B5B6B022213403B613B69642142
S31508007DDC7B18C02292001A607B1802225A607B1804
S31508007DEC01229A607B180022DA607B1803221A613A
S31508007DFC7B18424A1900100003F064FA002200218D
S31508007E0C152002F057F9152002F069F96BE07B682A
S31508007E1C1B683B4A934266D118217B188022920430
S31508007E2C1A607B1800229A647B18180005F008FA69
S31508007E3C031E01D0FEF72CFD2E4B1B685A1C2D4B2E
S31508007E4C1A602C4B1B68012B0DD12B4BDA6B2A4B6A
S31508007E5C802149010A43DA63274BDA6B80235B01DD
S31508007E6C1340FB60FB68244B5A6B234B04210A43D3
S31508007E7C5A63214B5B6B04221340BB60BB686424BA
S31508007E8C3B1904221A603B1902225A603B1901223B
S31508007E9C9A603B190022DA603B1903221A613B19D6
S31508007EAC184A1900100003F00DFA21007B18082255
S31508007EBC1A607B1802225A607B1800229A607B187B
S31508007ECC0022DA607B1803221A617B180D4A190006
S31508007EDC100003F0F7F900220021152002F0EAF849
S31508007EEC152002F0FCF8C046BD461FB090BDC04632
S31508007EFC00640040400800200010024000040050B6
S31508007F0C006800400008005090B59DB000AF78603E
S31508007F1C5C23FB18180014231A00002107F0CEF96D
S31508007F2C10243B1918004C231A00002107F0C6F937
S31508007F3C7B681B68224A93423DD13B1920221A6062
S31508007F4C3B1900229A613B19180005F079F9031EB2
S31508007F5C01D0FEF79DFC1B4B5A6B1A4B02210A43A8
S31508007F6C5A63184B5B6B02221340FB60FB685C215F
S31508007F7C7B18C0221A607B1812225A607B180122C1
S31508007F8C9A607B180022DA607B1806221A617B1825
S31508007F9C0D4A1900100003F095F90A4BDA6B094BD8
S31508007FAC802189030A43DA63064BDA6B80239B0329
S31508007FBC1340BB60BB68C046BD461DB090BDC046ED
S31508007FCC00540040001002400004005090B597B0D1
S31508007FDC00AF78600C243B1918004C231A000021BA
S31508007FEC07F06CF97B681B68114A93421CD13B1944
S31508007FFC802292031A603B1900229A633B191800D7
S3150800800C05F01EF9031E01D0FEF742FC094B1A6C4B
S3150800801C084B802109010A431A64064B1A6C802303
S3150800802C1B011340BB60BB68C046BD4617B090BD6C
S3150800803C002C01400010024090B589B000AF786062
S3150800804C0C243B19180014231A00002107F036F9E2
S3150800805C7B681B68154A934223D1154B5A6B144BF4
S3150800806C01210A435A63124B5B6B01221340BB6016
S3150800807CBB683B19802252001A6021007B18022229
S3150800808C5A607B1800229A607B180022DA607B18EB
S3150800809C02221A617A18A023DB051100180003F0D6
S315080080AC11F9C046BD4609B090BDC046002C01402A
S315080080BC0010024080B500AFC046FDE780B500AFA2
S315080080CCC046FDE780B500AFC046BD4680BD80B54D
S315080080DC00AFC046BD4680BD80B500AF00F064FE5B
S315080080ECC046BD4680BD000080B500AF054B1800E4
S315080080FC02F064FE044B180002F060FEC046BD4652
S3150800810C80BDC046AC0200201003002080B586B0A6
S3150800811C00AF7860144A154BD31A7B617B693B61B7
S3150800812C134B1B68002B02D1114B124A1A60104BC9
S3150800813C1A687B68D3183A699A4207D207F0C6F8C8
S3150800814C03000C221A6001235B4209E0084B1B68EA
S3150800815CFB60074B1A687B68D218054B1A60FB68DC
S3150800816C1800BD4606B080BD004002200004000081
S3150800817C44080020D009002080B500AFC046BD4693
S3150800818C80BD000090B589B000AF02003960FB1DB8
S3150800819C1A703B680D4A0C243819142107F05AF842
S315080081ACFB1D1B789BB21A1C9200D318DB189BB2CA
S315080081BC19000020FFF70EF905493B190122180092
S315080081CCFFF7A2F9C046BD4609B090BDC0FE00082F
S315080081DC1C00002080B582B000AF3A60BB1D021CA3
S315080081EC1A803B1D0A1C1A803B1D1A88BB1D1B884E
S315080081FC11001800FFF7EEF804493B680122180035
S3150800820CFFF782F9C046BD4602B080BD1C000020AF
S3150800821C90B58BB002AFF8607A600B23FB180A1C7A
S3150800822C1A7000217868FBF70FF8031E02D0012399
S3150800823C5B4200E00123FB6100217868FBF704F838
S3150800824C031E04D07B6880221206534000E07B682C
S3150800825CBB61B869FBF7BEFF03007B617869FBF766
S3150800826CD9FF031C191CB869FBF75CFD031C1449E0
S3150800827C181CFBF705FC031C181CFBF7ABFF0300CB
S3150800828C3B61FB69002B0BDA0B23FB1819787C690D
S3150800829C0C4AF8683B690093230006F0DBFF0AE0FA
S315080082AC0B23FB1819787C69074AF8683B69009315
S315080082BC230006F0CFFFC046BD4609B090BDC046A8
S315080082CC00002041C8FE0008D0FE000890B58FB00B
S315080082DC02AF724B1B78032B06D8704B1B781A000F
S315080082EC6F4B9200D35800E06E4BFB626B4B5B886E
S315080082FC1900FB6A6C4A1024381900911A2106F0E9
S3150800830CA9FF3B1919000020FFF73CFF634B5A687D
S3150800831C3B1D0A211800FFF77BFF3B1D634A3819E2
S3150800832C1A2106F097FF5D4B9A683B1D0A21180027
S3150800833CFFF76EFF381909303B1D5D4A112106F00F
S3150800834C89FF3B1919000120FFF71CFF534BDA680C
S3150800835C3B1D0A211800FFF75BFF3B1D554A3819D0
S3150800836C1A2106F077FF4D4B1A693B1D0A21180096
S3150800837CFFF74EFF381909303B1D4F4A112106F0FD
S3150800838C69FF3B1919000220FFF7FCFE434B5B699A
S3150800839C4A49181CFBF7A6F9031C1A1C3B1D0A2193
S315080083AC1800FFF735FF3B1D454A38191A2106F008
S315080083BC51FF3A4B9B694149181CFBF793F9031C6F
S315080083CC1A1C3B1D0A211800FFF722FF3819083022
S315080083DC3B1D3C4A122106F03DFF3B1919000320B0
S315080083ECFFF7D0FE2D4B1B6A3449181CFBF77AF99C
S315080083FC031C1A1C3B1D0A211800FFF709FF3B1D1D
S3150800840C314A38191A2106F025FF244BDB692B490A
S3150800841C181CFBF767F9031C1A1C3B1D0A211800CC
S3150800842CFFF7F6FE381908303B1D284A122106F0CC
S3150800843C11FF3B1919000420FFF7A4FE174B5B6AC2
S3150800844C1E49181CFBF74EF9031C1A1C3B1D0A2166
S3150800845C1800FFF7DDFE3B1D1D4A38191A2106F0D8
S3150800846CF9FE0E4B9B6A1549181CFBF73BF9031CC6
S3150800847C1A1C3B1D0A211800FFF7CAFE38190830CA
S3150800848C3B1D144A122106F0E5FE3B19190005207E
S3150800849CFFF778FEC046BD460DB090BD48080020D3
S315080084AC700801080CFF000814FF000828FF0008D4
S315080084BC34FF000840FF00084CFF000800007A440F
S315080084CC58FF000860FF00086CFF000874FF0008DE
S315080084DC80FF000888FF000880B582B000AF002036
S315080084ECFEF7F0FE4B4B1A0000210020FFF772FE38
S315080084FC494B1A0000212320FFF76CFE474B1A0044
