S02500004B696E636F44726976655F436F6E74726F6C4D6F64756C655F56355F342E73726563EE
S3150800300000400220B5730008757100087D7100083C
S3150800301000000000000000000000000000000000A2
S315080030200000000000000000000000008571000894
S3150800303000000000000000008F7100089971000868
S31508003040057400080574000805740008057400086E
S31508003050057400080574000805740008057400085E
S31508003060057400080574000805740008057400084E
S31508003070057400080574000805740008A97100089D
S31508003080C171000805740008057400080574000875
S3150800309005740008D971000805740008057400084D
S315080030A0057400080574000805740008057400080E
S311080030B005740008057400080574000883
S315080030BC10B5064C2378002B07D1054B002B02D0F4
S315080030CC044800E000BF0123237010BDB80000209F
S315080030DC000000003CDD0008044B10B5002B03D0A3
S315080030EC0349044800E000BF10BDC04600000000BC
S315080030FCBC0000203CDD0008002243088B4274D338
S3150800310C03098B425FD3030A8B4244D3030B8B42CE
S3150800311C28D3030C8B420DD3FF22090212BA030CD7
S3150800312C8B4202D31212090265D0030B8B4219D3B8
S3150800313C00E0090AC30B8B4201D3CB03C01A5241D8
S3150800314C830B8B4201D38B03C01A5241430B8B4220
S3150800315C01D34B03C01A5241030B8B4201D30B0309
S3150800316CC01A5241C30A8B4201D3CB02C01A524130
S3150800317C830A8B4201D38B02C01A5241430A8B42F3
S3150800318C01D34B02C01A5241030A8B4201D30B02DC
S3150800319CC01A5241CDD2C3098B4201D3CB01C01AF6
S315080031AC524183098B4201D38B01C01A5241430900
S315080031BC8B4201D34B01C01A524103098B4201D3EE
S315080031CC0B01C01A5241C3088B4201D3CB00C01A5B
S315080031DC524183088B4201D38B00C01A52414308D3
S315080031EC8B4201D34B00C01A5241411A00D20146F8
S315080031FC524110467047FFE701B5002000F006F86B
S3150800320C02BDC0460029F7D076E770477047C0461E
S3150800321C844608006146FFE71FB500F0C7FB002887
S3150800322C01D40021C8421FBD10B500F04FFB404227
S3150800323C013010BD10B500F0B9FB002801DB0020E9
S3150800324C10BD012010BDC04610B500F0AFFB00281C
S3150800325C01DD002010BD012010BDC04610B500F0E0
S3150800326C5DFB002801DC002010BD012010BDC04606
S3150800327C10B500F053FB002801DA002010BD012020
S3150800328C10BDC0464A02F8B5530ACE4699464B00BD
S3150800329CC90F4746884646004502360E1B0E80B5B2
S315080032ACC40F6F0A9209AD09F11A44454BD000298F
S315080032BC38DD002B00D174E0FF2E00D1BEE0802350
S315080032CCDB041A431B2900DCFDE0013D6B0100D42D
S315080032DCAFE001256D42AD01AF09380001F00EF8DB
S315080032EC3B0005388340864200DCD3E0B94D311AE1
S315080032FC1D405A0700D19EE00F221340042B00D123
S3150800330C99E004356B0100D495E0481CFE2951D18F
S3150800331CFF200023C0051843E4072043C0BCB94668
S3150800332CB046F8BD002949D0991B002E72D1002D44
S3150800333C00D133E14C1E012900D159E1FF2900D1F6
S3150800334C4CE121006CE0002900DC81E0002B55D112
S3150800335C002A70D04B1E012900D12BE1FF296DD014
S3150800336C1B2B50DC190020235B1A10009A40C8400E
S3150800337C531E9A410243AD188023DB041D4200D12B
S3150800338CADE0711CFE2EC3D001206A082840924D70
S3150800339C154005436A0700D08BE01D42B5D1EF08EE
S315080033AC34E0002A47D04B1E012966D0FF2945D0A8
S315080033BC190087E7C0B2AB015B0AABE7FE239C4654
S315080033CC701C03006046184200D092E0002E00D014
S315080033DCE7E0002D00D119E1002A17D08023AF1A97
S315080033ECDB041F4200D142E14446551B00D187E05D
S315080033FC01201D42DFD10021EF0807E0FF2E1DD06A
S3150800340C1B2900DC94E031000535EF087B025B0ACA
S3150800341CC8B27FE7FF2B00D1E0E08020C00405434B
S3150800342C1B2900DC88E0551E44461E00690100D5A0
S3150800343C4FE731000435EF08FF29E7D1002F00D1FB
S3150800344C66E78023DB033B435B02FF205B0A61E7ED
S3150800345C002958D0991B002E00D089E0002D00D1E8
S3150800346C9DE04E1E012900D1A4E0FF2900D1B6E04B
S3150800347C1B2E00DDB8E0310081E0AA1A530100D4F6
S3150800348CAFE09701BF09380000F038FF3B0005385C
S3150800349C834001261D00811B20200131CD40411A95
S315080034AC8B40591E8B411D432AD000216B0700D136
S315080034BCF0E00F232B40042B00D022E76B0100D53C
S315080034CC23E7EF08A2E720235B1A10009A40C840AE
S315080034DC531E9A410243AD1A6B0100D5FBE66B07E6
S315080034EC00D1D5E00F2331002B40042B00D008E780
S315080034FCA1E7AF1A7B014ED4002F00D0EDE60024CD
S3150800350C0020002306E7FE23711C0B4221D1002E56
S3150800351C00D081E0002D00D19FE0002A00D1B2E056
S3150800352CAB185A0100D4B0E09B0101205B0AF1E606
S3150800353C8023DB041A4316E720242800C840611AA6
S3150800354C8D4029004C1EA141014344461E00551AC4
S3150800355CC2E7FF2900D1DBE6AF187F087B0705D049
S3150800356C0F233D1D3B40042B00D064E7FF084DE7B5
S3150800357CFF2B34D01B2937DC8020C00405432800D8
S3150800358C2026C840711A8D4029004D1EA9410143B9
S3150800359C1E008D18F0E64446571B9EE64446150059
S315080035AC49E7002D46D1002A66D180230024FF2046
S315080035BCDB03AFE6AA18530113D5074F5208174079
S315080035CC530744D00F231340042B40D002213D1D32
S315080035DC31E7C046FFFFFFFBFFFFFF7D44464F4622
S315080035EC2CE70121D70811E705321900D7080DE792
S315080035FC571B7B0137D5BF01BF09380000F07EFE8B
S3150800360C3B00053883404446013643E7002A00D17F
S3150800361C75E744464F46F9E6002DE0D08023DB03D8
S3150800362C002A17D09F4200D20BE7994500D308E72A
S3150800363C4F4606E78023DB03002A0BD09F4200D2B5
S3150800364CFFE6994500D3FCE644464F46F9E60221C7
S3150800365CFF08DBE6FF203B435CE6002A00D14FE778
S3150800366C0021D708D2E644460121FF08CEE6002FF2
S3150800367C00D07BE7002443E780234A46DB03444615
S3150800368CFF20134346E60021C0E60021DF08BDE60D
S3150800369C3100D0E601206A0100D58BE62A00DFE767
S315080036ACF0B546464F46D6464502C0B5C30F470049
S315080036BC98460E1C6D0A3F0E5BD0FF2F21D0802337
S315080036CCED00DB041D43002399469A467F3F74029E
S315080036DC7300640A1B0EF60F002B20D0FF2B43D069
S315080036EC80220020E400D20414437F3B4246FF1A92
S315080036FC4B4672400F2B00D99DE071499B00CB5865
S3150800370C9F46002D5AD108239946063B74029A46C1
S3150800371C7300FF27640A1B0EF60F002BDED1002C54
S3150800372C3BD1012342464946724019430E2918D803
S3150800373C6448890041588F465346022B00D1B8E09D
S3150800374C032B6ED042462C00012B40D100200024BE
S3150800375CC0052043D2071043E0BCBA46B146A8467A
S3150800376CF0BDFF200024F3E7002C20D10223FF3FF5
S3150800377CD8E7002D05D104239946033B00279A4622
S3150800378CA5E7280000F0BAFD7627431F9D400023C5
S3150800379C7F4299469A463F1A99E7200000F0AEFDFB
S315080037AC431F9C4076235B421B1A00209EE703238B
S315080037BC4A461A4391460320FC3397E70C2399464D
S315080037CC093BFF279A4682E703282CD0320038009B
S315080037DC7F30002847DD630704D00F232340042BD2
S315080037EC00D00434230103D53800374B80301C40F5
S315080037FCFE28B6DCA401640AC0B2A9E7802400221C
S3150800380CFF20E403A4E78023DB031D4201D01C42FE
S3150800381C0BD08024E4032C4364024246FF20640A3E
S3150800382C96E746462C008023DB031C4364023200D1
S3150800383CFF20640A8CE76D01600185422DD21B239B
S3150800384C0024013F0126290064006D00002901DBD4
S3150800385C854201D32D1A3443013B002BF3D16B1E41
S3150800386C9D412C43B3E701231B1A1B2B00DD6DE787
S3150800387C21009E37D940BC400B00611E8C41234366
S3150800388C590704D00F211940042900D004335901D3
S3150800389C13D49B0100205C0A5AE71A2301242D1A1B
S315080038ACD0E7981E43425841404232000024C0B229
S315080038BC4EE74246FF2000244AE70120002447E74A
S315080038CC54DD000894DD0008FFFFFFF770B54200D1
S315080038DC4E024C0045026D0A120EC30F760A240ED0
S315080038ECC90FFF2A10D0FF2C0CD00120A2420AD1F6
S315080038FCB54208D18B420FD0002A04D12800431EAA
S3150800390C984100E0012070BD0120FF2CFBD1354306
S3150800391CF9D14B401800F6E70020F4E730B5420021
S3150800392C44024D02C30F4800640A120E6D0A000EBB
S3150800393CC90FFF2A18D0FF280AD0002A1ED1002842
S3150800394C0AD1002D29D0002C2DD14800013830BDC4
S3150800395C002D25D1002A01D1002CF6D08B4219D086
S3150800396C01205B421843F2E7002C19D1FF28F7D146
S3150800397C002D15D100208B42F2D1E8E70028EFD0B4
S3150800398C8B42EDD18242EBDC04DBAC42E8D800205A
S3150800399CAC42DCD258000138D9E7002CD7D0DFE787
S315080039AC02204042D3E78B42DAD1EEE730B542002B
S315080039BC44024D02C30F4800640A120E6D0A000E2B
S315080039CCC90FFF2A17D0FF280AD0002A1BD10028B6
S315080039DC0AD1002D1DD0002C2DD14800013811E03C
S315080039EC002D0ED1002A01D1002CF6D08B420CD119
S315080039FC5800013806E0002C03D1FF2805D1002D0C
S31508003A0C15D0022030BD002806D101205B42184390
S31508003A1CF8E7002CF6D0F8E78B42F6D18242F4DCB4
S31508003A2CE6DBAC42F1D80020AC42EBD2E0E7002052
S31508003A3C8B42EAD1E6E78B42E7D1F2E7F0B54F467F
S31508003A4C4646D6464502C0B546000F1C6D0A360ECC
S31508003A5CC40F002E00D1CDE0FF2E72D08023ED00CE
S31508003A6CDB041D43002399469A467F3E7B025B0A7C
S31508003A7C98467B001B0EFF0F002B72D0FF2B00D134
S31508003A8CA9E07F3BF6184B460A2B00DD85E043463A
S31508003A9C8022DB00D2041A434B4690467C40002217
S31508003AAC022B0FDD494601238B40A621C9000B4288
S31508003ABC00D072E0902189000B4200D0DAE0882110
S31508003ACC194267D1280C42462D042D0C4346290071
S31508003ADC12041B0C120C51435D4342435843AD1858
S31508003AEC0B0C5B199A4203D9802252029446604405
S31508003AFC09041A04090C52189501691E8D411B0CF0
S31508003B0C920E1B1815439B011D431B0100D5CFE0D4
S31508003B1C30007F30002800DCB1E06B070BD00F2398
S31508003B2C32002B40042B06D004352B0103D58032EA
S31508003B3C10006A4B1D40FE2864DCAB015B0AC0B260
S31508003B4C1FE0002D00D08FE008239946063B9A46C5
S31508003B5C7B025B0A98467B00FF261B0EFF0F002B89
S31508003B6C8CD14346002B5CD14A4601331A43914605
S31508003B7C13000A2A11DC01227C40022B92DC00205D
S31508003B8C0023C0051843E4072043E0BCBA46B146F7
S31508003B9CA846F0BD3C00454692465346022B31D00A
S31508003BAC032B11D0012BEAD030008030721C002870
S31508003BBC66DD6B07B9D00F232B40042BB4D1B4E7C1
S31508003BCC0F2A7AD03C0045468023DB032B435B0245
S31508003BDCFF205B0AD5E74346FF36002B34D14A460D
S31508003BEC023313430A2BD8DC7C40002A0AD09946A8
S31508003BFC022257E7002D08D104239946033B0026D9
S31508003C0C9A4633E7FF200023BBE7280000F076FB33
S31508003C1C7626431F9D400023764299469A46361AC5
S31508003C2C24E7404600F06AFB4B46361A763E0A2BCA
S31508003C3CB3DC43460538834098464B4600227C4005
S31508003C4C022B00DD2EE73DE703234A461A431300F1
S31508003C5C0A2AB5DC01229A40882113007C400322EB
S31508003C6C194200D12EE795E70C239946093BFF2606
S31508003C7C9A46FBE680230024FF20DB0381E732000B
S31508003C8C01231B1A1B2B00DD79E79E322900954070
S31508003C9CD9406A1E95410D436B0704D00F232B4060
S31508003CAC042B00D004356B0113D50120002368E7DB
S31508003CBC01236A081D40154376E78023DB031D4262
S31508003CCC82D042461A4200D07EE73C00FF201343BE
S31508003CDC57E7AB0100205B0A53E7C046FFFFFFF727
S31508003CECF8B54746CE464B02460080B5C40F470288
S31508003CFC580A844648007A0A360EBF09000ECD0FBC
S31508003D0C9B09FF286DD001214D40311AAC423AD09F
S31508003D1C002900DC9CE1002800D19EE0FF2E00D192
S31508003D2C88E08022D20413431B2900DCF6E0013F0D
S31508003D3C7A0100D479E001277F42BF01BB09984676
S31508003D4C404600F0DBFA434605388340864200DCE1
S31508003D5CCCE0B44F311A1F405A0768D00F221340D3
S31508003D6C042B64D004377B0161D5481CFE2900D08E
S31508003D7C81E0FF200023C0051843E4072043C0BC9C
S31508003D8CB946B046F8BD002900DC79E1002876D1A1
S31508003D9C002B4CD0481E012900D147E1FF2949D0F8
S31508003DAC1B2871DC01001A002020CA40411A8B40DE
S31508003DBC591E8B411343FF188023DB041F4200D185
S31508003DCCB8E0711CFE2ED4D0012297483A407F08E1
S31508003DDC074017437A0700D096E01F42C5D1FA0868
S31508003DEC55E03100FF398946002B2CD101214D4075
S31508003DFCAC4200D1B4E0494600294CD0002E00D084
S31508003E0CF9E0FF21002F00D108E14A1E012900D153
S31508003E1C56E1FF2900D142E11B2A00DC24E15F1E92
S31508003E2C2C0006007A0100D585E731000437FA081C
S31508003E3CFF292CD1002A9CD08023DB0313435B0279
S31508003E4CFF205B0A97E7AC4200D1A7E0002922D0F5
S31508003E5C002ED6D062462C00EEE7002BE7D0481E83
S31508003E6C012936D0FF29E5D001005DE701203B008A
S31508003E7C7A0100D457E1C0B2BB015B0A7BE7FF2E7F
S31508003E8CD8D01B2900DC9FE031000537FA0853020D
S31508003E9C5B0AC8B26FE7FE20711C084254D1002E8B
S31508003EAC00D0B1E0002F00D102E1002B00D1F9E0DF
S31508003EBC8021FA1AC9040A4200D13BE10124DF1B0E
S31508003ECC2C40002F49D001200F42D5D10021FA08E9
S31508003EDCDDE7FF1A7B0100D4DEE0BD01AD09280041
S31508003EEC00F00CFA2B000538834001262022811B92
S31508003EFC0131521A1F009340CF405A1E93411F435B
S31508003F0C2BD000217B07B1D00F233B40042B00D0CC
S31508003F1C28E77B0100D528E7FA08B8E71A0020201D
S31508003F2CCA40411A8B40591E8B411343FF1A7B0119
S31508003F3C00D502E77B0700D10DE10F2331003B408A
S31508003F4C042B00D00EE772E7FA1A9046520156D4A3
S31508003F5C4346002B00D0F3E60024002000230AE792
S31508003F6C494600291CD0002E00D002E7FF21002F5D
S31508003F7C55D04A1E012959D0FF2900D190E01B2A99
S31508003F8C00DD91E011003A002025CA40691A8F40DD
S31508003F9C791E8F4117430600FF180DE7002926D115
S31508003FACFE20711C084213D1002E00D096E0002F7B
S31508003FBC00D1B4E0002B75D0FB185A0100D4B2E03E
S31508003FCC9B015B0AFD38D6E68022D2041343EAE647
S31508003FDCFF2900D1CDE6FA185208530705D00F234E
S31508003FEC171D1340042B00D021E7D2084FE7002EEB
S31508003FFCBCD0624620E72C00FF200023BBE6012438
S3150800400CDB1B98462C409BE6002F75D1002B00D065
S3150800401C96E080230024FF20DB03ACE62C001F006F
S3150800402C05E7C046FFFFFFFBFFFFFF7DFB185A01A4
S3150800403C00D48DE04A4A5B081A40590700D18CE037
S3150800404C0F210B400D39042BCFD00221171DEEE69C
S3150800405C002900D11FE7821B1100002E00D1D1E6E2
S3150800406C8021C9040F43D7E639002024D140A21A6F
S3150800407C97407A1E97410F432C000600DF1B56E724
S3150800408C00298DD0811B002E00D170E71B290BDC73
S3150800409C8022D204174376E70121FA08F7E62C00AA
S315080040AC6246C7E60021F2E605330100DA08EEE6B9
S315080040BC002B00D150E70124002162462C40E6E68D
S315080040CCDA1B530132D592019409200000F016F937
S315080040DC2300053883402C00012607E7002FDFD084
S315080040EC002B17D08023DB039A4200D2A4E69C450A
S315080040FC00D3A1E662469FE6002B0BD08023DB0398
S3150800410C9A4200D298E69C4500D395E6012462466D
S3150800411C2C4091E68023DB03FF2013432BE600207B
S3150800412C002B00D127E60021DA08B0E62C00012185
S3150800413CD208ACE6002A00D10EE70021D208A6E682
S3150800414C802362460124DB03FF2013432C4012E62E
S3150800415C0121DA089BE6310069E60221D20896E6C7
S3150800416CFFFFFF7D43024A02400049005B0A520AE0
S3150800417C090E000EFF2806D00020FF2902D1531E77
S3150800418C9A4110007047FE38002BFBD1F4E7C04665
S3150800419C41024200C30F490A0020120E7E2A03DD93
S315080041AC9D2A02DD094A98187047802000040143AD
S315080041BC952A07DC9620821AD1404842002BF3D167
S315080041CC0800F1E7963A9140F7E7C046FFFFFF7FF4
S315080041DC70B5002812D0C317C5185D40C40F280047
S315080041EC00F08CF89E231B1A962B0FDC082838D067
S315080041FC083885406D026D0AD8B202E0002400200A
S3150800420C0025C0052843E407204370BD992B14DC10
S3150800421C421F95402A001549114055071CD00F25F9
S3150800422C2A40042A18D00431CA08490115D59F23F7
S3150800423C5202181A550AC0B2E3E7020029001B32CB
S3150800424C91404A1E91410522121AD5402A000A436A
S3150800425C064911405507E2D1CA085202550AD8B286
S3150800426CCFE76D026D0A8E30CBE7C046FFFFFFFB2A
S3150800427C10B5041E0DD000F041F89E231B1A962B80
S3150800428C0CDC082834D0083884406402640AD8B296
S3150800429C01E000200024C005204310BD992B13DC37
S315080042AC421F9440144A224061071CD00F2121401A
S315080042BC042918D00432D408520115D59F23640258
S315080042CC181A640AC0B2E6E7020021001B329140B4
S315080042DC0A00511E8A410521091ACC401443064A84
S315080042EC22406107E2D1D4086402640AD8B2D2E744
S315080042FC6402640A8E30CEE7FFFFFFFB1C21012304
S3150800430C1B04984201D3000C10391B0A984201D39E
S3150800431C000A08391B09984201D30009043902A27C
S3150800432C105C40187047C0460403020201010101E3
S3150800433C000000000000000080B582B000AF786075
S3150800434C7B68082B05D87B68DBB20F221340DBB2DF
S3150800435C00E008231800BD4602B080BD90B58FB0AA
S3150800436C00AF39601100BB1D021C1A807B1D0A1C8C
S3150800437C1A707B1D1B78082B02D97B1D08221A7014
S3150800438C14243B1924220021180009F01FFBBB1D1D
S3150800439C1B885B055A0D21007B181A607B180022B6
S315080043AC5A607B1800229A607B1D1A78194B92006A
S315080043BCD2587B18DA607B1800225A617B180022C7
S315080043CC9A617B180022DA610C243B191800082321
S315080043DC1A00002109F0FAFA3B68002B0AD07B1D5B
S315080043EC1B78002B06D07B1D1A7839683B191800E8
S315080043FC09F01EFB0C23FA181423F918064B18009F
S3150800440C04F08DFE03005A425341DBB21800BD4638
S3150800441C0FB090BDE4DD000820020020B0B590B0C6
S3150800442C00AF786039603B68012213404AD00C25EE
S3150800443C7B1914243A197868402104F0B5FE031E3A
S3150800444C42D121007B181A680223FF339A4209D1FC
S3150800445C7B191B78FF2B05D17B18DB68022B01D146
S3150800446C04F057FA1423FB18DB683F257C1918004F
S3150800447CFFF762FF030023707B191B78082B02D900
S3150800448C7B1908221A70124B08220021180009F011
S3150800449C9DFA3F243B191A780C23F9180C4B180073
S315080044AC09F0C6FA0B4B3A1912781A701423FB1832
S315080044BC1A68094B1A60BFF35F8FC046074B012277
S315080044CC1A7002E0C04600E0C046BD4610B0B0BD4A
S315080044DCDC000020E4000020D8000020D4000020D6
S315080044EC80B588B002AF3B00180018231A000021CB
S315080044FC09F06CFA3B0000221A603B0000225A6055
S3150800450C3B0000229A603B000122DA603B00022243
S3150800451CFF321A613B003022FF325A613A000F4BC8
S3150800452C1100180004F048FD031E01D002F06CF9C6
S3150800453C0A480123009301230222022104F099FD63
S3150800454C064B00220121180004F044FF031E01D07B
S3150800455C02F05AF9C046BD4606B080BD20020020BE
S3150800456C80B584B000AF934B1B78DBB20122534065
S3150800457CDBB2002B00D00CE18F4B1B68FB600B23C6
S3150800458CFB188E4A12781A703B008D4A03CA03C36D
S3150800459C884B00221A70FB68113BFF3B042B00D991
S315080045ACF9E09A00874BD3181B689F460B23FB1818
S315080045BC1B78002B00D1F0E00A217B183A00127800
S315080045CC1A707B181B780122134006D0002002F0C3
S315080045DC9BFA002001F024FA02E0002001F04AFAC6
S315080045EC0A23FB181B780222134006D0012002F07E
S315080045FC8BFA012001F014FA02E0012001F03AFAD4
S3150800460C0A23FB181B780422134006D0022002F05A
S3150800461C7BFA022001F004FA02E0022001F02AFAE1
S3150800462C0A23FB181B780822134002D001F0D4FA8F
S3150800463CB3E001F0DFFAB0E00B23FB181B78002B74
S3150800464C05D03B001B781900012000F0FDFB0B235D
S3150800465CFB181B78012B05D93B005B781900022047
S3150800466C00F0F2FB0B23FB181B78022B05D93B0039
S3150800467C9B781900032000F0E7FB0B23FB181B782B
S3150800468C032B05D93B00DB781900042000F0DCFB72
S3150800469C0B23FB181B78042B00D880E03B001B79F6
S315080046AC1900052000F0D0FB79E00B23FB181B78CA
S315080046BC002B00D175E03B001B78002B02D101F0D2
S315080046CC11F86EE001F0A8F86BE00B23FB181B78C9
S315080046DC012B0ED93B005B781BB21B021AB23B00AE
S315080046EC1B781BB213431BB29BB21900002002F0B5
S315080046FC91F80B23FB181B78032B0ED93B00DB78A0
S3150800470C1BB21B021AB23B009B781BB213431BB29B
S3150800471C9BB21900012002F07DF80B23FB181B78BD
S3150800472C052B40D93B005B791BB21B021AB23B0026
S3150800473C1B791BB213431BB29BB21900022002F061
S3150800474C69F830E00B23FB181B78012B0DD93B00BD
S3150800475C5B781BB21B021AB23B001B781BB21343C5
S3150800476C1BB29BB2180002F06FF80B23FB181B78D0
S3150800477C032B1AD93B00DB781BB21B021AB23B007F
S3150800478C9B781BB213431BB29BB2180002F06CF851
S3150800479C0BE0C0460AE0C04608E0C04606E0C04644
S315080047AC04E0C04602E0C04600E0C046BD4604B080
S315080047BC80BDC046D4000020D8000020E4000020AC
S315080047CCDC000020D0DD000880B582B000AF786030
S315080047DC0A00BB1C1A80BB1C1B88DAB27B681A70D1
S315080047ECBB1C1B881B0A9AB27B680133D2B21A709F
S315080047FCC046BD4602B080BD80B582B000AF7860B9
S3150800480C7A6880235B029A4202D27B689BB200E0EC
S3150800481C024B1800BD4602B080BDC046FFFF000023
S3150800482C80B582B000AF3B00180008231A0000219F
S3150800483C09F0CCF802F0B0F803001800FFF7DCFF1B
S3150800484C03001A003B0011001800FFF7BDFF02F029
S3150800485CB9F803001800FFF7CFFF03001A003B0056
S3150800486C023311001800FFF7AFFF02F083F80300BC
S3150800487C1800FFF7C1FF03001A003B0004331100B0
S3150800488C1800FFF7A1FF0C4B180000F00FFD0300F2
S3150800489C1A003B009A7102F02DF903001A003B002E
S315080048ACDA71390090235B0008221800FFF756FDD1
S315080048BCC046BD4602B080BD0804002080B582B053
S315080048CC00AF3B00180008231A00002109F07EF8F7
S315080048DC02F050F803001800FFF78EFF03001A00C9
S315080048EC3B0011001800FFF76FFF002002F00CF8D0
S315080048FC03001800FFF780FF03001A003B00023381
S3150800490C11001800FFF760FF012001F0FDFF0300FE
S3150800491C1800FFF771FF03001A003B00043311005F
S3150800492C1800FFF751FF022001F0EEFF03001800F4
S3150800493CFFF762FF03001A003B000633110018004C
S3150800494CFFF742FF39002223FF3308221800FFF72E
S3150800495C05FDC046BD4602B080BD000080B586B0D8
S3150800496C00AF0823FB18180006231A00002109F0CB
S3150800497C2DF800237B6123E028235B427B60184AD1
S3150800498C7B69D3181B783A1D1100180002F030FC0D
S3150800499C7B6828333B613B69002B01DA00233B61BA
S315080049AC3B69FF2B01DDFF233B613B69D9B2082329
S315080049BCFA187B69D3180A1C1A707B6901337B6158
S315080049CC7B69052BD8DD0823F91891235B00062291
S315080049DC1800FFF7C3FCC046BD4606B080BDC046EE
S315080049EC08DE000880B584B000AF3B1D180005230F
S315080049FC1A00002108F0EAFF0023FB601CE0BB1C30
S31508004A0C00221A80134AFB68D3181B78BA1C1100AB
S31508004A1C180000F0FFFABB1C1B88642B03D8BB1CC0
S31508004A2C1B88D9B200E064213A1DFB68D3180A1C0E
S31508004A3C1A70FB680133FB60FB68042BDFDD391D3C
S31508004A4C2423FF3305221800FFF788FCC046BD4611
S31508004A5C04B080BD10DE000880B582B000AF3B0004
S31508004A6C180008231A00002108F0B0FF002001F0F6
S31508004A7C2BF8031E06D03B001B7801221343DAB22F
S31508004A8C3B001A70012001F01FF8031E06D03B00EC
S31508004A9C1B7802221343DAB23B001A70022001F08B
S31508004AAC13F8031E06D03B001B7804221343DAB214
S31508004ABC3B001A7001F0ACF8031E06D03B001B78BD
S31508004ACC08221343DAB23B001A70002001F028F8CA
S31508004ADC031E06D03B005B7801221343DAB23B0077
S31508004AEC5A70012001F01CF8031E06D03B005B78B7
S31508004AFC02221343DAB23B005A70022001F010F876
S31508004B0C031E06D03B005B7804221343DAB23B0043
S31508004B1C5A70002001F032F8031E06D03B009B7831
S31508004B2C01221343DAB23B009A70012001F026F8F1
S31508004B3C031E06D03B009B7802221343DAB23B00D5
S31508004B4C9A70022001F01AF8031E06D03B009B78D7
S31508004B5C04221343DAB23B009A7080239B011B4A4A
S31508004B6C1900100005F0FCF8031E06D03B00DB7894
S31508004B7C01221343DAB23B00DA70144B01211800F8
S31508004B8C05F0EEF8031E06D03B00DB780222134331
S31508004B9CDAB23B00DA70A023DB052021180005F0F9
S31508004BACDFF8031E06D03B001B7901221343DAB249
S31508004BBC3B001A71390092235B0008221800FFF794
S31508004BCCCDFBC046BD4602B080BDC04600080050AD
S31508004BDC80B584B000AF3B1D180006231A000021CF
S31508004BEC08F0F4FE0023FB6032E0204BFA68520012
S31508004BFCD35A9BB21B0A9AB20B23FB181A70FB6882
S31508004C0C0122134010D1FB68002B00DA01335B102C
S31508004C1C3A1DD15C0B22BA1812781201D2B20A4389
S31508004C2CD1B23A1DD15410E0FB68002B00DA0133DF
S31508004C3C5B103A1DD15C0B22BA1812780F20024071
S31508004C4CD2B20A43D1B23A1DD154FB680133FB6088
S31508004C5CFB680B2BC9DD391D2623FF3306221800EA
S31508004C6CFFF77CFBC046BD4604B080BD2C01002076
S31508004C7C80B584B000AF00F0CBFE0300FB603B1D93
S31508004C8C180008231A00002108F0A0FEFB685B78C0
S31508004C9C0F221340DAB23B1D1A70FB68DA791B7ABD
S31508004CAC1B0213439AB23B1D013311001800FFF780
S31508004CBC8BFDFB685A7A9B7A1B0213439AB23B1DEF
S31508004CCC033311001800FFF77FFDFB68DA7A1B7BAC
S31508004CDC1B0213439AB23B1D053311001800FFF74C
S31508004CEC73FD391D93235B0008221800FFF736FB6A
S31508004CFCC046BD4604B080BD80B584B000AF00F098
S31508004D0C87FE0300FB603B1D180008231A000021D0
S31508004D1C08F05CFEFB685A7B9B7B1B0213439AB21A
S31508004D2C3B1D11001800FFF74FFDFB68DA7B1B7C57
S31508004D3C1B0213439AB23B1D023311001800FFF7EE
S31508004D4C43FDFB689A783B1D1A71FB68DA783B1DA4
S31508004D5C5A71FB681A793B1D9A71FB685A793B1D87
S31508004D6CDA71391D2823FF3308221800FFF7F6FAE3
S31508004D7CC046BD4604B080BD80B584B000AF78602F
S31508004D8C02F0B8FB0300FB607B6803211800FEF7F2
S31508004D9CB3F90300BB601E4B1B68FA68D31ABA68D2
S31508004DAC9A4201D900232EE0194BFA681A60194B5E
S31508004DBC1B78022B13D017DC002B02D0012B07D043
S31508004DCC12E0FFF72DFDFFF779FDFFF7C7FD0CE0A5
S31508004DDCFFF708FEFFF740FEFFF7FAFE05E0FFF7C0
S31508004DEC47FFFFF789FF00E0C0460A4B1B780133E3
S31508004DFCDAB2084B1A70074B1B78022B02D9054BF3
S31508004E0C00221A7000231800BD4604B080BDC046A7
S31508004E1CE8000020EC00002080B584B000AF02004A
S31508004E2CFB1D1A70FB1D1B78013BFB60FB68002BF6
S31508004E3C04DBFB68042B01DCFB6801E001235B4205
S31508004E4C1800BD4604B080BD80B586B000AF020020
S31508004E5CFB1D1A70BB1D0A1C1A70FB1D1B7818004B
S31508004E6CFFF7DAFF03007B617B69002B5CDB7B6950
S31508004E7CDA00304BD3183B613B691B68002B55D0C5
S31508004E8CBB1D1B78642B02D9BB1D64221A703B69A7
S31508004E9C1B681B68DB6AFB60BB1D1B78FA685343EF
S31508004EAC64211800FEF728F90300BB603B695B68B0
S31508004EBC002B05D13B691B681B68BA685A632CE042
S31508004ECC3B695B68042B05D13B691B681A68BB6890
S31508004EDC936322E03B695B68082B05D13B691B6829
S31508004EEC1A68BB68D36318E03B695B680C2B05D161
S31508004EFC3B691B681A68BB6813640EE03B695B6800
S31508004F0C102B05D13B691B681A68BB68936504E0CE
S31508004F1C3B691B681A68BB68D365074A7B69D31853
S31508004F2CBA1D12781A7002E0C04600E0C046BD46AB
S31508004F3C06B080BD00000020F000002080B584B0CB
S31508004F4C00AF0200FB1D1A70FB1D1B781800FFF73B
S31508004F5C63FF0300FB60FB68002B01DA002303E008
S31508004F6C034AFB68D3181B781800BD4604B080BDED
S31508004F7CF000002080B582B000AF00237B6015E0FE
S31508004F8C0E4B7A68D200D358002B0CD00B4B7A6890
S31508004F9CD200D058094A7B68DB00D31804331B6847
S31508004FAC190006F0E9FE7B6801337B607B68042BED
S31508004FBCE6DDC046C046BD4602B080BD00000020F6
S31508004FCC80B582B000AF00237B6016E00F4B7A6881
S31508004FDCD200D0580D4A7B68DB00D3180433196805
S31508004FEC7A6813009B009B185B00094A9A180523DC
S31508004FFC07F012F87B6801337B607B68042BE5DDD0
S3150800500CC046C046BD4602B080BDC046280000203A
S3150800501CF800002090B589B000AF02003960FB1D7E
S3150800502C1A70FB1D1B781800FFF7F6FE0300BB6110
S3150800503CBB69002B03DA3B6800221A8042E023493D
S3150800504CBA6913009B009B185B00CB1802331988AE
S3150800505C1E48BA6913009B009B185B001A5A162047
S3150800506C3B188A1A1A803B181B88002B03D13B68FD
S3150800507C00221A8026E014243B19154A1A80162396
S3150800508CFB181B8819001348FEF736F803003B611A
S3150800509C3A6913001B019B1A5B00FB60FB686422D0
S315080050AC5A433B191B8819001000FEF725F8030014
S315080050BCFB61FB69642B01D96423FB61FB699AB21A
S315080050CC3B681A80BD4609B090BDC046F800002062
S315080050DC8813000000350C0080B500AF084B18008B
S315080050EC02F03AFD064B180003F034FA031E02D000
S315080050FC01235B4200E000231800BD4680BDC04674
S3150800510C5C01002080B500AF0749084B0C2218003B
S3150800511C02F05EFD031E02D001235B4200E0002371
S3150800512C1800BD4680BDC0462C0100205C0100203D
S3150800513C80B582B000AF0200BB1D1A80BB1D1B8850
S3150800514C074A5343802212019446634405491800C2
S3150800515CFDF7D2FF03001800BD4602B080BDC0465D
S3150800516CE40C0000FF0F000080B584B000AF786037
S3150800517CFFF7B2FFFFF7C6FFFFF7FCFEFFF720FFAE
S3150800518C0B4B180003F0A5FFFFF7AAF902F0B2F9CA
S3150800519C0300FB607B68FA685A607B68FA689A6059
S315080051AC7B6801221A70C046BD4604B080BDC04655
S315080051BC2002002080B582B000AF786000F04EFA6D
S315080051CC00F09EFA7B6802221A70C046BD4602B0F1
S315080051DC80BD80B584B000AF786002F08BF903000F
S315080051ECFB60FFF7BDF97B685B68FA68D31A312B4D
S315080051FC04D97B68FA685A6001F0FAFB7B689B68ED
S3150800520CFA68D21AFA235B009A4208D37B68FA68C2
S3150800521C9A60A023DB052021180004F0DBFDFA2395
S3150800522C5B001800FFF7A8FDC046BD4604B080BD5C
S3150800523C80B582B000AF78607B680C22002118001C
S3150800524C08F0C4FB7B6800221A707B681800FFF70D
S3150800525C8BFF7B681800FFF7ADFFC046BD4602B052
S3150800526C80BD80B582B000AF78607B681B78022B56
S3150800527C0FD013DC002B02D0012B05D00EE07B6877
S3150800528C1800FFF771FF0DE07B681800FFF792FF17
S3150800529C08E07B681800FFF79CFF03E07B68002298
S315080052AC1A70C046C046BD4602B080BD80B582B0F5
S315080052BC00AF78607B681B781800BD4602B080BDCD
S315080052CC80B584B000AF78600F23FB1800221A70E3
S315080052DC7B68BB600E23FB1800221A7010E00E20A8
S315080052EC3B181B78BA68D31819780F22BB18BA184A
S315080052FC12784A401A703B183A18127801321A700A
S3150800530C0E23FB181B78162BE9D90F23FB181B78D1
S3150800531C1800BD4604B080BD80B582B000AF786079
S3150800532C7B681B78A52B01D000230BE07B68180043
S3150800533CFFF7C6FF03001A007B68DB7DD31A5A42B7
S3150800534C5341DBB21800BD4602B080BD80B582B0B1
S3150800535C00AF78607B6818220021180008F036FB2D
S3150800536C7B68A5221A707B680F225A707B680733F4
S3150800537C1A7800210A40111C782252420A431A70E4
S3150800538C5A7800210A40111C13220A435A707B686A
S3150800539C09331A7800210A40111C782252420A4312
S315080053AC1A705A7800210A40111C13220A435A70A3
S315080053BC7B680B331A7800210A40111C782252425A
S315080053CC0A431A705A7800210A40111C13220A4300
S315080053DC5A707B680D331A7800210A40111C20225A
S315080053EC0A431A705A7800210A40111C4E220A43A5
S315080053FC5A707B680F331A7800210A40111C102248
S3150800540C0A431A705A7800210A40111C27220A43AB
S3150800541C5A707B681800FFF753FF03001A007B6865
S3150800542CDA75C046BD4602B080BD80B584B000AF03
S3150800543C0200BB1D1A803B1D0A1C1A800E203B1845
S3150800544C3A1D128840218A1A1A803B18BA1D1088F0
S3150800545C1B8899B282B2914200D9031C9BB21800E0
S3150800546CBD4604B080BD0000F0B58DB004AF040095
S3150800547C0800BA6019000E257B19221C1A800C2309
S3150800548CFB18021C1A80BB1D0A1C1A8006237B619A
S3150800549C1E23FB187A1912881A801C23FB18002263
S315080054AC1A805EE01E23FB181A887B699A40130043
S315080054BC1AB20C217B1800201B5E13431AB2122554
S315080054CC7B191A801026BC197B181A88BB1D1B88D9
S315080054DC11001800FFF7A9FF030023801C23FB18F3
S315080054EC1B88BA68D3187A1911882248FA229200AE
S315080054FC0292BA1912880192009302230A00A0217B
S3150800550C04F02AFD031E31D10023BB610AE01948B9
S3150800551C64230122A02104F081FF031E06D0BB6977
S3150800552C0133BB61BB69092BF1DD00E0C0461E21C6
S3150800553C7B181A887B1801321A800C23FB18002258
S3150800554C1A80BB1DB91D10203A18098812888A1AA8
S3150800555C1A801C22BB18B9183A18098812888A1896
S3150800556C1A80BB1D1B88002B9CD100E0C046BD468B
S3150800557C09B0F0BD84020020F0B58DB004AF04006C
S3150800558C0800BA6019000E257B19221C1A800C23F8
S3150800559CFB18021C1A80BB1D0A1C1A800623BB6149
S315080055AC1E23FB187A1912881A801C23FB18002252
S315080055BC1A8047E01E26BB191A88BB699A40130045
S315080055CC1AB20C217B1800201B5E13431AB2162341
S315080055DCFB181A8014257C197B181A88BB1D1B8886
S315080055EC11001800FFF721FF030023801C243B1928
S315080055FC1B88BA68D3181622BA1811881648FA22C4
S3150800560C920002927A1912880192009302230A00D8
S3150800561CA02104F0CFFDBB191A88BB1901321A80D8
S3150800562C0C217B1800221A80BB1DB91D7A19098812
S3150800563C12888A1A1A803B1939197A190988128814
S3150800564C8A181A80BB1D1B88002BB3D1C046C046CE
S3150800565CBD4609B0F0BDC0468402002090B587B09F
S3150800566C00AF3A00182300210020FFF785FF3B0006
S3150800567C1800FFF751FE031E29D03B009B78642BBC
S3150800568C02D93B0000229A703B00DB78642B02D9C6
S3150800569C3B000022DA703B001B79642B02D93B00D5
S315080056AC00221A713B005B79642B02D93B0000225D
S315080056BC5A713B009B79642B02D93B0000229A71E4
S315080056CC074B3A0013CA13C313CA13C303E0044B9C
S315080056DC1800FFF73BFEC046BD4607B090BDC04656
S315080056EC4401002080B500AF044B1800FFF72EFECE
S315080056FC00F006F8C046BD4680BDC04644010020F1
S3150800570C80B582B000AF434B7B607B685B781A0030
S3150800571C0123134003D0002000F082F902E0002098
S3150800572C00F0A8F97B685B781A000223134003D0B3
S3150800573C012000F075F902E0012000F09BF97B6866
S3150800574C5B781A000423134003D0022000F068F992
S3150800575C02E0022000F08EF97B685B781A000823B9
S3150800576C134002D000F038FA01E000F043FA7B68E7
S3150800577C9B7819000120FFF767FB7B68DB7819001B
S3150800578C0220FFF761FB7B681B7919000320FFF7E2
S3150800579C5BFB7B685B7919000420FFF755FB7B687C
S315080057AC9B7919000520FFF74FFB7B68DA791B7A82
S315080057BC1B0213439BB21900002001F02BF87B68DF
S315080057CC5A7A9B7A1B0213439BB21900012001F0EB
S315080057DC21F87B68DA7A1B7B1B0213439BB21900F0
S315080057EC022001F017F87B685A7B9B7B1B0213433C
S315080057FC9BB2180001F028F87B68DA7B1B7C1B022D
S3150800580C13439BB2180001F02FF8C046BD4602B0F0
S3150800581C80BDC0464401002090B587B000AF3B0060
S3150800582C18220021180008F0D1F83B00A5221A709E
S3150800583C3B0000225A70002000F046F9031E06D0E1
S3150800584C3B005B7801221343DAB23B005A70012005
S3150800585C00F03AF9031E06D03B005B78022213438C
S3150800586CDAB23B005A70022000F02EF9031E06D05D
S3150800587C3B005B7804221343DAB23B005A7000F003
S3150800588CC7F9031E06D03B005B7808221343DAB22D
S3150800589C3B005A700120FFF751FB03001A003B002E
S315080058AC9A700220FFF74AFB03001A003B00DA70D5
S315080058BC0320FFF743FB03001A003B001A71042070
S315080058CCFFF73CFB03001A003B005A710520FFF753
S315080058DC35FB03001A003B009A71002000F0D4FF38
S315080058EC03001A003B000733FF2111400C001978FE
S315080058FC00200140081C211C01431970120A90B2A1
S3150800590C5A7800210A40111C021C0A435A700120BD
S3150800591C00F0BAFF03001A003B000933FF211140BF
S3150800592C0C00197800200140081C211C0143197031
S3150800593C120A90B25A7800210A40111C021C0A431A
S3150800594C5A70022000F0A0FF03001A003B000B332C
S3150800595CFF2111400C00197800200140081C211C5D
S3150800596C01431970120A90B25A7800210A40111C88
S3150800597C021C0A435A7000F09FFF03001A003B00F2
S3150800598C0D33FF2111400C00197800200140081C2A
S3150800599C211C01431970120A90B25A7800210A4048
S315080059AC111C021C0A435A7000F090FF03001A00DF
S315080059BC3B000F33FF2111400C00197800200140E1
S315080059CC081C211C01431970120A90B25A7800213E
S315080059DC0A40111C021C0A435A703B001800FFF7B8
S315080059EC6FFC03001A003B00DA753A0018230021F5
S315080059FC0020FFF739FD054B3A0013CA13C313CA27
S31508005A0C13C3C046BD4607B090BDC046440100202E
S31508005A1C80B500AF014B1800BD4680BD440100207F
S31508005A2C80B582B000AF0200FB1D1A70FB1D1B78F7
S31508005A3C022B02D901235B4216E0FB1D1A780C498E
S31508005A4C13005B009B18DB005858FB1D1A78084995
S31508005A5C13005B009B18DB00CB1804331B88012250
S31508005A6C190004F09AF900231800BD4602B080BD4F
S31508005A7C18DE000880B582B000AF0200FB1D1A7054
S31508005A8CFB1D1B78022B02D901235B4216E0FB1D7A
S31508005A9C1A780C4913005B009B18DB005858FB1D41
S31508005AAC1A78084913005B009B18DB00CB180433E3
S31508005ABC1B880022190004F070F900231800BD4653
S31508005ACC02B080BD18DE000880B582B000AF0200B7
S31508005ADCFB1D1A70FB1D1B78022B01D9002319E03C
S31508005AECFB1D1A780D4913005B009B18DB005858F0
S31508005AFCFB1D1A78094913005B009B18DB00CB18B1
S31508005B0C04331B88190004F02BF90300013B5A4295
S31508005B1C5341DBB21800BD4602B080BD18DE000842
S31508005B2C80B582B000AF0200FB1D1A70FB1D1B78F6
S31508005B3C022B01D900231AE0FB1D1A780E49130013
S31508005B4C5B009B18DB00CB1808331868FB1D1A780A
S31508005B5C094913005B009B18DB00CB180C331B8818
S31508005B6C190004F0FDF803005A425341DBB2180041
S31508005B7CBD4602B080BDC04618DE000880B582B0AE
S31508005B8C00AF0200FB1D1A70FB1D1B78022B01D9F6
S31508005B9C00231AE0FB1D1A780E4913005B009B18AC
S31508005BACDB00CB1810331868FB1D1A78094913004B
S31508005BBC5B009B18DB00CB1814331B88190004F008
S31508005BCCCFF803005A425341DBB21800BD4602B067
S31508005BDC80BDC04618DE000880B500AF80235B0088
S31508005BEC03480122190004F0D8F8C046BD4680BD0A
S31508005BFC000C005080B500AF80235B0003480022E0
S31508005C0C190004F0CAF8C046BD4680BD000C005009
S31508005C1C80B500AF80235B00064A1900100004F01B
S31508005C2C9FF80300013B5A425341DBB21800BD46AC
S31508005C3C80BDC046000C005080B582B000AF7860BD
S31508005C4C7B681B68064A934205D10649064B0C220B
S31508005C5C180001F0BDFFC046BD4602B080BDC04667
S31508005C6C002401402C0100205C01002080B500AF07
S31508005C7C024B034A9A60C046BD4680BD00ED00E063
S31508005C8C0030000880B500AFFFF7F0FF01F0B6FB57
S31508005C9C00F01EF800F082FC00F06AFC00F078F8C0
S31508005CAC00F07EF900F0C4F900F002FA00F0FAFAF6
S31508005CBC00F090FB00F00AFC044B1800FFF7B8FA4A
S31508005CCC024B1800FFF7CDFAFAE7C0460804002085
S31508005CDC90B595B000AF14243B1918003C231A0054
S31508005CEC002107F073FE3B1D180010231A00002133
S31508005CFC07F06CFE80239B00180005F01FF83B1973
S31508005D0C02221A603B1980225200DA603B19802263
S31508005D1C12011A6121007B1840225A617B18022253
S31508005D2C1A627B1802225A627B1800229A627B1826
S31508005D3C0F22DA627B18A02212031A637B188022C0
S31508005D4C92045A637B18C022D2059A637B181800F2
S31508005D5C05F034F8031E01D000F056FD3B1D072252
S31508005D6C1A603B1D02225A603B1D00229A603B1D9D
S31508005D7C0022DA603B1D0221180005F07FFB031E8A
S31508005D8C01D000F041FDC046BD4615B090BD0000DF
S31508005D9C80B584B000AF3B1D18000C231A000021F7
S31508005DAC07F014FE714B724A1A60704B8022D205AA
S31508005DBC5A606E4B00229A606C4B0022DA606B4B71
S31508005DCC802212061A61694B08225A61674B002217
S31508005DDC1A76664B00225A76644B01229A76634BE6
S31508005DEC0122DA61614B00225A62604B00229A62E8
S31508005DFC5E4B2C22002199545C4B802252011A636B
S31508005E0C5A4B05225A63594B3C2200219954574B3D
S31508005E1C80229205DA64554B180001F0F5FC031E36
S31508005E2C01D000F0F1FC3B1D01221A603B1D01223A
S31508005E3C5A603A1D4D4B1100180001F067FF031EFE
S31508005E4C01D000F0E1FC3B1D4A4A1A603A1D474B4B
S31508005E5C1100180001F05AFF031E01D000F0D4FC03
S31508005E6C3B1D454A1A603A1D404B1100180001F0BB
S31508005E7C4DFF031E01D000F0C7FC3B1D3F4A1A60BC
S31508005E8C3A1D3A4B1100180001F040FF031E01D0D1
S31508005E9C00F0BAFC3B1D3A4A1A603A1D334B110006
S31508005EAC180001F033FF031E01D000F0ADFC3B1DBA
S31508005EBC344A1A603A1D2D4B1100180001F026FFC2
S31508005ECC031E01D000F0A0FC3B1D2F4A1A603A1D98
S31508005EDC264B1100180001F019FF031E01D000F023
S31508005EEC93FC3B1D294A1A603A1D204B11001800D9
S31508005EFC01F00CFF031E01D000F086FC3B1D244A62
S31508005F0C1A603A1D194B1100180001F0FFFE031E0A
S31508005F1C01D000F079FC3B1D1E4A1A603A1D134B42
S31508005F2C1100180001F0F2FE031E01D000F06CFC03
S31508005F3C3B1D194A1A603A1D0C4B1100180001F04A
S31508005F4CE5FE031E01D000F05FFC3B1D134A1A60E8
S31508005F5C3A1D064B1100180001F0D8FE031E01D09D
S31508005F6C00F052FCC046BD4604B080BD5C01002062
S31508005F7C0024014002000004040000080800000C7C
S31508005F8C10000010400000188000001C00010020C2
S31508005F9C00020024000400280008002C0000014020
S31508005FAC80B500AF204B214A1A601F4B00225A605D
S31508005FBC1D4B00229A601C4B0022DA601A4B0122F8
S31508005FCC1A74194B00225A74174B00229A74164BE2
S31508005FDC08225A61144B01229A61134B0A22DA6180
S31508005FEC114B04221A62104B01225A620E4B0122E3
S31508005FFC9A620D4B0122DA620B4B01221A630A4B89
S3150800600C02225A63084B00229A63074B0022DA6372
S3150800601C054B180002F06AFE031E01D000F0F4FBD3
S3150800602CC046BD4680BDC046200200200064004024
S3150800603C80B500AF1B4B1C4A1A601A4B1B4A5A6098
S3150800604C184B00229A60174B0122DA60154B002276
S3150800605C1A61144B00225A61124B00229A61114B99
S3150800606C0022DA610F4B00221A620E4B180003F05D
S3150800607CCDFE031E01D000F0C7FB0A4B0021180009
S3150800608C04F0C4FD031E01D000F0BEFB054B002135
S3150800609C180004F007FE031E01D000F0B5FBC0463D
S315080060ACBD4680BD8402002000540040601EB0002E
S315080060BC80B59CB000AF6023FB18180010231A009B
S315080060CC002107F083FC5423FB1818000C231A0034
S315080060DC002107F07BFC3823FB1818001C231A0038
S315080060EC002107F073FC3B1D180034231A0000210D
S315080060FC07F06CFC684B694A1A60674BC822520059
S3150800610C5A60654B00229A60634BFA221201DA60D8
S3150800611C614B00221A61604B00225A615E4B802249
S3150800612C9A615D4B180005F06FFD031E01D000F057
S3150800613C6BFB60217B18802252011A607A18564B29
S3150800614C1100180006F0E0FB031E01D000F05CFB02
S3150800615C514B180005F0B0FD031E01D000F054FB9E
S3150800616C54217B1800221A607B1800225A607B186F
S3150800617C00229A607A18484B1100180007F0FCFAAE
S3150800618C031E01D000F040FB38217B1860221A60F0
S3150800619C7B18C8225A607B1800229A607B1800224A
S315080061ACDA607B1800221A617B1800225A617B1868
S315080061BC00229A617918384B0022180006F0A4FAC6
S315080061CC031E01D000F020FB38217B18FA2292001E
S315080061DC5A607918304B0422180006F095FA031EFB
S315080061EC01D000F011FB38217B18FA22D2005A6034
S315080061FC7918294B0822180006F086FA031E01D0D6
S3150800620C00F002FB38217B18254A5A607918224B74
S3150800621C0C22180006F078FA031E01D000F0F4FAE6
S3150800622C3B1D00221A603B1D00225A603B1D0022B2
S3150800623C9A603B1D0022DA603B1D00221A613B1D49
S3150800624C802292015A613B1D00229A613B1D002255
S3150800625CDA613B1D00221A623B1D802292045A62A7
S3150800626C3B1D00229A623B1D0022DA623B1D00226E
S3150800627C1A633A1D084B1100180007F0F3FA031EAF
S3150800628C01D000F0C1FA044B180000F003FFC04619
S3150800629CBD461CB080BDC046D8020020002C01406B
S315080062ACB80B000080B58CB000AF2023FB18180083
S315080062BC10231A00002107F089FB1423FB18180079
S315080062CC0C231A00002107F081FB3B1D1800102334
S315080062DC1A00002107F07AFB3D4B8022D2051A6082
S315080062EC3B4B3B225A603A4B00229A60384B0122B0
S315080062FC5242DA60364B00221A61354B80229A617B
S3150800630C334B180005F080FC031E01D000F07CFA14
S3150800631C20217B18802252011A607A182C4B110006
S3150800632C180006F0F1FA031E01D000F06DFA284B9E
S3150800633C180005F011FE031E01D000F065FA1421B1
S3150800634C7B1800221A607B1800229A607A18204B58
S3150800635C1100180007F010FA031E01D000F054FAC9
S3150800636C3B1D00221A603B1D01225A603B1D002270
S3150800637C9A603B1D0022DA60391D154B0022180065
S3150800638C06F01EF9031E01D000F03EFA391D104B1B
S3150800639C0422180006F014F9031E01D000F034FA92
S315080063AC391D0B4B0822180006F00AF9031E01D0FA
S315080063BC00F02AFA391D064B0C22180006F000F9D3
S315080063CC031E01D000F020FAC046BD460CB080BDB5
S315080063DC2403002080B58CB000AF2023FB181800CE
S315080063EC10231A00002107F0F1FA1423FB181800E1
S315080063FC0C231A00002107F0E9FA3B1D180010239C
S3150800640C1A00002107F0E2FA2D4B2E4A1A602C4B83
S3150800641C3C225A602A4B00229A60294B2A4ADA6097
S3150800642C274B00221A61264B80229A61244B1800AE
S3150800643C05F0EAFB031E01D000F0E6F920217B18D3
S3150800644C802252011A607A181D4B1100180006F0AA
S3150800645C5BFA031E01D000F0D7F9194B180005F0AA
S3150800646C7BFD031E01D000F0CFF914217B18002206
S3150800647C1A607B1800229A607A18114B11001800C2
S3150800648C07F07AF9031E01D000F0BEF93B1D002275
S3150800649C1A603B1D01225A603B1D00229A603B1D67
S315080064AC0022DA60391D064B0422180006F088F81B
S315080064BC031E01D000F0A8F9C046BD460CB080BD3D
S315080064CC7003002000040040FFFF000080B588B070
S315080064DC00AF3B1D18001C231A00002107F076FAA2
S315080064EC214B224A1A60204BC82252005A601E4B76
S315080064FC00229A601C4BFA221201DA601A4B00220F
S3150800650C1A61194B80229A61174B180005F07CFB0F
S3150800651C031E01D000F078F9134B180005F0CCFBDC
S3150800652C031E01D000F070F93B1D60221A603B1D5A
S3150800653CFA2252005A603B1D00229A603B1D00222B
S3150800654C1A61391D084B0022180006F0DDF8031EE7
S3150800655C01D000F059F9044B180000F09BFDC04619
S3150800656CBD4608B080BDC046BC03002000200040D4
S3150800657C80B582B000AF084B9A6B074B01210A43D2
S3150800658C9A63054B9B6B012213407B607B68C04664
S3150800659CBD4602B080BDC0460010024090B58BB017
S315080065AC00AF14243B19180014231A00002107F015
S315080065BC0DFA8E4B5A6B8D4B04210A435A638B4B3F
S315080065CC5B6B042213403B613B69884B5A6B874BC8
S315080065DC20210A435A63854B5B6B20221340FB60D0
S315080065ECFB68824B5A6B814B01210A435A637F4BDA
S315080065FC5B6B01221340BB60BB687C4B5A6B7B4BB5
S3150800660C02210A435A63794B5B6B022213407B6067
S3150800661C7B68764B5A6B754B08210A435A63734B46
S3150800662C5B6B082213403B603B68714B00220E21C2
S3150800663C180003F0B2FBA023DB050022202118006A
S3150800664C03F0ABFB80231B026A480022190003F0F7
S3150800665CA4FB80235B0068480022190003F09DFB0D
S3150800666C3B19664A1A603B1900225A603B190022EC
S3150800667C9A603B195E4A1900100003F005FA2100CE
S3150800668C7B18802292011A607B18882252035A6062
S3150800669C0C003B1900229A603B19554A1900100048
S315080066AC03F0F2F93B190E221A603B1901225A60C3
S315080066BC3B1900229A603B190022DA603B194C4AB6
S315080066CC1900100003F0E0F93B1920221A603B1957
S315080066DC01225A603B1900229A603B190022DA60A3
S315080066EC3A19A023DB051100180003F0CDF93B1964
S315080066FC434A1A603B1900225A603B1900229A60D9
S3150800670C3B193C4A1900100003F0BEF921007B180E
S3150800671C802212021A600C003B1901225A603B199E
S3150800672C00229A603B190022DA603B19314A19009B
S3150800673C100003F0A9F921007B18802252001A6078
S3150800674C0C003B1901225A603B1900229A603B192E
S3150800675C0022DA603B19284A1900100003F094F954
S3150800676C3B19284A1A603B1900225A603B19012228
S3150800677C9A603B19204A1900100003F085F93B1959
S3150800678C902212021A603B1900225A603B19012208
S3150800679C9A603A19A023DB051100180003F074F966
S315080067AC21007B18C02292001A600C003B190022AB
S315080067BC5A603B1901229A603B190D4A19001000C0
S315080067CC03F062F921007B187E221A607B180022DE
S315080067DC5A607B1800229A607B18074A1900100029
S315080067EC03F052F9C046BD460BB090BD00100240EE
S315080067FC0008005000040050000C0050010800006E
S3150800680C386000000102000080B500AF72B6C046C1
S3150800681CC046FDE780B582B000AF0200FB1D1A70BA
S3150800682C3B1D0A1C1A80FB1D1B78022B06D8FB1D68
S3150800683C1A78044B5200391D0988D152C046BD46F8
S3150800684C02B080BD5000002080B582B000AF0200B7
S3150800685CBB1D1A80034BBA1D1288DA80C046BD468A
S3150800686C02B080BD5000002080B582B000AF020097
S3150800687CBB1D1A80034BBA1D12881A81C046BD4629
S3150800688C02B080BD5000002080B582B000AF020077
S3150800689CFB1D1A70FB1D1B78022B05D8FB1D1A78DD
S315080068AC044B5200D35A00E000231800BD4602B030
S315080068BC80BDC0465000002080B500AF024BDB8877
S315080068CC1800BD4680BDC0465000002080B500AFFC
S315080068DC024B1B891800BD4680BDC04650000020DF
S315080068EC80B582B000AF78607B68064A534348335C
S315080068FC90211800FCF700FC03001800BD4602B0F6
S3150800690C80BDC0464C04000080B584B000AF0200C0
S3150800691CFB1D1A70FB1D1B78022B11D016DC002BE5
S3150800692C02D0012B06D011E00E23FB18104A9289CF
S3150800693C1A800DE00E23FB180D4AD2891A8007E03F
S3150800694C0E23FB180A4A128A1A8001E000230AE071
S3150800695C0E23FB181B881800FEF7EAFB0300180029
S3150800696CFFF7BEFF03001800BD4604B080BDC04645
S3150800697C2C01002080B500AF064BDB8A9BB21800B1
S3150800698CFEF7D6FB03001800FFF7AAFF0300180052
S3150800699CBD4680BD2C01002080B500AF084B5B8A34
S315080069AC9BB21800FEF7C4FB0300DE2253431621E4
S315080069BC1800FCF7A1FB03001800BD4680BDC046B5
S315080069CC2C01002080B500AF084B9B8A9BB218009F
S315080069DCFEF7AEFB0300DE22534316211800FCF724
S315080069EC8BFB03001800BD4680BDC0462C01002059
S315080069FC80B584B000AF0023FB602EE0FB68DBB2E9
S31508006A0C1800FFF761F803001A0001235340DBB2A4
S31508006A1C002B1ED1FB68DBB21800FFF775FF0300CD
S31508006A2C3B60324BFA685200D35A1A003B689342C1
S31508006A3C10D9FB68DBB21800FFF71CF82B4B9A7AB7
S31508006A4C2B49FB68CB181B781343DAB2274B9A727F
S31508006A5C00E0C046FB680133FB60FB68022BCDDD0A
S31508006A6CFFF79AFF0300BB60FFF7ACFF03007B60E0
S31508006A7C1E4BDB881A00BB68934207D21B4B9B7ACA
S31508006A8C08221343DAB2194B9A720DE0174BDB88BE
S31508006A9CF533FF33BA689A4206D3144B9B7A08220D
S31508006AAC9343DAB2114B9A72104B1B891A007B6806
S31508006ABC934207D20D4B9B7A10221343DAB20B4B37
S31508006ACC9A720DE0094B1B89F533FF337A689A42A3
S31508006ADC06D3064B9B7A10229343DAB2034B9A726F
S31508006AEC024B9B7A1800BD4604B080BD50000020AE
S31508006AFC60DE000880B500AF024B9B7A1800BD46D5
S31508006B0C80BDC0465000002080B582B000AF0200A0
S31508006B1CFB1D1A70FB1D1B78022B15D01CDC002BD9
S31508006B2C02D0012B08D017E00E4B9B7A0122934317
S31508006B3CDAB20C4B9A7210E00A4B9B7A02229343F8
S31508006B4CDAB2084B9A7208E0064B9B7A04229343F6
S31508006B5CDAB2044B9A7200E0C046C046BD4602B093
S31508006B6C80BDC0465000002080B582B000AF114BE6
S31508006B7C1A6C104B01210A431A640E4B1B6C01222A
S31508006B8C13407B607B680B4BDA6B0A4B80214905FB
S31508006B9C0A43DA63074BDA6B80235B0513403B60C9
S31508006BAC3B68C023DB00180000F0AEFCC046BD46AF
S31508006BBC02B080BD0010024090B58BB000AF786073
S31508006BCC14243B19180014231A00002106F0FEFEA3
S31508006BDC7B681B683B4A93426FD13B4B1A6C3A4B0A
S31508006BEC802149030A431A64374B1A6C80235B03CA
S31508006BFC13403B613B69344B5A6B334B01210A43B7
S31508006C0C5A63314B5B6B01221340FB60FB682E4BBE
S31508006C1C5A6B2D4B02210A435A632B4B5B6B022290
S31508006C2C1340BB60BB683B19DF221A603B19032271
S31508006C3C5A603B1900229A603A19A023DB05110009
S31508006C4C180002F021FF3B19204A1A603B1903224F
S31508006C5C5A603B1900229A603B191D4A190010000C
S31508006C6C02F012FF1B4B1C4A1A601A4B05225A607B
S31508006C7C184B00229A60174B0022DA60154B8022BB
S31508006C8C1A61144B802252005A61124B802212014F
S31508006C9C9A61104B2022DA610E4B00221A620D4BB8
S31508006CAC180001F047FE031E01D0FFF7ADFD7B6807
S31508006CBC084A1A65074B7A689A62C046BD460BB0F5
S31508006CCC90BDC04600240140001002400714000085
S31508006CDC00040050C00100200800024090B59DB089
S31508006CEC00AF78605C23FB18180014231A000021E7
S31508006CFC06F06CFE10243B1918004C231A000021D0
S31508006D0C06F064FE7B681B68334A93425FD13B19D5
S31508006D1C802292041A603B1900229A643B191800C7
S31508006D2C04F036FD031E01D0FFF76EFD2B4BDA6B14
S31508006D3C2A4B802149010A43DA63284BDA6B8023F4
S31508006D4C5B011340FB60FB68244B5A6B234B0221F7
S31508006D5C0A435A63214B5B6B02221340BB60BB6828
S31508006D6C5C217B18802252001A600C003B19022207
S31508006D7C5A603B1901229A603B190022DA603B19CA
S31508006D8C03221A613B19164A1900100002F07CFE00
S31508006D9C21007B18802292001A607B1802225A6006
S31508006DAC7B1800229A607B180022DA607B18032273
S31508006DBC1A617B180A4A1900100002F065FE0022B7
S31508006DCC0021152001F080FD152001F092FDC0462A
S31508006DDCBD461DB090BDC046006400400010024080
S31508006DEC0004005090B59DB000AF78605C23FB188A
S31508006DFC180014231A00002106F0E8FD10243B198C
S31508006E0C18004C231A00002106F0E0FD7B681B686D
S31508006E1C224A93423DD13B1920221A603B19002283
S31508006E2C9A613B19180004F0B3FC031E01D0FFF756
S31508006E3CEBFC1B4B5A6B1A4B02210A435A63184B31
S31508006E4C5B6B02221340FB60FB685C217B18C0223B
S31508006E5C1A607B1812225A607B1801229A607B18DA
S31508006E6C0022DA607B1806221A617B180D4A190073
S31508006E7C100002F009FE0A4BDA6B094B80218903D4
S31508006E8C0A43DA63064BDA6B80239B031340BB6019
S31508006E9CBB68C046BD461DB090BDC04600540040F8
S31508006EAC001002400004005090B5A3B000AF786003
S31508006EBC7423FB18180014231A00002106F086FD0B
S31508006ECC28243B1918004C231A00002106F07EFDD5
S31508006EDC7B681B68694A93421DD13B198022920331
S31508006EEC1A603B1900229A633B19180004F050FCEF
S31508006EFC031E01D0FFF788FC614B1A6C604B80218E
S31508006F0C09010A431A645E4B1A6C80231B01134051
S31508006F1C7B627B6AAEE07B681A688023DB059A4243
S31508006F2C59D1574BDA6B564B01210A43DA63544B4A
S31508006F3CDB6B012213403B623B6A514B5A6B504B3D
S31508006F4C04210A435A634E4B5B6B04221340FB61C4
S31508006F5CFB694B4B5A6B4A4B02210A435A63484B03
S31508006F6C5B6B02221340BB61BB6974243B1970220C
S31508006F7C1A603B1902225A603B1900229A603B1987
S31508006F8C0022DA603B1902221A613B193D4A1900A4
S31508006F9C100002F079FD21007B18802212011A607C
S31508006FAC7B1802225A607B1800229A607B180022F2
S31508006FBCDA607B1802221A617B18334A1900100012
S31508006FCC02F062FD002200210F2001F07DFC0F204B
S31508006FDC01F08FFC4EE07B681B682C4A934236D135
S31508006FEC274BDA6B264B02210A43DA63244BDB6BFD
S31508006FFC022213407B617B69214B5A6B204B04217F
S3150800700C0A435A631E4B5B6B042213403B613B6974
S3150800701C74217B1880221A607B1802225A607B180E
S3150800702C00229A607B180022DA607B1801221A610A
S3150800703C7B18144A1900100002F026FD00220021C4
S3150800704C102001F041FC102001F053FC12E07B6883
S3150800705C1B680F4A93420DD1094B1A6C084B8021B9
S3150800706C09020A431A64064B1A6C80231B02134046
S3150800707CFB60FB68C046BD4623B090BD002C0140A2
S3150800708C00100240000800500004005000040040A4
S3150800709C0020004090B58BB000AF786014243B19E3
S315080070AC180014231A00002106F090FC7B681B6854
S315080070BC294A934224D1294B5A6B284B01210A435E
S315080070CC5A63264B5B6B012213403B613B693B19A8
S315080070DCF02212011A6021007B1802225A607B18D2
S315080070EC00229A607B180022DA607B1802221A6149
S315080070FC7A18A023DB051100180002F0C5FC27E05E
S3150800710C7B681B68164A934222D1144B5A6B134B55
S3150800711C04210A435A63114B5B6B04221340FB6030
S3150800712CFB6814217B18802252011A607B180222F4
S3150800713C5A607B1800229A607B180022DA607B184A
S3150800714C02221A617B18074A1900100002F09CFCEF
S3150800715CC046BD460BB090BD002C01400010024045
S3150800716C002000400008005080B500AFC046FDE77F
S3150800717C80B500AFC046FDE780B500AFC046BD463A
S3150800718C80BD80B500AFC046BD4680BD80B500AF9A
S3150800719C00F09EF9C046BD4680BD000080B500AF24
S315080071AC034B180005F004F9C046BD4680BDC04621
S315080071BC2403002080B500AF034B180005F0F8F83F
S315080071CCC046BD4680BDC0467003002080B500AFE2
S315080071DC034B180002F0D4F9C046BD4680BDC04624
S315080071EC2002002080B500AFC046BD4680BD000019
S315080071FC90B58BB000AF02003960FB1D1A703B6866
S3150800720C002B02D101235B42B0E0FB1D1B78052B3A
S3150800721C02D901235B42A9E0FB1D197826203B18ED
S3150800722C544A49008A5A1A803B181B88002B02D1EB
S3150800723C02235B429AE02623FB181B881800FDF7ED
S3150800724C17F8031C4C49181CFCF72AFA031C4B4963
S3150800725C181CFCF7F3FB031C3B624949386AFBF71D
S3150800726CE9FF031E02D002235B427FE0454BFB611C
S3150800727CF969386AFCF7E2FB031C4349181CFCF74E
S3150800728C0FFA031CBB614149B869FBF7F1FF031EF2
S3150800729C02D003235B4269E03D49F869FCF7CEFB53
S315080072AC031C1C1C3A49F869FBF7ECFF031C191C58
S315080072BC201CFCF7F5F9031C7B61B9693348FCF70C
S315080072CCEFF9031CFE218905181CFCF709FD031CA4
S315080072DC191C7869FCF7B2FB031C3B610021386961
S315080072ECFBF7B2FF031E02D003235B423EE028499C
S315080072FC3869FCF7D5F9031C181C06F0A3FB031C0C
S3150800730C2449181CFCF7CCF9031C2349181CFBF759
S3150800731CB9FF031CFB600021F868FBF795FF031EF9
S3150800732C02D003235B4221E0F968FE208005FCF7B6
S3150800733CB7F9031C1949181CFCF7D2FC031CBB60D3
S3150800734C1749B868FBF776FF031E05D11549B868C7
S3150800735CFBF784FF031E02D003235B4206E0B868E2
S3150800736CFCF716FF02003B681A6000231800BD469E
S3150800737C0BB090BD2C01002000F07F4533335340F1
S3150800738C0AD7233C00546C48003072470000404131
S3150800739C0050C34700E076450FCF5B3B33938843D9
S315080073AC000020C2000048430D488546FFF71AFF27
S315080073BC0C480D490D4A002302E0D458C450043336
S315080073CCC4188C42F9D30A4A0A4C002301E013600C
S315080073DC0432A242FBD306F007FBFEF753FCFEE78A
S315080073EC0040022000000020B800002014DF00082E
S315080073FCB800002050050020FEE7000080B582B0DA
S3150800740C00AFFB1D00221A700B4B1A680A4B802121
S3150800741C49000A431A60002000F010F8031E03D036
S3150800742CFB1D01221A7001E0FFF79EFBFB1D1B7862
S3150800743C1800BD4602B080BD0020024090B585B04C
S3150800744C00AF78600F23FB1800221A701D4B1B78AF
S3150800745C002B2BD01C4B1C681A4B1B781900FA23D3
S3150800746C9800FBF749FE030019002000FBF744FEC1
S3150800747C0300180001F051FA031E12D17B68032B86
S3150800748C0AD8796801235B420022180001F01CFA1D
S3150800749C0E4B7A681A600DE00F23FB1801221A703E
S315080074AC08E00F23FB1801221A7003E00F23FB18C0
S315080074BC01221A700F23FB181B781800BD4605B05D
S315080074CC90BDC046640000205C00002060000020CF
S315080074DC80B500AF054B1B781A00054B1B68D218F4
S315080074EC034B1A60C046BD4680BDC04664000020EA
S315080074FC1404002080B500AF024B1B681800BD466B
S3150800750C80BDC0461404002080B582B000AF7860F8
S3150800751C064B1B68064A13401900044B7A680A4343
S3150800752C1A60C046BD4602B080BDC0460000014088
S3150800753CFFF9FFFF80B582B000AF786039607B68D1
S3150800754C1B68054A1A403B681A437B681A60C04692
S3150800755CBD4602B080BDC046FFFF3FFE80B582B077
S3150800756C00AF78607B681A68E0235B041340180048
S3150800757CBD4602B080BD80B584B000AFF860B96076
S3150800758C7A60FB685B69BA6804210A400721914056
S3150800759C0A00D2431A40BB6804210B40796899400B
S315080075AC0B001A43FB685A61C046BD4604B080BD41
S315080075BC80B582B000AF786039607B685B693A68E1
S315080075CC04210A40072191400A001A403B6804210D
S315080075DC0B40DA4013001800BD4602B080BD80B5DA
S315080075EC82B000AF78607B68DA68C0231B01134051
S315080075FC01D1012300E000231800BD4602B080BD6E
S3150800760C80B584B000AFF860B9607A60FB689B6A95
S3150800761CBA681F210A400F2191400A00D2431A402A
S3150800762C7B689B0E0F211940BB681F2003409940AD
S3150800763C0B001A43FB689A62C046BD4604B080BD6F
S3150800764C80B582B000AF786039607B689A6A3B680F
S3150800765C5B035B0B1A437B689A62C046BD4602B055
S3150800766C80BD80B582B000AF786039607B689B6A54
S3150800767C3A685203520BD2431A407B689A62C04648
S3150800768CBD4602B080BD000080B584B000AFF8607E
S3150800769CB9607A60FB685B69BA681202D2431A4011
S315080076ACBB681B0279680B4004490B401A43FB68FC
S315080076BC5A61C046BD4604B080BDC04600FFFF07F0
S315080076CC80B582B000AF78607B689B68054A13402A
S315080076DC802252051A437B689A60C046BD4602B0A2
S315080076EC80BDC046E8FFFF6F80B582B000AF7860FA
S315080076FC7B689A6880235B051A4080235B059A424F
S3150800770C01D1012300E000231800BD4602B080BD5C
S3150800771C80B582B000AF78607B689B68044A1340DA
S3150800772C01221A437B689A60C046BD4602B080BDEA
S3150800773CE8FFFF7F80B582B000AF78607B689B68F6
S3150800774C044A134002221A437B689A60C046BD4617
S3150800775C02B080BDE8FFFF7F80B582B000AF7860CD
S3150800776C7B689B6801221340012B01D1012300E0A1
S3150800777C00231800BD4602B080BD80B582B000AFAC
S3150800778C78607B689B6802221340022B01D1012387
S3150800779C00E000231800BD4602B080BD80B582B05B
S315080077AC00AF78607B689B68044A134004221A432E
S315080077BC7B689A60C046BD4602B080BDE8FFFF7F75
S315080077CC80B582B000AF78607B689B68044A13402A
S315080077DC10221A437B689A60C046BD4602B080BD2B
S315080077ECE8FFFF7F80B582B000AF78607B689B6846
S315080077FC04221340042B01D1012300E000231800B6
S3150800780CBD4602B080BD000080B588B000AF786078
S3150800781C1F23FB1800221A700023BB6100237B610F
S3150800782C0023FB607B68002B01D101237FE17B6879
S3150800783C9B6D002B0AD17B681800FFF7BDF97B6896
S3150800784C0022DA657B685422002199547B681B68F0
S3150800785C1800FFF749FF031E15D17B681B68180033
S3150800786CFFF72EFFB44B1B68B4491800FBF744FC12
S3150800787C030001335B00FB6002E0FB68013BFB6025
S3150800788CFB68002BF9D17B681B681800FFF72CFFE7
S3150800789C031E0FD17B689B6D10221A437B689A6571
S315080078AC7B68DB6D01221A437B68DA651F23FB189C
S315080078BC01221A707B681B681800FFF793FF0300F8
S315080078CC3B617B689B6D1022134000D022E13B691B
S315080078DC002B00D01EE17B689B6D994A134002224F
S315080078EC1A437B689A657B681B681800FFF734FF98
S315080078FC031E00D0ADE07B689A687B681B7E9B03F1
S3150800790C1A437B685B7EDB031A437B689B7E5B03AF
S3150800791C1A437B681B6B002B02D080235B0100E0AB
S3150800792C00231A437B68DB681A437B681B69002BA8
S3150800793C04DA7B681B695B005B0801E080239B0308
S3150800794C1A437B682C215B5C5B001343BA691343AF
S3150800795CBB617B6820229B5C012B15D17B689B7EC7
S3150800796C002B05D1BB69802252021343BB610BE085
S3150800797C7B689B6D20221A437B689A657B68DB6D56
S3150800798C01221A437B68DA657B685B6A002B0AD08E
S3150800799C7B685A6AE0235B001A407B689B6A134330
S315080079ACBA691343BB617B681B68DB68654A13407D
S315080079BC19007B681B68BA690A43DA607B685B68DE
S315080079CC9B0F9A077B68DB6C13437A6913437B61BD
S315080079DC7B683C229B5C012B11D17B685B689B0FF7
S315080079EC9A077B681B6C1A437B685B6C1A437B682B
S315080079FC9B6C1A437B691343012213437B617B6897
S31508007A0C1B681B69504A134019007B681B687A6906
S31508007A1C0A431A617B685A68C0231B069A4218D017
S31508007A2C7B685A688023DB059A4212D07B685A68B1
S31508007A3C80231B069A420CD0444B1B68444A1340BD
S31508007A4C19007B685A68F0239B031A403F4B0A437C
S31508007A5C1A607B6818687B685B6B1A000021FFF755
S31508007A6C8AFD7B6818687B689B6B3A491A00FFF796
S31508007A7C82FD7B681B69002B09D17B681B689A6A97
S31508007A8C7B681B68102149420A439A6218E07B6896
S31508007A9C1A6980239B039A4212D17B681B689B6ADE
S31508007AAC7B68DB69013B9B001C2213401022524267
S31508007ABC9A4011007B681A6E7B681B680A439A62A7
S31508007ACC7B681B6800211800FFF772FD02007B68B3
S31508007ADC5B6B9A420BD17B680022DA657B689B6DDF
S31508007AEC0322934301221A437B689A651CE07B6840
S31508007AFC9B6D1222934310221A437B689A657B6806
S31508007B0CDB6D01221A437B68DA651F23FB180122F9
S31508007B1C1A7009E07B689B6D10221A437B689A657C
S31508007B2C1F23FB1801221A701F23FB181B78180039
S31508007B3CBD4608B080BDC0465C000020400D030061
S31508007B4CFDFEFFFF0102DEFF02FCFF1F08270140B6
S31508007B5CFFFFC3FF04FFFF07B0B584B000AF786022
S31508007B6C7B6854229B5C012B01D1022329E07B689C
S31508007B7C5422012199540F257C197B68180000F0B2
S31508007B8C9DFA030023707B191B78002B12D17C19E4
S31508007B9C7B68180000F05AFB030023707B191B78CE
S31508007BAC002B07D17B689B6D084A134001221A43A8
S31508007BBC7B689A657B685422002199540F23FB181D
S31508007BCC1B781800BD4604B0B0BDC046FEFEFFFFCC
S31508007BDCB0B586B000AFF860B9607A60FB681B6810
S31508007BEC1800FFF7FFFD031E6CD1FB6854229B5C43
S31508007BFC012B01D102236CE0FB6854220121995414
S31508007C0CFB681B68DB680122134013D1FB681B68F1
S31508007C1C1800FFF7A1FD031E04D0FB681B681800AB
S31508007C2CFFF788FDFB681B68DA68FB681B6801218F
S31508007C3C0A43DA6017257C19FB68180000F080FAED
S31508007C4C030023702C003B191B78002B3ED1FB68D4
S31508007C5C9B6D224A1340802252001A43FB689A6590
S31508007C6CFB680022DA65FB681B6D1D4ADA62FB6845
S31508007C7C1B6D1C4A1A63FB681B6D1B4A5A63FB680F
S31508007C8C1B681C221A60FB68542200219954FB6855
S31508007C9C1B685A68FB681B6810210A435A60FB6804
S31508007CAC186DFB681B6840331900BA683C197B6869
S31508007CBC00F0ECFE03002370FB681B681800FFF746
S31508007CCC6DFD03E01723FB1802221A701723FB1805
S31508007CDC1B781800BD4606B0B0BDC046FEF0FFFFC7
S31508007CEC15830008DD830008FB83000880B582B085
S31508007CFC00AF7860C046BD4602B080BD80B582B084
S31508007D0C00AF7860C046BD4602B080BD80B586B06F
S31508007D1C00AF786039601723FB1800221A7000230D
S31508007D2CFB607B6854229B5C012B01D10223C0E1CA
S31508007D3C7B685422012199547B681B681800FFF74D
S31508007D4C51FD031E00D0A3E13B685B68022B00D1F2
S31508007D5C43E17B681A6980231B069A4204D07B6828
S31508007D6C1B69C14A934208D17B681A683B681B6831
S31508007D7C19001000FFF764FCC9E07B681A6E3B68B3
S31508007D8C5B681F210B400F2199400B00DB43134006
S31508007D9C19003B681B685B035B0B05D13B681B68CA
S31508007DAC9B0E1F22134098E03B681B680122134068
S31508007DBC00D091E03B681B680222134000D089E092
S31508007DCC3B681B680422134000D081E03B681B68A3
S31508007DDC0822134000D079E03B681B681022134038
S31508007DEC00D071E03B681B682022134000D069E084
S31508007DFC3B681B684022134000D061E03B681B6857
S31508007E0C8022134000D059E03B681A6880235B0037
S31508007E1C134051D13B681A6880239B00134049D103
S31508007E2C3B681A688023DB00134041D13B681A680B
S31508007E3C80231B01134039D13B681A6880235B01E8
S31508007E4C134031D13B681A6880239B01134029D112
S31508007E5C3B681A688023DB01134021D13B681A68FA
S31508007E6C80231B02134019D13B681A6880235B02D6
S31508007E7C134011D13B681A6880239B02134009D121
S31508007E8C3B681A688023DB02134001D0122324E0D6
S31508007E9C002322E0112320E010231EE00F231CE010
S31508007EAC0E231AE00D2318E00C2316E00B2314E01E
S31508007EBC0A2312E0092310E008230EE007230CE03E
S31508007ECC06230AE0052308E0042306E0032304E05E
S31508007EDC022302E0012300E000233A6852681F20BF
S31508007EEC024093400A001A437B681A663B685B6833
S31508007EFC9B085A1C7B68DB699A4208D87B68186809
S31508007F0C3B6859683B681B681A00FFF779FB7B6866
S31508007F1C18683B6819683B689B681A00FFF7B4FB3E
S31508007F2C3B681B68002B00DBBCE0504B1800FFF7C6
S31508007F3C15FB03003B613B681B684D4A934222D1F3
S31508007F4C3A6980231B0413401DD13B698022120415
S31508007F5C1343464A19001000FFF7ECFA454B1B6809
S31508007F6C45491800FBF7C8F803005A1C13005B00B8
S31508007F7C9B189B00FB6002E0FB68013BFB60FB68FF
S31508007F8C002BF9D18EE03B681B683C4A93420ED114
S31508007F9C3A6980235B04134009D13B698022520459
S31508007FAC1343324A19001000FFF7C4FA7AE03B680B
S31508007FBC1B68334A934200D074E03A698023DB038A
S31508007FCC134000D06EE03B698022D2031343274A44
S31508007FDC19001000FFF7AEFA64E07B681A69802373
S31508007FEC1B069A4204D07B681B691F4A934207D129
S31508007FFC7B681A683B681B6819001000FFF731FB91
S3150800800C3B681B68002B4DDA184B1800FFF7A6FACD
S3150800801C03003B613B681B68154A934208D13B69D0
S3150800802C184A1340114A19001000FFF783FA39E071
S3150800803C3B681B68114A934208D13B69124A1340A4
S3150800804C0A4A19001000FFF775FA2BE03B681B6803
S3150800805C0B4A934226D13B690C4A1340034A190032
S3150800806C1000FFF767FA1DE004000080082701409E
S3150800807C001000B05C000020400D0300004000B862
S3150800808C002000B4FFFF7FFFFFFFFFFEFFFFBFFFCF
S3150800809C7B689B6D20221A437B689A651723FB180D
S315080080AC01221A707B685422002199541723FB1855
S315080080BC1B781800BD4606B080BDC04680B584B096
S315080080CC00AF78607B681B681800FFF78BFB031EF4
S315080080DC31D07B681B681800FFF74FFB031E04D1D1
S315080080EC7B681B681800FFF76BFBFFF703FA0300A6
S315080080FCFB601AE0FFF7FEF90200FB68D31A022BA5
S3150800810C13D97B681B689B68042213400DD07B68C7
S3150800811C9B6D10221A437B689A657B68DB6D01227E
S3150800812C1A437B68DA65012306E07B681B689B6843
S3150800813C04221340DED100231800BD4604B080BDCE
S3150800814C80B584B000AF78600023BB607B681B6881
S3150800815C1800FFF701FB031E00D069E07B681B685B
S3150800816C9B68364A13400DD07B689B6D10221A43C8
S3150800817C7B689A657B68DB6D01221A437B68DA6536
S3150800818C012356E07B681B681800FFF7C1FA2C4BD5
S3150800819C1800FFF7E3F9020080231B0413400FD0E5
S315080081AC284B1B6828491800FAF7A6FF0300013369
S315080081BCBB6002E0BB68013BBB60BB68002BF9D116
S315080081CC7B685B7E012B33D0FFF794F90300FB60C9
S315080081DC27E07B681B681800FFF7BEFA031E04D15C
S315080081EC7B681B681800FFF793FAFFF783F9020000
S315080081FCFB68D31A022B14D97B681B681B680122EF
S3150800820C1340012B0DD07B689B6D10221A437B689B
S3150800821C9A657B68DB6D01221A437B68DA65012354
S3150800822C07E07B681B681B6801221340012BD0D121
S3150800823C00231800BD4604B080BDC0461700008058
S3150800824C082701405C000020400D030080B584B06F
S3150800825C00AF78607B681B681800FFF78EFA03007E
S3150800826CFB607B681B681800FFF776FA031E46D07E
S3150800827CFB68002B43D17B681B689B68052213405F
S3150800828C012B0DD17B681B681800FFF753FA7B6826
S3150800829C1B6803221A60FFF72DF90300BB6028E060
S315080082AC7B689B6D10221A437B689A657B68DB6D2D
S315080082BC01221A437B68DA65012321E0FFF71AF9D4
S315080082CC0200BB68D31A022B13D97B681B689B6800
S315080082DC012213400DD07B689B6D10221A437B68D4
S315080082EC9A657B68DB6D01221A437B68DA65012384
S315080082FC06E07B681B689B6801221340DED10023CD
S3150800830C1800BD4604B080BD80B584B000AF786057
S3150800831C7B689B6AFB60FB689B6D5022134041D1BE
S3150800832CFB689B6D802292001A43FB689A65FB6872
S3150800833C1B681800FFF753F9031E2ED0FB689B7EAB
S3150800834C002B2AD1FB681B681B6808221340082BD4
S3150800835C23D1FB681B681800FFF744FA031E10D1DB
S3150800836CFB681B685A68FB681B680C218A435A60B1
S3150800837CFB689B6D154A134001221A43FB689A65E4
S3150800838C0BE0FB689B6D20221A43FB689A65FB6819
S3150800839CDB6D01221A43FB68DA65FB681800FDF7EA
S315080083AC4BFC0FE0FB689B6D1022134004D0FB6856
S315080083BC1800FFF7A3FC05E0FB681B6D5B6B7A687E
S315080083CC10009847C046BD4604B080BDFEFEFFFFB0
S315080083DC80B584B000AF78607B689B6AFB60FB68ED
S315080083EC1800FFF783FCC046BD4604B080BD80B5B7
S315080083FC84B000AF78607B689B6AFB60FB689B6DFA
S3150800840C40221A43FB689A65FB68DB6D04221A4303
S3150800841CFB68DA65FB681800FFF770FCC046BD46BA
S3150800842C04B080BD80B582B000AF78607B681A68EE
S3150800843CF0239B0313401800BD4602B080BD80B5DF
S3150800844C82B000AF78607B681B699B0F9B0718008E
S3150800845CBD4602B080BD80B582B000AF7860396089
S3150800846C7B68B4229B587F2293431A003B681A43B5
S3150800847C7B68B4215A50C046BD4602B080BD80B553
S3150800848C82B000AF78607B68B4229B587F22134079
S3150800849C1800BD4602B080BD80B582B000AF7860CA
S315080084AC7B689B68044A134001221A437B689A60CE
S315080084BCC046BD4602B080BDE8FFFF7F80B582B0DE
S315080084CC00AF78607B689B68044A134002221A4303
S315080084DC7B689A60C046BD4602B080BDE8FFFF7F48
S315080084EC80B582B000AF78607B689B680122134028
