S02500004B696E636F44726976655F436F6E74726F6C4D6F64756C655F56355F342E73726563EE
S3150800300000400220B17400089D6B0008A56B0008FB
S3150800301000000000000000000000000000000000A2
S31508003020000000000000000000000000AD6B000872
S315080030300000000000000000B76B0008C16B000824
S31508003040017500080175000801750008017500087A
S31508003050017500080175000801750008017500086A
S31508003060017500080175000801750008017500085A
S31508003070017500080175000801750008017500084A
S31508003080017500080175000801750008017500083A
S3150800309001750008D16B0008017500080175000864
S315080030A0017500080175000801750008017500081A
S311080030B00175000801750008017500088C
S315080030BC10B5064C2378002B07D1054B002B02D0F4
S315080030CC044800E000BF0123237010BDAC000020AB
S315080030DC00000000C8DB0008044B10B5002B03D019
S315080030EC0349044800E000BF10BDC04600000000BC
S315080030FCB0000020C8DB0008002243088B4274D3BA
S3150800310C03098B425FD3030A8B4244D3030B8B42CE
S3150800311C28D3030C8B420DD3FF22090212BA030CD7
S3150800312C8B4202D31212090265D0030B8B4219D3B8
S3150800313C00E0090AC30B8B4201D3CB03C01A5241D8
S3150800314C830B8B4201D38B03C01A5241430B8B4220
S3150800315C01D34B03C01A5241030B8B4201D30B0309
S3150800316CC01A5241C30A8B4201D3CB02C01A524130
S3150800317C830A8B4201D38B02C01A5241430A8B42F3
S3150800318C01D34B02C01A5241030A8B4201D30B02DC
S3150800319CC01A5241CDD2C3098B4201D3CB01C01AF6
S315080031AC524183098B4201D38B01C01A5241430900
S315080031BC8B4201D34B01C01A524103098B4201D3EE
S315080031CC0B01C01A5241C3088B4201D3CB00C01A5B
S315080031DC524183088B4201D38B00C01A52414308D3
S315080031EC8B4201D34B00C01A5241411A00D20146F8
S315080031FC524110467047FFE701B5002000F006F86B
S3150800320C02BDC0460029F7D076E770477047C0461E
S3150800321C844608006146FFE71FB500F0DFFB00286F
S3150800322C01D40021C8421FBD10B500F067FB40420F
S3150800323C013010BD10B500F0D1FB002801DB0020D1
S3150800324C10BD012010BDC04610B500F0C7FB002804
S3150800325C01DD002010BD012010BDC04610B500F0E0
S3150800326C75FB002801DC002010BD012010BDC046EE
S3150800327C10B500F06BFB002801DA002010BD012008
S3150800328C10BDC0469E2110B5C905041CFFF7F0FFFA
S3150800329C002803D1201C00F093FF10BD9E21201C92
S315080032ACC90500F035FD00F08BFF80231B069C46F4
S315080032BC6044F2E74A02F8B5530ACE4699464B00E3
S315080032CCC90F4746884646004502360E1B0E80B582
S315080032DCC40F6F0A9209AD09F11A44454BD000295F
S315080032EC38DD002B00D174E0FF2E00D1BEE0802320
S315080032FCDB041A431B2900DCFDE0013D6B0100D4FD
S3150800330CAFE001256D42AD01AF09380001F00EF8AA
S3150800331C3B0005388340864200DCD3E0B94D311AB0
S3150800332C1D405A0700D19EE00F221340042B00D1F2
S3150800333C99E004356B0100D495E0481CFE2951D15F
S3150800334CFF200023C0051843E4072043C0BCB94638
S3150800335CB046F8BD002949D0991B002E72D1002D14
S3150800336C00D133E14C1E012900D159E1FF2900D1C6
S3150800337C4CE121006CE0002900DC81E0002B55D1E2
S3150800338C002A70D04B1E012900D12BE1FF296DD0E4
S3150800339C1B2B50DC190020235B1A10009A40C840DE
S315080033AC531E9A410243AD188023DB041D4200D1FB
S315080033BCADE0711CFE2EC3D001206A082840924D40
S315080033CC154005436A0700D08BE01D42B5D1EF08BE
S315080033DC34E0002A47D04B1E012966D0FF2945D078
S315080033EC190087E7C0B2AB015B0AABE7FE239C4624
S315080033FC701C03006046184200D092E0002E00D0E4
S3150800340CE7E0002D00D119E1002A17D08023AF1A66
S3150800341CDB041F4200D142E14446551B00D187E02C
S3150800342C01201D42DFD10021EF0807E0FF2E1DD039
S3150800343C1B2900DC94E031000535EF087B025B0A9A
S3150800344CC8B27FE7FF2B00D1E0E08020C00405431B
S3150800345C1B2900DC88E0551E44461E00690100D570
S3150800346C4FE731000435EF08FF29E7D1002F00D1CB
S3150800347C66E78023DB033B435B02FF205B0A61E7BD
S3150800348C002958D0991B002E00D089E0002D00D1B8
S3150800349C9DE04E1E012900D1A4E0FF2900D1B6E01B
S315080034AC1B2E00DDB8E0310081E0AA1A530100D4C6
S315080034BCAFE09701BF09380000F038FF3B0005382C
S315080034CC834001261D00811B20200131CD40411A65
S315080034DC8B40591E8B411D432AD000216B0700D106
S315080034ECF0E00F232B40042B00D022E76B0100D50C
S315080034FC23E7EF08A2E720235B1A10009A40C8407E
S3150800350C531E9A410243AD1A6B0100D5FBE66B07B5
S3150800351C00D1D5E00F2331002B40042B00D008E74F
S3150800352CA1E7AF1A7B014ED4002F00D0EDE600249C
S3150800353C0020002306E7FE23711C0B4221D1002E26
S3150800354C00D081E0002D00D19FE0002A00D1B2E026
S3150800355CAB185A0100D4B0E09B0101205B0AF1E6D6
S3150800356C8023DB041A4316E720242800C840611A76
S3150800357C8D4029004C1EA141014344461E00551A94
S3150800358CC2E7FF2900D1DBE6AF187F087B0705D019
S3150800359C0F233D1D3B40042B00D064E7FF084DE785
S315080035ACFF2B34D01B2937DC8020C00405432800A8
S315080035BC2026C840711A8D4029004D1EA941014389
S315080035CC1E008D18F0E64446571B9EE64446150029
S315080035DC49E7002D46D1002A66D180230024FF2016
S315080035ECDB03AFE6AA18530113D5074F5208174049
S315080035FC530744D00F231340042B40D002213D1D02
S3150800360C31E7C046FFFFFFFBFFFFFF7D44464F46F1
S3150800361C2CE70121D70811E705321900D7080DE761
S3150800362C571B7B0137D5BF01BF09380000F07EFE5A
S3150800363C3B00053883404446013643E7002A00D14F
S3150800364C75E744464F46F9E6002DE0D08023DB03A8
S3150800365C002A17D09F4200D20BE7994500D308E7FA
S3150800366C4F4606E78023DB03002A0BD09F4200D285
S3150800367CFFE6994500D3FCE644464F46F9E6022197
S3150800368CFF08DBE6FF203B435CE6002A00D14FE748
S3150800369C0021D708D2E644460121FF08CEE6002FC2
S315080036AC00D07BE7002443E780234A46DB034446E5
S315080036BCFF20134346E60021C0E60021DF08BDE6DD
S315080036CC3100D0E601206A0100D58BE62A00DFE737
S315080036DCF0B546464F46D6464502C0B5C30F470019
S315080036EC98460E1C6D0A3F0E5BD0FF2F21D0802307
S315080036FCED00DB041D43002399469A467F3F74026E
S3150800370C7300640A1B0EF60F002B20D0FF2B43D038
S3150800371C80220020E400D20414437F3B4246FF1A61
S3150800372C4B4672400F2B00D99DE071499B00CB5834
S3150800373C9F46002D5AD108239946063B74029A4691
S3150800374C7300FF27640A1B0EF60F002BDED1002C24
S3150800375C3BD1012342464946724019430E2918D8D3
S3150800376C6448890041588F465346022B00D1B8E06D
S3150800377C032B6ED042462C00012B40D1002000248E
S3150800378CC0052043D2071043E0BCBA46B146A8464A
S3150800379CF0BDFF200024F3E7002C20D10223FF3FC5
S315080037ACD8E7002D05D104239946033B00279A46F2
S315080037BCA5E7280000F0BAFD7627431F9D40002395
S315080037CC7F4299469A463F1A99E7200000F0AEFDCB
S315080037DC431F9C4076235B421B1A00209EE703235B
S315080037EC4A461A4391460320FC3397E70C2399461D
S315080037FC093BFF279A4682E703282CD0320038006B
S3150800380C7F30002847DD630704D00F232340042BA1
S3150800381C00D00434230103D53800374B80301C40C4
S3150800382CFE28B6DCA401640AC0B2A9E780240022EB
S3150800383CFF20E403A4E78023DB031D4201D01C42CE
S3150800384C0BD08024E4032C4364024246FF20640A0E
S3150800385C96E746462C008023DB031C4364023200A1
S3150800386CFF20640A8CE76D01600185422DD21B236B
S3150800387C0024013F0126290064006D00002901DBA4
S3150800388C854201D32D1A3443013B002BF3D16B1E11
S3150800389C9D412C43B3E701231B1A1B2B00DD6DE757
S315080038AC21009E37D940BC400B00611E8C41234336
S315080038BC590704D00F211940042900D004335901A3
S315080038CC13D49B0100205C0A5AE71A2301242D1AEB
S315080038DCD0E7981E43425841404232000024C0B2F9
S315080038EC4EE74246FF2000244AE70120002447E71A
S315080038FCE0DB000820DC0008FFFFFFF770B542008C
S3150800390C4E024C0045026D0A120EC30F760A240E9F
S3150800391CC90FFF2A10D0FF2C0CD00120A2420AD1C5
S3150800392CB54208D18B420FD0002A04D12800431E79
S3150800393C984100E0012070BD0120FF2CFBD13543D6
S3150800394CF9D14B401800F6E70020F4E730B54200F1
S3150800395C44024D02C30F4800640A120E6D0A000E8B
S3150800396CC90FFF2A18D0FF280AD0002A1ED1002812
S3150800397C0AD1002D29D0002C2DD14800013830BD94
S3150800398C002D25D1002A01D1002CF6D08B4219D056
S3150800399C01205B421843F2E7002C19D1FF28F7D116
S315080039AC002D15D100208B42F2D1E8E70028EFD084
S315080039BC8B42EDD18242EBDC04DBAC42E8D800202A
S315080039CCAC42DCD258000138D9E7002CD7D0DFE757
S315080039DC02204042D3E78B42DAD1EEE730B54200FB
S315080039EC44024D02C30F4800640A120E6D0A000EFB
S315080039FCC90FFF2A17D0FF280AD0002A1BD1002886
S31508003A0C0AD1002D1DD0002C2DD14800013811E00B
S31508003A1C002D0ED1002A01D1002CF6D08B420CD1E8
S31508003A2C5800013806E0002C03D1FF2805D1002DDB
S31508003A3C15D0022030BD002806D101205B42184360
S31508003A4CF8E7002CF6D0F8E78B42F6D18242F4DC84
S31508003A5CE6DBAC42F1D80020AC42EBD2E0E7002022
S31508003A6C8B42EAD1E6E78B42E7D1F2E7F0B54F464F
S31508003A7C4646D6464502C0B546000F1C6D0A360E9C
S31508003A8CC40F002E00D1CDE0FF2E72D08023ED009E
S31508003A9CDB041D43002399469A467F3E7B025B0A4C
S31508003AAC98467B001B0EFF0F002B72D0FF2B00D104
S31508003ABCA9E07F3BF6184B460A2B00DD85E043460A
S31508003ACC8022DB00D2041A434B4690467C400022E7
S31508003ADC022B0FDD494601238B40A621C9000B4258
S31508003AEC00D072E0902189000B4200D0DAE08821E0
S31508003AFC194267D1280C42462D042D0C4346290041
S31508003B0C12041B0C120C51435D4342435843AD1827
S31508003B1C0B0C5B199A4203D98022520294466044D4
S31508003B2C09041A04090C52189501691E8D411B0CBF
S31508003B3C920E1B1815439B011D431B0100D5CFE0A4
S31508003B4C30007F30002800DCB1E06B070BD00F2368
S31508003B5C32002B40042B06D004352B0103D58032BA
S31508003B6C10006A4B1D40FE2864DCAB015B0AC0B230
S31508003B7C1FE0002D00D08FE008239946063B9A4695
S31508003B8C7B025B0A98467B00FF261B0EFF0F002B59
S31508003B9C8CD14346002B5CD14A4601331A439146D5
S31508003BAC13000A2A11DC01227C40022B92DC00202D
S31508003BBC0023C0051843E4072043E0BCBA46B146C7
S31508003BCCA846F0BD3C00454692465346022B31D0DA
S31508003BDC032B11D0012BEAD030008030721C002840
S31508003BEC66DD6B07B9D00F232B40042BB4D1B4E791
S31508003BFC0F2A7AD03C0045468023DB032B435B0215
S31508003C0CFF205B0AD5E74346FF36002B34D14A46DC
S31508003C1C023313430A2BD8DC7C40002A0AD0994677
S31508003C2C022257E7002D08D104239946033B0026A8
S31508003C3C9A4633E7FF200023BBE7280000F076FB03
S31508003C4C7626431F9D400023764299469A46361A95
S31508003C5C24E7404600F06AFB4B46361A763E0A2B9A
S31508003C6CB3DC43460538834098464B4600227C40D5
S31508003C7C022B00DD2EE73DE703234A461A431300C1
S31508003C8C0A2AB5DC01229A40882113007C400322BB
S31508003C9C194200D12EE795E70C239946093BFF26D6
S31508003CAC9A46FBE680230024FF20DB0381E73200DB
S31508003CBC01231B1A1B2B00DD79E79E322900954040
S31508003CCCD9406A1E95410D436B0704D00F232B4030
S31508003CDC042B00D004356B0113D50120002368E7AB
S31508003CEC01236A081D40154376E78023DB031D4232
S31508003CFC82D042461A4200D07EE73C00FF2013438E
S31508003D0C57E7AB0100205B0A53E7C046FFFFFFF7F6
S31508003D1CF8B54746CE464B02460080B5C40F470257
S31508003D2C580A844648007A0A360EBF09000ECD0F8B
S31508003D3C9B09FF286DD001214D40311AAC423AD06F
S31508003D4C002900DC9CE1002800D19EE0FF2E00D162
S31508003D5C88E08022D20413431B2900DCF6E0013FDD
S31508003D6C7A0100D479E001277F42BF01BB09984646
S31508003D7C404600F0DBFA434605388340864200DCB1
S31508003D8CCCE0B44F311A1F405A0768D00F221340A3
S31508003D9C042B64D004377B0161D5481CFE2900D05E
S31508003DAC81E0FF200023C0051843E4072043C0BC6C
S31508003DBCB946B046F8BD002900DC79E1002876D171
S31508003DCC002B4CD0481E012900D147E1FF2949D0C8
S31508003DDC1B2871DC01001A002020CA40411A8B40AE
S31508003DEC591E8B411343FF188023DB041F4200D155
S31508003DFCB8E0711CFE2ED4D0012297483A407F08B1
S31508003E0C074017437A0700D096E01F42C5D1FA0837
S31508003E1C55E03100FF398946002B2CD101214D4044
S31508003E2CAC4200D1B4E0494600294CD0002E00D053
S31508003E3CF9E0FF21002F00D108E14A1E012900D123
S31508003E4C56E1FF2900D142E11B2A00DC24E15F1E62
S31508003E5C2C0006007A0100D585E731000437FA08EC
S31508003E6CFF292CD1002A9CD08023DB0313435B0249
S31508003E7CFF205B0A97E7AC4200D1A7E0002922D0C5
S31508003E8C002ED6D062462C00EEE7002BE7D0481E53
S31508003E9C012936D0FF29E5D001005DE701203B005A
S31508003EAC7A0100D457E1C0B2BB015B0A7BE7FF2E4F
S31508003EBCD8D01B2900DC9FE031000537FA085302DD
S31508003ECC5B0AC8B26FE7FE20711C084254D1002E5B
S31508003EDC00D0B1E0002F00D102E1002B00D1F9E0AF
S31508003EEC8021FA1AC9040A4200D13BE10124DF1BDE
S31508003EFC2C40002F49D001200F42D5D10021FA08B9
S31508003F0CDDE7FF1A7B0100D4DEE0BD01AD09280010
S31508003F1C00F00CFA2B000538834001262022811B61
S31508003F2C0131521A1F009340CF405A1E93411F432A
S31508003F3C2BD000217B07B1D00F233B40042B00D09C
S31508003F4C28E77B0100D528E7FA08B8E71A002020ED
S31508003F5CCA40411A8B40591E8B411343FF1A7B01E9
S31508003F6C00D502E77B0700D10DE10F2331003B405A
S31508003F7C042B00D00EE772E7FA1A9046520156D473
S31508003F8C4346002B00D0F3E60024002000230AE762
S31508003F9C494600291CD0002E00D002E7FF21002F2D
S31508003FAC55D04A1E012959D0FF2900D190E01B2A69
S31508003FBC00DD91E011003A002025CA40691A8F40AD
S31508003FCC791E8F4117430600FF180DE7002926D1E5
S31508003FDCFE20711C084213D1002E00D096E0002F4B
S31508003FEC00D1B4E0002B75D0FB185A0100D4B2E00E
S31508003FFC9B015B0AFD38D6E68022D2041343EAE617
S3150800400CFF2900D1CDE6FA185208530705D00F231D
S3150800401C171D1340042B00D021E7D2084FE7002EBA
S3150800402CBCD0624620E72C00FF200023BBE6012407
S3150800403CDB1B98462C409BE6002F75D1002B00D035
S3150800404C96E080230024FF20DB03ACE62C001F003F
S3150800405C05E7C046FFFFFFFBFFFFFF7DFB185A0174
S3150800406C00D48DE04A4A5B081A40590700D18CE007
S3150800407C0F210B400D39042BCFD00221171DEEE66C
S3150800408C002900D11FE7821B1100002E00D1D1E6B2
S3150800409C8021C9040F43D7E639002024D140A21A3F
S315080040AC97407A1E97410F432C000600DF1B56E7F4
S315080040BC00298DD0811B002E00D170E71B290BDC43
S315080040CC8022D204174376E70121FA08F7E62C007A
S315080040DC6246C7E60021F2E605330100DA08EEE689
S315080040EC002B00D150E70124002162462C40E6E65D
S315080040FCDA1B530132D592019409200000F016F907
S3150800410C2300053883402C00012607E7002FDFD053
S3150800411C002B17D08023DB039A4200D2A4E69C45D9
S3150800412C00D3A1E662469FE6002B0BD08023DB0367
S3150800413C9A4200D298E69C4500D395E6012462463D
S3150800414C2C4091E68023DB03FF2013432BE600204B
S3150800415C002B00D127E60021DA08B0E62C00012155
S3150800416CD208ACE6002A00D10EE70021D208A6E652
S3150800417C802362460124DB03FF2013432C4012E6FE
S3150800418C0121DA089BE6310069E60221D20896E697
S3150800419CFFFFFF7D43024A02400049005B0A520AB0
S315080041AC090E000EFF2806D00020FF2902D1531E47
S315080041BC9A4110007047FE38002BFBD1F4E7C04635
S315080041CC41024200C30F490A0020120E7E2A03DD63
S315080041DC9D2A02DD094A981870478020000401437D
S315080041EC952A07DC9620821AD1404842002BF3D137
S315080041FC0800F1E7963A9140F7E7C046FFFFFF7FC4
S3150800420C70B5002812D0C317C5185D40C40F280016
S3150800421C00F08CF89E231B1A962B0FDC082838D036
S3150800422C083885406D026D0AD8B202E000240020D9
S3150800423C0025C0052843E407204370BD992B14DCE0
S3150800424C421F95402A001549114055071CD00F25C9
S3150800425C2A40042A18D00431CA08490115D59F23C7
S3150800426C5202181A550AC0B2E3E7020029001B329B
S3150800427C91404A1E91410522121AD5402A000A433A
S3150800428C064911405507E2D1CA085202550AD8B256
S3150800429CCFE76D026D0A8E30CBE7C046FFFFFFFBFA
S315080042AC10B5041E0DD000F041F89E231B1A962B50
S315080042BC0CDC082834D0083884406402640AD8B266
S315080042CC01E000200024C005204310BD992B13DC07
S315080042DC421F9440144A224061071CD00F212140EA
S315080042EC042918D00432D408520115D59F23640228
S315080042FC181A640AC0B2E6E7020021001B32914084
S3150800430C0A00511E8A410521091ACC401443064A53
S3150800431C22406107E2D1D4086402640AD8B2D2E713
S3150800432C6402640A8E30CEE7FFFFFFFB1C210123D3
S3150800433C1B04984201D3000C10391B0A984201D36E
S3150800434C000A08391B09984201D30009043902A24C
S3150800435C105C40187047C0460403020201010101B3
S3150800436C0000000000000000B0B590B000AF786007
S3150800437C39603B680122134049D00C243B1914259B
S3150800438C7A197868402104F095FF031E41D17B19F0
S3150800439C1B68224A934205D13B191B78FF2B01D186
S315080043AC04F03DFB1423FB18DB681A0C3F217B1821
S315080043BC1A700A00BB181B78082B02D9BB180822DE
S315080043CC1A70174B08220021180009F045FA3F24E9
S315080043DC3B191A780C23F918114B180009F06EFAC8
S315080043EC104B3A1912781A701423FB181A680E4BCC
S315080043FC1A600E4B1B78DBB20133DAB20B4B1A7010
S3150800440CBFF35F8FC0460A4B01221A7002E0C04602
S3150800441C00E0C046BD4610B0B0BDC04667060000F9
S3150800442CD0000020D8000020CC000020D9000020A5
S3150800443CC800002080B582B000AF3B0018000823E6
S3150800444C1A00002109F008FABE4B0221180005F0E3
S3150800445C0DFD031E06D03B001B7801221343DAB26E
S3150800446C3B001A70B74B0421180005F0FFFC031E1D
S3150800447C06D03B001B7802221343DAB23B001A70B3
S3150800448CB04B0821180005F0F1FC031E06D03B00C2
S3150800449C1B7804221343DAB23B001A7080235B00A4
S315080044ACA94A1900100005F0E1FC031E06D03B00D2
S315080044BC1B7808221343DAB23B001A7080235A0180
S315080044CCA023DB051100180005F0D0FC031E06D14D
S315080044DC3B005B7801221343DAB23B005A70802307
S315080044EC5B00984A1900100005F0C0FC031E06D1A3
S315080044FC3B005B7802221343DAB23B005A70924BAC
S3150800450C0121180005F0B2FC031E06D13B005B78AE
S3150800451C04221343DAB23B005A7080239B008A4A62
S3150800452C1900100005F0A2FC031E06D13B009B786F
S3150800453C01221343DAB23B009A7080231A02A02395
S3150800454CDB051100180005F091FC031E06D13B0093
S3150800455C9B7802221343DAB23B009A7080239B00A5
S3150800456C784A1900100005F081FC031E06D13B00A1
S3150800457C9B7804221343DAB23B009A7080239B0182
S3150800458C724A1900100005F071FC031E06D03B0098
S3150800459CDB7801221343DAB23B00DA708023DB01A5
S315080045AC6A4A1900100005F061FC031E06D03B0090
S315080045BCDB7802221343DAB23B00DA7000F0D0FB48
S315080045CC031E06D03B00DB7804221343DAB23B0009
S315080045DCDA7000F091FB0300013306D13B00DB785F
S315080045EC08221343DAB23B00DA70584B1021180034
S315080045FC05F03CFC031E06D03B001B790122134335
S3150800460CDAB23B001A71514B0821180005F02EFC42
S3150800461C031E06D03B001B7902221343DAB23B0079
S3150800462C1A71494B2021180005F020FC031E06D0F0
S3150800463C3B001B7904221343DAB23B001A71424B36
S3150800464C0821180005F012FC031E06D03B001B7946
S3150800465C08221343DAB23B001A713B4B02211800AD
S3150800466C05F004FC031E06D03B001B7910221343ED
S3150800467CDAB23B001A71354B2021180005F0F6FB0F
S3150800468C031E06D03B005B7901221343DAB23B00CA
S3150800469C5A712D4B4021180005F0E8FB031E06D075
S315080046AC3B005B7904221343DAB23B005A71264B62
S315080046BC1021180005F0DAFB031E06D03B005B79C7
S315080046CC08221343DAB23B005A711F4B0421180017
S315080046DC05F0CCFB031E06D03B005B791022134376
S315080046ECDAB23B005A71A023DB052021180005F02D
S315080046FCBDFB031E06D03B009B7901221343DAB29D
S3150800470C3B009A7180239B010E4A1900100005F094
S3150800471CADFB031E06D03B009B7902221343DAB28B
S3150800472C3B009A710A4B1B78DAB23B00DA713B00F4
S3150800473C08480822190001F075FEC046BD4602B0AD
S3150800474C80BDC04600080050000C00500004005004
S3150800475CD90000206706040680B584B000AF01F0C6
S3150800476C41FE0300FB603B1D180006231A000021BE
S3150800477C09F072F8FB685B780F221340DAB23B1D1E
S3150800478C1A70FB689A783B1D5A70FB68DA783B1DE1
S3150800479C9A70FB681A793B1DDA70FB685A793B1DCF
S315080047AC1A71FB689A793B1D5A713B1D04480622FF
S315080047BC190001F037FEC046BD4604B080BDC046A0
S315080047CC6706060680B500AF024B034A9A60C046D8
S315080047DCBD4680BD00ED00E00030000880B500AF96
S315080047ECFFF7F0FFC046BD4680BD000080B588B017
S315080047FC02AF3B00180018231A00002109F02CF808
S3150800480C3B008022D2051A603B0000225A603B000E
S3150800481C02229A603B000122DA603B00124A1A61B6
S3150800482C3B00124A5A613A00114B1100180004F069
S3150800483C49FC031E01D002F07DF90D4801230093B3
S3150800484C01230222022104F09AFC094B00220121C1
S3150800485C180004F045FE031E01D002F06BF9C046A1
S3150800486CBD4606B080BDC046670600000000FF1FA7
S3150800487C1C02002080B586B000AF6F4B1B78DBB2EC
S3150800488C01225340DBB2002B00D0C8E06B4B1B68EF
S3150800489C7B611323FB186A4A12781A703B1D694A06
S315080048AC03CA03C3644B00221A707B691B0C9AB2A9
S315080048BC10217B18D204D20C1A80634B7A181288F2
S315080048CC1A80624B1B780133DAB2604B1A707B186C
S315080048DC1B8880229200934200D188E080229200A5
S315080048EC934200DD9DE088225200934204D0A02218
S315080048FC5200934243D094E01323FB181B78002BE9
S3150800490C00D190E00F217B183A1D12781A707B188B
S3150800491C1B780122134004D00021012000F05AFD17
S3150800492C03E00021012000F085FD0F23FB181B78FE
S3150800493C0222134004D00021022000F04BFD03E0B4
S3150800494C0021022000F076FD0F23FB181B780422A9
S3150800495C134004D00021032000F03CFD03E00021A5
S3150800496C032000F067FD0F23FB181B780822134061
S3150800497C02D000F0B1FF56E000F0CEFF53E013234F
S3150800498CFB181B78002B05D03B1D1B781900012042
S3150800499C00F0B0FB1323FB181B78012B05D93B1D24
S315080049AC5B781900022000F0A5FB1323FB181B7873
S315080049BC022B05D93B1D9B781900032000F09AFBA6
S315080049CC1323FB181B78032B05D93B1DDB78190021
S315080049DC042000F08FFB1323FB181B78042B24D917
S315080049EC3B1D1B791900052000F084FB1DE01323E1
S315080049FCFB181B78002B1AD03B1D1B781A000123B9
S31508004A0C134001D001F006FC3B1D1B781A0002234B
S31508004A1C134001D001F060FCFFF79EFE07E0C0468C
S31508004A2C06E0C04604E0C04602E0C04600E0C046C8
S31508004A3CBD4606B080BDC046C8000020CC0000208C
S31508004A4CD8000020D0000020DC000020DA0000206E
S31508004A5C90B591B000AF786002F0CAFD0300BB6355
S31508004A6C924B1B68BA6BD31A7A689A4201D90023FF
S31508004A7C18E18E4BBA6B1A602C243B1918000823C4
S31508004A8C1A00002108F0E8FE3B19591C3B190222B2
S31508004A9C180000F0A9FA3B1902330221180000F09D
S31508004AAC49FF3B1904330121180000F077FF804BAE
S31508004ABC1A7821007B185A717E4B1B88DAB27B1840
S31508004ACC9A717C4B1B881B0A9BB2DAB27B18DA717B
S31508004ADC7B1879480822190001F0A4FC24243B19F8
S31508004AEC180005231A00002108F0B6FE3B1902210E
S31508004AFC180000F0B3FF3B190233012219000120FC
S31508004B0C00F06EFF3B19033301221900022000F056
S31508004B1C67FF3B19043301221900032000F060FFDC
S31508004B2C3B1966480522190001F07CFC1C243B192C
S31508004B3C180006231A00002108F08EFE3B190122E4
S31508004B4C1900002000F0BBFF3B19013301221900A4
S31508004B5C012000F0B4FF3B19023301221900022090
S31508004B6C00F0ADFF3B19033301221900032000F0B6
S31508004B7CA6FF3B19043301221900042000F09FFFFD
S31508004B8C3B19053301221900052000F098FF3B1943
S31508004B9C4B480622190001F045FC14243B19180051
S31508004BAC05231A00002108F057FE3B1901221900AB
S31508004BBC012000F0E7FB3B19013301221900022002
S31508004BCC00F0E0FB3B19023301221900032000F028
S31508004BDCD9FB3B19033301221900042000F0D2FB40
S31508004BEC3B19043301221900052000F0CBFB3B19B5
S31508004BFC34480522190001F015FCFFF71BFC0C23A1
S31508004C0CFB18180006231A00002108F025FE0023BD
S31508004C1CFB633AE02C4BFA6B5200D35A9BB21B0A35
S31508004C2C9AB23723FB181A70FB6B0122134014D166
S31508004C3CFB6B002B00DA01335B100C203A18D25CA4
S31508004C4C51B23722BA18127852B2120152B20A432A
S31508004C5C52B2D1B23A18D15414E0FB6B002B00DADD
S31508004C6C01335B100C243A19D25C51B23722BA18AC
S31508004C7C127852B20F20024052B20A4352B2D1B243
S31508004C8C3A19D154FB6B0133FB63FB6B0B2BC1DD60
S31508004C9C0C23FB180D480622190001F0C3FBFFF77D
S31508004CAC5BFD00231800BD4611B090BDE000002046
S31508004CBCDA000020DC0000206706000667060106FD
S31508004CCC670602066706030638010020670605060E
S31508004CDC80B500AF064B00221A7080231B020548CC
S31508004CEC0022190005F0DFF8C046BD4680BDC04657
S31508004CFCE40000200004005090B583B000AFFC1D02
S31508004D0C8023DB01154A1900100005F0AFF80300E3
S31508004D1C2370BC1D80239B01104A1900100005F056
S31508004D2CA5F803002370FB1D1B78012B05D1BB1DB1
S31508004D3C1B78002B01D100230BE0FB1D1B78002BE5
S31508004D4C05D1BB1D1B78012B01D1012301E00123E1
S31508004D5C5B421800BD4603B090BDC0460004005027
S31508004D6C80B500AF024B1B781800BD4680BDC04607
S31508004D7CE400002080B584B000AF1423FB60FFF775
S31508004D8CBBFF0300BB6002F033FC03007B60204BC7
S31508004D9C1B68BA689A4206D01D4BBA681A601D4B36
S31508004DAC7A681A6030E01B4B1B687A68D31AFA6863
S31508004DBC9A4226D8184B1B68BA689A4202D0164BE8
S31508004DCCBA681A60144B1B68012B0FD01CDC5A1CD2
S31508004DDC19D0002B18D1114B00221A7080231B02F4
S31508004DEC0F480022190005F05EF80DE00B4B012266
S31508004DFC1A7080231B020A480122190005F053F881
S31508004E0C02E0C04600E0C046BD4604B080BDC046C0
S31508004E1CE8000020EC000020F0000020E400002050
S31508004E2C0004005080B500AF044B05220021180081
S31508004E3C08F012FDC046BD4680BDC046F4000020F1
S31508004E4CF0B585B000AF0200FB1D1A70FB1D1B7870
S31508004E5C042B00D9BCE09A00604BD3181B689F46FC
S31508004E6C0F257C195E4B2021180004F0FFFF030068
S31508004E7C23700E26BC195A4B1021180004F0F6FFA5
S31508004E8C030023707B191B78012B05D1BB191B78E2
S31508004E9C002B01D100239DE00F23FB181B78002B58
S31508004EAC06D10E23FB181B78012B01D1012391E0A7
S31508004EBC02238FE00D257C19494B0821180004F0B4
S31508004ECCD5FF030023707B191B78013B5A425341CB
S31508004EDCDBB27FE00F257C19424B4021180004F009
S31508004EECC5FF030023700E26BC193E4B2021180063
S31508004EFC04F0BCFF030023707B191B78012B05D12A
S31508004F0CBB191B78002B01D1002363E00F23FB1878
S31508004F1C1B78002B06D10E23FB181B78012B01D10D
S31508004F2C012357E0022355E00F257C192D4B102140
S31508004F3C180004F09BFF030023700E26BC19294B9E
S31508004F4C0821180004F092FF030023707B191B78C4
S31508004F5C012B05D1BB191B78002B01D1002339E095
S31508004F6C0F23FB181B78002B06D10E23FB181B7876
S31508004F7C012B01D101232DE002232BE00F257C19EF
S31508004F8C184B0421180004F071FF030023700E2639
S31508004F9CBC19144B0221180004F068FF0300237097
S31508004FAC7B191B78012B05D1BB191B78002B01D15A
S31508004FBC00230FE00F23FB181B78002B06D10E23BA
S31508004FCCFB181B78012B01D1012303E0022301E016
S31508004FDC01235B421800BD4605B0F0BD5CDC000839
S31508004FEC00040050000C005080B588B000AFF86083
S31508004FFCB9607A60FB68002B05D0BB68002B02D021
S3150800500C7B68012B01D8002358E01F23FB180022CC
S3150800501C1A701E23FB1800221A700023BB6126E0A7
S3150800502CBB69DBB21800FFF70BFF03003B613B695A
S3150800503C012B0BD10122BB699A401300D9B21F224E
S3150800504CBB18BA1812780A431A700DE03B69022B82
S3150800505C0AD10122BB699A401300D9B21E22BB1889
S3150800506CBA1812780A431A70BB690133BB61BB695B
S3150800507C042BD5DDFFF740FE03007B617B69012B12
S3150800508C07D11F22BB18BA18127820210A431A70A6
S3150800509C09E07B69022B06D11E22BB18BA181278B6
S315080050AC20210A431A70FB681F22BA1812781A7044
S315080050BCBB681E22BA1812781A7002231800BD464D
S315080050CC08B080BD80B584B000AF0200FB1D1A7015
S315080050DCFB1D1B78013BFB60FB68002B04DBFB68A4
S315080050EC042B01DCFB6801E001235B421800BD467A
S315080050FC04B080BD80B586B000AF0200FB1D1A70E7
S3150800510CBB1D0A1C1A70FB1D1B781800FFF7DAFF6B
S3150800511C03007B617B69002B5CDB7B69DA00304B17
S3150800512CD3183B613B691B68002B55D0BB1D1B78FC
S3150800513C642B02D9BB1D64221A703B691B681B6859
S3150800514CDB6AFB60BB1D1B78FA68534364211800A5
S3150800515CFDF7D2FF0300BB603B695B68002B05D1EA
S3150800516C3B691B681B68BA685A632CE03B695B6829
S3150800517C042B05D13B691B681A68BB68936322E04C
S3150800518C3B695B68082B05D13B691B681A68BB68C9
S3150800519CD36318E03B695B680C2B05D13B691B682C
S315080051AC1A68BB6813640EE03B695B68102B05D163
S315080051BC3B691B681A68BB68936504E03B691B6806
S315080051CC1A68BB68D365074A7B69D318BA1D127867
S315080051DC1A7002E0C04600E0C046BD4606B080BD67
S315080051EC00000020FC00002080B584B000AF02004F
S315080051FCFB1D1A70FB1D1B781800FFF763FF0300D5
S3150800520CFB60FB68002B01DA002303E0034AFB680A
S3150800521CD3181B781800BD4604B080BDFC000020CE
S3150800522C80B582B000AF00237B6015E00E4B7A6820
S3150800523CD200D358002B0CD00B4B7A68D200D0581E
S3150800524C094A7B68DB00D31804331B68190006F07F
S3150800525C19FE7B6801337B607B68042BE6DDC04650
S3150800526CC046BD4602B080BD0000002080B582B0A5
S3150800527C00AF00237B6016E00F4B7A68D200D0583B
S3150800528C0D4A7B68DB00D318043319687A68130057
S3150800529C9B009B185B00094A9A18052306F042FFE7
S315080052AC7B6801337B607B68042BE5DDC046C04612
S315080052BCBD4602B080BDC04628000020040100206F
S315080052CC90B589B000AF02003960FB1D1A70FB1D42
S315080052DC1B781800FFF7F6FE0300BB61BB69002BB1
S315080052EC03DA3B6800221A8042E02349BA691300A4
S315080052FC9B009B185B00CB18023319881E48BA69A9
S3150800530C13009B009B185B001A5A16203B188A1A26
S3150800531C1A803B181B88002B03D13B6800221A8085
S3150800532C26E014243B19154A1A801623FB181B88E9
S3150800533C19001348FDF7E0FE03003B613A691300B8
S3150800534C1B019B1A5B00FB60FB6864225A433B19E2
S3150800535C1B8819001000FDF7CFFE0300FB61FB69E3
S3150800536C642B01D96423FB61FB699AB23B681A80EA
S3150800537CBD4609B090BDC046040100208813000044
S3150800538C00350C0090B587B000AFB9607A600F2372
S3150800539CFB18021C1A70BB68002B02D07B68002B0A
S315080053AC01D1002311E016243B1900221A803A1960
S315080053BC0F23FB181B7811001800FFF781FF3B1908
S315080053CC1B88DAB2BB681A7001231800BD4607B0F1
S315080053DC90BD000080B582B000AF02003960FB1D9D
S315080053EC1A70FB1D1B78032B13D019DC012B02D06A
S315080053FC022B07D014E00E4B01220221180004F0F0
S3150800540C52FD10E00A4B01220421180004F04BFD52
S3150800541C09E0074B01220821180004F044FD02E0BC
S3150800542C02235B4200E000231800BD4602B080BD93
S3150800543C0008005080B582B000AF02003960FB1D31
S3150800544C1A70FB1D1B78032B13D019DC012B02D009
S3150800545C022B07D014E00E4B00220221180004F090
S3150800546C22FD10E00A4B00220421180004F01BFD53
S3150800547C09E0074B00220821180004F014FD02E08D
S3150800548C02235B4200E000231800BD4602B080BD33
S3150800549C0008005080B500AF084B180002F0DAFB84
S315080054AC064B180003F0DCF8031E02D003235B42FC
S315080054BC00E000231800BD4680BDC0465001002000
S315080054CC80B500AF0749084B0C22180002F0FEFB0A
S315080054DC031E02D003235B4200E000231800BD46DE
S315080054EC80BDC046380100205001002080B586B02A
S315080054FC00AF02003960FB1D1A70FB1D1B78032BCD
S3150800550C11D016DC012B02D0022B06D011E0162383
S3150800551CFB181D4A92891A800EE01623FB181A4AA4
S3150800552CD2891A8008E01623FB18174A128A1A80A1
S3150800553C02E002235B4223E01623FB181B881800A3
S3150800554CFEF75EFE031C1149181CFEF7C1F8031C76
S3150800555C0F49181CFEF78AFA031C3B610D4938697A
S3150800556CFEF7B6F8031CFB600B49F868FEF77EFAE3
S3150800557C031C181CFDF786FE02003B681A60002304
S3150800558C1800BD4606B080BD3801002000F07F45E6
S3150800559C33335340BC74133E00007A4480B586B04E
S315080055AC00AF786016217B18144AD28A1A807B18A9
S315080055BC1B881800FEF724FE031C1149181CFEF75D
S315080055CC87F8031C0F49181CFEF750FA031C3B619D
S315080055DC0D493869FEF77CF8031CFB600B49F86823
S315080055ECFEF744FA031C181CFDF74CFE02007B68F8
S315080055FC1A60C046BD4606B080BDC04638010020BC
S3150800560C00F07F4533335340BC74133E00007A4494
S3150800561C80B584B000AF78600E217B18144A528A84
S3150800562C1A807B181B881800FEF7EAFD031C114923
S3150800563C181CFEF74DF8031C0F49181CFEF716FA32
S3150800564C031CBB600D49B868FEF710FA031C0C491D
S3150800565C181CFEF70BFA031CBB60B868FDF712FEA4
S3150800566C02007B681A60C046BD4604B080BDC046C1
S3150800567C3801002000F07F45333353405D742141D7
S3150800568C0000204180B584B000AF78600E217B18ED
S3150800569C144A928A1A807B181B881800FEF7B0FDEC
S315080056AC031C1149181CFEF713F8031C0F49181C88
S315080056BCFEF7DCF9031CBB600D49B868FEF7D6F992
S315080056CC031C0C49181CFEF7D1F9031CBB60B868FF
S315080056DCFDF7D8FD02007B681A60C046BD4604B0CB
S315080056EC80BDC0463801002000F07F453333534057
S315080056FC5D7421410000204190B593B000AF0200C3
S3150800570C3960FB1D1A70FB1D1B78052B02D9022369
S3150800571C5B42C2E0FB1D197846203B18614A4900DA
S3150800572C8A5A1A803B181B88002B02D103235B422A
S3150800573CB3E05D4B3B645D4BFB635D4BBB635D4B01
S3150800574C7B63796BB86BFDF7B5FD031C3B63396B53
S3150800575CF86BFEF78BF9031C1C1C396BF86BFDF701
S3150800576CA9FD031C191C201CFDF7B2FF031CFB62C8
S3150800577C4623FB181B881800FEF792FD031C4E499E
S3150800578C181CFDF7A5FF031C4C49181CFEF76EF9EF
S3150800579C031CBB624A49B86AFDF74CFD031E02D0CE
S315080057AC03235B4279E0396BB86AFEF75FF9031C91
S315080057BC796B181CFDF78CFF031C7B62396C786AB5
S315080057CCFDF756FD031E02D003235B4265E0796A9A
S315080057DC386CFDF77DFF031CFE218905181CFEF7A6
S315080057EC97FA031C191CF86AFEF740F9031C3B626E
S315080057FC0021386AFDF728FD031E02D003235B42FD
S3150800580C4BE02A4BFB612F4BBB612F4B7B61B96974
S3150800581CFE208005FDF75CFF031C1C1CF969386A21
S3150800582CFDF756FF031C181C08F052F8031C79697F
S3150800583C181CFDF74DFF031C191C201CFDF73AFD1F
S3150800584C031C3B6100213869FDF7FEFC031E02D0E0
S3150800585C03235B4221E03969FE208005FDF738FFFA
S3150800586C031C1A49181CFEF753FA031CFB6018494B
S3150800587CF868FDF7DFFC031E05D11649F868FDF735
S3150800588CEDFC031E02D003235B4206E0F868FEF724
S3150800589C97FC02003B681A6000231800BD4613B03B
S315080058AC90BDC04638010020000040410050C34757
S315080058BC00C82F480030724700F07F4533335340F9
S315080058CC0AD7233C3313954300E076453393884334
S315080058DC000020C20000484380B582B000AF002308
S315080058EC3B603B001800FFF793FEC8237B603B68C0
S315080058FC7A689A4202D903235B4207E080235B004D
S3150800590C04480122190004F0CEFA00231800BD46FB
S3150800591C02B080BD000C005080B500AF80235B0040
S3150800592C03480022190004F0BEFAC046BD4680BDE5
S3150800593C000C005080B584B000AF786039607B6885
S3150800594C002B02D03B68012B01D8002320E0002352
S3150800595CBB600823FB181800FFF75AFEBA688023A9
S3150800596C5B029A4202D2BB689AB200E00A4A0E213E
S3150800597C7B181A807B181B88DAB27B681A707B181E
S3150800598C1B881B0A9AB27B680133D2B21A7002239F
S3150800599C1800BD4604B080BDFFFF000080B584B07A
S315080059AC00AF786039607B68002B02D03B68002B0F
S315080059BC01D1002310E00023FB600C23FB18180010
S315080059CCFFF760FEFB68FF2B02D8FB68DAB200E033
S315080059DCFF227B681A7001231800BD4604B080BDEF
S315080059EC80B586B000AFB9607A600F23FB18021C2D
S315080059FC1A70BB68002B02D07B68002B01D10023E0
S31508005A0C28E000233B611023FA180F23FB181B7898
S31508005A1C11001800FFF76AFD031E01D0002319E0D8
S31508005A2C3B69323364211800FDF766FB03007B6182
S31508005A3C7A6996235B009A4202D996235B007B61AE
S31508005A4C7B69FF2B02D87B69DAB200E0FF22BB68C0
S31508005A5C1A7001231800BD4606B080BD80B584B007
S31508005A6C00AF786039607B68002B02D03B68012B4D
S31508005A7C01D800231FE00023BB600823FB1818007D
S31508005A8CFFF78CFDBB68323364211800FDF734FB35
S31508005A9C03001A000E217B181A807B181B88DAB2B1
S31508005AAC7B681A707B181B881B0A9AB27B680133B1
S31508005ABCD2B21A7002231800BD4604B080BD80B558
S31508005ACC86B000AFB9607A600F23FB18021C1A70F7
S31508005ADCBB68002B02D07B68002B01D1002320E089
S31508005AEC00233B611023FA180F23FB181B781100AF
S31508005AFC1800FFF701FE031E01D0002311E03B69D5
S31508005B0C28337B617B69002B01DA00237B617B6977
S31508005B1CFF2B01DDFF237B617B69DAB2BB681A7048
S31508005B2C01231800BD4606B080BD000080B584B0C0
S31508005B3C00AF3B1D18000C231A00002107F08CFE41
S31508005B4C704B714A1A606F4B8022D2055A606D4BA6
S31508005B5C00229A606B4B0022DA606A4B802212068E
S31508005B6C1A61684B08225A61664B00221A76654BF5
S31508005B7C00225A76634B01229A76624B0122DA612D
S31508005B8C604B00225A625F4B00229A625D4B2C22B4
S31508005B9C012199545B4B00221A635A4B07225A630C
S31508005BAC584B3C2200219954564B0022DA64554B2B
S31508005BBC180001F0A7FE031E01D000F0BBFF3B1D29
S31508005BCC01221A603B1D01225A603A1D4D4B1100E9
S31508005BDC180002F021F9031E01D000F0ABFF3B1DA3
S31508005BEC4A4A1A603A1D474B1100180002F014F97C
S31508005BFC031E01D000F09EFF3B1D454A1A603A1D54
S31508005C0C404B1100180002F007F9031E01D000F0F2
S31508005C1C91FF3B1D3F4A1A603A1D3A4B110018007A
S31508005C2C02F0FAF8031E01D000F084FF3B1D3A4A35
S31508005C3C1A603A1D334B1100180002F0EDF8031EDA
S31508005C4C01D000F077FF3B1D344A1A603A1D2D4BE4
S31508005C5C1100180002F0E0F8031E01D000F06AFFEC
S31508005C6C3B1D2F4A1A603A1D264B1100180002F0EC
S31508005C7CD3F8031E01D000F05DFF3B1D294A1A60BC
S31508005C8C3A1D204B1100180002F0C6F8031E01D06D
S31508005C9C00F050FF3B1D244A1A603A1D194B11009F
S31508005CAC180002F0B9F8031E01D000F043FF3B1DA3
S31508005CBC1E4A1A603A1D134B1100180002F0ACF874
S31508005CCC031E01D000F036FF3B1D194A1A603A1D17
S31508005CDC0C4B1100180002F09FF8031E01D000F0BF
S31508005CEC29FF3B1D134A1A603A1D064B1100180072
S31508005CFC02F092F8031E01D000F01CFFC046BD4608
S31508005D0C04B080BD500100200024014002000004AC
S31508005D1C040000080800000C1000001040000018D1
S31508005D2C8000001C0001002000020024000400284A
S31508005D3C0008002C0000014090B58BB000AF7860CD
S31508005D4C14243B19180014231A00002107F084FDAB
S31508005D5C7B681B683B4A93426FD13B4B1A6C3A4B98
S31508005D6C802149030A431A64374B1A6C80235B0358
S31508005D7C13403B613B69344B5A6B334B01210A4345
S31508005D8C5A63314B5B6B01221340FB60FB682E4B4D
S31508005D9C5A6B2D4B02210A435A632B4B5B6B02221F
S31508005DAC1340BB60BB683B19DF221A603B19032200
S31508005DBC5A603B1900229A603A19A023DB05110098
S31508005DCC180003F0E7FE3B19204A1A603B19032218
S31508005DDC5A603B1900229A603B191D4A190010009B
S31508005DEC03F0D8FE1B4B1C4A1A601A4B05225A6044
S31508005DFC184B00229A60174B0022DA60154B80224A
S31508005E0C1A61144B802252005A61124B8022D2001E
S31508005E1C9A61104B2022DA610E4B00221A620D4B46
S31508005E2C180002F00DFE031E01D000F083FE7B68FD
S31508005E3C084A1A65074B7A689A62C046BD460BB083
S31508005E4C90BDC04600240140001002400714000013
S31508005E5C00040050B40100200800024080B582B04E
S31508005E6C00AF084B9A6B074B01210A439A63054B03
S31508005E7C9B6B012213407B607B68C046BD4602B013
S31508005E8C80BDC0460010024080B584B000AF786073
S31508005E9C0F23FB1800221A707B68BB600E23FB18B5
S31508005EAC00221A7010E00E203B181B78BA68D3181B
S31508005EBC19780F22BB18BA1812784A401A703B1870
S31508005ECC3A18127801321A700E23FB181B78062B17
S31508005EDCE9D90F23FB181B781800BD4604B080BD02
S31508005EEC80B582B000AF78607B681B78A52B01D093
S31508005EFC00230BE07B681800FFF7C6FF03001A00A7
S31508005F0C7B68DB79D31A5A425341DBB21800BD467B
S31508005F1C02B080BD80B582B000AF78607B68A522E0
S31508005F2C1A707B6800225A707B6800229A707B680C
S31508005F3C0022DA707B6800221A717B6800225A717B
S31508005F4C7B6800229A717B681800FFF79DFF030097
S31508005F5C1A007B68DA71C046BD4602B080BD80B5B2
S31508005F6C84B000AF0200BB1D1A803B1D0A1C1A80A8
S31508005F7C0E203B183A1D128840218A1A1A803B18A3
S31508005F8CBA1D10881B8899B282B2914200D9031C9B
S31508005F9C9BB21800BD4604B080BD0000F0B58DB0AC
S31508005FAC04AF04000800BA6019000E257B19221CE0
S31508005FBC1A800C23FB18021C1A80BB1D0A1C1A809B
S31508005FCC06237B611E23FB187A1912881A801C2358
S31508005FDCFB1800221A805EE01E23FB181A887B69C0
S31508005FEC9A4013001AB20C217B1800201B5E13432F
S31508005FFC1AB212257B191A801026BC197B181A8816
S3150800600CBB1D1B8811001800FFF7A9FF030023808E
S3150800601C1C23FB181B88BA68D3187A1911882248CE
S3150800602CFA2292000292BA1912880192009302235C
S3150800603C0A00A02104F016F8031E31D10023BB6117
S3150800604C0AE0194864230122A02104F06DFA031E04
S3150800605C06D0BB690133BB61BB69092BF1DD00E0D6
S3150800606CC0461E217B181A887B1801321A800C230D
S3150800607CFB1800221A80BB1DB91D10203A18098876
S3150800608C12888A1A1A801C22BB18B9183A18098859
S3150800609C12888A181A80BB1D1B88002B9CD100E01D
S315080060ACC046BD4609B0F0BD80020020F0B58DB0E3
S315080060BC04AF04000800BA6019000E257B19221CCF
S315080060CC1A800C23FB18021C1A80BB1D0A1C1A808A
S315080060DC0623BB611E23FB187A1912881A801C2307
S315080060ECFB1800221A8047E01E26BB191A88BB69C2
S315080060FC9A4013001AB20C217B1800201B5E13431E
S3150800610C1AB21623FB181A8014257C197B181A88C0
S3150800611CBB1D1B8811001800FFF721FF0300238005
S3150800612C1C243B191B88BA68D3181622BA1811886E
S3150800613C1648FA22920002927A1912880192009352
S3150800614C02230A00A02104F0BBF8BB191A88BB1954
S3150800615C01321A800C217B1800221A80BB1DB91D2E
S3150800616C7A19098812888A1A1A803B1939197A19E0
S3150800617C098812888A181A80BB1D1B88002BB3D174
S3150800618CC046C046BD4609B0F0BDC04680020020D8
S3150800619C80B582B000AF3A00082300210020FFF733
S315080061AC85FF3B001800FFF79BFE031E27D03B001C
S315080061BC9B78642B02D93B0000229A703B00DB7853
S315080061CC642B02D93B000022DA703B001B79642B46
S315080061DC02D93B0000221A713B005B79642B02D969
S315080061EC3B0000225A713B009B79642B02D93B0079
S315080061FC00229A71064B3A0003CA03C303E0044B08
S3150800620C1800FFF787FEC046BD4602B080BDC046E3
S3150800621C1402002080B582B000AF2E4B7B607B68E1
S3150800622C5B781A000123134004D000210120FFF7E4
S3150800623CD1F803E000210120FFF7FCF87B685B78B6
S3150800624C1A000223134004D000210220FFF7C2F8DB
S3150800625C03E000210220FFF7EDF87B685B781A0053
S3150800626C0423134004D000210320FFF7B3F803E0FE
S3150800627C00210320FFF7DEF87B685B781A000823F9
S3150800628C134002D0FFF728FB01E0FFF745FB7B68BC
S3150800629C9B7819000120FEF72DFF7B68DB78190027
S315080062AC0220FEF727FF7B681B7919000320FEF7EF
S315080062BC21FF7B685B7919000420FEF71BFF7B68BE
S315080062CC9B7919000520FEF715FFC046BD4602B09E
S315080062DC80BDC0461402002080B582B000AF3B00DA
S315080062ECA5221A703B0000225A703B4B022118005B
S315080062FC03F0BCFD0300012B06D13B005B780122A1
S3150800630C1343DAB23B005A70334B0421180003F0DE
S3150800631CADFD0300012B06D13B005B78022213432B
S3150800632CDAB23B005A702C4B0821180003F09EFD7C
S3150800633C0300012B06D13B005B7804221343DAB227
S3150800634C3B005A7080235B00244A1900100003F0A6
S3150800635C8DFD0300012B06D13B005B780822134305
S3150800636CDAB23B005A700120FEF73EFF03001A0012
S3150800637C3B009A700220FEF737FF03001A003B0019
S3150800638CDA700320FEF730FF03001A003B001A717F
S3150800639C0420FEF729FF03001A003B005A7105205A
S315080063ACFEF722FF03001A003B009A713B00180007
S315080063BCFFF76AFD03001A003B00DA713A0008235E
S315080063CC00210020FFF7EAFD054B3A0003CA03C378
S315080063DCC046BD4602B080BD00080050000C0050F7
S315080063EC1402002080B500AF014B1800BD4680BDD5
S315080063FC1402002080B582B000AF0200FB1D1A7093
S3150800640CFB1D1B78082B05D8FB1D1A78044B92002C
S3150800641CD35800E008231800BD4602B080BDC0461C
S3150800642C70DC0008B0B590B000AFF860B960FB1D21
S3150800643C1A701023FB18180008231A00002107F0FD
S3150800644C0BFA3F23FA18FB1D1B78D9B2082900D979
S3150800645C0823137018243B1924220021180007F06E
S3150800646CFBF9FB68DB00DA083B191A603B1980223A
S3150800647CD2055A603B1900229A603F257B191B7876
S3150800648C1800FFF7B7FF02003B19DA603B19002228
S3150800649C5A613B1900229A613B190022DA617B1971
S315080064AC1B78002B0AD0BB68002B07D07B191A78EF
S315080064BCB9681023FB18180007F000FA1023FA180D
S315080064CC1823F918054B180002F0AFFE03005A42C0
S315080064DC5341DBB21800BD4610B0B0BD1C020020FB
S315080064EC80B500AF204B214A1A601F4B00225A6018
S315080064FC1D4B00229A601C4B0022DA601A4B0122B3
S3150800650C1A74194B00225A74174B00229A74164B9C
S3150800651C06225A61144B02229A61134B0F22DA6136
S3150800652C114B04221A62104B06225A620E4B042295
S3150800653C9A620D4B0F22DA620B4B04221A630A4B32
S3150800654C00225A63084B02229A63074B0022DA632D
S3150800655C054B180002F050FC031E01D000F0EAFAB5
S3150800656CC046BD4680BDC0461C02002000640040E3
S3150800657C90B59DB000AF78605C23FB181800142307
S3150800658C1A00002107F068F910243B1918004C234F
S3150800659C1A00002107F060F97B681B68274A9342AA
S315080065AC47D13B19802292041A603B1900229A643F
S315080065BC3B19180005F072F9031E01D000F0BAFA5F
S315080065CC1F4BDA6B1E4B802149010A43DA631C4BBD
S315080065DCDA6B80235B011340FB60FB68184B5A6B24
S315080065EC174B02210A435A63154B5B6B0222134065
S315080065FCBB60BB685C217B18C02292001A607B18B2
S3150800660C02225A607B1800229A607B180022DA60F4
S3150800661C7B1803221A617B180A4A1900100003F02A
S3150800662CB9FA00220021152002F0D4F9152002F03F
S3150800663CE6F9C046BD461DB090BDC0460064004094
S3150800664C001002400004005090B58BB000AF142423
S3150800665C3B19180014231A00002107F0FDF8854B86
S3150800666C5A6B844B04210A435A63824B5B6B042294
S3150800667C13403B613B697F4B5A6B7E4B20210A4387
S3150800668C5A637C4B5B6B20221340FB60FB68794B8F
S3150800669C5A6B784B01210A435A63764B5B6B012282
S315080066AC1340BB60BB68734B5A6B724B02210A438F
S315080066BC5A63704B5B6B022213407B607B686D4B95
S315080066CC5A6B6C4B08210A435A636A4B5B6B08225C
S315080066DC13403B603B68684B00220E21180003F000
S315080066ECE2FBA023DB0500222021180003F0DBFBCC
S315080066FC80231B0261480022190003F0D4FB802377
S3150800670C5B005F480022190003F0CDFB3B19802281
S3150800671C92011A603B1900225A603B1900229A60B2
S3150800672C3B19554A1900100003F034FA3B190E228E
S3150800673C1A603B1901225A603B1900229A603B19D0
S3150800674C0022DA603B194C4A1900100003F022FAB1
S3150800675C3B1920221A603B1901225A603B19002268
S3150800676C9A603B190022DA603A19A023DB0511005E
S3150800677C180003F00FFA3B19424A1A603B1900221B
S3150800678C5A603B1900229A603B193C4A19001000C2
S3150800679C03F000FA21007B18802212021A600C0002
S315080067AC3B1901225A603B1900229A603B190022B8
S315080067BCDA603B19314A1900100003F0EBF9210095
S315080067CC7B18802252001A600C003B1901225A6071
S315080067DC3B1900229A603B190022DA603B19284AB9
S315080067EC1900100003F0D6F93B19274A1A603B1911
S315080067FC00225A603B1901229A603B19204A19005B
S3150800680C100003F0C7F93B19902212021A603B19C3
S3150800681C00225A603B1901229A603A19A023DB051B
S3150800682C1100180003F0B6F921007B18C02292005B
S3150800683C1A600C003B1900225A603B1901229A6017
S3150800684C3B190D4A1900100003F0A4F921007B1816
S3150800685C7E221A607B1800225A607B1800229A60E6
S3150800686C7B18074A1900100003F094F9C046BD4678
S3150800687C0BB090BD001002400008005000040050F8
S3150800688C000C0050386000000102000080B500AF13
S3150800689C1B4B1C4A1A601A4B1B4A5A60184B00228F
S315080068AC9A60174B0122DA60154B00221A61144BB9
S315080068BC00225A61124B00229A61114B0022DA61AE
S315080068CC0F4B00221A620E4B180003F025FB031E11
S315080068DC01D000F02FF90A4B0021180004F01CFA1D
S315080068EC031E01D000F026F9054B0021180004F010
S315080068FC5FFA031E01D000F01DF9C046BD4680BDE7
S3150800690C8002002000540040A877A01090B59DB0D6
S3150800691C00AF78605C23FB18180014231A000021BA
S3150800692C06F09AFF10243B1918004C231A00002174
S3150800693C06F092FF7B681B68224A93423DD13B19AD
S3150800694C20221A603B1900229A613B19180004F0A0
S3150800695CA5FF031E01D000F0EDF81B4B5A6B1A4B22
S3150800696C02210A435A63184B5B6B02221340FB60E5
S3150800697CFB685C217B18C0221A607B1812225A60AD
S3150800698C7B1800229A607B180022DA607B18062294
S3150800699C1A617B180D4A1900100003F0FBF80A4B14
S315080069ACDA6B094B802189030A43DA63064BDA6BE7
S315080069BC80239B031340BB60BB68C046BD461DB015
S315080069CC90BDC04600540040001002400004005020
S315080069DC80B582B000AFFDF701FF00F08DFD00F029
S315080069EC4BF8FFF731FEFFF739FAFFF79FF8FFF779
S315080069FC77FDFFF74BFF00F0F7F800F0F7FA00F019
S31508006A0CDDF900F075FAFEF70BFCFEF72FFC184BB8
S31508006A1C180002F0E4FBFDF7E9FEFEF73BFDFEF776
S31508006A2C4FFDFFF7B5FBFFF7F5FBFEF7FBF9FEF796
S31508006A3C4FF9FDF71FFFFA235B001800FEF708F85D
S31508006A4CFEF798F900F0D4FD03007B60094B1B6830
S31508006A5C7A68D21AFA239B009A42EAD3054B7A68CB
S31508006A6C1A60A023DB052021180003F039FAE0E7A9
S31508006A7C1C020020D402002090B595B000AF142457
S31508006A8C3B1918003C231A00002106F0E5FE3B1DB5
S31508006A9C180010231A00002106F0DEFE80239B0046
S31508006AAC180004F0D1F93B1902221A603B1980220E
S31508006ABC5200DA6021007B1800221A617B184022EA
S31508006ACC5A617B1802221A627B1802225A627B18B8
S31508006ADC00229A627B180F22DA627B1880229202B5
S31508006AEC1A637B18802292045A637B18C022D2053B
S31508006AFC9A637B18180004F0E7F9031E01D000F01E
S31508006B0C19F83B1D07221A603B1D02225A603B1DD1
S31508006B1C00229A603B1D0022DA603B1D02211800F8
S31508006B2C04F032FD031E01D000F004F8C046BD4641
S31508006B3C15B090BD80B500AF72B6C046C046FDE72D
S31508006B4C80B582B000AF114B1A6C104B01210A4369
S31508006B5C1A640E4B1B6C012213407B607B680B4B33
S31508006B6CDA6B0A4B802149050A43DA63074BDA6B61
S31508006B7C80235B0513403B603B68C023DB00180091
S31508006B8C00F040FDC046BD4602B080BD0010024074
S31508006B9C80B500AFC046FDE780B500AFC046FDE73F
S31508006BAC80B500AFC046BD4680BD80B500AFC046B7
S31508006BBCBD4680BD80B500AF00F008FDC046BD4699
S31508006BCC80BD000080B500AF034B180002F05EFDD7
S31508006BDCC046BD4680BDC0461C02002080B500AF2D
S31508006BECC046BD4680BD000080B59CB000AF602392
S31508006BFCFB18180010231A00002106F02DFE54234A
S31508006C0CFB1818000C231A00002106F025FE382361
S31508006C1CFB1818001C231A00002106F01DFE3B1D4C
S31508006C2C180034231A00002106F016FE614B624A3E
S31508006C3C1A60604B17225A605E4B00229A605D4BB5
S31508006C4C6322DA605B4B00221A615A4B00225A61A6
S31508006C5C584B80229A61574B180005F05BF8031EB7
S31508006C6C01D0FFF767FF60217B18802252011A605A
S31508006C7C7A18504B1100180005F0C4FD031E01D0FC
S31508006C8CFFF758FF4B4B180005F09CF8031E01D074
S31508006C9CFFF750FF54217B1800221A607B1800223C
S31508006CAC5A607B1800229A607A18424B1100180019
S31508006CBC06F0C0FC031E01D0FFF73CFF38217B18F9
S31508006CCC60221A607B1800225A607B1800229A6090
S31508006CDC7B180022DA607B1800221A617B180022C6
S31508006CEC5A617B1800229A617918324B00221800D7
S31508006CFC05F088FC031E01D0FFF71CFF3823F91892
S31508006D0C2C4B0422180005F07DFC031E01D0FFF75E
S31508006D1C11FF3823F918274B0822180005F072FCC6
S31508006D2C031E01D0FFF706FF3823F918214B0C2256
S31508006D3C180005F067FC031E01D0FFF7FBFE3B1D90
S31508006D4C00221A603B1D00225A603B1D00229A60E5
S31508006D5C3B1D0022DA603B1D00221A613B1D802276
S31508006D6C92015A613B1D00229A613B1D0022DA6191
S31508006D7C3B1D00221A623B1D802292045A623B1D5F
S31508006D8C00229A623B1D0022DA623B1D00221A631E
S31508006D9C3A1D084B1100180006F0C2FC031E01D060
S31508006DACFFF7C8FE034B180000F012FBC046BD46A1
S31508006DBC1CB080BDD8020020002C014080B58CB0D8
S31508006DCC00AF2023FB18180010231A00002106F028
S31508006DDC43FD1423FB1818000C231A00002106F097
S31508006DEC3BFD3B1D180010231A00002106F034FD4C
S31508006DFC3D4B8022D2051A603B4B3C4A5A603A4BB3
S31508006E0C00229A60384B01225242DA60364B002235
S31508006E1C1A61354B00229A61334B180004F07AFF3D
S31508006E2C031E01D0FFF786FE20217B188022520113
S31508006E3C1A607A182C4B1100180005F0E3FC031E97
S31508006E4C01D0FFF777FE284B180005F00BF9031E47
S31508006E5C01D0FFF76FFE14217B1800221A607B18ED
S31508006E6C00229A607A18204B1100180006F0E2FBF3
S31508006E7C031E01D0FFF75EFE3B1D00221A603B1D68
S31508006E8C01225A603B1D0C229A603B1D0022DA60D7
S31508006E9C391D154B0022180005F010FB031E01D0F6
S31508006EACFFF748FE391D104B0422180005F006FBA7
S31508006EBC031E01D0FFF73EFE391D0B4B08221800A6
S31508006ECC05F0FCFA031E01D0FFF734FE391D064BFC
S31508006EDC0C22180005F0F2FA031E01D0FFF72AFE61
S31508006EECC046BD460CB080BD2403002057020000E6
S31508006EFC80B58CB000AF2023FB18180010231A009D
S31508006F0C002106F0A9FC1423FB1818000C231A0000
S31508006F1C002106F0A1FC3B1D180010231A000021C5
S31508006F2C06F09AFC2D4B2E4A1A602C4B2D4A5A60A9
S31508006F3C2A4B00229A60294B2B4ADA60274B0022EF
S31508006F4C1A61264B00229A61244B180004F0E2FEC3
S31508006F5C031E01D0FFF7EEFD20217B18802252017B
S31508006F6C1A607A181D4B1100180005F04BFC031E0D
S31508006F7C01D0FFF7DFFD194B180005F073F8031E57
S31508006F8C01D0FFF7D7FD14217B1800221A607B1855
S31508006F9C00229A607A18114B1100180006F04AFB69
S31508006FAC031E01D0FFF7C6FD3B1D00221A603B1DD0
S31508006FBC01225A603B1D0C229A603B1D0022DA60A6
S31508006FCC391D064B0422180005F078FA031E01D069
S31508006FDCFFF7B0FDC046BD460CB080BD700300205F
S31508006FEC0004004057020000FFFF000080B588B07F
S31508006FFC00AF3B1D18001C231A00002106F02CFCC0
S3150800700C1F4B204A1A601E4B17225A601C4B002233
S3150800701C9A601B4B6322DA60194B00221A61184BD3
S3150800702C00229A61164B180004F074FE031E01D058
S3150800703CFFF780FD124B180004F0C4FE031E01D0A6
S3150800704CFFF778FD3B1D60221A603B1D00225A6033
S3150800705C3B1D00229A603B1D00221A61391D084B04
S3150800706C0022180005F0CEFA031E01D0FFF762FDC8
S3150800707C034B180000F0ACF9C046BD4608B080BDFD
S3150800708CBC0300200020004090B5A3B000AF786088
S3150800709C7423FB18180014231A00002106F0DCFBD5
S315080070AC28243B1918004C231A00002106F0D4FB9F
S315080070BC7B681B68B84A93421DD13B198022920300
S315080070CC1A603B1900229A633B19180004F0E6FB78
S315080070DC031E01D0FFF72EFDB04B1A6CAF4B802167
S315080070EC09010A431A64AD4B1A6C80231B01134021
S315080070FC7B627B6A4BE17B681A688023DB059A42C4
S3150800710C00D0FDE0A54BDA6BA44B01210A43DA63E8
S3150800711CA24BDB6B012213403B623B6A9F4B5A6BBB
S3150800712C9E4B04210A435A639C4B5B6B0422134007
S3150800713CFB61FB69994B5A6B984B02210A435A63BC
S3150800714C964B5B6B02221340BB61BB6974243B19DB
S3150800715C70221A603B1902225A603B1900229A6067
S3150800716C3B190022DA603B1902221A613B198C4A38
S3150800717C1900100002F00EFD21007B188022120166
S3150800718C1A607B1802225A607B1800229A607B18B8
S3150800719C0022DA607B1802221A617B18814A1900D0
S315080071AC100002F0F7FC804B804A1A607E4B1A22BC
S315080071BC5A607D4B00229A607B4B0022DA607A4B30
S315080071CC80221A61784B802252005A61764B8022B3
S315080071DCD2009A61744B2022DA61734B00221A6230
S315080071EC714B180001F02CFC031E01D0FFF7A2FC12
S315080071FC7B686D4A5A626C4B7A689A626C4B6D4A1C
S3150800720C1A606B4B1B225A60694B00229A60684BBA
S3150800721C0022DA60664B80221A61654B8022520086
S3150800722C5A61634B8022D2009A61614B2022DA6143
S3150800723C5F4B00221A625E4B180001F001FC031E1C
S3150800724C01D0FFF777FC7B68594A9A62584B7A68E3
S3150800725C9A62594B594A1A60574B1C225A60564B1C
S3150800726C00229A60544B0022DA60534B80221A6132
S3150800727C514B802252005A614F4B8022D2009A61A0
S3150800728C4D4B2022DA614C4B00221A624A4B1800ED
S3150800729C01F0D6FB031E01D0FFF74CFC7B68464A6F
S315080072ACDA62454B7A689A62454B464A1A60444BF1
S315080072BC1D225A60424B00229A60414B0022DA602A
S315080072CC3F4B80221A613E4B802252005A613C4B3E
S315080072DC8022D2009A613A4B2022DA61384B00227E
S315080072EC1A62374B180001F0ABFB031E01D0FFF7EF
S315080072FC21FC7B68324A1A63314B7A689A6246E0FB
S3150800730C7B681B68304A93422ED1244BDA6B234B8D
S3150800731C02210A43DA63214BDB6B022213407B61A1
S3150800732C7B691E4B5A6B1D4B04210A435A631B4B34
S3150800733C5B6B042213403B613B6974217B188022EA
S3150800734C1A607B1802225A607B1800229A607B18F6
S3150800735C0022DA607B1801221A617B18104A190080
S3150800736C100002F017FC12E07B681B68174A934260
S3150800737C0DD10A4B1A6C094B802109020A431A646F
S3150800738C064B1A6C80231B021340FB60FB68C04635
S3150800739CBD4623B090BDC046002C014000100240EB
S315080073AC0008005000040050080400201C0002408D
S315080073BC6804002030000240C80400204400024043
S315080073CC2805002058000240000400400020004018
S315080073DC90B58BB000AF786014243B1918001423B1
S315080073EC1A00002106F038FA7B681B68294A934272
S315080073FC24D1294B5A6B284B01210A435A63264B35
S3150800740C5B6B012213403B613B693B19F02212016D
S3150800741C1A6021007B1802225A607B1800229A6097
S3150800742C7B180022DA607B1802221A617A18A023CC
S3150800743CDB051100180002F0ADFB27E07B681B6822
S3150800744C164A934222D1144B5A6B134B04210A4306
S3150800745C5A63114B5B6B04221340FB60FB681421C7
S3150800746C7B18802252011A607B1802225A607B18FC
S3150800747C00229A607B180022DA607B1802221A61B5
S3150800748C7B18074A1900100002F084FBC046BD465B
S3150800749C0BB090BD002C01400010024000200040AB
S315080074AC000800500D488546FFF798FB0C480D4917
S315080074BC0D4A002302E0D458C4500433C4188C4235
S315080074CCF9D30A4A0A4C002301E013600432A2429B
S315080074DCFBD306F0CFF9FFF77BFAFEE70040022054
S315080074EC00000020AC00002044DD0008AC000020A1
S315080074FCC4060020FEE7000080B582B000AFFB1D75
S3150800750C00221A700B4B1A680A4B802149000A4351
S3150800751C1A60032000F010F8031E03D0FB1D01228D
S3150800752C1A7001E0FFF70CFBFB1D1B781800BD4613
S3150800753C02B080BD0020024090B585B000AF7860DF
S3150800754C0F23FB1800221A701D4B1B78002B2BD00F
S3150800755C1C4B1C681A4B1B781900FA239800FBF76E
S3150800756CCBFD030019002000FBF7C6FD030018002D
S3150800757C01F059FA031E12D17B68032B0AD87968D5
S3150800758C01235B420022180001F024FA0E4B7A689C
S3150800759C1A600DE00F23FB1801221A7008E00F235E
S315080075ACFB1801221A7003E00F23FB1801221A702C
S315080075BC0F23FB181B781800BD4605B090BDC046B6
S315080075CC58000020500000205400002080B500AF61
S315080075DC054B1B781A00054B1B68D218034B1A600F
S315080075ECC046BD4680BDC046580000208805002010
S315080075FC80B500AF024B1B681800BD4680BDC0465F
S3150800760C8805002080B582B000AF7860064B1B68F1
S3150800761C064A13401900044B7A680A431A60C04696
S3150800762CBD4602B080BDC04600000140FFF9FFFF11
S3150800763C80B582B000AF786039607B681B68054AF4
S3150800764C1A403B681A437B681A60C046BD4602B0AE
S3150800765C80BDC046FFFF3FFE80B582B000AF7860A4
S3150800766C7B681A68E0235B0413401800BD4602B019
S3150800767C80BD80B584B000AFF860B9607A60FB68ED
S3150800768C5B69BA6804210A40072191400A00D24373
S3150800769C1A40BB6804210B40796899400B001A43C1
S315080076ACFB685A61C046BD4604B080BD80B582B041
S315080076BC00AF786039607B685B693A6804210A40D8
S315080076CC072191400A001A403B6804210B40DA4016
S315080076DC13001800BD4602B080BD80B582B000AF5D
S315080076EC78607B68DA68C0231B01134001D101233B
S315080076FC00E000231800BD4602B080BD80B584B0FA
S3150800770C00AFF860B9607A60FB689B6ABA681F219B
S3150800771C0A400F2191400A00D2431A407B689B0EFF
S3150800772C0F211940BB681F20034099400B001A43D0
S3150800773CFB689A62C046BD4604B080BD80B582B06F
S3150800774C00AF786039607B689A6A3B685B035B0BB1
S3150800775C1A437B689A62C046BD4602B080BD80B5A6
S3150800776C82B000AF786039607B689B6A3A685203CE
S3150800777C520BD2431A407B689A62C046BD4602B089
S3150800778C80BD000080B584B000AFF860B9607A603F
S3150800779CFB685B69BA681202D2431A40BB681B02C3
S315080077AC79680B4004490B401A43FB685A61C0467A
S315080077BCBD4604B080BDC04600FFFF0780B582B049
S315080077CC00AF78607B689B68054A13408022520597
S315080077DC1A437B689A60C046BD4602B080BDC04657
S315080077ECE8FFFF6F80B582B000AF78607B689A6857
S315080077FC80235B051A4080235B059A4201D101233D
S3150800780C00E000231800BD4602B080BD80B582B0EA
S3150800781C00AF78607B689B68044A134001221A43C0
S3150800782C7B689A60C046BD4602B080BDE8FFFF7F04
S3150800783C80B582B000AF78607B689B68044A1340B9
S3150800784C02221A437B689A60C046BD4602B080BDC8
S3150800785CE8FFFF7F80B582B000AF78607B689B68D5
S3150800786C01221340012B01D1012300E0002318004B
S3150800787CBD4602B080BD80B582B000AF78607B682B
S3150800788C9B6802221340022B01D1012300E000233E
S3150800789C1800BD4602B080BD80B582B000AF7860D6
S315080078AC7B689B68044A134004221A437B689A60D7
S315080078BCC046BD4602B080BDE8FFFF7F80B582B0EA
S315080078CC00AF78607B689B68044A134010221A4301
S315080078DC7B689A60C046BD4602B080BDE8FFFF7F54
S315080078EC80B582B000AF78607B689B680422134031
S315080078FC042B01D1012300E000231800BD4602B079
S3150800790C80BD000080B588B000AF78601F23FB18D7
S3150800791C00221A700023BB6100237B610023FB60E5
S3150800792C7B68002B01D101237FE17B689B6D002BC3
S3150800793C0AD17B681800FEF7FFF97B680022DA6526
S3150800794C7B685422002199547B681B681800FFF742
S3150800795C49FF031E15D17B681B681800FFF72EFF1D
S3150800796CB44B1B68B4491800FBF7C6FB030001337C
S3150800797C5B00FB6002E0FB68013BFB60FB68002BCD
S3150800798CF9D17B681B681800FFF72CFF031E0FD173
S3150800799C7B689B6D10221A437B689A657B68DB6D46
S315080079AC01221A437B68DA651F23FB1801221A7019
S315080079BC7B681B681800FFF793FF03003B617B6825
S315080079CC9B6D1022134000D022E13B69002B00D09E
S315080079DC1EE17B689B6D994A134002221A437B6809
S315080079EC9A657B681B681800FFF734FF031E00D0E6
S315080079FCADE07B689A687B681B7E9B031A437B68A1
S31508007A0C5B7EDB031A437B689B7E5B031A437B68AE
S31508007A1C1B6B002B02D080235B0100E000231A436A
S31508007A2C7B68DB681A437B681B69002B04DA7B6866
S31508007A3C1B695B005B0801E080239B031A437B6888
S31508007A4C2C215B5C5B001343BA691343BB617B68EF
S31508007A5C20229B5C012B15D17B689B7E002B05D1C4
S31508007A6CBB69802252021343BB610BE07B689B6D9A
S31508007A7C20221A437B689A657B68DB6D01221A43C0
S31508007A8C7B68DA657B685B6A002B0AD07B685A6A66
S31508007A9CE0235B001A407B689B6A1343BA6913435D
S31508007AACBB617B681B68DB68654A134019007B68F9
S31508007ABC1B68BA690A43DA607B685B689B0F9A078E
S31508007ACC7B68DB6C13437A6913437B617B683C22C6
S31508007ADC9B5C012B11D17B685B689B0F9A077B68B3
S31508007AEC1B6C1A437B685B6C1A437B689B6C1A434A
S31508007AFC7B691343012213437B617B681B681B69F3
S31508007B0C504A134019007B681B687A690A431A6144
S31508007B1C7B685A68C0231B069A4218D07B685A6839
S31508007B2C8023DB059A4212D07B685A6880231B0691
S31508007B3C9A420CD0444B1B68444A134019007B6884
S31508007B4C5A68F0239B031A403F4B0A431A607B681A
S31508007B5C18687B685B6B1A000021FFF78AFD7B6847
S31508007B6C18687B689B6B3A491A00FFF782FD7B689D
S31508007B7C1B69002B09D17B681B689A6A7B681B6892
S31508007B8C102149420A439A6218E07B681A698023D5
S31508007B9C9B039A4212D17B681B689B6A7B68DB69DC
S31508007BAC013B9B001C221340102252429A401100A2
S31508007BBC7B681A6E7B681B680A439A627B681B682B
S31508007BCC00211800FFF772FD02007B685B6B9A4276
S31508007BDC0BD17B680022DA657B689B6D0322934385
S31508007BEC01221A437B689A651CE07B689B6D1222FE
S31508007BFC934310221A437B689A657B68DB6D0122D6
S31508007C0C1A437B68DA651F23FB1801221A7009E0F0
S31508007C1C7B689B6D10221A437B689A651F23FB1899
S31508007C2C01221A701F23FB181B781800BD4608B0D2
S31508007C3C80BDC04650000020400D0300FDFEFFFF2E
S31508007C4C0102DEFF02FCFF1F08270140FFFFC3FFEE
S31508007C5C04FFFF07B0B584B000AF78607B68542288
S31508007C6C9B5C012B01D1022329E07B68542201215C
S31508007C7C99540F257C197B68180000F0A5FA0300A7
S31508007C8C23707B191B78002B12D17C197B68180082
S31508007C9C00F062FB030023707B191B78002B07D1BD
S31508007CAC7B689B6D084A134001221A437B689A65C8
S31508007CBC7B685422002199540F23FB181B78180053
S31508007CCCBD4604B0B0BDC046FEFEFFFFB0B586B0DB
S31508007CDC00AFF860B9607A60FB681B681800FFF79C
S31508007CECFFFD031E6CD1FB6854229B5C012B01D152
S31508007CFC02236CE0FB68542201219954FB681B682B
S31508007D0CDB680122134013D1FB681B681800FFF7C8
S31508007D1CA1FD031E04D0FB681B681800FFF788FD3D
S31508007D2CFB681B68DA68FB681B6801210A43DA6082
S31508007D3C17257C19FB68180000F088FA03002370D5
S31508007D4C2C003B191B78002B3ED1FB689B6D224AF5
S31508007D5C1340802252001A43FB689A65FB6800227E
S31508007D6CDA65FB681B6D1D4ADA62FB681B6D1C4ADB
S31508007D7C1A63FB681B6D1B4A5A63FB681B681C223B
S31508007D8C1A60FB68542200219954FB681B685A68D0
S31508007D9CFB681B6810210A435A60FB68186DFB6860
S31508007DAC1B6840331900BA683C197B6800F0F4FE6E
S31508007DBC03002370FB681B681800FFF76DFD03E0D2
S31508007DCC1723FB1802221A701723FB181B781800A6
S31508007DDCBD4606B0B0BDC046FEF0FFFF21840008C4
S31508007DECE98400080785000880B582B000AF786082
S31508007DFCC046BD4602B080BD80B582B000AF786083
S31508007E0CC046BD4602B080BD80B582B000AF786072
S31508007E1CC046BD4602B080BD80B586B000AF78605E
S31508007E2C39601723FB1800221A700023FB607B6845
S31508007E3C54229B5C012B01D10223C0E17B6854229E
S31508007E4C012199547B681B681800FFF749FD031E2E
S31508007E5C00D0A3E13B685B68022B00D143E17B6849
S31508007E6C1A6980231B069A4204D07B681B69C14A8F
S31508007E7C934208D17B681A683B681B681900100086
S31508007E8CFFF75CFCC9E07B681A6E3B685B681F21D0
S31508007E9C0B400F2199400B00DB43134019003B683C
S31508007EAC1B685B035B0B05D13B681B689B0E1F228B
S31508007EBC134098E03B681B680122134000D091E000
S31508007ECC3B681B680222134000D089E03B681B689C
S31508007EDC0422134000D081E03B681B68082213403B
S31508007EEC00D079E03B681B681022134000D071E083
S31508007EFC3B681B682022134000D069E03B681B686E
S31508007F0C4022134000D061E03B681B688022134076
S31508007F1C00D059E03B681A6880235B00134051D1A6
S31508007F2C3B681A6880239B00134049D13B681A6842
S31508007F3C8023DB00134041D13B681A6880231B0160
S31508007F4C134039D13B681A6880235B01134031D141
S31508007F5C3B681A6880239B01134029D13B681A6831
S31508007F6C8023DB01134021D13B681A6880231B024E
S31508007F7C134019D13B681A6880235B02134011D150
S31508007F8C3B681A6880239B02134009D13B681A6820
S31508007F9C8023DB02134001D0122324E0002322E0C5
S31508007FAC112320E010231EE00F231CE00E231AE0F9
S31508007FBC0D2318E00C2316E00B2314E00A2312E019
S31508007FCC092310E008230EE007230CE006230AE039
S31508007FDC052308E0042306E0032304E0022302E059
S31508007FEC012300E000233A6852681F2002409340A0
S31508007FFC0A001A437B681A663B685B689B085A1C1E
S3150800800C7B68DB699A4208D87B6818683B685968AC
S3150800801C3B681B681A00FFF771FB7B6818683B689E
S3150800802C19683B689B681A00FFF7ACFB3B681B6832
S3150800803C002B00DBBCE0504B1800FFF70DFB0300D0
S3150800804C3B613B681B684D4A934222D13A698023AF
S3150800805C1B0413401DD13B69802212041343464A64
S3150800806C19001000FFF7E4FA454B1B684549180040
S3150800807CFBF742F803005A1C13005B009B189B0085
S3150800808CFB6002E0FB68013BFB60FB68002BF9D147
S3150800809C8EE03B681B683C4A93420ED13A698023B2
S315080080AC5B04134009D13B69802252041343324ABC
S315080080BC19001000FFF7BCFA7AE03B681B68334AD4
S315080080CC934200D074E03A698023DB03134000D056
S315080080DC6EE03B698022D2031343274A190010002D
S315080080ECFFF7A6FA64E07B681A6980231B069A4296
S315080080FC04D07B681B691F4A934207D17B681A68B0
S3150800810C3B681B6819001000FFF729FB3B681B68C6
S3150800811C002B4DDA184B1800FFF79EFA03003B614B
S3150800812C3B681B68154A934208D13B69184A1340A9
S3150800813C114A19001000FFF77BFA39E03B681B68F7
S3150800814C114A934208D13B69124A13400A4A19004C
S3150800815C1000FFF76DFA2BE03B681B680B4A93423D
S3150800816C26D13B690C4A1340034A19001000FFF745
S3150800817C5FFA1DE00400008008270140001000B0DB
S3150800818C50000020400D0300004000B8002000B449
S3150800819CFFFF7FFFFFFFFFFEFFFFBFFF7B689B6DA7
S315080081AC20221A437B689A651723FB1801221A703A
S315080081BC7B685422002199541723FB181B78180046
S315080081CCBD4606B080BDC04680B584B000AF7860A9
S315080081DC7B681B681800FFF783FB031E31D07B688E
S315080081EC1B681800FFF747FB031E04D17B681B6846
S315080081FC1800FFF763FBFFF7FBF90300FB601AE0B7
S3150800820CFFF7F6F90200FB68D31A022B13D97B6821
S3150800821C1B689B68042213400DD07B689B6D10224B
S3150800822C1A437B689A657B68DB6D01221A437B6867
S3150800823CDA65012306E07B681B689B6804221340F9
S3150800824CDED100231800BD4604B080BD80B584B0CD
S3150800825C00AF78600023BB607B681B681800FFF7CB
S3150800826CF9FA031E00D069E07B681B689B68364ADE
S3150800827C13400DD07B689B6D10221A437B689A6558
S3150800828C7B68DB6D01221A437B68DA65012356E0AD
S3150800829C7B681B681800FFF7B9FA2C4B1800FFF718
S315080082ACDBF9020080231B0413400FD0284B1B68F4
S315080082BC28491800FAF720FF03000133BB6002E0D7
S315080082CCBB68013BBB60BB68002BF9D17B685B7E46
S315080082DC012B33D0FFF78CF90300FB6027E07B6892
S315080082EC1B681800FFF7B6FA031E04D17B681B68D7
S315080082FC1800FFF78BFAFFF77BF90200FB68D31A15
S3150800830C022B14D97B681B681B6801221340012BAE
S3150800831C0DD07B689B6D10221A437B689A657B6827
S3150800832CDB6D01221A437B68DA65012307E07B685B
S3150800833C1B681B6801221340012BD0D1002318009F
S3150800834CBD4604B080BDC046170000800827014012
S3150800835C50000020400D030080B584B000AF786053
S3150800836C7B681B681800FFF786FA0300FB607B68BE
S3150800837C1B681800FFF76EFA031E46D0FB68002B25
S3150800838C43D17B681B689B6805221340012B0DD1D2
S3150800839C7B681B681800FFF74BFA7B681B6803227F
S315080083AC1A60FFF725F90300BB6028E07B689B6D14
S315080083BC10221A437B689A657B68DB6D01221A4387
S315080083CC7B68DA65012321E0FFF712F90200BB6826
S315080083DCD31A022B13D97B681B689B68012213409E
S315080083EC0DD07B689B6D10221A437B689A657B6857
S315080083FCDB6D01221A437B68DA65012306E07B688C
S3150800840C1B689B6801221340DED100231800BD4669
S3150800841C04B080BD80B584B000AF78607B689B6A79
S3150800842CFB60FB689B6D5022134041D1FB689B6D2A
S3150800843C802292001A43FB689A65FB681B68180031
S3150800844CFFF74BF9031E2ED0FB689B7E002B2AD117
S3150800845CFB681B681B6808221340082B23D1FB6892
S3150800846C1B681800FFF73CFA031E10D1FB681B6843
S3150800847C5A68FB681B680C218A435A60FB689B6D1B
S3150800848C154A134001221A43FB689A650BE0FB68F0
S3150800849C9B6D20221A43FB689A65FB68DB6D0122EB
S315080084AC1A43FB68DA65FB681800FFF79DFC0FE0BA
S315080084BCFB689B6D1022134004D0FB681800FFF76D
S315080084CCA3FC05E0FB681B6D5B6B7A68100098478C
S315080084DCC046BD4604B080BDFEFEFFFF80B584B025
S315080084EC00AF78607B689B6AFB60FB681800FFF737
