S02500004B696E636F44726976655F436F6E74726F6C4D6F64756C655F56355F342E73726563EE
S3150800300000400220D17500089173000899730008E2
S3150800301000000000000000000000000000000000A2
S31508003020000000000000000000000000A173000876
S315080030300000000000000000AB730008B57300082C
S3150800304021760008217600082176000821760008F6
S3150800305021760008217600082176000821760008E6
S3150800306021760008217600082176000821760008D6
S31508003070217600082176000821760008C573000825
S31508003080DD730008217600082176000821760008FD
S3150800309021760008F57300082176000821760008D5
S315080030A02176000821760008217600082176000896
S311080030B021760008217600082176000829
S315080030BC10B5064C2378002B07D1054B002B02D0F4
S315080030CC044800E000BF0123237010BDB80000209F
S315080030DC0000000058DF0008044B10B5002B03D085
S315080030EC0349044800E000BF10BDC04600000000BC
S315080030FCBC00002058DF0008002243088B4274D31A
S3150800310C03098B425FD3030A8B4244D3030B8B42CE
S3150800311C28D3030C8B420DD3FF22090212BA030CD7
S3150800312C8B4202D31212090265D0030B8B4219D3B8
S3150800313C00E0090AC30B8B4201D3CB03C01A5241D8
S3150800314C830B8B4201D38B03C01A5241430B8B4220
S3150800315C01D34B03C01A5241030B8B4201D30B0309
S3150800316CC01A5241C30A8B4201D3CB02C01A524130
S3150800317C830A8B4201D38B02C01A5241430A8B42F3
S3150800318C01D34B02C01A5241030A8B4201D30B02DC
S3150800319CC01A5241CDD2C3098B4201D3CB01C01AF6
S315080031AC524183098B4201D38B01C01A5241430900
S315080031BC8B4201D34B01C01A524103098B4201D3EE
S315080031CC0B01C01A5241C3088B4201D3CB00C01A5B
S315080031DC524183088B4201D38B00C01A52414308D3
S315080031EC8B4201D34B00C01A5241411A00D20146F8
S315080031FC524110467047FFE701B5002000F006F86B
S3150800320C02BDC0460029F7D076E770477047C0461E
S3150800321C844608006146FFE71FB500F0C7FB002887
S3150800322C01D40021C8421FBD10B500F04FFB404227
S3150800323C013010BD10B500F0B9FB002801DB0020E9
S3150800324C10BD012010BDC04610B500F0AFFB00281C
S3150800325C01DD002010BD012010BDC04610B500F0E0
S3150800326C5DFB002801DC002010BD012010BDC04606
S3150800327C10B500F053FB002801DA002010BD012020
S3150800328C10BDC0464A02F8B5530ACE4699464B00BD
S3150800329CC90F4746884646004502360E1B0E80B5B2
S315080032ACC40F6F0A9209AD09F11A44454BD000298F
S315080032BC38DD002B00D174E0FF2E00D1BEE0802350
S315080032CCDB041A431B2900DCFDE0013D6B0100D42D
S315080032DCAFE001256D42AD01AF09380001F00EF8DB
S315080032EC3B0005388340864200DCD3E0B94D311AE1
S315080032FC1D405A0700D19EE00F221340042B00D123
S3150800330C99E004356B0100D495E0481CFE2951D18F
S3150800331CFF200023C0051843E4072043C0BCB94668
S3150800332CB046F8BD002949D0991B002E72D1002D44
S3150800333C00D133E14C1E012900D159E1FF2900D1F6
S3150800334C4CE121006CE0002900DC81E0002B55D112
S3150800335C002A70D04B1E012900D12BE1FF296DD014
S3150800336C1B2B50DC190020235B1A10009A40C8400E
S3150800337C531E9A410243AD188023DB041D4200D12B
S3150800338CADE0711CFE2EC3D001206A082840924D70
S3150800339C154005436A0700D08BE01D42B5D1EF08EE
S315080033AC34E0002A47D04B1E012966D0FF2945D0A8
S315080033BC190087E7C0B2AB015B0AABE7FE239C4654
S315080033CC701C03006046184200D092E0002E00D014
S315080033DCE7E0002D00D119E1002A17D08023AF1A97
S315080033ECDB041F4200D142E14446551B00D187E05D
S315080033FC01201D42DFD10021EF0807E0FF2E1DD06A
S3150800340C1B2900DC94E031000535EF087B025B0ACA
S3150800341CC8B27FE7FF2B00D1E0E08020C00405434B
S3150800342C1B2900DC88E0551E44461E00690100D5A0
S3150800343C4FE731000435EF08FF29E7D1002F00D1FB
S3150800344C66E78023DB033B435B02FF205B0A61E7ED
S3150800345C002958D0991B002E00D089E0002D00D1E8
S3150800346C9DE04E1E012900D1A4E0FF2900D1B6E04B
S3150800347C1B2E00DDB8E0310081E0AA1A530100D4F6
S3150800348CAFE09701BF09380000F038FF3B0005385C
S3150800349C834001261D00811B20200131CD40411A95
S315080034AC8B40591E8B411D432AD000216B0700D136
S315080034BCF0E00F232B40042B00D022E76B0100D53C
S315080034CC23E7EF08A2E720235B1A10009A40C840AE
S315080034DC531E9A410243AD1A6B0100D5FBE66B07E6
S315080034EC00D1D5E00F2331002B40042B00D008E780
S315080034FCA1E7AF1A7B014ED4002F00D0EDE60024CD
S3150800350C0020002306E7FE23711C0B4221D1002E56
S3150800351C00D081E0002D00D19FE0002A00D1B2E056
S3150800352CAB185A0100D4B0E09B0101205B0AF1E606
S3150800353C8023DB041A4316E720242800C840611AA6
S3150800354C8D4029004C1EA141014344461E00551AC4
S3150800355CC2E7FF2900D1DBE6AF187F087B0705D049
S3150800356C0F233D1D3B40042B00D064E7FF084DE7B5
S3150800357CFF2B34D01B2937DC8020C00405432800D8
S3150800358C2026C840711A8D4029004D1EA9410143B9
S3150800359C1E008D18F0E64446571B9EE64446150059
S315080035AC49E7002D46D1002A66D180230024FF2046
S315080035BCDB03AFE6AA18530113D5074F5208174079
S315080035CC530744D00F231340042B40D002213D1D32
S315080035DC31E7C046FFFFFFFBFFFFFF7D44464F4622
S315080035EC2CE70121D70811E705321900D7080DE792
S315080035FC571B7B0137D5BF01BF09380000F07EFE8B
S3150800360C3B00053883404446013643E7002A00D17F
S3150800361C75E744464F46F9E6002DE0D08023DB03D8
S3150800362C002A17D09F4200D20BE7994500D308E72A
S3150800363C4F4606E78023DB03002A0BD09F4200D2B5
S3150800364CFFE6994500D3FCE644464F46F9E60221C7
S3150800365CFF08DBE6FF203B435CE6002A00D14FE778
S3150800366C0021D708D2E644460121FF08CEE6002FF2
S3150800367C00D07BE7002443E780234A46DB03444615
S3150800368CFF20134346E60021C0E60021DF08BDE60D
S3150800369C3100D0E601206A0100D58BE62A00DFE767
S315080036ACF0B546464F46D6464502C0B5C30F470049
S315080036BC98460E1C6D0A3F0E5BD0FF2F21D0802337
S315080036CCED00DB041D43002399469A467F3F74029E
S315080036DC7300640A1B0EF60F002B20D0FF2B43D069
S315080036EC80220020E400D20414437F3B4246FF1A92
S315080036FC4B4672400F2B00D99DE071499B00CB5865
S3150800370C9F46002D5AD108239946063B74029A46C1
S3150800371C7300FF27640A1B0EF60F002BDED1002C54
S3150800372C3BD1012342464946724019430E2918D803
S3150800373C6448890041588F465346022B00D1B8E09D
S3150800374C032B6ED042462C00012B40D100200024BE
S3150800375CC0052043D2071043E0BCBA46B146A8467A
S3150800376CF0BDFF200024F3E7002C20D10223FF3FF5
S3150800377CD8E7002D05D104239946033B00279A4622
S3150800378CA5E7280000F0BAFD7627431F9D400023C5
S3150800379C7F4299469A463F1A99E7200000F0AEFDFB
S315080037AC431F9C4076235B421B1A00209EE703238B
S315080037BC4A461A4391460320FC3397E70C2399464D
S315080037CC093BFF279A4682E703282CD0320038009B
S315080037DC7F30002847DD630704D00F232340042BD2
S315080037EC00D00434230103D53800374B80301C40F5
S315080037FCFE28B6DCA401640AC0B2A9E7802400221C
S3150800380CFF20E403A4E78023DB031D4201D01C42FE
S3150800381C0BD08024E4032C4364024246FF20640A3E
S3150800382C96E746462C008023DB031C4364023200D1
S3150800383CFF20640A8CE76D01600185422DD21B239B
S3150800384C0024013F0126290064006D00002901DBD4
S3150800385C854201D32D1A3443013B002BF3D16B1E41
S3150800386C9D412C43B3E701231B1A1B2B00DD6DE787
S3150800387C21009E37D940BC400B00611E8C41234366
S3150800388C590704D00F211940042900D004335901D3
S3150800389C13D49B0100205C0A5AE71A2301242D1A1B
S315080038ACD0E7981E43425841404232000024C0B229
S315080038BC4EE74246FF2000244AE70120002447E74A
S315080038CC70DF0008B0DF0008FFFFFFF770B5420095
S315080038DC4E024C0045026D0A120EC30F760A240ED0
S315080038ECC90FFF2A10D0FF2C0CD00120A2420AD1F6
S315080038FCB54208D18B420FD0002A04D12800431EAA
S3150800390C984100E0012070BD0120FF2CFBD1354306
S3150800391CF9D14B401800F6E70020F4E730B5420021
S3150800392C44024D02C30F4800640A120E6D0A000EBB
S3150800393CC90FFF2A18D0FF280AD0002A1ED1002842
S3150800394C0AD1002D29D0002C2DD14800013830BDC4
S3150800395C002D25D1002A01D1002CF6D08B4219D086
S3150800396C01205B421843F2E7002C19D1FF28F7D146
S3150800397C002D15D100208B42F2D1E8E70028EFD0B4
S3150800398C8B42EDD18242EBDC04DBAC42E8D800205A
S3150800399CAC42DCD258000138D9E7002CD7D0DFE787
S315080039AC02204042D3E78B42DAD1EEE730B542002B
S315080039BC44024D02C30F4800640A120E6D0A000E2B
S315080039CCC90FFF2A17D0FF280AD0002A1BD10028B6
S315080039DC0AD1002D1DD0002C2DD14800013811E03C
S315080039EC002D0ED1002A01D1002CF6D08B420CD119
S315080039FC5800013806E0002C03D1FF2805D1002D0C
S31508003A0C15D0022030BD002806D101205B42184390
S31508003A1CF8E7002CF6D0F8E78B42F6D18242F4DCB4
S31508003A2CE6DBAC42F1D80020AC42EBD2E0E7002052
S31508003A3C8B42EAD1E6E78B42E7D1F2E7F0B54F467F
S31508003A4C4646D6464502C0B546000F1C6D0A360ECC
S31508003A5CC40F002E00D1CDE0FF2E72D08023ED00CE
S31508003A6CDB041D43002399469A467F3E7B025B0A7C
S31508003A7C98467B001B0EFF0F002B72D0FF2B00D134
S31508003A8CA9E07F3BF6184B460A2B00DD85E043463A
S31508003A9C8022DB00D2041A434B4690467C40002217
S31508003AAC022B0FDD494601238B40A621C9000B4288
S31508003ABC00D072E0902189000B4200D0DAE0882110
S31508003ACC194267D1280C42462D042D0C4346290071
S31508003ADC12041B0C120C51435D4342435843AD1858
S31508003AEC0B0C5B199A4203D9802252029446604405
S31508003AFC09041A04090C52189501691E8D411B0CF0
S31508003B0C920E1B1815439B011D431B0100D5CFE0D4
S31508003B1C30007F30002800DCB1E06B070BD00F2398
S31508003B2C32002B40042B06D004352B0103D58032EA
S31508003B3C10006A4B1D40FE2864DCAB015B0AC0B260
S31508003B4C1FE0002D00D08FE008239946063B9A46C5
S31508003B5C7B025B0A98467B00FF261B0EFF0F002B89
S31508003B6C8CD14346002B5CD14A4601331A43914605
S31508003B7C13000A2A11DC01227C40022B92DC00205D
S31508003B8C0023C0051843E4072043E0BCBA46B146F7
S31508003B9CA846F0BD3C00454692465346022B31D00A
S31508003BAC032B11D0012BEAD030008030721C002870
S31508003BBC66DD6B07B9D00F232B40042BB4D1B4E7C1
S31508003BCC0F2A7AD03C0045468023DB032B435B0245
S31508003BDCFF205B0AD5E74346FF36002B34D14A460D
S31508003BEC023313430A2BD8DC7C40002A0AD09946A8
S31508003BFC022257E7002D08D104239946033B0026D9
S31508003C0C9A4633E7FF200023BBE7280000F076FB33
S31508003C1C7626431F9D400023764299469A46361AC5
S31508003C2C24E7404600F06AFB4B46361A763E0A2BCA
S31508003C3CB3DC43460538834098464B4600227C4005
S31508003C4C022B00DD2EE73DE703234A461A431300F1
S31508003C5C0A2AB5DC01229A40882113007C400322EB
S31508003C6C194200D12EE795E70C239946093BFF2606
S31508003C7C9A46FBE680230024FF20DB0381E732000B
S31508003C8C01231B1A1B2B00DD79E79E322900954070
S31508003C9CD9406A1E95410D436B0704D00F232B4060
S31508003CAC042B00D004356B0113D50120002368E7DB
S31508003CBC01236A081D40154376E78023DB031D4262
S31508003CCC82D042461A4200D07EE73C00FF201343BE
S31508003CDC57E7AB0100205B0A53E7C046FFFFFFF727
S31508003CECF8B54746CE464B02460080B5C40F470288
S31508003CFC580A844648007A0A360EBF09000ECD0FBC
S31508003D0C9B09FF286DD001214D40311AAC423AD09F
S31508003D1C002900DC9CE1002800D19EE0FF2E00D192
S31508003D2C88E08022D20413431B2900DCF6E0013F0D
S31508003D3C7A0100D479E001277F42BF01BB09984676
S31508003D4C404600F0DBFA434605388340864200DCE1
S31508003D5CCCE0B44F311A1F405A0768D00F221340D3
S31508003D6C042B64D004377B0161D5481CFE2900D08E
S31508003D7C81E0FF200023C0051843E4072043C0BC9C
S31508003D8CB946B046F8BD002900DC79E1002876D1A1
S31508003D9C002B4CD0481E012900D147E1FF2949D0F8
S31508003DAC1B2871DC01001A002020CA40411A8B40DE
S31508003DBC591E8B411343FF188023DB041F4200D185
S31508003DCCB8E0711CFE2ED4D0012297483A407F08E1
S31508003DDC074017437A0700D096E01F42C5D1FA0868
S31508003DEC55E03100FF398946002B2CD101214D4075
S31508003DFCAC4200D1B4E0494600294CD0002E00D084
S31508003E0CF9E0FF21002F00D108E14A1E012900D153
S31508003E1C56E1FF2900D142E11B2A00DC24E15F1E92
S31508003E2C2C0006007A0100D585E731000437FA081C
S31508003E3CFF292CD1002A9CD08023DB0313435B0279
S31508003E4CFF205B0A97E7AC4200D1A7E0002922D0F5
S31508003E5C002ED6D062462C00EEE7002BE7D0481E83
S31508003E6C012936D0FF29E5D001005DE701203B008A
S31508003E7C7A0100D457E1C0B2BB015B0A7BE7FF2E7F
S31508003E8CD8D01B2900DC9FE031000537FA0853020D
S31508003E9C5B0AC8B26FE7FE20711C084254D1002E8B
S31508003EAC00D0B1E0002F00D102E1002B00D1F9E0DF
S31508003EBC8021FA1AC9040A4200D13BE10124DF1B0E
S31508003ECC2C40002F49D001200F42D5D10021FA08E9
S31508003EDCDDE7FF1A7B0100D4DEE0BD01AD09280041
S31508003EEC00F00CFA2B000538834001262022811B92
S31508003EFC0131521A1F009340CF405A1E93411F435B
S31508003F0C2BD000217B07B1D00F233B40042B00D0CC
S31508003F1C28E77B0100D528E7FA08B8E71A0020201D
S31508003F2CCA40411A8B40591E8B411343FF1A7B0119
S31508003F3C00D502E77B0700D10DE10F2331003B408A
S31508003F4C042B00D00EE772E7FA1A9046520156D4A3
S31508003F5C4346002B00D0F3E60024002000230AE792
S31508003F6C494600291CD0002E00D002E7FF21002F5D
S31508003F7C55D04A1E012959D0FF2900D190E01B2A99
S31508003F8C00DD91E011003A002025CA40691A8F40DD
S31508003F9C791E8F4117430600FF180DE7002926D115
S31508003FACFE20711C084213D1002E00D096E0002F7B
S31508003FBC00D1B4E0002B75D0FB185A0100D4B2E03E
S31508003FCC9B015B0AFD38D6E68022D2041343EAE647
S31508003FDCFF2900D1CDE6FA185208530705D00F234E
S31508003FEC171D1340042B00D021E7D2084FE7002EEB
S31508003FFCBCD0624620E72C00FF200023BBE6012438
S3150800400CDB1B98462C409BE6002F75D1002B00D065
S3150800401C96E080230024FF20DB03ACE62C001F006F
S3150800402C05E7C046FFFFFFFBFFFFFF7DFB185A01A4
S3150800403C00D48DE04A4A5B081A40590700D18CE037
S3150800404C0F210B400D39042BCFD00221171DEEE69C
S3150800405C002900D11FE7821B1100002E00D1D1E6E2
S3150800406C8021C9040F43D7E639002024D140A21A6F
S3150800407C97407A1E97410F432C000600DF1B56E724
S3150800408C00298DD0811B002E00D170E71B290BDC73
S3150800409C8022D204174376E70121FA08F7E62C00AA
S315080040AC6246C7E60021F2E605330100DA08EEE6B9
S315080040BC002B00D150E70124002162462C40E6E68D
S315080040CCDA1B530132D592019409200000F016F937
S315080040DC2300053883402C00012607E7002FDFD084
S315080040EC002B17D08023DB039A4200D2A4E69C450A
S315080040FC00D3A1E662469FE6002B0BD08023DB0398
S3150800410C9A4200D298E69C4500D395E6012462466D
S3150800411C2C4091E68023DB03FF2013432BE600207B
S3150800412C002B00D127E60021DA08B0E62C00012185
S3150800413CD208ACE6002A00D10EE70021D208A6E682
S3150800414C802362460124DB03FF2013432C4012E62E
S3150800415C0121DA089BE6310069E60221D20896E6C7
S3150800416CFFFFFF7D43024A02400049005B0A520AE0
S3150800417C090E000EFF2806D00020FF2902D1531E77
S3150800418C9A4110007047FE38002BFBD1F4E7C04665
S3150800419C41024200C30F490A0020120E7E2A03DD93
S315080041AC9D2A02DD094A98187047802000040143AD
S315080041BC952A07DC9620821AD1404842002BF3D167
S315080041CC0800F1E7963A9140F7E7C046FFFFFF7FF4
S315080041DC70B5002812D0C317C5185D40C40F280047
S315080041EC00F08CF89E231B1A962B0FDC082838D067
S315080041FC083885406D026D0AD8B202E0002400200A
S3150800420C0025C0052843E407204370BD992B14DC10
S3150800421C421F95402A001549114055071CD00F25F9
S3150800422C2A40042A18D00431CA08490115D59F23F7
S3150800423C5202181A550AC0B2E3E7020029001B32CB
S3150800424C91404A1E91410522121AD5402A000A436A
S3150800425C064911405507E2D1CA085202550AD8B286
S3150800426CCFE76D026D0A8E30CBE7C046FFFFFFFB2A
S3150800427C10B5041E0DD000F041F89E231B1A962B80
S3150800428C0CDC082834D0083884406402640AD8B296
S3150800429C01E000200024C005204310BD992B13DC37
S315080042AC421F9440144A224061071CD00F2121401A
S315080042BC042918D00432D408520115D59F23640258
S315080042CC181A640AC0B2E6E7020021001B329140B4
S315080042DC0A00511E8A410521091ACC401443064A84
S315080042EC22406107E2D1D4086402640AD8B2D2E744
S315080042FC6402640A8E30CEE7FFFFFFFB1C21012304
S3150800430C1B04984201D3000C10391B0A984201D39E
S3150800431C000A08391B09984201D30009043902A27C
S3150800432C105C40187047C0460403020201010101E3
S3150800433C000000000000000080B582B000AF786075
S3150800434C7B68082B05D87B68DBB20F221340DBB2DF
S3150800435C00E008231800BD4602B080BD90B58FB0AA
S3150800436C00AF39601100BB1D021C1A807B1D0A1C8C
S3150800437C1A707B1D1B78082B02D97B1D08221A7014
S3150800438C14243B1924220021180009F02DFCBB1D0E
S3150800439C1B885B055A0D21007B181A607B180022B6
S315080043AC5A607B1800229A607B1D1A78194B92006A
S315080043BCD2587B18DA607B1800225A617B180022C7
S315080043CC9A617B180022DA610C243B191800082321
S315080043DC1A00002109F008FC3B68002B0AD07B1D4B
S315080043EC1B78002B06D07B1D1A7839683B191800E8
S315080043FC09F02CFC0C23FA181423F918064B180090
S3150800440C04F09BFF03005A425341DBB21800BD4629
S3150800441C0FB090BD00E0000820020020B0B590B0A7
S3150800442C00AF786039603B68012213404CD00C25EC
S3150800443C7B1914243A197868402104F0C3FF031E2B
S3150800444C44D121007B181A680223FF339A420BD1F8
S3150800445C7B191B78FF2B07D17B18DB680F221340BF
S3150800446C022B01D104F063FB1423FB18DB683F25F0
S3150800447C7C191800FFF760FF030023707B191B7863
S3150800448C082B02D97B1908221A70124B0822002114
S3150800449C180009F0A9FB3F243B191A780C23F918C4
S315080044AC0C4B180009F0D2FB0B4B3A1912781A7000
S315080044BC1423FB181A68094B1A60BFF35F8FC046A2
S315080044CC074B01221A7002E0C04600E0C046BD4602
S315080044DC10B0B0BDDC000020E4000020D80000209D
S315080044ECD400002080B588B002AF3B001800182312
S315080044FC1A00002109F078FB3B0000221A603B00E9
S3150800450C00225A603B0000229A603B000122DA60C6
S3150800451C3B000222FF321A613B003022FF325A61FD
S3150800452C3A000F4B1100180004F054FE031E01D07C
S3150800453C02F078FA0A480123009301230222022189
S3150800454C04F0A5FE064B00220121180005F050F8D0
S3150800455C031E01D002F066FAC046BD4606B080BD01
S3150800456C2002002080B584B000AF934B1B78DBB2D9
S3150800457C01225340DBB2002B00D00CE18F4B1B6899
S3150800458CFB600B23FB188E4A12781A703B008D4A77
S3150800459C03CA03C3884B00221A70FB68113BFF3B06
S315080045AC042B00D9F9E09A00874BD3181B689F4651
S315080045BC0B23FB181B78002B00D1F0E00A217B1883
S315080045CC3A0012781A707B181B780122134006D011
S315080045DC002002F0A7FB002001F0E6FA02E000201A
S315080045EC01F00CFB0A23FB181B780222134006D099
S315080045FC012002F097FB012001F0D6FA02E0012017
S3150800460C01F0FCFA0A23FB181B780422134006D087
S3150800461C022002F087FB022001F0C6FA02E0022013
S3150800462C01F0ECFA0A23FB181B780822134002D077
S3150800463C01F096FBB3E001F0A1FBB0E00B23FB18ED
S3150800464C1B78002B05D03B001B781900012000F0C5
S3150800465CBFFC0B23FB181B78012B05D93B005B7899
S3150800466C1900022000F0B4FC0B23FB181B78022B54
S3150800467C05D93B009B781900032000F0A9FC0B23F5
S3150800468CFB181B78032B05D93B00DB781900042093
S3150800469C00F09EFC0B23FB181B78042B00D880E03B
S315080046AC3B001B791900052000F092FC79E00B23DE
S315080046BCFB181B78002B00D175E03B001B78002BF0
S315080046CC02D101F0D3F86EE001F06AF96BE00B2326
S315080046DCFB181B78012B0ED93B005B781BB21B020F
S315080046EC1AB23B001B781BB213431BB29BB21900C0
S315080046FC002002F09DF90B23FB181B78032B0ED90F
S3150800470C3B00DB781BB21B021AB23B009B781BB230
S3150800471C13431BB29BB21900012002F089F90B2333
S3150800472CFB181B78052B40D93B005B791BB21B0287
S3150800473C1AB23B001B791BB213431BB29BB219006E
S3150800474C022002F075F930E00B23FB181B78012BBD
S3150800475C0DD93B005B781BB21B021AB23B001B78C7
S3150800476C1BB213431BB29BB2180002F07BF90B2346
S3150800477CFB181B78032B1AD93B00DB781BB21B02E0
S3150800478C1AB23B009B781BB213431BB29BB21800A0
S3150800479C02F078F90BE0C0460AE0C04608E0C046CD
S315080047AC06E0C04604E0C04602E0C04600E0C0464B
S315080047BCBD4604B080BDC046D4000020D8000020F9
S315080047CCE4000020DC000020ECDF000880B582B095
S315080047DC00AF78600A00BB1C1A80BB1C1B88DAB2B7
S315080047EC7B681A70BB1C1B881B0A9AB27B68013340
S315080047FCD2B21A70C046BD4602B080BD80B582B032
S3150800480C00AF78607A6880235B029A4202D27B6892
S3150800481C9BB200E0024B1800BD4602B080BDC046F4
S3150800482CFFFF000080B582B000AF3B0018000823DC
S3150800483C1A00002109F0D8F902F0BCF90300180097
S3150800484CFFF7DCFF03001A003B0011001800FFF706
S3150800485CBDFF02F0C5F903001800FFF7CFFF0300F0
S3150800486C1A003B00023311001800FFF7AFFF02F0E5
S3150800487C8FF903001800FFF7C1FF03001A003B006D
S3150800488C043311001800FFF7A1FF0C4B180000F0B9
S3150800489CD1FD03001A003B009A7102F039FA0300A5
S315080048AC1A003B00DA71390090235B0008221800C5
S315080048BCFFF754FDC046BD4602B080BD0804002073
S315080048CC80B582B000AF3B00180008231A000021FF
S315080048DC09F08AF902F05CF903001800FFF78EFF5D
S315080048EC03001A003B0011001800FFF76FFF0020A9
S315080048FC02F018F903001800FFF780FF03001A00EE
S3150800490C3B00023311001800FFF760FF012002F08C
S3150800491C09F903001800FFF771FF03001A003B00A2
S3150800492C043311001800FFF751FF022002F0FAF8C1
S3150800493C03001800FFF762FF03001A003B0006335A
S3150800494C11001800FFF742FF39002223FF33082213
S3150800495C1800FFF703FDC046BD4602B080BD000037
S3150800496C80B586B000AF0823FB18180006231A007A
S3150800497C002109F039F900237B6123E028235B42E7
S3150800498C7B60184A7B69D3181B783A1D11001800EE
S3150800499C02F03CFD7B6828333B613B69002B01DA4E
S315080049AC00233B613B69FF2B01DDFF233B613B6920
S315080049BCD9B20823FA187B69D3180A1C1A707B69B2
S315080049CC01337B617B69052BD8DD0823F918912304
S315080049DC5B0006221800FFF7C1FCC046BD4606B0B0
S315080049EC80BDC04624E0000880B584B000AF3B1DEE
S315080049FC180005231A00002109F0F6F80023FB60BD
S31508004A0C1CE0BB1C00221A80134AFB68D3181B78BF
S31508004A1CBA1C1100180000F0C1FBBB1C1B88642BC8
S31508004A2C03D8BB1C1B88D9B200E064213A1DFB686D
S31508004A3CD3180A1C1A70FB680133FB60FB68042B3D
S31508004A4CDFDD391D2423FF3305221800FFF786FC0A
S31508004A5CC046BD4604B080BD2CE0000880B582B0C7
S31508004A6C00AF3B00180008231A00002109F0BCF817
S31508004A7C002001F0EDF8031E06D03B001B7801223E
S31508004A8C1343DAB23B001A70012001F0E1F8031E59
S31508004A9C06D03B001B7802221343DAB23B001A708D
S31508004AAC022001F0D5F8031E06D03B001B78042221
S31508004ABC1343DAB23B001A7001F06EF9031E06D0E6
S31508004ACC3B001B7808221343DAB23B001A7000200D
S31508004ADC01F0EAF8031E06D03B005B78012213436B
S31508004AECDAB23B005A70012001F0DEF8031E06D03C
S31508004AFC3B005B7802221343DAB23B005A70022061
S31508004B0C01F0D2F8031E06D03B005B78042213434F
S31508004B1CDAB23B005A70002001F0F4F8031E06D0F6
S31508004B2C3B009B7801221343DAB23B009A700120B2
S31508004B3C01F0E8F8031E06D03B009B7802221343CB
S31508004B4CDAB23B009A70022001F0DCF8031E06D09C
S31508004B5C3B009B7804221343DAB23B009A708023FD
S31508004B6C9B017A4A1900100005F008FA031E06D0B4
S31508004B7C3B00DB7801221343DAB23B00DA70734B45
S31508004B8C0121180005F0FAF9031E06D03B00DB7864
S31508004B9C02221343DAB23B00DA70A023DB0520218C
S31508004BAC180005F0EBF9031E06D03B001B79012211
S31508004BBC1343DAB23B001A7180231B02644A1900AC
S31508004BCC100005F0DBF9031E06D03B001B79022208
S31508004BDC1343DAB23B001A7180239B015C4A190015
S31508004BEC100005F0CBF9031E06D03B005B790122B9
S31508004BFC1343DAB23B005A718023DB01544A19007D
S31508004C0C100005F0BBF9031E06D03B005B790222A7
S31508004C1C1343DAB23B005A714E4B0221180005F0C9
S31508004C2CADF9031E06D03B009B7901221343DAB279
S31508004C3C3B009A71474B0421180005F09FF9031E97
S31508004C4C06D03B009B7902221343DAB23B009A71D9
S31508004C5C404B0821180005F091F9031E06D03B00BD
S31508004C6C9B7904221343DAB23B009A71394B102113
S31508004C7C180005F083F9031E06D03B009B79082221
S31508004C8C1343DAB23B009A71324B2021180005F017
S31508004C9C75F9031E06D03B009B7910221343DAB232
S31508004CAC3B009A712B4B4021180005F067F9031E3F
S31508004CBC06D03B009B7920221343DAB23B009A714B
S31508004CCC80231B01214A1900100005F057F9031E11
S31508004CDC06D03B00DB7901221343DAB23B00DA71CA
S31508004CEC1B4B0821180005F049F9031E06D03B009A
S31508004CFCDB7902221343DAB23B00DA71144B10212A
S31508004D0C180005F03BF9031E06D03B00DB7904229C
S31508004D1C1343DAB23B00DA710D4B2021180005F06B
S31508004D2C2DF9031E06D03B00DB7908221343DAB2B1
S31508004D3C3B00DA71390092235B0008221800FFF752
S31508004D4C0DFBC046BD4602B080BDC04600080050EB
S31508004D5C00040050000C005080B584B000AF3B1D19
S31508004D6C180006231A00002108F03EFF0023FB60FA
S31508004D7C32E0204BFA685200D35A9BB21B0A9AB2FD
S31508004D8C0B23FB181A70FB680122134010D1FB6821
S31508004D9C002B00DA01335B103A1DD15C0B22BA18D2
S31508004DAC12781201D2B20A43D1B23A1DD15410E08C
S31508004DBCFB68002B00DA01335B103A1DD15C0B2221
S31508004DCCBA1812780F200240D2B20A43D1B23A1D51
S31508004DDCD154FB680133FB60FB680B2BC9DD391D0D
S31508004DEC2623FF3306221800FFF7B8FAC046BD463D
S31508004DFC04B080BD2C01002080B584B000AF00F053
S31508004E0CCBFE0300FB603B1D180008231A0000218B
S31508004E1C08F0EAFEFB685B780F221340DAB23B1DFA
S31508004E2C1A70FB68DA791B7A1B0213439AB23B1D7C
S31508004E3C013311001800FFF7C9FCFB685A7A9B7AF4
S31508004E4C1B0213439AB23B1D033311001800FFF7DC
S31508004E5CBDFCFB68DA7A1B7B1B0213439AB23B1D1B
S31508004E6C053311001800FFF7B1FC391D93235B00BD
S31508004E7C08221800FFF772FAC046BD4604B080BD7A
S31508004E8C80B584B000AF00F087FE0300FB603B1DC5
S31508004E9C180008231A00002108F0A6FEFB685A7BA6
S31508004EAC9B7B1B0213439AB23B1D11001800FFF79C
S31508004EBC8DFCFB68DA7B1B7C1B0213439AB23B1DE9
S31508004ECC023311001800FFF781FCFB689A783B1D2A
S31508004EDC1A71FB68DA783B1D5A71FB681A793B1D07
S31508004EEC9A71FB685A793B1DDA71391D2823FF33F1
S31508004EFC08221800FFF732FAC046BD4604B080BD3A
S31508004F0C80B584B000AF786002F002FC0300FB6049
S31508004F1C7B6803211800FEF7EFF80300BB601E4BF5
S31508004F2C1B68FA68D31ABA689A4201D900232EE08C
S31508004F3C194BFA681A60194B1B78022B13D017DC1D
S31508004F4C002B02D0012B07D012E0FFF76BFCFFF702
S31508004F5CB7FCFFF705FD0CE0FFF746FDFFF77EFDF6
S31508004F6CFFF7FAFE05E0FFF747FFFFF789FF00E0BA
S31508004F7CC0460A4B1B780133DAB2084B1A70074B3A
S31508004F8C1B78022B02D9054B00221A700023180035
S31508004F9CBD4604B080BDC046E8000020EC000020E9
S31508004FAC80B584B000AF0200FB1D1A70FB1D1B7880
S31508004FBC013BFB60FB68002B04DBFB68042B01DC64
S31508004FCCFB6801E001235B421800BD4604B080BDB6
S31508004FDC80B586B000AF0200FB1D1A70BB1D0A1CFB
S31508004FEC1A70FB1D1B781800FFF7DAFF03007B61AC
S31508004FFC7B69002B5CDB7B69DA00304BD3183B6191
S3150800500C3B691B68002B55D0BB1D1B78642B02D93A
S3150800501CBB1D64221A703B691B681B68DB6AFB6044
S3150800502CBB1D1B78FA68534364211800FEF764F815
S3150800503C0300BB603B695B68002B05D13B691B68A9
S3150800504C1B68BA685A632CE03B695B68042B05D16C
S3150800505C3B691B681A68BB68936322E03B695B680B
S3150800506C082B05D13B691B681A68BB68D36318E023
S3150800507C3B695B680C2B05D13B691B681A68BB68D6
S3150800508C13640EE03B695B68102B05D13B691B6802
S3150800509C1A68BB68936504E03B691B681A68BB68A9
S315080050ACD365074A7B69D318BA1D12781A7002E0C1
S315080050BCC04600E0C046BD4606B080BD00000020D4
S315080050CCF000002080B584B000AF0200FB1D1A70FA
S315080050DCFB1D1B781800FFF763FF0300FB60FB68DA
S315080050EC002B01DA002303E0034AFB68D3181B786C
S315080050FC1800BD4604B080BDF000002080B582B013
S3150800510C00AF00237B6015E00E4B7A68D200D358AB
S3150800511C002B0CD00B4B7A68D200D058094A7B6806
S3150800512CDB00D31804331B68190006F033FF7B68C1
S3150800513C01337B607B68042BE6DDC046C046BD4662
S3150800514C02B080BD0000002080B582B000AF0023FD
S3150800515C7B6016E00F4B7A68D200D0580D4A7B68F4
S3150800516CDB00D318043319687A6813009B009B1864
S3150800517C5B00094A9A18052307F05CF87B6801332B
S3150800518C7B607B68042BE5DDC046C046BD4602B095
S3150800519C80BDC04628000020F800002090B589B0D4
S315080051AC00AF02003960FB1D1A70FB1D1B78180036
S315080051BCFFF7F6FE0300BB61BB69002B03DA3B68FD
S315080051CC00221A8042E02349BA6913009B009B18F7
S315080051DC5B00CB18023319881E48BA6913009B006A
S315080051EC9B185B001A5A16203B188A1A1A803B1809
S315080051FC1B88002B03D13B6800221A8026E0142456
S3150800520C3B19154A1A801623FB181B8819001348D4
S3150800521CFDF772FF03003B613A6913001B019B1AE9
S3150800522C5B00FB60FB6864225A433B191B88190018
S3150800523C1000FDF761FF0300FB61FB69642B01D9C4
S3150800524C6423FB61FB699AB23B681A80BD4609B0B8
S3150800525C90BDC046F80000208813000000350C00ED
S3150800526C80B500AF084B180002F084FD064B1800F9
S3150800527C03F07EFA031E02D001235B4200E00023F2
S3150800528C1800BD4680BDC0465C01002080B500AF45
S3150800529C0749084B0C22180002F0A8FD031E02D081
S315080052AC01235B4200E000231800BD4680BDC046C2
S315080052BC2C0100205C01002080B582B000AF0200F2
S315080052CCBB1D1A80BB1D1B88074A5343802212013B
S315080052DC9446634405491800FDF70EFF03001800B1
S315080052ECBD4602B080BDC046E40C0000FF0F0000AE
S315080052FC80B584B000AF7860FFF7B2FFFFF7C6FF42
S3150800530CFFF7FCFEFFF720FF0B4B180003F0EFFF2F
S3150800531CFFF7E8F802F0FCF90300FB607B68FA6813
S3150800532C5A607B68FA689A607B6801221A70C046D4
S3150800533CBD4604B080BDC0462002002080B582B0B0
S3150800534C00AF786000F04EFA00F09EFA7B680222F5
S3150800535C1A70C046BD4602B080BD80B584B000AF99
S3150800536C786002F0D5F90300FB60FFF7FBF87B6861
S3150800537C5B68FA68D31A312B04D97B68FA685A60C9
S3150800538C01F044FC7B689B68FA68D21AFA235B0026
S3150800539C9A4208D37B68FA689A60A023DB05202119
S315080053AC180004F025FEFA235B001800FFF7A8FD89
S315080053BCC046BD4604B080BD80B582B000AF7860EB
S315080053CC7B680C220021180008F00EFC7B68002272
S315080053DC1A707B681800FFF78BFF7B681800FFF7BD
S315080053ECADFFC046BD4602B080BD80B582B000AFE9
S315080053FC78607B681B78022B0FD013DC002B02D04D
S3150800540C012B05D00EE07B681800FFF771FF0DE045
S3150800541C7B681800FFF792FF08E07B681800FFF717
S3150800542C9CFF03E07B6800221A70C046C046BD4646
S3150800543C02B080BD80B582B000AF78607B681B78FF
S3150800544C1800BD4602B080BD80B584B000AF786048
S3150800545C0F23FB1800221A707B68BB600E23FB18FF
S3150800546C00221A7010E00E203B181B78BA68D31865
S3150800547C19780F22BB18BA1812784A401A703B18BA
S3150800548C3A18127801321A700E23FB181B78162B51
S3150800549CE9D90F23FB181B781800BD4604B080BD4C
S315080054AC80B582B000AF78607B681B78A52B01D0DD
S315080054BC00230BE07B681800FFF7C6FF03001A00F1
S315080054CC7B68DB7DD31A5A425341DBB21800BD46C2
S315080054DC02B080BD80B582B000AF78607B681822B8
S315080054EC0021180008F080FB7B68A5221A707B68DF
S315080054FC0F225A707B6807331A7800210A40111C50
S3150800550C782252420A431A705A7800210A40111C12
S3150800551C13220A435A707B6809331A7800210A4009
S3150800552C111C782252420A431A705A7800210A40F2
S3150800553C111C13220A435A707B680B331A78002104
S3150800554C0A40111C782252420A431A705A780021D2
S3150800555C0A40111C13220A435A707B680D331A78B9
S3150800556C00210A40111C20220A431A705A7800217D
S3150800557C0A40111C4E220A435A707B680F331A785C
S3150800558C00210A40111C10220A431A705A7800216D
S3150800559C0A40111C27220A435A707B681800FFF729
S315080055AC53FF03001A007B68DA75C046BD4602B085
S315080055BC80BD80B584B000AF0200BB1D1A803B1DB0
S315080055CC0A1C1A800E203B183A1D128840218A1A8A
S315080055DC1A803B18BA1D10881B8899B282B2914260
S315080055EC00D9031C9BB21800BD4604B080BD000050
S315080055FCF0B58DB004AF04000800BA6019000E258A
S3150800560C7B19221C1A800C23FB18021C1A80BB1D42
S3150800561C0A1C1A8006237B611E23FB187A1912882A
S3150800562C1A801C23FB1800221A805EE01E23FB1826
S3150800563C1A887B699A4013001AB20C217B18002031
S3150800564C1B5E13431AB212257B191A801026BC1935
S3150800565C7B181A88BB1D1B8811001800FFF7A9FFB9
S3150800566C030023801C23FB181B88BA68D3187A19E5
S3150800567C11882248FA2292000292BA1912880192CB
S3150800568C009302230A00A02104F074FD031E31D1F5
S3150800569C0023BB610AE0194864230122A02104F007
S315080056ACCBFF031E06D0BB690133BB61BB69092B53
S315080056BCF1DD00E0C0461E217B181A887B180132E2
S315080056CC1A800C23FB1800221A80BB1DB91D10204A
S315080056DC3A18098812888A1A1A801C22BB18B91813
S315080056EC3A18098812888A181A80BB1D1B88002B41
S315080056FC9CD100E0C046BD4609B0F0BD840200202E
S3150800570CF0B58DB004AF04000800BA6019000E2578
S3150800571C7B19221C1A800C23FB18021C1A80BB1D31
S3150800572C0A1C1A800623BB611E23FB187A191288D9
S3150800573C1A801C23FB1800221A8047E01E26BB1968
S3150800574C1A88BB699A4013001AB20C217B180020E0
S3150800575C1B5E13431AB21623FB181A8014257C19E0
S3150800576C7B181A88BB1D1B8811001800FFF721FF30
S3150800577C030023801C243B191B88BA68D3181622ED
S3150800578CBA1811881648FA22920002927A191288C7
S3150800579C0192009302230A00A02104F019FEBB19FA
S315080057AC1A88BB1901321A800C217B1800221A8020
S315080057BCBB1DB91D7A19098812888A1A1A803B19D1
S315080057CC39197A19098812888A181A80BB1D1B88F8
S315080057DC002BB3D1C046C046BD4609B0F0BDC04685
S315080057EC8402002090B587B000AF3A001823002138
S315080057FC0020FFF785FF3B001800FFF751FE031E3C
S3150800580C29D03B009B78642B02D93B0000229A7066
S3150800581C3B00DB78642B02D93B000022DA703B0094
S3150800582C1B79642B02D93B0000221A713B005B7969
S3150800583C642B02D93B0000225A713B009B79642BDE
S3150800584C02D93B0000229A71074B3A0013CA13C3BC
S3150800585C13CA13C303E0044B1800FFF73BFEC046FC
S3150800586CBD4607B090BDC0464401002080B500AFC8
S3150800587C044B1800FFF72EFE00F006F8C046BD468E
S3150800588C80BDC0464401002080B582B000AF434BB2
S3150800589C7B607B685B781A000123134003D00020D9
S315080058AC00F082F902E0002000F0A8F97B685B782A
S315080058BC1A000223134003D0012000F075F902E008
S315080058CC012000F09BF97B685B781A0004231340CF
S315080058DC03D0022000F068F902E0022000F08EF9ED
S315080058EC7B685B781A000823134002D000F038FA5C
S315080058FC01E000F043FA7B689B7819000120FFF75A
S3150800590C67FB7B68DB7819000220FFF761FB7B6875
S3150800591C1B7919000320FFF75BFB7B685B79190081
S3150800592C0420FFF755FB7B689B7919000520FFF7C8
S3150800593C4FFB7B68DA791B7A1B0213439BB219005F
S3150800594C002001F075F87B685A7A9B7A1B02134380
S3150800595C9BB21900012001F06BF87B68DA7A1B7B85
S3150800596C1B0213439BB21900022001F061F87B68F5
S3150800597C5A7B9B7B1B0213439BB2180001F072F8EF
S3150800598C7B68DA7B1B7C1B0213439BB2180001F065
S3150800599C79F8C046BD4602B080BDC0464401002019
S315080059AC90B587B000AF3B0018220021180008F00C
S315080059BC1BF93B00A5221A703B0000225A700020E6
S315080059CC00F046F9031E06D03B005B780122134310
S315080059DCDAB23B005A70012000F03AF9031E06D0E1
S315080059EC3B005B7802221343DAB23B005A70022062
S315080059FC00F02EF9031E06D03B005B7804221343F5
S31508005A0CDAB23B005A7000F0C7F9031E06D03B0009
S31508005A1C5B7808221343DAB23B005A700120FFF771
S31508005A2C51FB03001A003B009A700220FFF74AFB51
S31508005A3C03001A003B00DA700320FFF743FB030050
S31508005A4C1A003B001A710420FFF73CFB03001A00EE
S31508005A5C3B005A710520FFF735FB03001A003B0083
S31508005A6C9A71002001F01EF803001A003B00073358
S31508005A7CFF2111400C00197800200140081C211C3C
S31508005A8C01431970120A90B25A7800210A40111C67
S31508005A9C021C0A435A70012001F004F803001A008C
S31508005AAC3B000933FF2111400C00197800200140F6
S31508005ABC081C211C01431970120A90B25A7800214D
S31508005ACC0A40111C021C0A435A70022000F0EAFF15
S31508005ADC03001A003B000B33FF2111400C00197808
S31508005AEC00200140081C211C01431970120A90B2AF
S31508005AFC5A7800210A40111C021C0A435A7000F0FD
S31508005B0CE9FF03001A003B000D33FF2111400C007E
S31508005B1C197800200140081C211C01431970120A2F
S31508005B2C90B25A7800210A40111C021C0A435A707A
S31508005B3C00F0DAFF03001A003B000F33FF21114077
S31508005B4C0C00197800200140081C211C014319700F
S31508005B5C120A90B25A7800210A40111C021C0A43F8
S31508005B6C5A703B001800FFF76FFC03001A003B0045
S31508005B7CDA753A00182300210020FFF739FD054B8A
S31508005B8C3A0013CA13C313CA13C3C046BD4607B09B
S31508005B9C90BDC0464401002080B500AF014B1800EB
S31508005BACBD4680BD4401002080B582B000AF02001E
S31508005BBCFB1D1A70FB1D1B78022B02D901235B42B5
S31508005BCC16E0FB1D1A780C4913005B009B18DB00CA
S31508005BDC5858FB1D1A78084913005B009B18DB0004
S31508005BECCB1804331B880122190004F0E4F90023AE
S31508005BFC1800BD4602B080BD34E0000880B582B0FE
S31508005C0C00AF0200FB1D1A70FB1D1B78022B02D974
S31508005C1C01235B4216E0FB1D1A780C4913005B0046
S31508005C2C9B18DB005858FB1D1A78084913005B00B3
S31508005C3C9B18DB00CB1804331B880022190004F0D0
S31508005C4CBAF900231800BD4602B080BD34E000083E
S31508005C5C80B582B000AF0200FB1D1A70FB1D1B78C5
S31508005C6C022B01D9002319E0FB1D1A780D491300E4
S31508005C7C5B009B18DB005858FB1D1A780949130062
S31508005C8C5B009B18DB00CB1804331B88190004F047
S31508005C9C75F90300013B5A425341DBB21800BD4665
S31508005CAC02B080BD34E0000880B582B000AF0200B7
S31508005CBCFB1D1A70FB1D1B78022B01D900231AE059
S31508005CCCFB1D1A780E4913005B009B18DB00CB18DA
S31508005CDC08331868FB1D1A78094913005B009B18D2
S31508005CECDB00CB180C331B88190004F047F90300AA
S31508005CFC5A425341DBB21800BD4602B080BDC046BD
S31508005D0C34E0000880B582B000AF0200FB1D1A70A3
S31508005D1CFB1D1B78022B01D900231AE0FB1D1A78F0
S31508005D2C0E4913005B009B18DB00CB181033186860
S31508005D3CFB1D1A78094913005B009B18DB00CB186E
S31508005D4C14331B88190004F019F903005A425341FD
S31508005D5CDBB21800BD4602B080BDC04634E0000870
S31508005D6C80B500AF80235B0003480122190004F0BC
S31508005D7C22F9C046BD4680BD000C005080B500AF68
S31508005D8C80235B0003480022190004F014F9C0466E
S31508005D9CBD4680BD000C005080B500AF80235B006B
S31508005DAC064A1900100004F0E9F80300013B5A42B0
S31508005DBC5341DBB21800BD4680BDC046000C0050EE
S31508005DCC80B582B000AF78607B681B68064A934240
S31508005DDC05D10649064B0C22180002F007F8C046F6
S31508005DECBD4602B080BDC046002401402C010020EF
S31508005DFC5C01002080B500AF024B034A9A60C0468E
S31508005E0CBD4680BD00ED00E00030000880B500AF4F
S31508005E1CFFF7F0FF01F000FC00F01EF800F082FC22
S31508005E2C00F06AFC00F078F800F07EF900F0C4F98E
S31508005E3C00F002FA00F0FAFA00F090FB00F00AFC07
S31508005E4C044B1800FFF7B8FA024B1800FFF7CDFA07
S31508005E5CFAE7C0460804002090B595B000AF1424A4
S31508005E6C3B1918003C231A00002107F0BDFE3B1D08
S31508005E7C180010231A00002107F0B6FE80239B0099
S31508005E8C180005F069F83B1902221A603B198022A2
S31508005E9C5200DA603B19802212011A6121007B1824
S31508005EAC40225A617B1802221A627B1802225A6215
S31508005EBC7B1800229A627B180F22DA627B18A022C2
S31508005ECC12031A637B18802292045A637B18C02229
S31508005EDCD2059A637B18180005F07EF8031E01D0CC
S31508005EEC00F0A0FD3B1D07221A603B1D02225A60DA
S31508005EFC3B1D00229A603B1D0022DA603B1D0221E5
S31508005F0C180005F0C9FB031E01D000F08BFDC04636
S31508005F1CBD4615B090BD000080B584B000AF3B1DE2
S31508005F2C18000C231A00002107F05EFE714B724A0A
S31508005F3C1A60704B8022D2055A606E4B00229A600A
S31508005F4C6C4B0022DA606B4B802212061A61694B85
S31508005F5C08225A61674B00221A76664B00225A763B
S31508005F6C644B01229A76634B0122DA61614B00225B
S31508005F7C5A62604B00229A625E4B2C22002199547D
S31508005F8C5C4B802252011A635A4B05225A63594BB1
S31508005F9C3C2200219954574B80229205DA64554BC2
S31508005FAC180001F03FFD031E01D000F03BFD3B1D20
S31508005FBC01221A603B1D01225A603A1D4D4B1100F5
S31508005FCC180001F0B1FF031E01D000F02BFD3B1D9C
S31508005FDC4A4A1A603A1D474B1100180001F0A4FFF3
S31508005FEC031E01D000F01EFD3B1D454A1A603A1DE2
S31508005FFC404B1100180001F097FF031E01D000F06A
S3150800600C11FD3B1D3F4A1A603A1D3A4B1100180008
S3150800601C01F08AFF031E01D000F004FD3B1D3A4A2D
S3150800602C1A603A1D334B1100180001F07DFF031E50
S3150800603C01D000F0F7FC3B1D344A1A603A1D2D4B73
S3150800604C1100180001F070FF031E01D000F0EAFCE5
S3150800605C3B1D2F4A1A603A1D264B1100180001F0F9
S3150800606C63FF031E01D000F0DDFC3B1D294A1A60B4
S3150800607C3A1D204B1100180001F056FF031E01D0E3
S3150800608C00F0D0FC3B1D244A1A603A1D194B11002E
S3150800609C180001F049FF031E01D000F0C3FC3B1D9C
S315080060AC1E4A1A603A1D134B1100180001F03CFFEA
S315080060BC031E01D000F0B6FC3B1D194A1A603A1DA6
S315080060CC0C4B1100180001F02FFF031E01D000F035
S315080060DCA9FC3B1D134A1A603A1D064B1100180001
S315080060EC01F022FF031E01D000F09CFCC046BD4601
S315080060FC04B080BD5C0100200024014002000004AD
S3150800610C040000080800000C1000001040000018DD
S3150800611C8000001C00010020000200240004002856
S3150800612C0008002C0000014080B500AF204B214A26
S3150800613C1A601F4B00225A601D4B00229A601C4B9A
S3150800614C0022DA601A4B01221A74194B00225A746F
S3150800615C174B00229A74164B08225A61144B0122CB
S3150800616C9A61134B0A22DA61114B04221A62104BFC
S3150800617C01225A620E4B01229A620D4B0122DA62F7
S3150800618C0B4B01221A630A4B02225A63084B002254
S3150800619C9A63074B0022DA63054B180002F0B4FE2B
S315080061AC031E01D000F03EFCC046BD4680BDC0466D
S315080061BC200200200064004080B500AF1B4B1C4A2F
S315080061CC1A601A4B1B4A5A60184B00229A60174BD6
S315080061DC0122DA60154B00221A61144B00225A610F
S315080061EC124B00229A61114B0022DA610F4B0022E6
S315080061FC1A620E4B180003F017FF031E01D000F0AD
S3150800620C11FC0A4B0021180004F00EFE031E01D0E7
S3150800621C00F008FC054B0021180004F051FE031E83
S3150800622C01D000F0FFFBC046BD4680BD84020020AD
S3150800623C00540040601EB00080B59CB000AF6023CF
S3150800624CFB18180010231A00002107F0CDFC542364
S3150800625CFB1818000C231A00002107F0C5FC38237C
S3150800626CFB1818001C231A00002107F0BDFC3B1D67
S3150800627C180034231A00002107F0B6FC684B694A4B
S3150800628C1A60674BC82252005A60654B00229A6006
S3150800629C634BFA221201DA60614B00221A61604BD9
S315080062AC00225A615E4B80229A615D4B180005F0FC
S315080062BCB9FD031E01D000F0B5FB60217B188022C6
S315080062CC52011A607A18564B1100180006F02AFC6F
S315080062DC031E01D000F0A6FB514B180005F0FAFD81
S315080062EC031E01D000F09EFB54217B1800221A6075
S315080062FC7B1800225A607B1800229A607A18484B41
S3150800630C1100180007F046FB031E01D000F08AFBAB
S3150800631C38217B1860221A607B18C8225A607B18B1
S3150800632C00229A607B180022DA607B1800221A6118
S3150800633C7B1800225A617B1800229A617918384B0F
S3150800634C0022180006F0EEFA031E01D000F06AFBD4
S3150800635C38217B18FA2292005A607918304B04229D
S3150800636C180006F0DFFA031E01D000F05BFB38219B
S3150800637C7B18FA22D2005A607918294B0822180081
S3150800638C06F0D0FA031E01D000F04CFB38217B181E
S3150800639C254A5A607918224B0C22180006F0C2FAC4
S315080063AC031E01D000F03EFB3B1D00221A603B1D6C
S315080063BC00225A603B1D00229A603B1D0022DA60BF
S315080063CC3B1D00221A613B1D802292015A613B1D1E
S315080063DC00229A613B1D0022DA613B1D00221A62DB
S315080063EC3B1D802292045A623B1D00229A623B1D79
S315080063FC0022DA623B1D00221A633A1D084B110073
S3150800640C180007F03DFB031E01D000F00BFB044BF4
S3150800641C180000F04DFFC046BD461CB080BDC046F6
S3150800642CD8020020002C0140B80B000080B58CB0B7
S3150800643C00AF2023FB18180010231A00002107F0C0
S3150800644CD3FB1423FB1818000C231A00002107F0A1
S3150800645CCBFB3B1D180010231A00002107F0C4FBC8
S3150800646C3D4B8022D2051A603B4B3B225A603A4B75
S3150800647C00229A60384B01225242DA60364B0022CF
S3150800648C1A61354B80229A61334B180005F0CAFC09
S3150800649C031E01D000F0C6FA20217B188022520177
S315080064AC1A607A182C4B1100180006F03BFB031ED9
S315080064BC01D000F0B7FA284B180005F05BFE031E56
S315080064CC01D000F0AFFA14217B1800221A607B1851
S315080064DC00229A607A18204B1100180007F05AFA15
S315080064EC031E01D000F09EFA3B1D00221A603B1DCC
S315080064FC01225A603B1D00229A603B1D0022DA607D
S3150800650C391D154B0022180006F068F9031E01D038
S3150800651C00F088FA391D104B0422180006F05EF9B3
S3150800652C031E01D000F07EFA391D0B4B0822180009
S3150800653C06F054F9031E01D000F074FA391D064B07
S3150800654C0C22180006F04AF9031E01D000F06AFA6C
S3150800655CC046BD460CB080BD2403002080B58CB067
S3150800656C00AF2023FB18180010231A00002107F08F
S3150800657C3BFB1423FB1818000C231A00002107F008
S3150800658C33FB3B1D180010231A00002107F02CFBC7
S3150800659C2D4B2E4A1A602C4B3C225A602A4B002251
S315080065AC9A60294B2A4ADA60274B00221A61264B35
S315080065BC80229A61244B180005F034FC031E01D086
S315080065CC00F030FA20217B18802252011A607A18C2
S315080065DC1D4B1100180006F0A5FA031E01D000F099
S315080065EC21FA194B180005F0C5FD031E01D000F061
S315080065FC19FA14217B1800221A607B1800229A605B
S3150800660C7A18114B1100180007F0C4F9031E01D0B3
S3150800661C00F008FA3B1D00221A603B1D01225A6045
S3150800662C3B1D00229A603B1D0022DA60391D064B81
S3150800663C0422180006F0D2F8031E01D000F0F2F975
S3150800664CC046BD460CB080BD700300200004004057
S3150800665CFFFF000080B588B000AF3B1D18001C2357
S3150800666C1A00002107F0C0FA214B224A1A60204B67
S3150800667CC82252005A601E4B00229A601C4BFA2202
S3150800668C1201DA601A4B00221A61194B80229A61A0
S3150800669C174B180005F0C6FB031E01D000F0C2F913
S315080066AC134B180005F016FC031E01D000F0BAF9BE
S315080066BC3B1D60221A603B1DFA2252005A603B1D94
S315080066CC00229A603B1D00221A61391D084B0022D4
S315080066DC180006F027F9031E01D000F0A3F9044BA5
S315080066EC180000F0E5FDC046BD4608B080BDC046A2
S315080066FCBC0300200020004080B582B000AF084BD8
S3150800670C9A6B074B01210A439A63054B9B6B012233
S3150800671C13407B607B68C046BD4602B080BDC04650
S3150800672C0010024090B591B000AF2C243B1918000C
S3150800673C14231A00002107F057FAB44B5A6BB34BC3
S3150800674C04210A435A63B14B5B6B04221340BB62A8
S3150800675CBB6AAE4B5A6BAD4B20210A435A63AB4B03
S3150800676C5B6B202213407B627B6AA84B5A6BA74B48
S3150800677C01210A435A63A54B5B6B012213403B620A
S3150800678C3B6AA24B5A6BA14B02210A435A639F4B95
S3150800679C5B6B02221340FB61FB699C4B5A6B9B4B50
S315080067AC08210A435A63994B5B6B08221340BB6159
S315080067BCBB69974B00220E21180003F0FCFBA023A3
S315080067CCDB0500222021180003F0F5FB80231B02B1
S315080067DC90480022190003F0EEFB80235B008E48DC
S315080067EC0022190003F0E7FB3B19802212011A60FC
S315080067FC3B1900225A603B1902229A603B19844ABB
S3150800680C1900100003F04EFA21007B188022920121
S3150800681C1A607B18882252035A600C003B19002216
S3150800682C9A603B197A4A1900100003F03BFA3B1997
S3150800683C01221A603B1900225A603B1900229A6001
S3150800684C3B19734A1900100003F02CFA3B190E2257
S3150800685C1A603B1901225A603B1900229A603B19AF
S3150800686C0022DA603B196A4A1900100003F01AFA7A
S3150800687C3B1920221A603B1901225A603B19002247
S3150800688C9A603B190022DA603A19A023DB0511003D
S3150800689C180003F007FA21007B18C022D2011A60EF
S315080068AC0C003B1900225A603B1901229A603B19CD
S315080068BC584A1900100003F0F5F921007B188022BC
S315080068CC12021A600C003B1901225A603B1900226D
S315080068DC9A603B190022DA603B194E4A19001000DF
S315080068EC03F0E0F921007B18802252001A600C0094
S315080068FC3B1901225A603B1900229A603B19002267
S3150800690CDA603B19444A1900100003F0CBF93B191D
S3150800691C424A1A603B1900225A603B1901229A60B6
S3150800692C3B193D4A1900100003F0BCF93B1990229B
S3150800693C12021A603B1900225A603B1901229A600E
S3150800694C3A19A023DB051100180003F0ABF9210056
S3150800695C7B18C02292001A600C003B1900225A6060
S3150800696C3B1901229A603B19294A1900100003F0B9
S3150800697C99F93B197E221A603B1900225A603B1979
S3150800698C02229A603B19244A1900100003F08AF96E
S3150800699C21007B1838221A607B1800225A607B1853
S315080069AC02229A607B181B4A1900100003F07AF928
S315080069BC3B1D180014231A00002107F015F93B1D7E
S315080069CC00225A603B1D01229A603B1D802212014F
S315080069DC1A603B1D0E4A1900100003F063F93B1DA3
S315080069EC0F4A1A603B1D0B4A1900100003F05AF99E
S315080069FC3B1D7E221A603B1D074A1900100003F046
S31508006A0C51F9C046BD4611B090BDC04600100240B3
S31508006A1C0008005000040050000C00500102000051
S31508006A2C3860000080B500AF72B6C046C046FDE7B8
S31508006A3C80B582B000AF0200FB1D1A703B1D0A1C04
S31508006A4C1A80FB1D1B78022B06D8FB1D1A78044BE3
S31508006A5C5200391D0988D152C046BD4602B080BDC8
S31508006A6C5000002080B582B000AF0200BB1D1A8012
S31508006A7C034BBA1D1288DA80C046BD4602B080BDEB
S31508006A8C5000002080B582B000AF0200BB1D1A80F2
S31508006A9C034BBA1D12881A81C046BD4602B080BD8A
S31508006AAC5000002080B582B000AF0200FB1D1A70A2
S31508006ABCFB1D1B78022B05D8FB1D1A78044B5200BC
S31508006ACCD35A00E000231800BD4602B080BDC0466C
S31508006ADC5000002080B500AF024BDB881800BD467D
S31508006AEC80BDC0465000002080B500AF024B1B8904
S31508006AFC1800BD4680BDC0465000002080B582B047
S31508006B0C00AF78607B68064A5343483390211800D7
S31508006B1CFCF7F2FA03001800BD4602B080BDC04669
S31508006B2C4C04000080B584B000AF0200FB1D1A703F
S31508006B3CFB1D1B78022B11D016DC002B02D0012B67
S31508006B4C06D011E00E23FB18104A92891A800DE024
S31508006B5C0E23FB180D4AD2891A8007E00E23FB1860
S31508006B6C0A4A128A1A8001E000230AE00E23FB184F
S31508006B7C1B881800FEF7A0FB03001800FFF7BEFFE2
S31508006B8C03001800BD4604B080BDC0462C01002089
S31508006B9C80B500AF064BDB8A9BB21800FEF78CFB60
S31508006BAC03001800FFF7AAFF03001800BD4680BDB6
S31508006BBC2C01002080B500AF084B5B8A9BB21800ED
S31508006BCCFEF77AFB0300DE22534316211800FCF766
S31508006BDC93FA03001800BD4680BDC0462C01002060
S31508006BEC80B500AF084B9B8A9BB21800FEF764FB76
S31508006BFC0300DE22534316211800FCF77DFA030026
S31508006C0C1800BD4680BDC0462C01002080B584B056
S31508006C1C00AF0023FB602EE0FB68DBB21800FFF721
S31508006C2C17F803001A0001235340DBB2002B1ED1C0
S31508006C3CFB68DBB21800FFF775FF03003B60324BAD
S31508006C4CFA685200D35A1A003B68934210D9FB686B
S31508006C5CDBB21800FEF7D2FF2B4B9A7A2B49FB684E
S31508006C6CCB181B781343DAB2274B9A7200E0C0464E
S31508006C7CFB680133FB60FB68022BCDDDFFF79AFF3F
S31508006C8C0300BB60FFF7ACFF03007B601E4BDB8881
S31508006C9C1A00BB68934207D21B4B9B7A08221343F4
S31508006CACDAB2194B9A720DE0174BDB88F533FF33C2
S31508006CBCBA689A4206D3144B9B7A08229343DAB2E3
S31508006CCC114B9A72104B1B891A007B68934207D298
S31508006CDC0D4B9B7A10221343DAB20B4B9A720DE0CA
S31508006CEC094B1B89F533FF337A689A4206D3064B50
S31508006CFC9B7A10229343DAB2034B9A72024B9B7A15
S31508006D0C1800BD4604B080BD500000207CE0000889
S31508006D1C80B500AF024B9B7A1800BD4680BDC046B5
S31508006D2C5000002080B582B000AF0200FB1D1A701F
S31508006D3CFB1D1B78022B15D01CDC002B02D0012B5B
S31508006D4C08D017E00E4B9B7A01229343DAB20C4B10
S31508006D5C9A7210E00A4B9B7A02229343DAB2084BDA
S31508006D6C9A7208E0064B9B7A04229343DAB2044BD8
S31508006D7C9A7200E0C046C046BD4602B080BDC04609
S31508006D8C5000002080B582B000AF114B1A6C104B26
S31508006D9C01210A431A640E4B1B6C012213407B60BB
S31508006DAC7B680B4BDA6B0A4B802149050A43DA637D
S31508006DBC074BDA6B80235B0513403B603B68C023AB
S31508006DCCDB00180000F0AEFCC046BD4602B080BD24
S31508006DDC0010024090B58BB000AF786014243B19B4
S31508006DEC180014231A00002106F0FEFE7B681B68A7
S31508006DFC3B4A93426FD13B4B1A6C3A4B8021490361
S31508006E0C0A431A64374B1A6C80235B0313403B61A5
S31508006E1C3B69344B5A6B334B01210A435A63314B4A
S31508006E2C5B6B01221340FB60FB682E4B5A6B2D4B98
S31508006E3C02210A435A632B4B5B6B02221340BB603D
S31508006E4CBB683B19DF221A603B1903225A603B19AF
S31508006E5C00229A603A19A023DB051100180002F0EB
S31508006E6C21FF3B19204A1A603B1903225A603B1929
S31508006E7C00229A603B191D4A1900100002F012FFF5
S31508006E8C1B4B1C4A1A601A4B05225A60184B0022D7
S31508006E9C9A60174B0022DA60154B80221A61144B44
S31508006EAC802252005A61124B802212019A61104BB1
S31508006EBC2022DA610E4B00221A620D4B180001F0E3
S31508006ECC47FE031E01D0FFF7ADFD7B68084A1A651D
S31508006EDC074B7A689A62C046BD460BB090BDC04651
S31508006EEC0024014000100240071400000004005062
S31508006EFCC00100200800024090B59DB000AF786034
S31508006F0C5C23FB18180014231A00002106F06CFEEB
S31508006F1C10243B1918004C231A00002106F064FEB5
S31508006F2C7B681B68334A93425FD13B1980229204D3
S31508006F3C1A603B1900229A643B19180004F036FDB6
S31508006F4C031E01D0FFF76EFD2B4BDA6B2A4B802103
S31508006F5C49010A43DA63284BDA6B80235B01134039
S31508006F6CFB60FB68244B5A6B234B02210A435A637A
S31508006F7C214B5B6B02221340BB60BB685C217B1800
S31508006F8C802252001A600C003B1902225A603B19E7
S31508006F9C01229A603B190022DA603B1903221A6116
S31508006FAC3B19164A1900100002F07CFE21007B18CA
S31508006FBC802292001A607B1802225A607B180022E3
S31508006FCC9A607B180022DA607B1803221A617B18F8
S31508006FDC0A4A1900100002F065FE0022002115204D
S31508006FEC01F080FD152001F092FDC046BD461DB08E
S31508006FFC90BDC046006400400010024000040050DA
S3150800700C90B59DB000AF78605C23FB18180014236C
S3150800701C1A00002106F0E8FD10243B1918004C2331
S3150800702C1A00002106F0E0FD7B681B68224A934291
S3150800703C3DD13B1920221A603B1900229A613B1953
S3150800704C180004F0B3FC031E01D0FFF7EBFC1B4B36
S3150800705C5A6B1A4B02210A435A63184B5B6B022272
S3150800706C1340FB60FB685C217B18C0221A607B18F6
S3150800707C12225A607B1801229A607B180022DA6069
S3150800708C7B1806221A617B180D4A1900100002F0AB
S3150800709C09FE0A4BDA6B094B802189030A43DA632A
S315080070AC064BDA6B80239B031340BB60BB68C04658
S315080070BCBD461DB090BDC0460054004000100240AD
S315080070CC0004005090B5A3B000AF78607423FB1889
S315080070DC180014231A00002106F086FD28243B19F3
S315080070EC18004C231A00002106F07EFD7B681B68ED
S315080070FC694A93421DD13B19802292031A603B19A7
S3150800710C00229A633B19180004F050FC031E01D0A8
S3150800711CFFF788FC614B1A6C604B802109010A4306
S3150800712C1A645E4B1A6C80231B0113407B627B6AC4
S3150800713CAEE07B681A688023DB059A4259D1574B17
S3150800714CDA6B564B01210A43DA63544BDB6B01228B
S3150800715C13403B623B6A514B5A6B504B04210A4312
S3150800716C5A634E4B5B6B04221340FB61FB694B4B1A
S3150800717C5A6B4A4B02210A435A63484B5B6B0222F1
S3150800718C1340BB61BB6974243B1970221A603B1906
S3150800719C02225A603B1900229A603B190022DA60D7
S315080071AC3B1902221A613B193D4A1900100002F0DC
S315080071BC79FD21007B18802212011A607B180222A5
S315080071CC5A607B1800229A607B180022DA607B18BA
S315080071DC02221A617B18334A1900100002F062FD6C
S315080071EC002200210F2001F07DFC0F2001F08FFCFE
S315080071FC4EE07B681B682C4A934236D1274BDA6BD8
S3150800720C264B02210A43DA63244BDB6B022213401A
S3150800721C7B617B69214B5A6B204B04210A435A63C9
S3150800722C1E4B5B6B042213403B613B6974217B1834
S3150800723C80221A607B1802225A607B1800229A60F8
S3150800724C7B180022DA607B1801221A617B18144A13
S3150800725C1900100002F026FD00220021102001F072
S3150800726C41FC102001F053FC12E07B681B680F4AA6
S3150800727C93420DD1094B1A6C084B802109020A431B
S3150800728C1A64064B1A6C80231B021340FB60FB68BE
S3150800729CC046BD4623B090BD002C014000100240EC
S315080072AC0008005000040050000400400020004074
S315080072BC90B58BB000AF786014243B1918001423D2
S315080072CC1A00002106F090FC7B681B68294A934239
S315080072DC24D1294B5A6B284B01210A435A63264B56
S315080072EC5B6B012213403B613B693B19F02212018F
S315080072FC1A6021007B1802225A607B1800229A60B9
S3150800730C7B180022DA607B1802221A617A18A023ED
S3150800731CDB051100180002F0C5FC27E07B681B682A
S3150800732C164A934222D1144B5A6B134B04210A4327
S3150800733C5A63114B5B6B04221340FB60FB681421E8
S3150800734C7B18802252011A607B1802225A607B181D
S3150800735C00229A607B180022DA607B1802221A61D6
S3150800736C7B18074A1900100002F09CFCC046BD4663
S3150800737C0BB090BD002C01400010024000200040CC
S3150800738C0008005080B500AFC046FDE780B500AFD9
S3150800739CC046FDE780B500AFC046BD4680BD80B58A
S315080073AC00AFC046BD4680BD80B500AF00F09EF963
S315080073BCC046BD4680BD000080B500AF034B180023
S315080073CC05F004F9C046BD4680BDC046240300201E
S315080073DC80B500AF034B180005F0F8F8C046BD465B
S315080073EC80BDC0467003002080B500AF034B180063
S315080073FC02F0D4F9C046BD4680BDC0462002002026
S3150800740C80B500AFC046BD4680BD000090B58BB0B8
S3150800741C00AF02003960FB1D1A703B68002B02D1C5
S3150800742C01235B42B0E0FB1D1B78052B02D9012317
S3150800743C5B42A9E0FB1D197826203B18544A4900E3
S3150800744C8A5A1A803B181B88002B02D102235B42EE
S3150800745C9AE02623FB181B881800FCF709FF031C67
S3150800746C4C49181CFCF71CF9031C4B49181CFCF757
S3150800747CE5FA031C3B624949386AFBF7DBFE031E37
S3150800748C02D002235B427FE0454BFB61F969386AFF
S3150800749CFCF7D4FA031C4349181CFCF701F9031C26
S315080074ACBB614149B869FBF7E3FE031E02D003230F
S315080074BC5B4269E03D49F869FCF7C0FA031C1C1CE1
S315080074CC3A49F869FBF7DEFE031C191C201CFCF76D
S315080074DCE7F8031C7B61B9693348FCF7E1F8031C30
S315080074ECFE218905181CFCF7FBFB031C191C786983
S315080074FCFCF7A4FA031C3B6100213869FBF7A4FED0
S3150800750C031E02D003235B423EE028493869FCF788
S3150800751CC7F8031C181C06F0A3FB031C2449181CEB
S3150800752CFCF7BEF8031C2349181CFBF7ABFE031C1F
S3150800753CFB600021F868FBF787FE031E02D00323C5
S3150800754C5B4221E0F968FE208005FCF7A9F8031CCC
S3150800755C1949181CFCF7C4FB031CBB601749B8680F
S3150800756CFBF768FE031E05D11549B868FBF776FECE
S3150800757C031E02D003235B4206E0B868FCF708FE3C
S3150800758C02003B681A6000231800BD460BB090BD7C
S3150800759C2C01002000F07F45333353400AD7233C97
S315080075AC00546C4800307247000040410050C347F5
S315080075BC00E076450FCF5B3B33938843000020C22F
S315080075CC000048430D488546FFF71AFF0C480D493D
S315080075DC0D4A002302E0D458C4500433C4188C4214
S315080075ECF9D30A4A0A4C002301E013600432A2427A
S315080075FCFBD306F007FBFEF709FCFEE7004002206A
S3150800760C00000020B800002030E10008B800002077
S3150800761C50050020FEE7000080B582B000AFFB1DC8
S3150800762C00221A700B4B1A680A4B802149000A4330
S3150800763C1A60002000F010F8031E03D0FB1D01226F
S3150800764C1A7001E0FFF79EFBFB1D1B781800BD4660
S3150800765C02B080BD0020024090B585B000AF7860BE
S3150800766C0F23FB1800221A701D4B1B78002B2BD0EE
S3150800767C1C4B1C681A4B1B781900FA239800FBF74D
S3150800768C3BFD030019002000FBF736FD030018002C
S3150800769C01F051FA031E12D17B68032B0AD87968BC
S315080076AC01235B420022180001F01CFA0E4B7A6883
S315080076BC1A600DE00F23FB1801221A7008E00F233D
S315080076CCFB1801221A7003E00F23FB1801221A700B
S315080076DC0F23FB181B781800BD4605B090BDC04695
S315080076EC640000205C0000206000002080B500AF1C
S315080076FC054B1B781A00054B1B68D218034B1A60EE
S3150800770CC046BD4680BDC046640000201404002057
S3150800771C80B500AF024B1B681800BD4680BDC0463D
S3150800772C1404002080B582B000AF7860064B1B6845
S3150800773C064A13401900044B7A680A431A60C04675
S3150800774CBD4602B080BDC04600000140FFF9FFFFF0
S3150800775C80B582B000AF786039607B681B68054AD3
S3150800776C1A403B681A437B681A60C046BD4602B08D
S3150800777C80BDC046FFFF3FFE80B582B000AF786083
S3150800778C7B681A68E0235B0413401800BD4602B0F8
S3150800779C80BD80B584B000AFF860B9607A60FB68CC
S315080077AC5B69BA6804210A40072191400A00D24352
S315080077BC1A40BB6804210B40796899400B001A43A0
S315080077CCFB685A61C046BD4604B080BD80B582B020
S315080077DC00AF786039607B685B693A6804210A40B7
S315080077EC072191400A001A403B6804210B40DA40F5
S315080077FC13001800BD4602B080BD80B582B000AF3C
S3150800780C78607B68DA68C0231B01134001D1012319
S3150800781C00E000231800BD4602B080BD80B584B0D8
S3150800782C00AFF860B9607A60FB689B6ABA681F217A
S3150800783C0A400F2191400A00D2431A407B689B0EDE
S3150800784C0F211940BB681F20034099400B001A43AF
S3150800785CFB689A62C046BD4604B080BD80B582B04E
S3150800786C00AF786039607B689A6A3B685B035B0B90
S3150800787C1A437B689A62C046BD4602B080BD80B585
S3150800788C82B000AF786039607B689B6A3A685203AD
S3150800789C520BD2431A407B689A62C046BD4602B068
S315080078AC80BD000080B584B000AFF860B9607A601E
S315080078BCFB685B69BA681202D2431A40BB681B02A2
S315080078CC79680B4004490B401A43FB685A61C04659
S315080078DCBD4604B080BDC04600FFFF0780B582B028
S315080078EC00AF78607B689B68054A13408022520576
S315080078FC1A437B689A60C046BD4602B080BDC04636
S3150800790CE8FFFF6F80B582B000AF78607B689A6835
S3150800791C80235B051A4080235B059A4201D101231B
S3150800792C00E000231800BD4602B080BD80B582B0C9
S3150800793C00AF78607B689B68044A134001221A439F
S3150800794C7B689A60C046BD4602B080BDE8FFFF7FE3
S3150800795C80B582B000AF78607B689B68044A134098
S3150800796C02221A437B689A60C046BD4602B080BDA7
S3150800797CE8FFFF7F80B582B000AF78607B689B68B4
S3150800798C01221340012B01D1012300E0002318002A
S3150800799CBD4602B080BD80B582B000AF78607B680A
S315080079AC9B6802221340022B01D1012300E000231D
S315080079BC1800BD4602B080BD80B582B000AF7860B5
S315080079CC7B689B68044A134004221A437B689A60B6
S315080079DCC046BD4602B080BDE8FFFF7F80B582B0C9
S315080079EC00AF78607B689B68044A134010221A43E0
S315080079FC7B689A60C046BD4602B080BDE8FFFF7F33
S31508007A0C80B582B000AF78607B689B68042213400F
S31508007A1C042B01D1012300E000231800BD4602B057
S31508007A2C80BD000080B588B000AF78601F23FB18B6
S31508007A3C00221A700023BB6100237B610023FB60C4
S31508007A4C7B68002B01D101237FE17B689B6D002BA2
S31508007A5C0AD17B681800FFF7BDF97B680022DA6546
S31508007A6C7B685422002199547B681B681800FFF721
S31508007A7C49FF031E15D17B681B681800FFF72EFFFC
S31508007A8CB44B1B68B4491800FBF736FB03000133EB
S31508007A9C5B00FB6002E0FB68013BFB60FB68002BAC
S31508007AACF9D17B681B681800FFF72CFF031E0FD152
S31508007ABC7B689B6D10221A437B689A657B68DB6D25
S31508007ACC01221A437B68DA651F23FB1801221A70F8
S31508007ADC7B681B681800FFF793FF03003B617B6804
S31508007AEC9B6D1022134000D022E13B69002B00D07D
S31508007AFC1EE17B689B6D994A134002221A437B68E8
S31508007B0C9A657B681B681800FFF734FF031E00D0C4
S31508007B1CADE07B689A687B681B7E9B031A437B687F
S31508007B2C5B7EDB031A437B689B7E5B031A437B688D
S31508007B3C1B6B002B02D080235B0100E000231A4349
S31508007B4C7B68DB681A437B681B69002B04DA7B6845
S31508007B5C1B695B005B0801E080239B031A437B6867
S31508007B6C2C215B5C5B001343BA691343BB617B68CE
S31508007B7C20229B5C012B15D17B689B7E002B05D1A3
S31508007B8CBB69802252021343BB610BE07B689B6D79
S31508007B9C20221A437B689A657B68DB6D01221A439F
S31508007BAC7B68DA657B685B6A002B0AD07B685A6A45
S31508007BBCE0235B001A407B689B6A1343BA6913433C
S31508007BCCBB617B681B68DB68654A134019007B68D8
S31508007BDC1B68BA690A43DA607B685B689B0F9A076D
S31508007BEC7B68DB6C13437A6913437B617B683C22A5
S31508007BFC9B5C012B11D17B685B689B0F9A077B6892
S31508007C0C1B6C1A437B685B6C1A437B689B6C1A4328
S31508007C1C7B691343012213437B617B681B681B69D1
S31508007C2C504A134019007B681B687A690A431A6123
S31508007C3C7B685A68C0231B069A4218D07B685A6818
S31508007C4C8023DB059A4212D07B685A6880231B0670
S31508007C5C9A420CD0444B1B68444A134019007B6863
S31508007C6C5A68F0239B031A403F4B0A431A607B68F9
S31508007C7C18687B685B6B1A000021FFF78AFD7B6826
S31508007C8C18687B689B6B3A491A00FFF782FD7B687C
S31508007C9C1B69002B09D17B681B689A6A7B681B6871
S31508007CAC102149420A439A6218E07B681A698023B4
S31508007CBC9B039A4212D17B681B689B6A7B68DB69BB
S31508007CCC013B9B001C221340102252429A40110081
S31508007CDC7B681A6E7B681B680A439A627B681B680A
S31508007CEC00211800FFF772FD02007B685B6B9A4255
S31508007CFC0BD17B680022DA657B689B6D0322934364
S31508007D0C01221A437B689A651CE07B689B6D1222DC
S31508007D1C934310221A437B689A657B68DB6D0122B4
S31508007D2C1A437B68DA651F23FB1801221A7009E0CF
S31508007D3C7B689B6D10221A437B689A651F23FB1878
S31508007D4C01221A701F23FB181B781800BD4608B0B1
S31508007D5C80BDC0465C000020400D0300FDFEFFFF01
S31508007D6C0102DEFF02FCFF1F08270140FFFFC3FFCD
S31508007D7C04FFFF07B0B584B000AF78607B68542267
S31508007D8C9B5C012B01D1022329E07B68542201213B
S31508007D9C99540F257C197B68180000F09DFA03008E
S31508007DAC23707B191B78002B12D17C197B68180061
S31508007DBC00F05AFB030023707B191B78002B07D1A4
S31508007DCC7B689B6D084A134001221A437B689A65A7
S31508007DDC7B685422002199540F23FB181B78180032
S31508007DECBD4604B0B0BDC046FEFEFFFFB0B586B0BA
S31508007DFC00AFF860B9607A60FB681B681800FFF77B
S31508007E0CFFFD031E6CD1FB6854229B5C012B01D130
S31508007E1C02236CE0FB68542201219954FB681B6809
S31508007E2CDB680122134013D1FB681B681800FFF7A7
S31508007E3CA1FD031E04D0FB681B681800FFF788FD1C
S31508007E4CFB681B68DA68FB681B6801210A43DA6061
S31508007E5C17257C19FB68180000F080FA03002370BC
S31508007E6C2C003B191B78002B3ED1FB689B6D224AD4
S31508007E7C1340802252001A43FB689A65FB6800225D
S31508007E8CDA65FB681B6D1D4ADA62FB681B6D1C4ABA
S31508007E9C1A63FB681B6D1B4A5A63FB681B681C221A
S31508007EAC1A60FB68542200219954FB681B685A68AF
S31508007EBCFB681B6810210A435A60FB68186DFB683F
S31508007ECC1B6840331900BA683C197B6800F0ECFE55
S31508007EDC03002370FB681B681800FFF76DFD03E0B1
S31508007EEC1723FB1802221A701723FB181B78180085
S31508007EFCBD4606B0B0BDC046FEF0FFFF3185000892
S31508007F0CF98500081786000880B582B000AF78603E
S31508007F1CC046BD4602B080BD80B582B000AF786061
S31508007F2CC046BD4602B080BD80B586B000AF78604D
S31508007F3C39601723FB1800221A700023FB607B6834
S31508007F4C54229B5C012B01D10223C0E17B6854228D
S31508007F5C012199547B681B681800FFF751FD031E15
S31508007F6C00D0A3E13B685B68022B00D143E17B6838
S31508007F7C1A6980231B069A4204D07B681B69C14A7E
S31508007F8C934208D17B681A683B681B681900100075
S31508007F9CFFF764FCC9E07B681A6E3B685B681F21B7
S31508007FAC0B400F2199400B00DB43134019003B682B
S31508007FBC1B685B035B0B05D13B681B689B0E1F227A
S31508007FCC134098E03B681B680122134000D091E0EF
S31508007FDC3B681B680222134000D089E03B681B688B
S31508007FEC0422134000D081E03B681B68082213402A
S31508007FFC00D079E03B681B681022134000D071E072
S3150800800C3B681B682022134000D069E03B681B685C
S3150800801C4022134000D061E03B681B688022134065
S3150800802C00D059E03B681A6880235B00134051D195
S3150800803C3B681A6880239B00134049D13B681A6831
S3150800804C8023DB00134041D13B681A6880231B014F
S3150800805C134039D13B681A6880235B01134031D130
S3150800806C3B681A6880239B01134029D13B681A6820
S3150800807C8023DB01134021D13B681A6880231B023D
S3150800808C134019D13B681A6880235B02134011D13F
S3150800809C3B681A6880239B02134009D13B681A680F
S315080080AC8023DB02134001D0122324E0002322E0B4
S315080080BC112320E010231EE00F231CE00E231AE0E8
S315080080CC0D2318E00C2316E00B2314E00A2312E008
S315080080DC092310E008230EE007230CE006230AE028
S315080080EC052308E0042306E0032304E0022302E048
S315080080FC012300E000233A6852681F20024093408F
S3150800810C0A001A437B681A663B685B689B085A1C0C
S3150800811C7B68DB699A4208D87B6818683B6859689B
S3150800812C3B681B681A00FFF779FB7B6818683B6885
S3150800813C19683B689B681A00FFF7B4FB3B681B6819
S3150800814C002B00DBBCE0504B1800FFF715FB0300B7
S3150800815C3B613B681B684D4A934222D13A6980239E
S3150800816C1B0413401DD13B69802212041343464A53
S3150800817C19001000FFF7ECFA454B1B684549180027
S3150800818CFAF7BAFF03005A1C13005B009B189B00F6
S3150800819CFB6002E0FB68013BFB60FB68002BF9D136
S315080081AC8EE03B681B683C4A93420ED13A698023A1
S315080081BC5B04134009D13B69802252041343324AAB
S315080081CC19001000FFF7C4FA7AE03B681B68334ABB
S315080081DC934200D074E03A698023DB03134000D045
S315080081EC6EE03B698022D2031343274A190010001C
S315080081FCFFF7AEFA64E07B681A6980231B069A427D
S3150800820C04D07B681B691F4A934207D17B681A689E
S3150800821C3B681B6819001000FFF731FB3B681B68AD
S3150800822C002B4DDA184B1800FFF7A6FA03003B6132
S3150800823C3B681B68154A934208D13B69184A134098
S3150800824C114A19001000FFF783FA39E03B681B68DE
S3150800825C114A934208D13B69124A13400A4A19003B
S3150800826C1000FFF775FA2BE03B681B680B4A934224
S3150800827C26D13B690C4A1340034A19001000FFF734
S3150800828C67FA1DE00400008008270140001000B0C2
S3150800829C5C000020400D0300004000B8002000B42C
S315080082ACFFFF7FFFFFFFFFFEFFFFBFFF7B689B6D96
S315080082BC20221A437B689A651723FB1801221A7029
S315080082CC7B685422002199541723FB181B78180035
S315080082DCBD4606B080BDC04680B584B000AF786098
S315080082EC7B681B681800FFF78BFB031E31D07B6875
S315080082FC1B681800FFF74FFB031E04D17B681B682D
S3150800830C1800FFF76BFBFFF703FA0300FB601AE094
S3150800831CFFF7FEF90200FB68D31A022B13D97B6808
S3150800832C1B689B68042213400DD07B689B6D10223A
S3150800833C1A437B689A657B68DB6D01221A437B6856
S3150800834CDA65012306E07B681B689B6804221340E8
S3150800835CDED100231800BD4604B080BD80B584B0BC
S3150800836C00AF78600023BB607B681B681800FFF7BA
S3150800837C01FB031E00D069E07B681B689B68364AC4
S3150800838C13400DD07B689B6D10221A437B689A6547
S3150800839C7B68DB6D01221A437B68DA65012356E09C
S315080083AC7B681B681800FFF7C1FA2C4B1800FFF7FF
S315080083BCE3F9020080231B0413400FD0284B1B68DB
S315080083CC28491800FAF798FE03000133BB6002E04F
S315080083DCBB68013BBB60BB68002BF9D17B685B7E35
S315080083EC012B33D0FFF794F90300FB6027E07B6879
S315080083FC1B681800FFF7BEFA031E04D17B681B68BE
S3150800840C1800FFF793FAFFF783F90200FB68D31AF3
S3150800841C022B14D97B681B681B6801221340012B9D
S3150800842C0DD07B689B6D10221A437B689A657B6816
S3150800843CDB6D01221A437B68DA65012307E07B684A
S3150800844C1B681B6801221340012BD0D1002318008E
S3150800845CBD4604B080BDC046170000800827014001
S3150800846C5C000020400D030080B584B000AF786036
S3150800847C7B681B681800FFF78EFA0300FB607B68A5
S3150800848C1B681800FFF776FA031E46D0FB68002B0C
S3150800849C43D17B681B689B6805221340012B0DD1C1
S315080084AC7B681B681800FFF753FA7B681B68032266
S315080084BC1A60FFF72DF90300BB6028E07B689B6DFB
S315080084CC10221A437B689A657B68DB6D01221A4376
S315080084DC7B68DA65012321E0FFF71AF90200BB680D
S315080084ECD31A022B13D97B681B689B68012213408D
