S01E000053544D333247305F4C45444452495645525F50524F472E737265639F
S31508003000004002205D530008E9520008F552000806
S3150800301000000000000000000000000000000000A2
S31508003020000000000000000000000000FD5200083B
S3150800303000000000000000000753000811530008B4
S31508003040AD530008AD530008AD530008AD53000852
S31508003050AD530008AD530008AD530008AD53000842
S31508003060AD53000821530008AD530008AD530008BE
S31508003070AD530008AD530008AD530008AD53000822
S31508003080AD530008AD530008AD530008AD53000812
S31508003090AD53000839530008AD530008AD53000876
S315080030A0AD530008AD530008AD530008AD530008F2
S315080030B0AD530008AD530008AD530008EE11AA55EC
S315080030C010B5064C2378002B07D1054B002B02D0F0
S315080030D0044800E000BF0123237010BD3000002023
S315080030E000000000F8B80008044B10B5002B03D008
S315080030F00349044800E000BF10BDC04600000000B8
S3150800310034000020F8B80008002243088B4274D324
S3150800311003098B425FD3030A8B4244D3030B8B42CA
S3150800312028D3030C8B420DD3FF22090212BA030CD3
S315080031308B4202D31212090265D0030B8B4219D3B4
S3150800314000E0090AC30B8B4201D3CB03C01A5241D4
S31508003150830B8B4201D38B03C01A5241430B8B421C
S3150800316001D34B03C01A5241030B8B4201D30B0305
S31508003170C01A5241C30A8B4201D3CB02C01A52412C
S31508003180830A8B4201D38B02C01A5241430A8B42EF
S3150800319001D34B02C01A5241030A8B4201D30B02D8
S315080031A0C01A5241CDD2C3098B4201D3CB01C01AF2
S315080031B0524183098B4201D38B01C01A52414309FC
S315080031C08B4201D34B01C01A524103098B4201D3EA
S315080031D00B01C01A5241C3088B4201D3CB00C01A57
S315080031E0524183088B4201D38B00C01A52414308CF
S315080031F08B4201D34B00C01A5241411A00D20146F4
S31508003200524110467047FFE701B5002000F0F0F87C
S3150800321002BDC0460029F7D076E7704703460B4340
S315080032207FD4002243088B4274D303098B425FD3B1
S31508003230030A8B4244D3030B8B4228D3030C8B42DD
S315080032400DD3FF22090212BA030C8B4202D31212C3
S31508003250090265D0030B8B4219D300E0090AC30B98
S315080032608B4201D3CB03C01A5241830B8B4201D345
S315080032708B03C01A5241430B8B4201D34B03C01A2E
S315080032805241030B8B4201D30B03C01A5241C30AA6
S315080032908B4201D3CB02C01A5241830A8B4201D317
S315080032A08B02C01A5241430A8B4201D34B02C01A01
S315080032B05241030A8B4201D30B02C01A5241CDD2A6
S315080032C0C3098B4201D3CB01C01A524183098B42F1
S315080032D001D38B01C01A524143098B4201D34B01DA
S315080032E0C01A524103098B4201D30B01C01A52413D
S315080032F0C3088B4201D3CB00C01A524183088B42C4
S3150800330001D38B00C01A524143088B4201D34B00AC
S31508003310C01A5241411A00D201465241104670471E
S315080033205DE0CA0F00D04942031000D34042534023
S3150800333000229C4603098B422DD3030A8B4212D3E3
S31508003340FC22890112BA030A8B420CD38901921115
S315080033508B4208D3890192118B4204D389013AD052
S31508003360921100E08909C3098B4201D3CB01C01A27
S31508003370524183098B4201D38B01C01A524143093A
S315080033808B4201D34B01C01A524103098B4201D328
S315080033900B01C01A5241C3088B4201D3CB00C01A95
S315080033A0524183088B4201D38B00C01A5241D9D2AD
S315080033B043088B4201D34B00C01A5241411A00D22E
S315080033C00146634652415B10104601D34042002B2A
S315080033D000D54942704763465B1000D3404201B5A9
S315080033E0002000F005F802BD0029F8D016E770475E
S315080033F07047C04680B500AF00F09AFA00F058FA58
S3150800340000F01EF8C046BD4680BD80B500AF00F08E
S315080034105BFA00F01CF8C046BD4680BD80B500AF1B
S31508003420BFF34F8FC046044B044ADA60BFF34F8F91
S31508003430C046C046FDE7C04600ED00E00400FA05B8
S3150800344080B500AF00F00EF9C046BD4680BD80B518
S3150800345000AF00F0C7F9C046BD4680BD80B500AFD5
S31508003460FFF7DCFFF0B589B000AFF860B9607A60A5
S315080034701F23FB1800221A70FB68784A934200D86B
S31508003480E5E0FB68764A934200D9E0E0BB68002B8A
S3150800349000D1DCE07B68002B00D1D8E0BB681A8934
S315080034A0BB689B89D3189AB21A23FB1801321A8073
S315080034B0BB685A89BB68DB89D3189AB21823FB18EC
S315080034C001321A801C23FB18BA6892881A80B4E065
S315080034D0BB681A681A257B191B88F9684B439A42F8
S315080034E000D2B3E0BB681A681C26BB191B881900F2
S315080034F01000FFF78FFE0B1E00D098E0BB681A6815
S31508003500BB191B8819001000FFF7FEFD0300F968B8
S315080035101800FFF77FFE0B1E00D088E0BB681A680C
S31508003520BB191B8819001000FFF7EEFD0300F968A8
S315080035301800FFF7E9FD03001A0016243B191A8044
S315080035403A197B1912881B889A4200D26FE03A19F9
S315080035501823FB1812881B889A4200D967E03B1982
S315080035601B885B0009330A211800FFF7CDFD03000D
S315080035701A0014203B181A8021007A1804003B19F7
S3150800358012881B88D31A9AB212257B19013A1A8017
S31508003590BB681B897A1912889A4248D3BB685B892B
S315080035A07A1912889A4242D8BB689B893A191288B6
S315080035B09A423CD3BB68DB893A1912889A4236D8B4
S315080035C07B191B88013364225A437B181B88190010
S315080035D01000FFF799FD03001A0011217B181A70D5
S315080035E00A00BB181B78402B21D9BB181B78502B17
S315080035F01DD87B68BA1912881A807B687A191288CE
S315080036005A807B683A1912889A807B689B885B087F
S315080036109AB27B68DA807B68DB88002B02D17B68EC
S315080036200122DA801F23FB1801221A700FE01C21E1
S315080036307B181A887B1801321A80BB68DB881C2223
S31508003640BA1812889A4200D842E700E0C0461F23FB
S31508003650FB181B781800BD4609B0F0BD0F270000FF
S3150800366000127A0080B590B002AF594B7B633B1DC0
S31508003670180008231A00002108F008F9554B564A85
S315080036801A60544B180001F0EDFC80239B041800C7
S3150800369006F02EFB02000C217B181A607B1801220B
S315080036A09A807B1880229200DA807B1801221A8180
S315080036B07B18802252005A817B1801229A817B1836
S315080036C08022DA813A1D7B1844481900FFF7CAFEA2
S315080036D0404B00225A603F4B00229A603D4B002225
S315080036E0DA603C4B01221A743A4B01225A74394B60
S315080036F000229A743B1D1B881A00364B5A613B1DE3
S315080037005B881A00334BDA613B1D9B881A00314BE4
S315080037101A623B1DDB881A002E4B9A612D4B01223B
S315080037205A622C4B01229A622A4B0122DA62294BF1
S3150800373001221A637B6B002B06DB264B01225A6398
S31508003740244B00229A6305E0224B00225A63214B40
S3150800375001229A631F4B0022DA631E4B180003F0FE
S31508003760E1FA7B6B002B04DB1C23FB1800221A6092
S3150800377008E01C23FB188022D2051A607B6B5B00CD
S315080037805B087B631C217B1800225A607B18002289
S315080037909A607B180122DA607B1800221A617B186E
S315080037A00F4A5A617A180B4B1100180003F020FCD7
S315080037B008480123009301230222022103F075FC25
S315080037C0044B180003F0A1FCC046BD460EB080BDF0
S315080037D00000109F4C0000200064004020A1070054
S315080037E0FFFFFF1F90B591B000AF2F4BBB633F2380
S315080037F0FB1800221A703E243B1901221A702B4B23
S315080038004021180003F002FE031E09D03C193B1D97
S315080038100C22BA182548402103F0E2FC0300237065
S315080038203E23FB181B78002B3AD1BB6B002B0EDB13
S315080038300C217B181B68BA6B9A421CD17B185B68F3
S31508003840002B18D13F23FB1801221A7013E0BB6B1B
S315080038505B005B08BB630C217B181B68BA6B9A423A
S3150800386009D17B185A688023DB059A4203D13F2386
S31508003870FB1801221A703F23FB181B78012B0FD166
S315080038800C23FB18DA6837217B181A703B1D1B7846
S31508003890FF2B05D17B181B78022B01D1FFF7DEFD24
S315080038A0C046BD4611B090BD0000109F4C000020D8
S315080038B080B500AFA023DB0500222021180004F004
S315080038C097FAC046BD4680BD80B582B000AF00F00D
S315080038D034F803007B60144B1B687A68D21AFA2303
S315080038E09B009A421CD3114B1B78002B0AD10F4B15
S315080038F001221A70A023DB0501222021180004F0FA
S3150800390077FA09E0094B00221A70A023DB0500228A
S315080039102021180004F06CFA034B7A681A6000E05C
S31508003920C046BD4602B080BDB0000020B4000020ED
S3150800393080B500AFC046BD4680BD80B500AF01F07A
S31508003940B3FD03001800BD4680BD80B582B000AF48
S3150800395078607B6830220021180007F097FF7B68A3
S3150800396000221A707B6800225A70C046BD4602B013
S3150800397080BD000080B582B000AF78607B681B7898
S31508003980042B1DD89A00124BD3181B689F467B68D8
S31508003990180000F01FF817E07B68180000F034F8EC
S315080039A012E07B68180000F07FF80DE07B681800CD
S315080039B000F00CF908E07B68180000F08BF903E0CA
S315080039C07B6800221A70C046C046BD4602B080BD5C
S315080039D01CB9000880B584B000AF7860012001F0FA
S315080039E0F5F901F079FA01F05FFD0300FB607B68E9
S315080039F0FA681A627B68FA685A627B6801221A704A
S31508003A00C046BD4604B080BD80B582B000AF7860C0
S31508003A107B6802331A000021012000F059FE7B68FA
S31508003A200233180000F0D0FC031E0BD17B6802336A
S31508003A30180000F06DFC7B6802331A000021012093
S31508003A4000F030FE7B689A88164B1A807B68DA8805
S31508003A50144B5A807B681A89124B9A807B685A895C
S31508003A60104BDA807B689A890E4B1A810D4B9B881E
S31508003A70DAB27B689A730B4BDB88DAB27B68DA7347
S31508003A80084B1B89DAB27B681A747B680E331800F8
S31508003A9001F01AF97B6802221A70C046BD4602B0C8
S31508003AA080BDC046F0000020B0B584B000AF786095
S31508003AB0454BDB7A002B00D080E001F0F5FC0300D3
S31508003AC0FB607B681B6AFA68D31A632B26D97B6866
S31508003AD0FA681A62002001F09BF903001A007B6855
S31508003AE0DA82012001F094F903001A007B681A8330
S31508003AF001F0F2F90B257C197B68180000F0CAF969
S31508003B00030023707B191B78002B07D07B687A1972
S31508003B1012785A707B6803221A7051E07B685B6AD8
S31508003B20FA68D31AC72B30D97B68FA685A62264BCB
S31508003B309A887B685A83244BDA887B689A83224B57
S31508003B401A897B68DA837B681622995A98184088FE
S31508003B50000401430C0099188888C9880904084399
S31508003B6001009B181A8900231204120C1B0C1B0453
S31508003B70134320001A0000F03FFB7B681A787B6825
S31508003B805B781900100000F0B7F97B68DB6AFA6801
S31508003B90D21AFA239B009A4207D37B68FA68DA623C
S31508003BA07B680233180000F0D3FA7B68180000F02F
S31508003BB0E7F87B68180000F009F901E000F092FBCD
S31508003BC0BD4604B0B0BDC046F0000020B0B584B014
S31508003BD000AF786001F068FC0300FB603B4B0022F5
S31508003BE09A723B4B1B78002B13D1002001F0EEF89C
S31508003BF07B6800229A737B680022DA737B6800224E
S31508003C001A747B680E33180001F05EF8304B0122F7
S31508003C101A707B681B6AFA68D31A632B28D97B68E3
S31508003C20FA681A62002001F0F3F803001A007B68AC
S31508003C30DA82012001F0ECF803001A007B681A8387
S31508003C4001F04AF90B257C197B68180000F022F967
S31508003C50030023707B191B78002B09D11C4B00220B
S31508003C601A707B68FA689A627B6804221A702AE0DE
S31508003C707B685B6AFA68D31AC72B24D97B68FA680B
S31508003C805A627B681622995A98184088000401439C
S31508003C900C0099188888C9880904084301009B18EC
S31508003CA01A8900231204120C1B0C1B041343200050
S31508003CB01A0000F0A1FA7B681A787B685B7819000D
S31508003CC0100000F019F9BD4604B0B0BDF0000020A0
S31508003CD0B5000020B0B584B000AF786001F0E4FB11
S31508003CE00300FB60254B1B78002B07D1012001F050
S31508003CF06DF801F0F1F8214B01221A707B689B6A76
S31508003D00FA68D31AC72B34D9002001F081F80300CA
S31508003D101A007B68DA82012001F07AF803001A009B
S31508003D207B681A830B257C197B68180000F0B2F8AB
S31508003D30030023707B191B78002B0FD17B680022A8
S31508003D405A707B68FA681A627B68FA685A620B4B83
S31508003D5000221A707B6802221A700AE07B680B221E
S31508003D60BA1812785A70054B00221A707B6803221B
S31508003D701A70C046BD4604B0B0BDC046B6000020A5
S31508003D8080B582B000AF78600F4B9B7A002B13D0BA
S31508003D900D4B9B88DAB27B689A730B4BDB88DAB2D9
S31508003DA07B68DA73084B1B89DAB27B681A747B68FE
S31508003DB00E33180000F088FF034B00229A72C046A3
S31508003DC0BD4602B080BDC046F000002080B582B076
S31508003DD000AF78602C4B1B78002B25D02A4B00228D
S31508003DE01A707B68294A5A80294B1A887B689A80F8
S31508003DF0274B5A887B68DA80254B9A887B681A8114
S31508003E00234BDA887B685A81214B1A897B689A8109
S31508003E107B6802331A000021012000F043FC7B680E
S31508003E200233180000F094F9174B5B78002B27D063
S31508003E30154B00225A707B680233180000F068FAA6
S31508003E407B6802331A000021012000F02BFC7B68F6
S31508003E509A880F4B1A807B68DA880D4B5A807B68E4
S31508003E601A890B4B9A807B685A89094BDA807B68DA
S31508003E709A89074B1A817B680233180000F068F9A3
S31508003E80C046BD4602B080BDFC0000208435000057
S31508003E90F000002080B584B000AF78600F217B1851
S31508003EA000221A70134B1B88002B0BD07B68DA8A0A
S31508003EB0104B1B889A4205D27B187A181278012172
S31508003EC00A431A700B4B5B88002B0CD07B681A8B45
S31508003ED0084B5B889A4206D20F22BB18BA1812788A
S31508003EE002210A431A700F23FB181B781800BD46D7
S31508003EF004B080BDF000002080B582B000AF02009B
S31508003F00FB1D1A70BB1D0A1C1A70BB1D1A78FB1DF7
S31508003F101B781100180000F0C7F9C046BD4602B06C
S31508003F2080BD000080B500AFBFF34F8FC046044B7D
S31508003F30044ADA60BFF34F8FC046C046FDE7C04665
S31508003F4000ED00E00400FA0580B500AF064B00223C
S31508003F500121180003F086FA034B180003F0D5F880
S31508003F60C046BD4680BDC0464C00002080B586B020
S31508003F7000AFF860B960FB1D1A70174BFA681A6033
S31508003F80FB1D1A78144BDA60FB1D1A78B968134BB7
S31508003F90180007F0A7FC01F087FA0300FA2292003E
S31508003FA0944663447B6105E001F07EFA02007B6972
S31508003FB093420CD30A4B180003F044FA031EF3D0BD
S31508003FC0064A0549064B180003F0C5F800E0C04646
S31508003FD0BD4606B080BDC04600000020E0000020B7
S31508003FE04C00002080B584B000AF786039604E4B35
S31508003FF008220021180007F049FC3B6801221340FB
S3150800400000D18CE0484B494A4948402103F0E8F87A
S31508004010464B1B68474A934225D10023FB601CE0A8
S31508004020414AFB68D3181B78642B07D9424AFB68B8
S315080040305B00D318043364221A800BE03A4AFB6803
S31508004040D3181B7819003C4AFB685B00D318043365
S315080040500A1C1A80FB680133FB60FB68022BDFDD54
S31508004060354B01229A72314B1B68344A934224D14C
S315080040702D4B1B781BB21B021AB22B4B5B781BB25B
S3150800408013431AB20A217B181A802B4B7A18128806
S315080040901A80254B9B781BB21B021AB2224BDB787F
S315080040A01BB213431AB208217B181A80224B7A18BE
S315080040B012885A80204B01229A721B4B1B78FF2BC1
S315080040C016D11A4B1B681E4A934205D1174BDB685B
S315080040D0022B01D1FFF726FF144BDB68012B07D112
S315080040E0154B0122DA7201F0DFF90200154B1A604E
S315080040F00E4B1B68144A934211D10B4B1B781A00BE
S315080041000123134002D0114B01221A70064B1B786B
S315080041101A000223134002D00C4B01225A70C046E3
S31508004120BD4604B080BDC046E8000020B8000020A7
S315080041304C0000202301101FF00000202401101F4E
S315080041400000101F000100202501101FFC000020A0
S3150800415080B584B000AF78607B689A78DB781B02FC
S3150800416013439BB21B0A9BB2DAB208217B181A705A
S315080041707B689A78DB781B0213439BB2DAB27B180A
S315080041805A707B681A795B791B0213439BB21B0A28
S315080041909BB2DAB27B189A707B681A795B791B0234
S315080041A013439BB2DAB27B18DA707B689A79DB79AB
S315080041B01B0213439BB2DAB27B181A717B681A7A10
S315080041C05B7A1B0213439BB2DAB27B185A717B687F
S315080041D09A7ADB7A1B0213439BB2DAB27B189A717E
S315080041E07B18044807221900FFF7C0FEC046BD46E3
S315080041F004B080BD2601101F90B587B000AF3B1DE7
S31508004200186059609A6010243B19180008231A0090
S31508004210002107F03BFB3B1D9B88DAB221007B1887
S315080042201A703B1DDB88DAB27B185A703B1D1B8956
S31508004230DAB27B189A703B1D1B881B0A9BB2DAB24E
S315080042407B18DA703B1D1B88DAB27B181A713B1D86
S315080042505B881B0A9BB2DAB27B185A713B1D5B88D6
S31508004260DAB27B189A710E4B1B68DAB27B18DA71D0
S315080042700B4B1B68FE2B03DD094B00221A6004E07A
S31508004280074B1B685A1C064B1A601023FB18054877
S3150800429008221900FFF76AFEC046BD4607B090BD62
S315080042A0040100202701101F80B584B000AF02006A
S315080042B0FB1D1A70BB1D0A1C1A7008217B18FA1DF3
S315080042C012781A707B18BA1D12785A707B1804482F
S315080042D002221900FFF74AFEC046BD4604B080BD5B
S315080042E02801101F80B500AF01F0DEF80200064B6A
S315080042F01B68D21AFA235B009A4202D9034B0022A2
S31508004300DA72C046BD4680BD00010020F0000020DC
S3150800431080B582B000AF78607B681A7800210A40C1
S31508004320111C7C2252420A431A705A7800210A400C
S31508004330111C35220A435A707B689A7900210A4073
S31508004340111C32220A439A71DA7900210A40DA717D
S315080043507B681A7A00210A40111C1E220A431A7227
S315080043605A7A00210A405A727B689A7A00210A40D2
S31508004370111C1E220A439A72DA7A00210A40DA725E
S315080043807B689A7800210A40111C20220A439A70F9
S31508004390DA7800210A40111C4E220A43DA707B683B
S315080043A01A7900210A40111C682252420A431A71DE
S315080043B05A7900210A40111C3A220A435A71C0460A
S315080043C0BD4602B080BD000080B582B000AF7860FF
S315080043D07B681A785B781B0213439BB2044A9342A4
S315080043E001D1012300E000231800BD4602B080BDBC
S315080043F08435000080B582B000AF0200BB1D1A806C
S315080044003B1D0A1C1A80BB1D1A883B1D1B88D31826
S315080044103F2B02DCBB1D1B8804E03B1D1B8840228A
S31508004420D31A9BB21800BD4602B080BDF0B58FB056
S3150800443004AF04000800BA6019000E257B19221C77
S315080044401A800C243B19021C1A80BB1D0A1C1A80F0
S315080044500623BB612623FB187A1912881A803B1992
S315080044601A88BB1D1B88D318002B00DA3F339B1113
S3150800447099B216203B180E22BA1812888A181A8082
S315080044803A182623FB1812881B88D31A9AB21423C3
S31508004490FB1801321A802423FB1800221A800023F5
S315080044A03B625DE02626BB191A88BB699A40130051
S315080044B01AB20C217B1800201B5E13431AB2122372
S315080044C0FB181A8010257C197B181A88BB1D1B88B7
S315080044D011001800FFF78EFF0300238024243B19E0
S315080044E01B88BA68D3181222BA1811882248FA22E9
S315080044F0920002927A1912880192009302230A0006
S31508004500A02103F039FDBB19BA19128801321A80A5
S315080045100C217B1800221A80BB1DB91D7A1909883F
S3150800452012888A1A1A803B1939197A190988128841
S315080045308A181A800023FB610AE00F4864230122C7
S31508004540A02103F07BFF031E06D0FB690133FB6144
S31508004550FB69092BF1DD00E0C0463B6A01333B628B
S315080045601423FB181B883A6A9A429BDBC046C0464E
S31508004570BD460BB0F0BDC046FC010020F0B58FB0BB
S3150800458004AF04000800BA6019000E257B19221C26
S315080045901A800C243B19021C1A80BB1D0A1C1A809F
S315080045A00623FB612623FB187A1912881A803B1901
S315080045B01A88BB1D1B88D318002B00DA3F339B11C2
S315080045C099B21A203B180E22BA1812888A181A802D
S315080045D03A182623FB1812881B88D31A9AB218236E
S315080045E0FB1801321A802423FB1800221A800023A4
S315080045F03B624AE02626BB191A88FB699A401300D3
S315080046001AB20C217B1800201B5E13431AB216231C
S31508004610FB181A8014257C197B181A88BB1D1B8861
S3150800462011001800FFF7E6FE0300238024243B1937
S315080046301B88BA68D3181622BA1811881848FA229D
S31508004640920002927A1912880192009302230A00B4
S31508004650A02103F0BFFDBB19BA19128801321A80CE
S315080046600C217B1800221A80BB1DB91D7A190988EE
S3150800467012888A1A1A803B1939197A1909881288F0
S315080046808A181A803B6A01333B621823FB181B8879
S315080046903A6A9A42AEDBC046C046BD460BB0F0BD8C
S315080046A0FC01002080B582B000AF3A60BB1D021C39
S315080046B01A803B1D0A1C1A803A683B1D1988BB1DC7
S315080046C018880C23FFF7B2FEC046BD4602B080BD6F
S315080046D080B582B000AF3A60BB1D021C1A803B1D34
S315080046E00A1C1A803A683B1D1988BB1D18880C23BA
S315080046F0FFF744FFC046BD4602B080BD80B500AF97
S31508004700024B034A9A60C046BD4680BD00ED00E0F4
S315080047100030000880B500AFFFF7F0FF00F048FE54
S3150800472000F02EF800F048FA00F028FA00F0FCF83D
S3150800473000F03AF900F07EF8FEF75CFEFFF704FC9D
S315080047400D4B0021180006F0ADF80B4B042118009C
S3150800475006F0A8F8084B0821180006F0A3F8074B3E
S315080047601800FFF7F2F8FEF750FE044B1800FFF7A3
S3150800477001F9C046F7E7C0465002002008010020AC
S3150800478090B595B000AF14243B1918003C231A00C5
S31508004790002107F07BF83B1D180010231A000021A2
S315080047A007F074F880239B00180004F0D7FA3B1929
S315080047B001221A603B19802252025A6021007B1896
S315080047C002221A627B1803225A627B1800229A6216
S315080047D07B180F22DA627B18802292021A637B18F2
S315080047E0E02212055A637B18802292059A637B1889
S315080047F0180004F0FFFA031E01D000F05FFA3B1D13
S3150800480007221A603B1D02225A603B1D00229A604D
S315080048103B1D0022DA603B1D0221180004F04AFE07
S31508004820031E01D000F04AFA04F0EEFFC046BD466A
S3150800483015B090BD80B584B000AF3B1D18000C23A1
S315080048401A00002107F022F8334B344A1A60324B1B
S315080048508022D2055A60304B00229A602E4B0022E5
S31508004860DA602D4B802212061A612B4B08225A61F8
S31508004870294B00221A76284B00225A76264B01220B
S315080048809A76254B0122DA61234B00225A62224B83
S3150800489000229A62204B2C22002199541E4B80221A
S315080048A052011A631C4B05225A631B4B3C220021FA
S315080048B09954194B0022DA64174B180000F090FF40
S315080048C0031E01D000F0FAF93B1D154A1A603B1D7C
S315080048D001225A603A1D104B1100180001F0C6F962
S315080048E0031E01D000F0EAF93B1D0E4A1A603A1D74
S315080048F0094B1100180001F0B9F9031E01D000F0A8
S31508004900DDF9054B180001F093FD012000F0D6FDF6
S31508004910C046BD4604B080BD3801002000240140D1
S31508004920020000040400000880B500AF1B4B1C4AB7
S315080049301A601A4B1B4A5A60184B00229A60174B8A
S315080049400122DA60154B00221A61144B00225A61C3
S31508004950124B00229A61114B0022DA610F4B00229A
S315080049601A620E4B180003F061FA031E01D000F01C
S31508004970A5F90A4B0021180004F058F9031E01D0C6
S3150800498000F09CF9054B0021180004F09BF9031E62
S3150800499001D000F093F9C046BD4680BDFC01002059
S315080049A000540040601EB00080B59CB000AF602384
S315080049B0FB18180010231A00002106F067FF54237D
S315080049C0FB1818000C231A00002106F05FFF382395
S315080049D0FB1818001C231A00002106F057FF3B1D80
S315080049E0180034231A00002106F050FF604B614A74
S315080049F01A605F4B64225A605D4B00229A605C4BDA
S31508004A005D4ADA605A4B00221A61594B00225A61F4
S31508004A10574B80229A61564B180005F08BFE031EF1
S31508004A2001D000F04BF960217B18802252011A60F0
S31508004A307A184F4B1100180006F024F9031E01D00E
S31508004A4000F03CF94A4B180005F0CCFE031E01D0D5
S31508004A5000F034F954217B1800221A607B180022D2
S31508004A605A607B1800229A607A18414B1100180088
S31508004A7006F0FAFD031E01D000F020F938217B1854
S31508004A8060221A607B18FA2212015A607B180022EB
S31508004A909A607B180022DA607B1800221A617B185C
S31508004AA000225A617B1800229A617918304B00223D
S31508004AB0180005F0E7FF031E01D000F0FFF83821C3
S31508004AC07B18C82252005A607918294B042218000C
S31508004AD005F0D8FF031E01D000F0F0F838217B1846
S31508004AE0962292005A607918214B0822180005F080
S31508004AF0C9FF031E01D000F0E1F83B1D00221A6031
S31508004B003B1D00225A603B1D00229A603B1D002275
S31508004B10DA603B1D00221A613B1D802292015A6110
S31508004B203B1D00229A613B1D0022DA613B1D0022D3
S31508004B301A623B1D802292045A623B1D00229A6229
S31508004B403B1D0022DA623B1D00221A633A1D084B00
S31508004B501100180006F0FEFD031E01D000F0AEF8A5
S31508004B60034B180000F082FBC046BD461CB080BD52
S31508004B7050020020002C0140FF0F000080B582B0D3
S31508004B8000AF0C4B9A6B0B4B01210A439A63094BF6
S31508004B909B6B012213407B607B6800220021092061
S31508004BA001F0EEFD092001F000FEC046BD4602B048
S31508004BB080BDC0460010024090B58BB000AF1424EB
S31508004BC03B19180014231A00002106F05FFE394B22
S31508004BD05A6B384B04210A435A63364B5B6B0422E3
S31508004BE013403B613B69334B5A6B324B20210A43D6
S31508004BF05A63304B5B6B20221340FB60FB682D4BDE
S31508004C005A6B2C4B01210A435A632A4B5B6B0122D0
S31508004C101340BB60BB68274B5A6B264B02210A43DD
S31508004C205A63244B5B6B022213407B607B68A0238C
S31508004C30DB0500223021180003F0DAF83B19802240
S31508004C4092011A603B19882252035A603B190022C6
S31508004C509A603B19184A1900100002F05DFF3B19CB
S31508004C6010221A603B1901225A603B1900229A60E9
S31508004C703B190022DA603A19A023DB051100180057
S31508004C8002F04AFF21007B1820221A607B180122B5
S31508004C905A607B1800229A607B180222DA607A181A
S31508004CA0A023DB051100180002F036FFC046BD46FA
S31508004CB00BB090BD001002400008005080B500AF50
S31508004CC072B6C046C046FDE790B589B000AF7860B9
S31508004CD00823FB183B4A13CA13C33B4B1B68DB6A02
S31508004CE07B610023FB6165E07A68FB69D3181B7852
S31508004CF0DBB2002B02D10023BB6118E07A68FB699E
S31508004D00D3181B78DBB2632B03D97B690133BB61EC
S31508004D100DE07A68FB69D3181B78DBB21A007B6949
S31508004D20534364211800FEF7EFF90300BB6108231B
S31508004D30FB18FA699200D358002B04D1224B1B6842
S31508004D40BA695A6333E00823FB18FA699200D35804
S31508004D50042B04D11C4B1A68BB69936327E008230C
S31508004D60FB18FA699200D358082B04D1164B1A6817
S31508004D70BB69D3631BE00823FB18FA699200D35872
S31508004D800C2B04D1104B1A68BB6913640FE0082377
S31508004D90FB18FA699200D358102B04D10A4B1A68EB
S31508004DA0BB69936503E0084B1A68BB69D365FB6961
S31508004DB00133FB61FB69022B96DDC046C046BD4642
S31508004DC009B090BD10B900085002002080B582B025
S31508004DD000AF0200FB1D1A70FB1D1B78002B02D0CA
S31508004DE0012B08D00FE0A023DB05002210211800B4
S31508004DF002F0FEFF07E0A023DB05012210211800C0
S31508004E0002F0F6FFC046C046BD4602B080BD0000AF
S31508004E1080B582B000AF0200FB1D1A70FB1D1B781F
S31508004E20002B04D0012B0ED0C046002316E00D4BF4
S31508004E301B881A000C4B53430C491800FEF7EEF971
S31508004E4003009BB20AE0074B5B881A00064B5343E4
S31508004E5006491800FEF7E2F903009BB21800BD46A2
S31508004E6002B080BD9C02002098760000FF0F00006B
S31508004E7080B582B000AF02003960FB1D1A70FB1DB9
S31508004E801B78002B02D0012B0ED01BE00F4B1B8882
S31508004E901A000F4B53430F491800FEF7BFF90300DA
S31508004EA09AB23B689A800DE0084B5B881A00084B5B
S31508004EB0534308491800FEF7B1F903009AB23B6854
S31508004EC0DA80C046C046BD4602B080BD9C020020BE
S31508004ED098760000FF0F000080B500AF0449054B27
S31508004EE00222180000F024FEC046BD4680BDC0461A
S31508004EF09C0200203801002080B582B000AF78609F
S31508004F007B681B68084A934209D1084B19000020A0
S31508004F10FFF7AEFF054B19000120FFF7A9FFC046B2
S31508004F20BD4602B080BDC04600240140A002002054
S31508004F3080B582B000AF114B1A6C104B01210A43A1
S31508004F401A640E4B1B6C012213407B607B680B4B6B
S31508004F50DA6B0A4B802149050A43DA63074BDA6B99
S31508004F6080235B0513403B603B68C023DB001800C9
S31508004F7000F0C8FAC046BD4602B080BD0010024027
S31508004F8090B58BB000AF786014243B191800142331
S31508004F901A00002106F07AFC7B681B682D4A9342AA
S31508004FA054D12D4B1A6C2C4B802149030A431A64A1
S31508004FB0294B1A6C80235B0313403B613B69264BE4
S31508004FC05A6B254B01210A435A63234B5B6B01221B
S31508004FD01340FB60FB683B1906221A603B19032243
S31508004FE05A603B1900229A603A19A023DB05110082
S31508004FF0180002F091FD194B194A1A60174B052241
S315080050005A60164B00229A60144B0022DA60134B42
S3150800501080221A61114B802252005A610F4B80225E
S31508005020D2009A610D4B2022DA610C4B00221A62DB
S315080050300A4B180001F0D6FB031E01D0FFF73EFE0F
S315080050407B68064A1A65054B7A689A62C046BD4669
S315080050500BB090BD00240140001002409C010020C6
S315080050600800024090B59DB000AF78605C23FB183D
S31508005070180014231A00002106F008FC10243B1916
S3150800508018004C231A00002106F000FC7B681B68F8
S31508005090274A934247D13B19802292041A603B194A
S315080050A000229A643B19180004F0E6FB031E01D09F
S315080050B0FFF704FE1F4BDA6B1E4B802149010A439A
S315080050C0DA631C4BDA6B80235B011340FB60FB68D9
S315080050D0184B5A6B174B02210A435A63154B5B6BE5
S315080050E002221340BB60BB685C217B18C022920079
S315080050F01A607B1802225A607B1801229A607B1874
S315080051000022DA607B1803221A617B180A4A190002
S31508005110100002F001FD00220021152001F030FBED
S31508005120152001F042FBC046BD461DB090BDC046E5
S3150800513000640040001002400004005090B59DB085
S3150800514000AF78605C23FB18180014231A000021AE
S3150800515006F09CFB10243B1918004C231A0000216A
S3150800516006F094FB7B681B68224A93423DD13B19A3
S3150800517020221A603B1900229A613B19180004F094
S315080051807BFB031E01D0FFF799FD1B4B5A6B1A4B8D
S3150800519002210A435A63184B5B6B02221340FB60D9
S315080051A0FB685C217B18C0221A607B1812225A60A1
S315080051B07B1801229A607B180022DA607B18062287
S315080051C01A617B180D4A1900100002F0A5FC0A4B5B
S315080051D0DA6B094B802189030A43DA63064BDA6BDB
S315080051E080239B031340BB60BB68C046BD461DB009
S315080051F090BDC04600540040001002400004005014
S3150800520090B597B000AF78600C243B1918004C2372
S315080052101A00002106F03AFB7B681B68114A934284
S315080052201CD13B19802292031A603B1900229A630B
S315080052303B19180004F020FB031E01D0FFF73EFDC2
S31508005240094B1A6C084B802109010A431A64064B5C
S315080052501A6C80231B011340BB60BB68C046BD4661
S3150800526017B090BD002C01400010024090B589B0DF
S3150800527000AF78600C243B19180014231A0000218B
S3150800528006F004FB7B681B68154A934223D1154B2D
S315080052905A6B144B01210A435A63124B5B6B01226A
S315080052A01340BB60BB683B19E022D2001A6021009C
S315080052B07B1802225A607B1800229A607B1800220B
S315080052C0DA607B1802221A617A18A023DB0511001E
S315080052D0180002F021FCC046BD4609B090BDC04684
S315080052E0002C01400010024080B500AF04F09AFA85
S315080052F0C046FDE780B500AFC046FDE780B500AF04
S31508005300C046BD4680BD80B500AFC046BD4680BD1F
S3150800531080B500AF00F0B6F8C046BD4680BD0000B7
S3150800532080B500AF034B180001F08EFBC046BD46A2
S3150800533080BDC0469C01002080B500AF034B180015
S3150800534002F066F9C046BD4680BDC0464C00002046
S3150800535080B500AFC046BD4680BD00000D488546F5
S31508005360FFF7F6FF0C480D490D4A002302E0D45812
S31508005370C4500433C4188C42F9D30A4A0A4C002391
S3150800538001E013600432A242FBD306F087FAFFF766
S31508005390C1F9FEE70040022000000020300000208E
S315080053A080BA000830000020AC020020FEE70000AA
S315080053B080B582B000AFFB1D00221A700B4B1A682D
S315080053C00A4B802149000A431A60002000F010F8B1
S315080053D0031E03D0FB1D01221A7001E0FFF7A8FD8A
S315080053E0FB1D1B781800BD4602B080BD0020024098
S315080053F090B585B000AF78600F23FB1800221A70AD
S315080054001D4B1B78002B2BD01C4B1C681A4B1B788A
S315080054101900FA239800FDF777FE0300190020000B
S31508005420FDF772FE0300180001F0CFF9031E12D132
S315080054307B68032B0AD8796801235B42002218008F
S3150800544001F09EF90E4B7A681A600DE00F23FB18DF
S3150800545001221A7008E00F23FB1801221A7003E0D4
S315080054600F23FB1801221A700F23FB181B7818004C
S31508005470BD4605B090BDC0462C0000202400002083
S315080054802800002080B500AF054B1B781A00054B95
S315080054901B68D218034B1A60C046BD4680BDC0467D
S315080054A02C000020A802002080B500AF024B1B6824
S315080054B01800BD4680BDC046A802002080B584B04D
S315080054C000AF7860FFF7F0FF0300BB607B68FB6006
S315080054D0FB68013305D00A4B1B781A00FB689B183A
S315080054E0FB60C046FFF7E0FF0200BB68D31AFA6804
S315080054F09A42F7D8C046C046BD4604B080BDC046ED
S315080055002C00002080B582B000AF7860064B1B687F
S31508005510064A13401900044B7A680A431A60C046C3
S31508005520BD4602B080BDC04600000140FFF9FFFF3E
S3150800553080B582B000AF786039607B681B68054A21
S315080055401A403B681A437B681A60C046BD4602B0DB
S3150800555080BDC046FFFF3FFE80B582B000AF7860D1
S315080055607B681A68E0235B0413401800BD4602B046
S3150800557080BD80B584B000AFF860B9607A60FB681A
S315080055805B69BA6804210A40072191400A00D243A0
S315080055901A40BB6804210B40796899400B001A43EE
S315080055A0FB685A61C046BD4604B080BD80B582B06E
S315080055B000AF786039607B685B693A6804210A4005
S315080055C0072191400A001A403B6804210B40DA4043
S315080055D013001800BD4602B080BD80B582B000AF8A
S315080055E078607B68DA68C0231B01134001D1012368
S315080055F000E000231800BD4602B080BD80B584B027
S3150800560000AFF860B9607A60FB689B6ABA681F21C8
S315080056100A400F2191400A00D2431A407B689B0E2C
S315080056200F211940BB681F20034099400B001A43FD
S31508005630FB689A62C046BD4604B080BD80B582B09C
S3150800564000AF786039607B689A6A3B685B035B0BDE
S315080056501A437B689A62C046BD4602B080BD80B5D3
S3150800566082B000AF786039607B689B6A3A685203FB
S31508005670520BD2431A407B689A62C046BD4602B0B6
S3150800568080BD000080B584B000AFF860B9607A606C
S31508005690FB685B69BA681202D2431A40BB681B02F0
S315080056A079680B4004490B401A43FB685A61C046A7
S315080056B0BD4604B080BDC04600FFFF0780B582B076
S315080056C000AF78607B689B68054A134080225205C4
S315080056D01A437B689A60C046BD4602B080BDC04684
S315080056E0E8FFFF6F80B582B000AF78607B689A6884
S315080056F080235B051A4080235B059A4201D101236A
S3150800570000E000231800BD4602B080BD80B582B017
S3150800571000AF78607B689B68044A134001221A43ED
S315080057207B689A60C046BD4602B080BDE8FFFF7F31
S3150800573080B582B000AF78607B689B68044A1340E6
S3150800574002221A437B689A60C046BD4602B080BDF5
S31508005750E8FFFF7F80B582B000AF78607B689B6802
S3150800576001221340012B01D1012300E00023180078
S31508005770BD4602B080BD80B582B000AF78607B6858
S315080057809B6802221340022B01D1012300E000236B
S315080057901800BD4602B080BD80B582B000AF786003
S315080057A07B689B68044A134004221A437B689A6004
S315080057B0C046BD4602B080BDE8FFFF7F80B582B017
S315080057C000AF78607B689B6804221340042B01D1E4
S315080057D0012300E000231800BD4602B080BD00008A
S315080057E080B588B000AF78601F23FB1800221A70B6
S315080057F00023BB6100237B610023FB607B68002BD1
S3150800580001D101237FE17B689B6D002B0AD17B6860
S315080058101800FFF7B5FB7B680022DA657B6854221F
S31508005820002199547B681B681800FFF75BFF031E6D
S3150800583015D17B681B681800FFF740FFB44B1B683F
S31508005840B4491800FDF760FC030001335B00FB60F8
S3150800585002E0FB68013BFB60FB68002BF9D17B6823
S315080058601B681800FFF73EFF031E0FD17B689B6D70
S3150800587010221A437B689A657B68DB6D01221A43FE
S315080058807B68DA651F23FB1801221A707B681B6880
S315080058901800FFF793FF03003B617B689B6D10229E
S315080058A0134000D022E13B69002B00D01EE17B6843
S315080058B09B6D994A134002221A437B689A657B6856
S315080058C01B681800FFF746FF031E00D0ADE07B6893
S315080058D09A687B681B7E9B031A437B685B7EDB03A7
S315080058E01A437B689B7E5B031A437B681B6B002B02
S315080058F002D080235B0100E000231A437B68DB6843
S315080059001A437B681B69002B04DA7B681B695B00FA
S315080059105B0801E080239B031A437B682C215B5CB0
S315080059205B001343BA691343BB617B6820229B5C07
S31508005930012B15D17B689B7E002B05D1BB69802284
S3150800594052021343BB610BE07B689B6D20221A430E
S315080059507B689A657B68DB6D01221A437B68DA658A
S315080059607B685B6A002B0AD07B685A6AE0235B0077
S315080059701A407B689B6A1343BA691343BB617B6809
S315080059801B68DB68654A134019007B681B68BA699F
S315080059900A43DA607B685B689B0F9A077B68DB6C57
S315080059A013437A6913437B617B683C229B5C012B1A
S315080059B011D17B685B689B0F9A077B681B6C1A433F
S315080059C07B685B6C1A437B689B6C1A437B69134341
S315080059D0012213437B617B681B681B69504A13408D
S315080059E019007B681B687A690A431A617B685A68DA
S315080059F0C0231B069A4218D07B685A688023DB05A9
S31508005A009A4212D07B685A6880231B069A420CD0A9
S31508005A10444B1B68444A134019007B685A68F023B4
S31508005A209B031A403F4B0A431A607B6818687B68D9
S31508005A305B6B1A000021FFF79CFD7B6818687B6882
S31508005A409B6B3A491A00FFF794FD7B681B69002B8C
S31508005A5009D17B681B689A6A7B681B6810214942D2
S31508005A600A439A6218E07B681A6980239B039A4264
S31508005A7012D17B681B689B6A7B68DB69013B9B00CC
S31508005A801C221340102252429A4011007B681A6E5B
S31508005A907B681B680A439A627B681B6800211800AA
S31508005AA0FFF784FD02007B685B6B9A420BD17B682B
S31508005AB00022DA657B689B6D0322934301221A4311
S31508005AC07B689A651CE07B689B6D122293431022C3
S31508005AD01A437B689A657B68DB6D01221A437B68EB
S31508005AE0DA651F23FB1801221A7009E07B689B6D93
S31508005AF010221A437B689A651F23FB1801221A7025
S31508005B001F23FB181B781800BD4608B080BDC04689
S31508005B1024000020400D0300FDFEFFFF0102DEFF0A
S31508005B2002FCFF1F08270140FFFFC3FF04FFFF0712
S31508005B30B0B586B000AFF860B9607A60FB681B68DC
S31508005B401800FFF73BFE031E6CD1FB6854229B5CD2
S31508005B50012B01D102236CE0FB68542201219954E0
S31508005B60FB681B68DB680122134013D1FB681B68BE
S31508005B701800FFF7EFFD031E04D0FB681B6818002A
S31508005B80FFF7D6FDFB681B68DA68FB681B6801210E
S31508005B900A43DA6017257C19FB68180000F03EFAFC
S31508005BA0030023702C003B191B78002B3ED1FB68A1
S31508005BB09B6D224A1340802252001A43FB689A655D
S31508005BC0FB680022DA65FB681B6D1D4ADA62FB6812
S31508005BD01B6D1C4A1A63FB681B6D1B4A5A63FB68DC
S31508005BE01B681C221A60FB68542200219954FB6822
S31508005BF01B685A68FB681B6810210A435A60FB68D1
S31508005C00186DFB681B6840331900BA683C197B6835
S31508005C1000F094FE03002370FB681B681800FFF76A
S31508005C20BBFD03E01723FB1802221A701723FB1883
S31508005C301B781800BD4606B0B0BDC046FEF0FFFF93
S31508005C40E5610008AD620008CB62000880B582B045
S31508005C5000AF7860C046BD4602B080BD80B582B050
S31508005C6000AF7860C046BD4602B080BD80B586B03C
S31508005C7000AF786039601723FB1800221A700023DA
S31508005C80FB607B6854229B5C012B01D10223C0E197
S31508005C907B685422012199547B681B681800FFF71A
S31508005CA08DFD031E00D0A3E13B685B68022B00D183
S31508005CB043E17B681A6980231B069A4204D07B68F5
S31508005CC01B69C14A934208D17B681A683B681B68FE
S31508005CD019001000FFF7B2FCC9E07B681A6E3B6832
S31508005CE05B681F210B400F2199400B00DB431340D3
S31508005CF019003B681B685B035B0B05D13B681B6897
S31508005D009B0E1F22134098E03B681B680122134034
S31508005D1000D091E03B681B680222134000D089E05E
S31508005D203B681B680422134000D081E03B681B686F
S31508005D300822134000D079E03B681B681022134004
S31508005D4000D071E03B681B682022134000D069E050
S31508005D503B681B684022134000D061E03B681B6823
S31508005D608022134000D059E03B681A6880235B0004
S31508005D70134051D13B681A6880239B00134049D1D0
S31508005D803B681A688023DB00134041D13B681A68D8
S31508005D9080231B01134039D13B681A6880235B01B5
S31508005DA0134031D13B681A6880239B01134029D1DF
S31508005DB03B681A688023DB01134021D13B681A68C7
S31508005DC080231B02134019D13B681A6880235B02A3
S31508005DD0134011D13B681A6880239B02134009D1EE
S31508005DE03B681A688023DB02134001D0122324E0A3
S31508005DF0002322E0112320E010231EE00F231CE0DD
S31508005E000E231AE00D2318E00C2316E00B2314E0EA
S31508005E100A2312E0092310E008230EE007230CE00A
S31508005E2006230AE0052308E0042306E0032304E02A
S31508005E30022302E0012300E000233A6852681F208B
S31508005E40024093400A001A437B681A663B685B68FF
S31508005E509B085A1C7B68DB699A4208D87B681868D5
S31508005E603B6859683B681B681A00FFF7C7FB7B68E5
S31508005E7018683B6819683B689B681A00FFF702FCBC
S31508005E803B681B68002B00DBBCE0504B1800FFF793
S31508005E9063FB03003B613B681B684D4A934222D172
S31508005EA03A6980231B0413401DD13B6980221204E2
S31508005EB01343464A19001000FFF73AFB454B1B6887
S31508005EC045491800FDF720F903005A1C13005B002A
S31508005ED09B189B00FB6002E0FB68013BFB60FB68CC
S31508005EE0002BF9D18EE03B681B683C4A93420ED1E1
S31508005EF03A6980235B04134009D13B698022520426
S31508005F001343324A19001000FFF712FB7AE03B6888
S31508005F101B68334A934200D074E03A698023DB0356
S31508005F20134000D06EE03B698022D2031343274A10
S31508005F3019001000FFF7FCFA64E07B681A698023F1
S31508005F401B069A4204D07B681B691F4A934207D1F5
S31508005F507B681A683B681B6819001000FFF77FFB0F
S31508005F603B681B68002B4DDA184B1800FFF7F4FA4C
S31508005F7003003B613B681B68154A934208D13B699D
S31508005F80184A1340114A19001000FFF7D1FA39E0F0
S31508005F903B681B68114A934208D13B69124A134071
S31508005FA00A4A19001000FFF7C3FA2BE03B681B6882
S31508005FB00B4A934226D13B690C4A1340034A1900FF
S31508005FC01000FFF7B5FA1DE004000080082701401D
S31508005FD0001000B024000020400D0300004000B867
S31508005FE0002000B4FFFF7FFFFFFFFFFEFFFFBFFF9C
S31508005FF07B689B6D20221A437B689A651723FB18DA
S3150800600001221A707B685422002199541723FB1821
S315080060101B781800BD4606B080BDC04680B584B062
S3150800602000AF78600023BB607B681B681800FFF729
S3150800603091FB031E00D069E07B681B689B68364AA3
S3150800604013400DD07B689B6D10221A437B689A65B6
S315080060507B68DB6D01221A437B68DA65012356E00B
S315080060607B681B681800FFF751FB2C4B1800FFF7DD
S3150800607073FA020080231B0413400FD0284B1B68B9
S3150800608028491800FDF740F803000133BB6002E019
S31508006090BB68013BBB60BB68002BF9D17B685B7EA4
S315080060A0012B33D0FFF700FA0300FB6027E07B687B
S315080060B01B681800FFF74EFB031E04D17B681B689C
S315080060C01800FFF723FBFFF7EFF90200FB68D31A66
S315080060D0022B14D97B681B681B6801221340012B0D
S315080060E00DD07B689B6D10221A437B689A657B6886
S315080060F0DB6D01221A437B68DA65012307E07B68BA
S315080061001B681B6801221340012BD0D100231800FD
S31508006110BD4604B080BDC046170000800827014070
S3150800612024000020400D030080B584B000AF7860DD
S315080061307B681B681800FFF71EFB0300FB607B6883
S315080061401B681800FFF706FB031E46D0FB68002BEA
S3150800615043D17B681B689B6805221340012B0DD130
S315080061607B681B681800FFF7E3FA7B681B68032245
S315080061701A60FFF799F90300BB6028E07B689B6DFE
S3150800618010221A437B689A657B68DB6D01221A43E5
S315080061907B68DA65012321E0FFF786F90200BB6810
S315080061A0D31A022B13D97B681B689B6801221340FC
S315080061B00DD07B689B6D10221A437B689A657B68B5
S315080061C0DB6D01221A437B68DA65012306E07B68EA
S315080061D01B689B6801221340DED100231800BD46C8
S315080061E004B080BD80B584B000AF78607B689B6AD8
S315080061F0FB60FB689B6D5022134041D1FB689B6D89
S31508006200802292001A43FB689A65FB681B6818008F
S31508006210FFF7E3F9031E2ED0FB689B7E002B2AD1DD
S31508006220FB681B681B6808221340082B23D1FB68F0
S315080062301B681800FFF7C2FA031E10D1FB681B681B
S315080062405A68FB681B680C218A435A60FB689B6D79
S31508006250154A134001221A43FB689A650BE0FB684E
S315080062609B6D20221A43FB689A65FB68DB6D012249
S315080062701A43FB68DA65FB681800FEF73DFE0FE077
S31508006280FB689B6D1022134004D0FB681800FFF7CB
S31508006290E5FC05E0FB681B6D5B6B7A6810009847A8
S315080062A0C046BD4604B080BDFEFEFFFF80B584B083
S315080062B000AF78607B689B6AFB60FB681800FFF795
S315080062C0C5FCC046BD4604B080BD80B584B000AFED
S315080062D078607B689B6AFB60FB689B6D40221A436B
S315080062E0FB689A65FB68DB6D04221A43FB68DA656E
S315080062F0FB681800FFF7B2FCC046BD4604B080BD77
S3150800630080B582B000AF78607B681A68F0239B037B
S3150800631013401800BD4602B080BD80B582B000AFFC
S3150800632078607B681B699B0F9B071800BD4602B007
S3150800633080BD80B582B000AF786039607B68B422D2
S315080063409B587F2293431A003B681A437B68B42103
S315080063505A50C046BD4602B080BD80B582B000AF77
S3150800636078607B68B4229B587F2213401800BD468C
S3150800637002B080BD80B582B000AF78607B689B684C
S31508006380044A134001221A437B689A60C046BD46F8
S3150800639002B080BDE8FFFF7F80B582B000AF7860AD
S315080063A07B689B68044A134002221A437B689A60FA
S315080063B0C046BD4602B080BDE8FFFF7F80B582B00B
S315080063C000AF78607B689B6801221340012B01D1DE
S315080063D0012300E000231800BD4602B080BD00007E
S315080063E080B582B000AF78607B689B68054A134029
S315080063F0802212061A437B689A60C046BD4602B0E0
S3150800640080BDC046E8FFFF7F80B582B000AF7860E8
S315080064107B689B68DB0FDA0780231B069A4201D14B
S31508006420012300E000231800BD4602B080BD00002D
S3150800643090B58BB000AF78600023FB6000233B6209
S315080064407B6854229B5C012B01D10223DDE07B682B
S315080064505422012199541F23FC187B681800FFF762
S3150800646063FE030023707B681B681800FFF7A6FF0E
S31508006470031E00D0BCE07B689B6D664A134002226F
S315080064801A437B689A657B681B68DB68624A134017
S31508006490BB617B681B68DA687B681B685F490A40D2
S315080064A0DA6000237B622DE07B681B681800FFF723
S315080064B097FF14E0FB680133FB60FB68584A934278
S315080064C00DD97B689B6D1222934310221A437B6871
S315080064D09A657B68542200219954012395E07B68CC
S315080064E01B681800FFF790FF031EE3D17B681B6843
S315080064F01800FFF732FF02003B6A9B183B627B6A73
S3150800650001337B627B6A072BCED9796A386AFCF736
S31508006510FBFD03003B627B681B681800FFF72AFF38
S315080065207B681B681800FFF7F8FE031E1BD13D4B5E
S315080065301800FFF7E5FE03007B617A69E0235B0339
S315080065409A4210D37B699B0C033B01229A401300A5
S31508006550BB60BB685B08BB6002E0BB68013BBB6015
S31508006560BB68002BF9D17B681B683A6A11001800D2
S31508006570FFF7DFFE7B681B681800FFF70DFFFEF7C5
S3150800658093FF03003B611BE0FEF78EFF02003B69A9
S31508006590D31A022B14D97B681B681800FFF70EFF65
S315080065A0031E0DD07B689B6D10221A437B689A6583
S315080065B07B68DB6D01221A437B68DA65012324E0D8
S315080065C07B681B681800FFF7F9FE031EDCD17B68A1
S315080065D01B68D9687B681B68BA690A43DA607B68F6
S315080065E09B6D0322934301221A437B689A6505E053
S315080065F07B689B6D10221A437B689A657B685422D8
S31508006600002199541F23FB181B781800BD460BB0B0
S3150800661090BDC046FDFEFFFF03800000FC7FFFFF24
S31508006620FFF102000827014080B582B000AF0200E2
S31508006630FB1D1A70FB1D1B787F2B09D8FB1D1B78C9
S315080066401A001F231A40044B012191400A001A60C0
S31508006650C046BD4602B080BD00E100E090B583B0FB
S3150800666000AF02003960FB1D1A70FB1D1B787F2BDB
S3150800667028D82F4AFB1D1B785BB29B08C0339B00AA
S315080066809B58FA1D1278110003220A40D200FF21F6
S3150800669091400A00D2431A4011003B689B01FF2231
S315080066A01A40FB1D1B78180003230340DB009A40A1
S315080066B01F48FB1D1B785BB29B080A43C0339B002F
S315080066C01A5031E01B4AFB1D1B7819000F230B409B
S315080066D0083B9B0806339B00D31804331B68FA1D36
S315080066E01278110003220A40D200FF2191400A00C5
S315080066F0D2431A4011003B689B01FF221A40FB1D3A
S315080067001B78180003230340DB009A400948FB1D49
S315080067101B781C000F232340083B9B080A430633BB
S315080067209B00C31804331A60C046BD4603B090BD2B
S3150800673000E100E000ED00E080B582B000AF7860CF
S315080067407B685A1E80235B049A4201D3012310E01A
S315080067500A4B7A68013A5A6001235B420321180002
S31508006760FFF77CFF054B00229A60044B07221A604C
S3150800677000231800BD4602B080BDC04610E000E008
S3150800678080B584B000AFB9607A600F217B18021C0F
S315080067901A70BA687B181B785BB211001800FFF7ED
S315080067A05DFFC046BD4604B080BD80B582B000AF6F
S315080067B00200FB1D1A70FB1D1B785BB21800FFF761
S315080067C033FFC046BD4602B080BD80B582B000AF7B
S315080067D078607B681800FFF7AFFF03001800BD4616
S315080067E002B080BD80B582B000AF78607B68002BB0
S315080067F001D1012391E07B681B681A00494B9A4234
S3150800680010D87B681B68484A9446634414211800CC
S31508006810FCF77AFC03009A007B685A647B68434A53
S315080068201A640FE07B681B68414A94466344142146
S315080068301800FCF769FC03009A007B685A647B68B9
S315080068403C4A1A647B682522022199547B681B6896
S315080068501A687B681B6838490A401A607B681B6897
S3150800686019687B689A687B68DB681A437B681B69CA
S315080068701A437B685B691A437B689B691A437B6882
S31508006880DB691A437B681B6A1A437B681B680A43E1
S315080068901A607B68180000F0D7F97B689A6880232D
S315080068A0DB019A4202D17B6800225A607B685A68EB
S315080068B07B689B6C7F210A401A607B68DB6C7A6870
S315080068C0126D5A607B685B68002B11D07B685B6829
S315080068D0042B0DD87B68180000F000FA7B685B6D06
S315080068E000221A607B689B6D7A68D26D5A6008E050
S315080068F07B6800225A657B6800229A657B680022BD
S31508006900DA657B680022DA637B68252201219954BF
S315080069107B6824220021995400231800BD4602B042
S3150800692080BDC04607040240F8FFFDBF00000240D4
S31508006930F8FBFDBF000402400F80FFFF80B586B05C
S3150800694000AFF860B9607A603B601723FB18002235
S315080069501A70FB6824229B5C012B01D102236FE08D
S31508006960FB68242201219954FB6825229B5CDBB233
S31508006970012B57D1FB68252202219954FB68002276
S31508006980DA63FB681B681A68FB681B6801218A437F
S315080069901A603B687A68B968F86800F019F9FB6804
S315080069A01B6B002B08D0FB681B681A68FB681B6802
S315080069B00E210A431A600FE0FB681B681A68FB6819
S315080069C01B6804218A431A60FB681B681A68FB68FF
S315080069D01B680A210A431A60FB689B6C1A688023A5
S315080069E05B02134008D0FB689B6C1A68FB689B6CBB
S315080069F0802149000A431A60FB685B6D002B08D0AA
S31508006A00FB685B6D1A68FB685B6D802149000A4369
S31508006A101A60FB681B681A68FB681B6801210A4331
S31508006A201A600AE0FB688022DA63FB6824220021E8
S31508006A3099541723FB1801221A701723FB181B7881
S31508006A401800BD4606B080BD80B584B000AF78603A
S31508006A507B681B6C1B68FB607B681B681B68BB60DC
S31508006A607B685B6C1C22134004229A401300FA6868
S31508006A70134026D0BB680422134022D07B681B68CB
S31508006A801B682022134007D17B681B681A687B683D
S31508006A901B6804218A431A607B685B6C1C221A40B7
S31508006AA07B681B6C042191400A005A607B681B6B4B
S31508006AB0002B00D180E07B681B6B7A681000984732
S31508006AC07AE07B685B6C1C22134002229A40130012
S31508006AD0FA6813403CD0BB680222134038D07B6862
S31508006AE01B681B68202213400BD17B681B681A6839
S31508006AF07B681B680A218A431A607B682522012164
S31508006B0099547B681B681A002E4B9A4209D97B68F0
S31508006B105B6C1C221A402C4B022191400A005A60D9
S31508006B2008E07B685B6C1C221A40284B02219140C6
S31508006B300A005A607B682422002199547B68DB6A24
S31508006B40002B39D07B68DB6A7A681000984733E0F7
S31508006B507B685B6C1C22134008229A401300FA6873
S31508006B6013402AD0BB680822134026D07B681B68CE
S31508006B701A687B681B680E218A431A607B685B6CFF
S31508006B801C221A407B681B6C012191400A005A603E
S31508006B907B680122DA637B682522012199547B6888
S31508006BA02422002199547B685B6B002B05D07B68F7
S31508006BB05B6B7A6810009847C046C046BD4604B06D
S31508006BC080BDC0468000024000040240000002402A
S31508006BD080B584B000AFF860B9607A603B60FB6846
S31508006BE0DB6CFA68126D5A60FB685B6D002B04D08B
S31508006BF0FB689B6DFA68D26D5A60FB685B6C1C2259
S31508006C001A40FB681B6C012191400A005A60FB6818
S31508006C101B683A685A60FB689B68102B08D1FB68AA
S31508006C201B687A689A60FB681B68BA68DA6007E0CE
S31508006C30FB681B68BA689A60FB681B687A68DA6042
S31508006C40C046BD4604B080BD80B584B000AF78604C
S31508006C507B681B681A001D4B9A4214D87B685B6CCC
S31508006C609B089B001A4A9A187B689A647B681B687B
S31508006C701A00FF231340083B14211800FCF744FAB6
S31508006C800300FB6014E07B685B6C9B089B00114A61
S31508006C909A187B689A647B681B681A00FF2313405E
S31508006CA0083B14211800FCF72FFA03000733FB6092
S31508006CB07B68094ADA64FB681F22134001229A405E
S31508006CC07B681A65C046BD4604B080BD070402400D
S31508006CD0000802401C0802408008024080B584B0C3
S31508006CE000AF78607B685B687F221340FB60FB68B7
S31508006CF00A4A944663449B001A007B685A657B6877
S31508006D00074A9A65FB68013B0322134001229A4011
S31508006D107B68DA65C046BD4604B080BD3F82001078
S31508006D204009024080B584B000AF78607B68002BCC
S31508006D3001D101234EE17B685C229B5CDBB2002B10
S31508006D4007D17B685D22002199547B681800FEF7FD
S31508006D5089F97B681B689A697B681B6810218A43D6
S31508006D609A61FEF7A1FB0300FB6012E0FEF79CFBAD
S31508006D700200FB68D31A0A2B0BD97B681B6E01220B
S31508006D801A437B681A667B685C220321995401239F
S31508006D9020E17B681B689B6908221340082BE5D015
S31508006DA07B681B689A697B681B6801210A439A619C
S31508006DB0FEF77AFB0300FB6012E0FEF775FB0200A4
S31508006DC0FB68D31A0A2B0BD97B681B6E01221A4360
S31508006DD07B681A667B685C22032199540123F9E0D3
S31508006DE07B681B689B6901221340E6D07B681B6899
S31508006DF09A697B681B6802210A439A617B681B684B
S31508006E00764A934203D1764A7B685B6813607B684F
S31508006E101B7C012B08D17B681B689A697B681B68F9
S31508006E2040218A439A6107E07B681B689A697B68F8
S31508006E301B6840210A439A617B685B7C012B09D158
S31508006E407B681B689A697B681B688021C9010A43AD
S31508006E509A6107E07B681B689A697B681B686149C9
S31508006E600A409A617B689B7C012B08D17B681B686A
S31508006E709A697B681B685C490A409A6108E07B68E6
S31508006E801B689A697B681B68802149010A439A61D5
S31508006E907B681B689B69554A134019007B689A688A
S31508006EA07B681B680A439A617B681B689A697B68DA
S31508006EB01B68A4218A439A617B681B681A697B68E8
S31508006EC01B6810218A431A617B68DB68012B08D18D
S31508006ED07B681B689A697B681B6804210A439A6168
S31508006EE02CE07B68DB68002B28D07B68DB68022BEC
S31508006EF01CD07B681B689A697B681B6880210A43DB
S31508006F009A617B681B681A697B681B6810210A43AB
S31508006F101A617B68DB68032B10D17B681B689A694A
S31508006F207B681B6820210A439A6107E07B681B6817
S31508006F309A697B681B6820210A439A617B689B696A
S31508006F40013B5A067B68DB69013B1B021A437B68D7
S31508006F501B6A013B1A4311007B685B69013B1A04F3
S31508006F607B681B680A43DA617B689A68C0239B00C2
S31508006F709A4215D17B689B6A5A1E7B68DB6A013B7D
S31508006F801B021A437B681B6B013B1B011A4311004A
S31508006F907B685B6A013B1A047B681B680A43DA60F4
S31508006FA07B681B68C02299587B68DA6B7B681B680C
S31508006FB00A43C0215A507B68180000F0C5FC7B685C
S31508006FC000229A657B6800221A667B685C2201218A
S31508006FD0995400231800BD4604B080BD00640040E3
S31508006FE000650040FFBFFFFFFFEFFFFFFFFCFFFF4D
S31508006FF080B586B000AF7860396017203B187A688C
S315080070005C21525C1A700200BB181B78012B03D056
S31508007010BB181B78022B3DD13B681B68002B19D186
S315080070203B689B689A073B68DB68DB061A433B6844
S315080070301B691B041A433B685B6913433B617B6806
S315080070401A6C3B685B689B00D318BB60BB683A69DF
S315080070501A601DE03B68DB685A073B681B691343E7
S315080070603B613B689B689A073B685B691343FB6017
S315080070707B685A6C3B685B68DB00D318BB60BB68EF
S315080070803A691A60BB680433BB60BB68FA681A6061
S31508007090002306E07B681B6E02221A437B681A6689
S315080070A001231800BD4606B080BD80B584B000AF88
S315080070B0F860B9607A603B60FB685C229B5CDBB277
S315080070C0012B17D1FB681B6880229B583F229343EC
S315080070D01900BB681A017B689B001A433B685B0072
S315080070E01A43BB691A43FB681B680A4380215A5036
S315080070F0002306E0FB681B6E04221A43FB681A6627
S3150800710001231800BD4604B080BD80B582B000AF2B
S3150800711078607B685C229B5CDBB2012B10D17B68B4
S315080071205C22022199547B681B689A697B681B68F4
S3150800713001218A439A617B6800221A66002306E0C9
S315080071407B681B6E04221A437B681A6601231800A3
S31508007150BD4602B080BD80B586B000AFF860B960A4
S315080071607A60FB685C229B5CDBB2022B2DD1FB6844
S315080071701B68C4229A5880239B03134008D0FB68D7
S315080071801B6E802292001A43FB681A66012323E0CD
S31508007190FB681B68C4229B581B0C032213407B61A7
S315080071A07B697A68B968F86800F03AFCFB681B687E
S315080071B001217A6991400A00CC215A5001227B6943
S315080071C09A40FB689A65002306E0FB681B6E082256
S315080071D01A43FB681A6601231800BD4606B080BD2F
S315080071E080B58AB000AFF860B9607A603B6000236A
S315080071F0FB611B203B18FA685C21525C1A703B182D
S315080072001B78022B00D0F4E0BB68402B3BD1FB680F
S315080072101B6890229B580F22134008D1FB681B6EEF
S31508007220802252001A43FB681A660123E8E0FB68CD
S315080072301B6890229A5880235B041A4080235B04BB
S315080072409A420CD1FB681B6880229A5880239B00BF
S315080072501A4080239B009A4201D10123FB61FB68F7
S315080072601B6890229B581B0A03221340FA69D318FD
S31508007270FB61FB68996CFA691300DB009B18DB005D
S31508007280CB187B623AE0FB681B6898229B580F2252
S31508007290134008D1FB681B6E802252001A43FB6814
S315080072A01A660123ACE0FB681B6898229A5880236B
S315080072B05B041A4080235B049A420CD1FB681B6866
S315080072C080229A5880235B001A4080235B009A42EA
S315080072D001D10123FB61FB681B6898229B581B0A96
S315080072E003221340FA69D318FB61FB68D96CFA6963
S315080072F01300DB009B18DB00CB187B627B6A1A68DD
S315080073008023DB051A407B685A607B685B68002B24
S3150800731007D17B6A1B689B0C5B055A0D7B681A6054
S3150800732005E07B6A1B68DB00DA087B681A607B6A03
S315080073301A6880239B051A407B689A607B6A1B68DB
S31508007340DB0FDA077B681A617B6A04337B627B6A28
S315080073501B681B041A0C7B68DA617B6A1B681B0CAA
S315080073600F221A407B68DA607B6A1A6880235B03FF
S315080073701A407B685A617B6A1A6880239B031A4005
S315080073807B689A617B6A1B681B0E7F221A407B68A2
S315080073901A627B6A1B68DA0F7B685A627B6A043357
S315080073A07B627B6A7B6100233B620AE07A693B6AFF
S315080073B0D21839683B6ACB1812781A703B6A0133BF
S315080073C03B627B68DB68104AD35C1A003B6A9342CF
S315080073D0ECD3BB68402B05D1FB681B689421FA697E
S315080073E05A5004E0FB681B689C21FA695A5000232E
S315080073F006E0FB681B6E08221A43FB681A6601231F
S315080074001800BD460AB080BD90B9000880B584B0A2
S3150800741000AF786039603B68402B07D17B681B68F2
S3150800742090229B580F221340FB6006E07B681B687E
S3150800743098229B580F221340FB60FB681800BD4634
S3150800744004B080BD80B584B000AF78607B681B68E7
S31508007450C4229B5807221340FB60FB681800BD46F0
S3150800746004B080BD80B586B000AFF860B9607A60B8
S3150800747017203B18FA685C21525C1A700200BB1888
S315080074801B78012B04D0BB181B78022B00D0B4E064
S31508007490FB681B689B6D3B61BB680722134003D0E2
S315080074A03B690122134034D0BB683822134003D00D
S315080074B03B69022213402CD0BA68E0235B001340D4
S315080074C003D03B690422134023D0BA68F0235B013A
S315080074D0134003D03B69082213401AD0BA68E02348
S315080074E01B02134003D03B691022134011D0BA681F
S315080074F0C0239B02134003D03B692022134008D0C7
S31508007500BA68FC231B0413400BD03B694022134086
S3150800751007D1FB681B68DA6DFB681B6801210A4303
S31508007520DA65BB680722134003D03B690122134082
S3150800753034D1BB683822134003D03B69022213407A
S315080075402CD1BA68E0235B00134003D03B690422C0
S31508007550134023D1BA68F0235B01134003D03B697B
S31508007560082213401AD1BA68E0231B02134003D03D
S315080075703B691022134011D1BA68C0239B021340FD
S3150800758003D03B692022134008D1BA68FC231B04A8
S3150800759013400BD03B694022134007D0FB681B6899
S315080075A0DA6DFB681B6802210A43DA65BB6880222C
S315080075B0134009D0FB681B68DC229958FB681B68D6
S315080075C07A680A43DC215A50BA6880235B00134064
S315080075D009D0FB681B68E0229958FB681B687A6823
S315080075E00A43E0215A50FB681B68596DFB681B6803
S315080075F0BA680A435A65002306E0FB681B6E022236
S315080076001A43FB681A6601231800BD4606B080BDFA
S3150800761080B58CB000AF78607B681B681A6DE02374
S315080076205B011340FB627B681B685A6DFB6A13405B
S31508007630FB627B681B681B6D07221340BB627B6875
S315080076401B685A6DBB6A1340BB627B681B681B6D5F
S31508007650382213407B627B681B685A6D7B6A13402D
S315080076607B627B681B681A6DF1231B0413403B621F
S315080076707B681B685A6D3B6A13403B627B681B68D4
S315080076801A6DE0231B031340FB617B681B685A6D68
S31508007690FB691340FB617B681B685B6DBB617B689C
S315080076A01B681B6D7B617B699B091A0001231340CC
S315080076B00DD0BB699B091A000123134007D07B68CC
S315080076C01B6840221A657B68180000F024F97B695C
S315080076D01B0A1A00012313401CD0BB691B0A1A0097
S315080076E00123134016D07B681B68D8229B583B6140
S315080076F07B681B68E0229A583B6913403B617B68AC
S315080077001B68802252001A653A697B6811001800C6
S3150800771000F0E8F8FB6A002B09D07B681B68FA6A58
S315080077201A65FA6A7B681100180000F0B8F8BB6A97
S31508007730002B09D07B681B68BA6A1A65BA6A7B6827
S3150800774011001800FCF74EFC7B6A002B09D07B68F9
S315080077501B687A6A1A657A6A7B681100180000F055
S31508007760A7F87B695B0A1A00012313400ED0BB6990
S315080077705B0A1A000123134008D07B681B68802225
S3150800778092001A657B68180000F09BF87B69DB0994
S315080077901A00012313401BD0BB69DB091A00012319
S315080077A0134015D07B681B68D4229B58FB607B6806
S315080077B01B68DC229A58FB681340FB607B681B68D1
S315080077C080221A65FA687B681100180000F081F8B3
S315080077D07B695B0B1A00012313400ED0BB695B0B58
S315080077E01A000123134008D07B681B688022920187
S315080077F01A657B68180000F07EF87B69DB0B1A00B7
S31508007800012313400ED0BB69DB0B1A00012313407A
S3150800781008D07B681B68802212021A657B681800EC
S3150800782000F071F87B699B0B1A000123134010D0F6
S31508007830BB699B0B1A00012313400AD07B681B689F
S315080078408022D2011A657B681B6E80221A437B68E8
S315080078501A66FB69002B09D07B681B68FA691A65EA
S31508007860FA697B681100180000F065F83B6A002B7E
S3150800787009D07B681B683A6A1A657B681A6E3B6A88
S315080078801A437B681A667B681B6E002B03D07B68DD
S31508007890180000F048F8C046BD460CB080BD80B55B
S315080078A082B000AF78603960C046BD4602B080BD80
S315080078B080B582B000AF78603960C046BD4602B078
S315080078C080BD80B582B000AF7860C046BD4602B0C4
S315080078D080BD80B582B000AF78603960C046BD46CD
S315080078E002B080BD80B582B000AF78603960C0460E
S315080078F0BD4602B080BD80B582B000AF7860C04694
S31508007900BD4602B080BD80B582B000AF7860C04683
S31508007910BD4602B080BD80B582B000AF7860C04673
S31508007920BD4602B080BD80B582B000AF7860C04663
S31508007930BD4602B080BD80B582B000AF78603960C0
S31508007940C046BD4602B080BD80B584B000AF786041
S315080079502F4BBB607B681B682E4A934205D1BB68D8
S31508007960D422920094466344BB607B68BA681A6462
S315080079707B681B6880229B58274A134019007B683E
S315080079805B6B1A047B681B680A4380215A50BB68E4
S3150800799070331A007B685A647B681B6880229B5880
S315080079A01E4A134019007B689B6B1A067B681B6886
S315080079B00A4380215A50BB68B0331A007B689A6420
S315080079C0BB688933FF331A007B68DA64BB68982280
S315080079D092009A187B681A65BB689E2292009A18CC
S315080079E07B685A65BB68FB6005E0FB6800221A6085
S315080079F0FB680433FB60BB68D42292009446634458
S31508007A00FA689A42F1D3C046C046BD4604B080BD66
S31508007A1000B4004000680040FFFFE0FFFFFFFFF0F2
S31508007A2080B588B000AFF860B9607A603B60BB6823
S31508007A305B68002B0AD1BB681A69BB689B681A4346
S31508007A40BB681B689B041343FB610BE0BB681A69A0
S31508007A50BB689B681A43BB681B6813438022D20520
S31508007A601343FB61BB681B6A1A06BB68DB691A43CA
S31508007A70BB689B691A43BB685B691A43BB68DB68CA
S31508007A801B0413433B61FB68596D3A681300DB001E
S31508007A909B18DB00CB18BB61BB69FA691A60BB6926
S31508007AA00433BB61BB693A691A60BB690433BB61BD
S31508007AB000237B6120E07B6903337A68D3181B783F
S31508007AC01A067B6902337968CB181B781B041A439C
S31508007AD07B6901337968CB181B781B0213437968D5
S31508007AE07A698A1812781A43BB691A60BB69043323
S31508007AF0BB617B6904337B61BB68DB68054AD35C81
S31508007B001A007B699342D6D3C046C046BD4608B024
S31508007B1080BDC04690B9000880B586B000AF7860D1
S31508007B20396000237B614DE13B681B6801217A6956
S31508007B3091400A001340FB60FB68002B00D13EE130
S31508007B403B685B6803221340012B05D03B685B68E2
S31508007B5003221340022B30D17B689B683B617B690B
S31508007B605B0003229A401300DA433B6913403B61EA
S31508007B703B68DA687B695B009A4013003A691343ED
S31508007B803B617B683A699A607B685B683B61012266
S31508007B907B699A401300DA433B6913403B613B68B3
S31508007BA05B681B0901221A407B699A4013003A69EF
S31508007BB013433B617B683A695A603B685B680322FA
S31508007BC01340032B17D07B68DB683B617B695B003E
S31508007BD003229A401300DA433B6913403B613B6832
S31508007BE09A687B695B009A4013003A6913433B61C4
S31508007BF07B683A69DA603B685B6803221340022BAC
S31508007C0023D17B69DA087B6808329200D3583B6136
S31508007C107B69072213409B000F229A401300DA4320
S31508007C203B6913403B613B681A697B6907210B4036
S31508007C309B009A4013003A6913433B617B69DA0853
S31508007C407B68083292003969D1507B681B683B61B2
S31508007C507B695B0003229A401300DA433B691340B1
S31508007C603B613B685B6803221A407B695B009A406C
S31508007C7013003A6913433B617B683A691A603B68AB
S31508007C805A68C0239B02134000D198E0534A7B6987
S31508007C909B0818339B009B583B617B690322134062
S31508007CA0DB000F229A401300DA433B6913403B611D
S31508007CB07A68A023DB059A4219D07B68484A934222
S31508007CC013D07B68474A93420DD07B68464A934255
S31508007CD007D07B68454A934201D1042308E005236F
S31508007CE006E0032304E0022302E0012300E0002368
S31508007CF07A6903210A40D20093403A6913433B61EB
S31508007D0036497B699B0818339B003A695A50334BAE
S31508007D101B683B61FB68DA433B6913403B613B6880
S31508007D205A6880235B03134003D03A69FB68134300
S31508007D303B612A4B3A691A60284B5B683B61FB68D2
S31508007D40DA433B6913403B613B685A6880239B03CF
S31508007D50134003D03A69FB6813433B611F4B3A69EA
S31508007D605A601E4A8423D3583B61FB68DA433B6951
S31508007D7013403B613B685A6880239B02134003D03B
S31508007D803A69FB6813433B61144984223B698B506B
S31508007D90124A8023D3583B61FB68DA433B69134098
S31508007DA03B613B685A6880235B02134003D03A69FB
S31508007DB0FB6813433B61094980223B698B507B6909
S31508007DC001337B613B681A687B69DA40131E00D071
S31508007DD0AAE6C046C046BD4606B080BD00180240A9
S31508007DE00004005000080050000C0050001000501D
S31508007DF080B582B000AF786008001100BB1C021C79
S31508007E001A807B1C0A1C1A707B1C1B78002B04D05A
S31508007E10BB1C1A887B689A6103E0BB1C1A887B68BE
S31508007E209A62C046BD4602B080BD000080B582B0E9
S31508007E3000AF78607B68002B01D101238FE07B6857
S31508007E4041229B5CDBB2002B07D17B6840220021D4
S31508007E5099547B681800FDF771F97B684122242143
S31508007E6099547B681B681A687B681B6801218A43DA
S31508007E701A607B685A687B681B683B490A401A6126
S31508007E807B681B689A687B681B6838490A409A6051
S31508007E907B68DB68012B08D17B689A687B681B685E
S31508007EA0802109020A439A6007E07B689A687B6822
S31508007EB01B68842109020A439A607B68DB68022BE7
S31508007EC009D17B681B685A687B681B688021090191
S31508007ED00A435A6007E07B681B685A687B681B6818
S31508007EE023490A405A607B681B685A687B681B6886
S31508007EF020490A435A607B681B68DA687B681B68F6
S31508007F001A490A40DA607B681A697B685B691A4312
S31508007F1011007B689B691A027B681B680A43DA6052
S31508007F207B68D9697B681A6A7B681B680A431A608A
S31508007F307B681B681A687B681B6801210A431A60FC
S31508007F407B6800225A647B684122202199547B6809
S31508007F5000221A637B6842220021995400231800E4
S31508007F60BD4602B080BDC046FFFFFFF0FF7FFFFFA2
S31508007F70FFF7FFFF0080000290B589B002AFF860F6
S31508007F800C00100019000A23FB18221C1A8008236B
S31508007F90FB18021C1A80BB1D0A1C1A80FB684122AA
S31508007FA09B5CDBB2202B00D00CE1BB6A002B04D013
S31508007FB02C23FB181B88002B05D1FB688022920016
S31508007FC05A640123FFE0FB6840229B5C012B01D128
S31508007FD00223F8E0FB68402201219954FDF764FA70
S31508007FE003007B6180231902F8687B6900931923D3
S31508007FF0012200F007FC031E01D00123E3E0FB6821
S31508008000412221219954FB68422240219954FB6858
S3150800801000225A64FB68BA6A5A62FB682C22BA18AC
S3150800802012885A85FB6800225A63BB1D1C880823E0
S31508008030FB181A880A23FB181988F8687B690193C4
S315080080403B6B0093230000F0F5FA031E05D0FB688E
S315080080504022002199540123B5E0FB685B8D9BB251
S31508008060FF2B11D9FB68FF221A85FB681B8DDAB234
S3150800807080235C040A23FB181988F86800230093F8
S31508008080230000F099FD12E0FB685B8D9AB2FB684D
S315080080901A85FB681B8DDAB280239C040A23FB1819
S315080080A01988F86800230093230000F085FD7A6993
S315080080B0396BFB68180000F0FDFB031E01D0012395
S315080080C081E0FB685B6A1A78FB681B689A62FB6842
S315080080D05B6A5A1CFB685A62FB685B8D9BB2013B64
S315080080E09AB2FB685A85FB681B8D013B9AB2FB68FE
S315080080F01A85FB685B8D9BB2002B3AD0FB681B8DFB
S31508008100002B36D13A6BF8687B690093130000227E
S31508008110802100F077FB031E01D0012353E0FB68A2
S315080081205B8D9BB2FF2B11D9FB68FF221A85FB6872
S315080081301B8DDAB280235C040A23FB181988F868B9
S3150800814000230093230000F037FD12E0FB685B8DE7
S315080081509AB2FB681A85FB681B8DDAB280239C04E9
S315080081600A23FB181988F86800230093230000F0F7
S3150800817023FDFB685B8D9BB2002B98D17A69396B1E
S31508008180FB68180000F0DCFB031E01D001231AE08F
S31508008190FB681B682022DA61FB681B685A68FB6863
S315080081A01B680B490A405A60FB68412220219954F2
S315080081B0FB68422200219954FB6840220021995409
S315080081C0002300E002231800BD4607B090BDC04654
S315080081D000E800FE90B589B002AFF8600C00100008
S315080081E019000A23FB18221C1A800823FB18021CF4
S315080081F01A80BB1D0A1C1A80FB6841229B5CDBB2F5
S31508008200202B00D010E1BB6A002B04D02C23FB18CE
S315080082101B88002B05D1FB68802292005A64012333
S3150800822003E1FB6840229B5C012B01D10223FCE0A1
S31508008230FB68402201219954FDF736F903007B615A
S3150800824080231902F8687B6900931923012200F03C
S31508008250D9FA031E01D00123E7E0FB684122222157
S315080082609954FB68422240219954FB6800225A64BB
S31508008270FB68BA6A5A62FB682C22BA1812885A85B1
S31508008280FB6800225A63BB1D1C880823FB181A8842
S315080082900A23FB181988F8687B6901933B6B0093DE
S315080082A0230000F02BFA031E05D0FB6840220021AC
S315080082B099540123B9E0FB685B8D9BB2FF2B11D95A
S315080082C0FB68FF221A85FB681B8DDAB280235C04E3
S315080082D00A23FB181988F868564B0093230000F008
S315080082E06BFC12E0FB685B8D9AB2FB681A85FB682B
S315080082F01B8DDAB280239C040A23FB181988F868B8
S315080083004C4B0093230000F057FC3A6BF8687B69E6
S31508008310009313000022042100F074FA031E01D012
S31508008320012382E0FB681B685A6AFB685B6AD2B263
S315080083301A70FB685B6A5A1CFB685A62FB681B8DDD
S31508008340013B9AB2FB681A85FB685B8D9BB2013BC1
S315080083509AB2FB685A85FB685B8D9BB2002B3AD0B4
S31508008360FB681B8D002B36D13A6BF8687B69009346
S3150800837013000022802100F045FA031E01D00123D4
S3150800838053E0FB685B8D9BB2FF2B11D9FB68FF227C
S315080083901A85FB681B8DDAB280235C040A23FB1856
S315080083A01988F86800230093230000F005FC12E002
S315080083B0FB685B8D9AB2FB681A85FB681B8DDAB27F
S315080083C080239C040A23FB181988F8680023009365
S315080083D0230000F0F1FBFB685B8D9BB2002B94D168
S315080083E07A69396BFB68180000F0AAFA031E01D0F7
S315080083F001231AE0FB681B682022DA61FB681B6808
S315080084005A68FB681B680C490A405A60FB68412297
S3150800841020219954FB68422200219954FB68402286
S3150800842000219954002300E002231800BD4607B036
S3150800843090BDC0460024008000E800FE80B58AB0E2
S3150800844002AFF8607A603B600A23FB180A1C1A80A0
S3150800845000237B61FB6841229B5CDBB2202B00D0AA
S31508008460DFE0FB681B689A6980231B021A40802399
S315080084701B029A4201D10223D4E0FB6840229B5C8E
S31508008480012B01D10223CDE0FB684022012199543A
S31508008490FB68412224219954FB6800225A64FB6830
S315080084A0DB68012B07D10A23FB181B889B059B0D4C
S315080084B05E4A1A4306E00A23FB181B889B059B0D98
S315080084C05B4A1A43FB681B685A60FCF7EDFF03001A
S315080084D0BB61FB681B689B6920221340203B5A42FC
S315080084E05341DAB21F23FB181A70FB681B689B6995
S315080084F010221340103B5A425341DAB21E23FB188E
