S01E000053544D333247305F4C45444452495645525F50524F472E737265639F
S3150800300000400220995600083D5600084956000817
S3150800301000000000000000000000000000000000A2
S3150800302000000000000000000000000051560008E3
S3150800303000000000000000005B5600086556000806
S31508003040E9560008E9560008E9560008E956000856
S31508003050E9560008E9560008E9560008E956000846
S31508003060E9560008E9560008E9560008E956000836
S31508003070E9560008E9560008E9560008E956000826
S31508003080E9560008E9560008E9560008E956000816
S31508003090E956000875560008E9560008E95600087A
S315080030A0E9560008E9560008E9560008E9560008F6
S315080030B0E9560008E9560008E9560008EE11AA552F
S315080030C010B5064C2378002B07D1054B002B02D0F0
S315080030D0044800E000BF0123237010BD3000002023
S315080030E00000000010C70008044B10B5002B03D0E1
S315080030F00349044800E000BF10BDC04600000000B8
S315080031003400002010C70008002243088B4274D3FD
S3150800311003098B425FD3030A8B4244D3030B8B42CA
S3150800312028D3030C8B420DD3FF22090212BA030CD3
S315080031308B4202D31212090265D0030B8B4219D3B4
S3150800314000E0090AC30B8B4201D3CB03C01A5241D4
S31508003150830B8B4201D38B03C01A5241430B8B421C
S3150800316001D34B03C01A5241030B8B4201D30B0305
S31508003170C01A5241C30A8B4201D3CB02C01A52412C
S31508003180830A8B4201D38B02C01A5241430A8B42EF
S3150800319001D34B02C01A5241030A8B4201D30B02D8
S315080031A0C01A5241CDD2C3098B4201D3CB01C01AF2
S315080031B0524183098B4201D38B01C01A52414309FC
S315080031C08B4201D34B01C01A524103098B4201D3EA
S315080031D00B01C01A5241C3088B4201D3CB00C01A57
S315080031E0524183088B4201D38B00C01A52414308CF
S315080031F08B4201D34B00C01A5241411A00D20146F4
S31508003200524110467047FFE701B5002000F0F0F87C
S3150800321002BDC0460029F7D076E7704703460B4340
S315080032207FD4002243088B4274D303098B425FD3B1
S31508003230030A8B4244D3030B8B4228D3030C8B42DD
S315080032400DD3FF22090212BA030C8B4202D31212C3
S31508003250090265D0030B8B4219D300E0090AC30B98
S315080032608B4201D3CB03C01A5241830B8B4201D345
S315080032708B03C01A5241430B8B4201D34B03C01A2E
S315080032805241030B8B4201D30B03C01A5241C30AA6
S315080032908B4201D3CB02C01A5241830A8B4201D317
S315080032A08B02C01A5241430A8B4201D34B02C01A01
S315080032B05241030A8B4201D30B02C01A5241CDD2A6
S315080032C0C3098B4201D3CB01C01A524183098B42F1
S315080032D001D38B01C01A524143098B4201D34B01DA
S315080032E0C01A524103098B4201D30B01C01A52413D
S315080032F0C3088B4201D3CB00C01A524183088B42C4
S3150800330001D38B00C01A524143088B4201D34B00AC
S31508003310C01A5241411A00D201465241104670471E
S315080033205DE0CA0F00D04942031000D34042534023
S3150800333000229C4603098B422DD3030A8B4212D3E3
S31508003340FC22890112BA030A8B420CD38901921115
S315080033508B4208D3890192118B4204D389013AD052
S31508003360921100E08909C3098B4201D3CB01C01A27
S31508003370524183098B4201D38B01C01A524143093A
S315080033808B4201D34B01C01A524103098B4201D328
S315080033900B01C01A5241C3088B4201D3CB00C01A95
S315080033A0524183088B4201D38B00C01A5241D9D2AD
S315080033B043088B4201D34B00C01A5241411A00D22E
S315080033C00146634652415B10104601D34042002B2A
S315080033D000D54942704763465B1000D3404201B5A9
S315080033E0002000F005F802BD0029F8D016E770475E
S315080033F07047C04680B500AF00F09AFA00F058FA58
S3150800340000F01EF8C046BD4680BD80B500AF00F08E
S315080034105BFA00F01CF8C046BD4680BD80B500AF1B
S31508003420BFF34F8FC046044B044ADA60BFF34F8F91
S31508003430C046C046FDE7C04600ED00E00400FA05B8
S3150800344080B500AF00F00EF9C046BD4680BD80B518
S3150800345000AF00F0C7F9C046BD4680BD80B500AFD5
S31508003460FFF7DCFFF0B589B000AFF860B9607A60A5
S315080034701F23FB1800221A70FB68784A934200D86B
S31508003480E5E0FB68764A934200D9E0E0BB68002B8A
S3150800349000D1DCE07B68002B00D1D8E0BB681A8934
S315080034A0BB689B89D3189AB21A23FB1801321A8073
S315080034B0BB685A89BB68DB89D3189AB21823FB18EC
S315080034C001321A801C23FB18BA6892881A80B4E065
S315080034D0BB681A681A257B191B88F9684B439A42F8
S315080034E000D2B3E0BB681A681C26BB191B881900F2
S315080034F01000FFF78FFE0B1E00D098E0BB681A6815
S31508003500BB191B8819001000FFF7FEFD0300F968B8
S315080035101800FFF77FFE0B1E00D088E0BB681A680C
S31508003520BB191B8819001000FFF7EEFD0300F968A8
S315080035301800FFF7E9FD03001A0016243B191A8044
S315080035403A197B1912881B889A4200D26FE03A19F9
S315080035501823FB1812881B889A4200D967E03B1982
S315080035601B885B0009330A211800FFF7CDFD03000D
S315080035701A0014203B181A8021007A1804003B19F7
S3150800358012881B88D31A9AB212257B19013A1A8017
S31508003590BB681B897A1912889A4248D3BB685B892B
S315080035A07A1912889A4242D8BB689B893A191288B6
S315080035B09A423CD3BB68DB893A1912889A4236D8B4
S315080035C07B191B88013364225A437B181B88190010
S315080035D01000FFF799FD03001A0011217B181A70D5
S315080035E00A00BB181B78402B21D9BB181B78502B17
S315080035F01DD87B68BA1912881A807B687A191288CE
S315080036005A807B683A1912889A807B689B885B087F
S315080036109AB27B68DA807B68DB88002B02D17B68EC
S315080036200122DA801F23FB1801221A700FE01C21E1
S315080036307B181A887B1801321A80BB68DB881C2223
S31508003640BA1812889A4200D842E700E0C0461F23FB
S31508003650FB181B781800BD4609B0F0BD0F270000FF
S3150800366000127A0080B590B002AF594B7B633B1DC0
S31508003670180008231A00002109F014F8554B564A79
S315080036801A60544B180001F097FE80239B0418001B
S3150800369006F000FC02000C217B181A607B18012238
S315080036A09A807B1880229200DA807B1801221A8180
S315080036B07B18802252005A817B1801229A817B1836
S315080036C08022DA813A1D7B1844481900FFF7CAFEA2
S315080036D0404B00225A603F4B00229A603D4B002225
S315080036E0DA603C4B01221A743A4B01225A74394B60
S315080036F000229A743B1D1B881A00364B5A613B1DE3
S315080037005B881A00334BDA613B1D9B881A00314BE4
S315080037101A623B1DDB881A002E4B9A612D4B01223B
S315080037205A622C4B01229A622A4B0122DA62294BF1
S3150800373001221A637B6B002B06DB264B01225A6398
S31508003740244B00229A6305E0224B00225A63214B40
S3150800375001229A631F4B0022DA631E4B180003F0FE
S31508003760BBFB7B6B002B04DB1C23FB1800221A60B7
S3150800377008E01C23FB188022D2051A607B6B5B00CD
S315080037805B087B631C217B1800225A607B18002289
S315080037909A607B180122DA607B1800221A617B186E
S315080037A00F4A5A617A180B4B1100180003F0FAFCFD
S315080037B008480123009301230222022103F04FFD4A
S315080037C0044B180003F07BFDC046BD460EB080BD15
S315080037D00000109F4C0000200064004020A1070054
S315080037E0FFFFFF1F90B591B000AF2F4BBB633F2380
S315080037F0FB1800221A703E243B1901221A702B4B23
S315080038004021180003F0DCFE031E09D03C193B1DBD
S315080038100C22BA182548402103F0BCFD030023708A
S315080038203E23FB181B78002B3AD1BB6B002B0EDB13
S315080038300C217B181B68BA6B9A421CD17B185B68F3
S31508003840002B18D13F23FB1801221A7013E0BB6B1B
S315080038505B005B08BB630C217B181B68BA6B9A423A
S3150800386009D17B185A688023DB059A4203D13F2386
S31508003870FB1801221A703F23FB181B78012B0FD166
S315080038800C23FB18DA6837217B181A703B1D1B7846
S31508003890FF2B05D17B181B78022B01D1FFF7DEFD24
S315080038A0C046BD4611B090BD0000109F4C000020D8
S315080038B080B500AFA023DB0500222021180004F004
S315080038C069FBC046BD4680BD80B582B000AF00F03A
S315080038D034F803007B60144B1B687A68D21AFA2303
S315080038E09B009A421CD3114B1B78002B0AD10F4B15
S315080038F001221A70A023DB0501222021180004F0FA
S3150800390049FB09E0094B00221A70A023DB050022B7
S315080039102021180004F03EFB034B7A681A6000E089
S31508003920C046BD4602B080BDB0000020B4000020ED
S3150800393080B500AFC046BD4680BD80B500AF01F07A
S3150800394051FF03001800BD4680BD80B582B000AFA8
S3150800395078607B6830220021180008F0A3FE7B6897
S3150800396000221A707B6800225A70C046BD4602B013
S3150800397080BD000080B582B000AF78607B681B7898
S31508003980042B1DD89A00124BD3181B689F467B68D8
S31508003990180000F01FF817E07B68180000F034F8EC
S315080039A012E07B68180000F07FF80DE07B681800CD
S315080039B000F0DCF808E07B68180000F03FF903E047
S315080039C07B6800221A70C046C046BD4602B080BD5C
S315080039D034C7000880B584B000AF7860012001F0D4
S315080039E09FFB01F023FC01F0FDFE0300FB607B68F2
S315080039F0FA681A627B68FA685A627B6801221A704A
S31508003A00C046BD4604B080BD80B582B000AF7860C0
S31508003A107B6802331A000021012001F007F87B6851
S31508003A200233180000F07EFE031E0BD17B680233BA
S31508003A30180000F01BFE7B6802331A0000210120E3
S31508003A4000F0DEFF7B689A88164B1A807B68DA8856
S31508003A50144B5A807B681A89124B9A807B685A895C
S31508003A60104BDA807B689A890E4B1A810D4B9B881E
S31508003A70DAB27B689A730B4BDB88DAB27B68DA7347
S31508003A80084B1B89DAB27B681A747B680E331800F8
S31508003A9001F0C4FA7B6802221A70C046BD4602B01D
S31508003AA080BDC046F0000020B0B584B000AF786095
S31508003AB02D4BDB7A002B52D101F094FE0300FB60FC
S31508003AC000F0B8FB00F0F4FB7B681B6AFA68D31AAF
S31508003AD0632B24D97B68FA681A62002001F042FB3E
S31508003AE003001A007B68DA82012001F03BFB030021
S31508003AF01A007B681A830B257C197B68180000F06E
S31508003B0077F9030023707B191B78002B07D07B6895
S31508003B107A1912785A707B6803221A7021E07B683A
S31508003B205B6AFA68D31AC72B10D97B68FA685A6297
S31508003B300D4B9A887B685A830B4BDA887B689A8385
S31508003B40094B1A897B68DA8300F0D0FB7B6818007A
S31508003B5000F0CAF87B68180000F0ECF801E000F005
S31508003B6043FABD4604B0B0BDF0000020B0B584B03D
S31508003B7000AF786001F036FE0300FB602D4B002293
S31508003B809A722D4B1B78002B13D1002001F0C8FA2E
S31508003B907B6800229A737B680022DA737B680022AE
S31508003BA01A747B680E33180001F038FA224B01228A
S31508003BB01A7000F03FFB00F07BFB7B681B6AFA6813
S31508003BC0D31A632B28D97B68FA681A62002001F099
S31508003BD0C9FA03001A007B68DA82012001F0C2FAEA
S31508003BE003001A007B681A8301F020FB0B257C1959
S31508003BF07B68180000F0FCF8030023707B191B781B
S31508003C00002B09D10C4B00221A707B68FA689A625D
S31508003C107B6804221A700AE07B685B6AFA68D31A22
S31508003C20C72B04D97B68FA685A6200F05FFBBD4669
S31508003C3004B0B0BDF0000020B5000020B0B584B0D7
S31508003C4000AF786001F0CEFD0300FB60254B1B78C2
S31508003C50002B07D1012001F063FA01F0E7FA214BA6
S31508003C6001221A707B689B6AFA68D31AC72B34D963
S31508003C70002001F077FA03001A007B68DA82012037
S31508003C8001F070FA03001A007B681A830B257C1969
S31508003C907B68180000F0ACF8030023707B191B78CA
S31508003CA0002B0FD17B6800225A707B68FA681A626B
S31508003CB07B68FA685A620B4B00221A707B680222EC
S31508003CC01A700AE07B680B22BA1812785A70054BEC
S31508003CD000221A707B6803221A70C046BD4604B0DB
S31508003CE0B0BDC046B600002080B582B000AF78608F
S31508003CF00F4B9B7A002B13D00D4B9B88DAB27B684F
S31508003D009A730B4BDB88DAB27B68DA73084B1B892C
S31508003D10DAB27B681A747B680E33180001F07EF9F4
S31508003D20034B00229A72C046BD4602B080BDC0460B
S31508003D30F000002080B582B000AF7860294B1B7870
S31508003D40002B20D0274B00221A707B68264A5A80FF
S31508003D50264B1A887B689A80244B5A887B68DA80B7
S31508003D60224B9A887B681A81204BDA887B685A81AD
S31508003D701E4B1A897B689A817B6802331A000021D8
S31508003D80012000F03DFE174B5B78002B26D0154B23
S31508003D9000225A707B680233180000F067FC7B68C3
S31508003DA002331A000021012000F02AFE7B68180061
S31508003DB0FFF72AFE7B689A880C4B1A807B68DA889C
S31508003DC00A4B5A807B681A89084B9A807B685A89FD
S31508003DD0064BDA807B689A89044B1A81C046BD4631
S31508003DE002B080BDFC00002084350000F0000020F1
S31508003DF080B584B000AF78600F217B1800221A7056
S31508003E00134B1B88002B0BD07B68DA8A104B1B8858
S31508003E109A4205D27B187A18127801210A431A7039
S31508003E200B4B5B88002B0CD07B681A8B084B5B8886
S31508003E309A4206D20F22BB18BA18127802210A43F0
S31508003E401A700F23FB181B781800BD4604B080BDF6
S31508003E50F000002080B58CB000AF18217B18002236
S31508003E601A607B1800225A607B1801229A607B1818
S31508003E700222DA607B1800221A617B1800225A6136
S31508003E807A18154B1100180003F08CF93B00002234
S31508003E901A603B0001225A603B0002229A603B00EE
S31508003EA00122DA603B0000221A613B0000225A61B7
S31508003EB03A00094B1100180003F074F9064B00226A
S31508003EC00921180003F0A8FB034B180003F0F7F9C3
S31508003ED0C046BD460CB080BD4C00002080B586B0FB
S31508003EE000AFF860B960FB1D1A70174BFA681A60C4
S31508003EF0FB1D1A78144BDA60FB1D1A78B968134B48
S31508003F00180008F0FBFB01F06DFC0300FA22920092
S31508003F10944663447B6105E001F064FC02007B691A
S31508003F2093420CD30A4B180003F066FB031EF3D02A
S31508003F30064A0549064B180003F0E7F900E0C046B3
S31508003F40BD4606B080BDC04600000020E000002047
S31508003F504C00002080B582B000AF786039600D4B08
S31508003F6008220021180008F09DFB3B680122134037
S31508003F700BD0084B084A0948402103F00BFA054ABA
S31508003F80054B1100180000F0EDF8C046BD4602B01A
S31508003F9080BDC046E8000020B80000204C00002084
S31508003FA0B0B58EB000AF7860396030243B19180080
S31508003FB008231A00002108F075FB3B680822134005
S31508003FC00CD03B1908257A190648412103F0E2F975
S31508003FD03A197B191100180000F0F8F8C046BD46DA
S31508003FE00EB0B0BD4C00002080B500AF01F0FAFB62
S31508003FF00200064B1B68D21AFA235B009A4202D9C2
S31508004000034B0022DA72C046BD4680BD000100207F
S31508004010F000002080B500AFBFF34F8FC046044BB9
S31508004020044ADA60BFF34F8FC046C046FDE7C04674
S3150800403000ED00E00400FA0590B5B9B002AFD4224D
S31508004040BB181860364BBA1812681A60354C3B0014
S31508004050180007F039FD3B0020001900CC231A0090
S3150800406008F04CFB304C3B00180007F02DFD3B00D8
S3150800407020001900CC231A0008F040FB2B4C3B000B
S31508004080180007F021FD3B0020001900CC231A0078
S3150800409008F034FB07F0C8FFC023D801244B01936E
S315080040A0244B009302230322032107F02BFF224807
S315080040B0224B0193224B009302230322022107F08D
S315080040C021FF2048002301931F4B0093022301225E
S315080040D0022107F017FF1D48002301931C4B00938C
S315080040E001230122022107F00DFF1A481A4B0193FA
S315080040F00023009301230222012107F003FF17483A
S31508004100174B01930023009301230222012107F094
S31508004110F9FE802007F080FEC046BD4637B090BD48
S315080041206803002004010020D00100209C02002022
S3150800413011440008C943000801600000CD44000886
S315080041407D44000802600000214500080360000065
S315080041508545000804600000E94500080560000080
S315080041603946000880B58AB000AF786039607B6848
S315080041701A680C217B181A607B1800225A607B1873
S3150800418008229A607B180022DA6000237B620DE021
S315080041907B6A3A68D31819780C23FA187B6AD318FD
S315080041A010330A1C1A707B6A01337B627B6A072B01
S315080041B0EEDD0C23FA18044B1100180007F011FD68
S315080041C0C046BD460AB080BD0401002080B58AB04D
S315080041D000AF786039607B681A680C217B181A6012
S315080041E07B1800225A607B1808229A607B180022E6
S315080041F0DA6000237B620DE07B6A3A68D318197887
S315080042000C23FA187B6AD31810330A1C1A707B6AB7
S3150800421001337B627B6A072BEEDD0C23FA18044B0D
S315080042201100180007F0DDFCC046BD460AB080BD87
S31508004230D001002080B58AB000AF04E01423FB1833
S31508004240180007F015FE1423FA18164B110018006B
S3150800425007F094FC031EF1D115E014217B185B8846
S315080042601A00C023DB009A420CD13B007A181100D1
S31508004270180008F0D1F83A000B4B1100180007F0A7
S3150800428045FC00E0C0461423FA18084B1100180034
S3150800429007F074FC031EE0D1C046C046BD460AB00E
S315080042A080BDC046D00100209C02002004010020E9
S315080042B080B586B000AF09E03B0018683B009B68F4
S315080042C0DAB23B0010331900FFF708FE3A00064B36
S315080042D01100180007F0BAFC031EEDD1C046C0460F
S315080042E0BD4606B080BDC0469C020020B0B58CB065
S315080042F000AF2F257C1907F0B1FD030023707B1949
S315080043001B78012B0DD11823FC183B00012118003E
S3150800431007F05EFD3A00230013CA13C303CA03C39A
S315080043201FE02F23FB181B78802B0DD11823FC18B0
S315080043303B000121180007F05DFD3A00230013CA6F
S3150800434013C303CA03C30CE01823FC183B0001215E
S31508004350180007F02BFD3A00230013CA13C303CA3B
S3150800436003C31823FA18044B1100180007F0CEFBF4
S31508004370C046BD460CB0B0BD9C02002080B586B0D4
S3150800438000AF3B1D0121180007F034FD3A1D044B10
S315080043901100180007F0BAFBC046BD4606B080BD3E
S315080043A09C02002080B500AF07F03EFE054B1B6857
S315080043B0002B04D0034B1B681800FFF73DFEC046D0
S315080043C0BD4680BD6803002080B582B000AF786026
S315080043D00A00FB1C1A70FB1C1B78002B03D0FB1C65
S315080043E01B78032B01D9084B0AE0FB1C1B78013B01
S315080043F0064A5B00D31804331A887B681A800023A0
S315080044001800BD4602B080BD11000906F000002064
S3150800441080B584B000AF02003960FB1D1A70FB1D21
S315080044201B78002B03D0FB1D1B78032B01D9114BDE
S315080044301BE00E217B183A0012881A800A00BB1866
S315080044401B88642B02D9BB1864221A80FB1D1B78B3
S31508004450013B094A5B00D31804330E22BA181288A6
S315080044601A80054B01229A7200231800BD4604B033
S3150800447080BDC04611000906F000002080B582B054
S3150800448000AF78600A00FB1C1A70FB1C1B78002B17
S3150800449003D0FB1C1B78022B01D90A4B0DE0FB1C31
S315080044A01B78012B04D1084B1A887B681A8003E015
S315080044B0054B5A887B681A8000231800BD4602B04F
S315080044C080BDC04611000906F000002080B582B004
S315080044D000AF02003960FB1D1A70FB1D1B78002B0C
S315080044E003D0FB1D1B78022B01D90B4B10E0FB1DDB
S315080044F01B78012B04D13B001A88084B1A8003E06D
S315080045003B001A88054B5A80044B01229A720023F5
S315080045101800BD4602B080BD11000906F000002053
S3150800452080B582B000AF78600A00FB1C1A70FB1CCD
S315080045301B78002B03D0FB1C1B78022B01D90E4BD2
S3150800454015E00E4B1B68002B01D10D4B0FE0FB1C31
S315080045501B78012B05D1094B1B68DA8A7B681A8000
S3150800456004E0064B1B681A8B7B681A800023180028
S31508004570BD4602B080BDC04611000906680300208A
S315080045800000020680B582B000AF78600A00FB1C06
S315080045901A70FB1C1B78002B03D0FB1C1B78022B04
S315080045A001D90E4B15E00E4B1B68002B01D10D4BA4
S315080045B00FE0FB1C1B78012B05D1094B1B681A78E9
S315080045C07B681A7004E0064B1B685A787B681A7079
S315080045D000231800BD4602B080BDC046110009067A
S315080045E0680300200000020680B582B000AF020012
S315080045F03960FB1D1A70FB1D1B78012B01D00C4B73
S3150800460012E03B001B781A000123134002D0094B25
S3150800461001221A703B001B781A000223134002D0AD
S31508004620044B01225A7000231800BD4602B080BD13
S3150800463011000906FC00002080B582B000AF020018
S315080046403960FB1D1A70FB1D1B78012B01D0064B28
S3150800465006E03B001B78FF2B01D1FFF7DBFC0023AC
S315080046601800BD4602B080BD1100090680B582B0AB
S3150800467000AF78607B681A7800210A40111C7C22FA
S3150800468052420A431A705A7800210A40111C3522F0
S315080046900A435A707B689A7900210A40111C322213
S315080046A00A439A71DA7900210A40DA717B681A7A24
S315080046B000210A40111C1E220A431A725A7A002146
S315080046C00A405A727B689A7A00210A40111C1E22F7
S315080046D00A439A72DA7A00210A40DA727B689A7873
S315080046E000210A40111C20220A439A70DA78002118
S315080046F00A40111C4E220A43DA707B681A79002197
S315080047000A40111C682252420A431A715A7900213A
S315080047100A40111C3A220A435A71C046BD4602B0E5
S3150800472080BD000080B582B000AF78607B681A78DB
S315080047305B781B0213439BB2044A934201D10123BF
S3150800474000E000231800BD4602B080BD8435000095
S3150800475080B582B000AF0200BB1D1A803B1D0A1C43
S315080047601A80BB1D1A883B1D1B88D3183F2B02DCF9
S31508004770BB1D1B8804E03B1D1B884022D31A9BB235
S315080047801800BD4602B080BDF0B58FB004AF040076
S315080047900800BA6019000E257B19221C1A800C2401
S315080047A03B19021C1A80BB1D0A1C1A800623BB6112
S315080047B02623FB187A1912881A803B191A88BB1DFA
S315080047C01B88D318002B00DA3F339B1199B21620A9
S315080047D03B180E22BA1812888A181A803A18262305
S315080047E0FB1812881B88D31A9AB21423FB180132B5
S315080047F01A802423FB1800221A8000233B625DE0FE
S315080048002626BB191A88BB699A4013001AB20C21CE
S315080048107B1800201B5E13431AB21223FB181A805A
S3150800482010257C197B181A88BB1D1B8811001800D7
S31508004830FFF78EFF0300238024243B191B88BA68E0
S31508004840D3181222BA1811882248FA229200029224
S315080048507A1912880192009302230A00A02103F014
S315080048605DFCBB19BA19128801321A800C217B1813
S3150800487000221A80BB1DB91D7A19098812888A1A5E
S315080048801A803B1939197A19098812888A181A80E0
S315080048900023FB610AE00F4864230122A02103F0EC
S315080048A09FFE031E06D0FB690133FB61FB69092BDA
S315080048B0F1DD00E0C0463B6A01333B621423FB1876
S315080048C01B883A6A9A429BDBC046C046BD460BB077
S315080048D0F0BDC04660040020F0B58FB004AF0400F8
S315080048E00800BA6019000E257B19221C1A800C24B0
S315080048F03B19021C1A80BB1D0A1C1A800623FB6181
S315080049002623FB187A1912881A803B191A88BB1DA8
S315080049101B88D318002B00DA3F339B1199B21A2053
S315080049203B180E22BA1812888A181A803A182623B3
S31508004930FB1812881B88D31A9AB21823FB1801325F
S315080049401A802423FB1800221A8000233B624AE0BF
S315080049502626BB191A88FB699A4013001AB20C213D
S315080049607B1800201B5E13431AB21623FB181A8005
S3150800497014257C197B181A88BB1D1B881100180082
S31508004980FFF7E6FE0300238024243B191B88BA6838
S31508004990D3181622BA1811881848FA2292000292D9
S315080049A07A1912880192009302230A00A02103F0C3
S315080049B0E3FCBB19BA19128801321A800C217B183C
S315080049C000221A80BB1DB91D7A19098812888A1A0D
S315080049D01A803B1939197A19098812888A181A808F
S315080049E03B6A01333B621823FB181B883A6A9A42D2
S315080049F0AEDBC046C046BD460BB0F0BD6004002025
S31508004A0080B582B000AF3A60BB1D021C1A803B1D00
S31508004A100A1C1A803A683B1D1988BB1D18880C2386
S31508004A20FFF7B2FEC046BD4602B080BD80B582B073
S31508004A3000AF3A60BB1D021C1A803B1D0A1C1A8077
S31508004A403A683B1D1988BB1D18880C23FFF744FFDD
S31508004A50C046BD4602B080BD80B500AF024B034AD2
S31508004A609A60C046BD4680BD00ED00E000300008F3
S31508004A7080B500AFFFF7F0FF00F038FE00F032F81F
S31508004A8000F044FA00F02CFA00F000F900F03EF9C4
S31508004A9000F082F8FEF7AEFCFFF7DCF90F4B1800C2
S31508004AA0FFF7CAFA0E4B0021180005F0CDFF0C4B94
S31508004AB00421180005F0C8FF094B0821180005F065
S31508004AC0C3FF064B1800FEF740FFFEF79EFC034B9C
S31508004AD01800FEF74FFFC046F7E7C0466C030020F4
S31508004AE0B404002090B595B000AF14243B19180003
S31508004AF03C231A00002107F0D5FD3B1D18001023A2
S31508004B001A00002107F0CEFD80239B00180004F050
S31508004B10F7F93B1901221A603B19802252025A60A2
S31508004B2021007B1802221A627B1803225A627B181C
S31508004B3000229A627B180F22DA627B188022920280
S31508004B401A637B18E02212055A637B1880229205A5
S31508004B509A637B18180004F01FFA031E01D000F0B0
S31508004B6057FA3B1D07221A603B1D02225A603B1D5D
S31508004B7000229A603B1D0022DA603B1D02211800C4
S31508004B8004F06AFD031E01D000F042FA04F00EFF9D
S31508004B90C046BD4615B090BD80B584B000AF3B1D7C
S31508004BA018000C231A00002107F07CFD334B344A09
S31508004BB01A60324B8022D2055A60304B00229A6026
S31508004BC02E4B0022DA602D4B802212061A612B4BDF
S31508004BD008225A61294B00221A76284B00225A7657
S31508004BE0264B01229A76254B0122DA61234B0022B5
S31508004BF05A62224B00229A62204B2C220121995498
S31508004C001E4B802252011A631C4B05225A631B4B0A
S31508004C103C2200219954194B0022DA64174B1800DC
S31508004C2000F07CFF031E01D000F0F2F93B1D154A87
S31508004C301A603B1D01225A603A1D104B11001800DC
S31508004C4001F0B2F9031E01D000F0E2F93B1D0E4A4D
S31508004C501A603A1D094B1100180001F0A5F9031E48
S31508004C6001D000F0D5F9054B180001F07FFD0120B1
S31508004C7000F0C2FDC046BD4604B080BD9C030020BE
S31508004C8000240140020000040400000880B500AFBB
S31508004C901B4B1C4A1A601A4B1B4A5A60184B0022B7
S31508004CA09A60174B0122DA60154B00221A61144BE1
S31508004CB000225A61124B00229A61114B0022DA61D6
S31508004CC00F4B00221A620E4B180003F081F9031EDF
S31508004CD001D000F09DF90A4B0021180004F078F87D
S31508004CE0031E01D000F094F9054B0021180004F0CA
S31508004CF0BBF8031E01D000F08BF9C046BD4680BD47
S31508004D006004002000540040601EB00080B59CB0CE
S31508004D1000AF6023FB18180010231A00002107F0C3
S31508004D20C1FC5423FB1818000C231A00002107F0B5
S31508004D30B9FC3823FB1818001C231A00002107F0B9
S31508004D40B1FC3B1D180034231A00002107F0AAFC09
S31508004D50604B614A1A605F4B64225A605D4B0022C1
S31508004D609A605C4B5D4ADA605A4B00221A61594BCD
S31508004D7000225A61574B80229A61564B180005F05B
S31508004D80ABFD031E01D000F043F960217B18802299
S31508004D9052011A607A184F4B1100180006F044F8B1
S31508004DA0031E01D000F034F94A4B180005F0ECFD5B
S31508004DB0031E01D000F02CF954217B1800221A603A
S31508004DC07B1800225A607B1800229A607A18414B99
S31508004DD01100180006F01AFD031E01D000F018F99C
S31508004DE038217B1860221A607B18FA2212015A6051
S31508004DF07B1800229A607B180022DA607B18002252
S31508004E001A617B1800225A617B1800229A61791868
S31508004E10304B0022180005F007FF031E01D000F0F2
S31508004E20F7F838217B18C82252005A607918294B9E
S31508004E300422180005F0F8FE031E01D000F0E8F879
S31508004E4038217B18962292005A607918214B08223D
S31508004E50180005F0E9FE031E01D000F0D9F83B1D45
S31508004E6000221A603B1D00225A603B1D00229A60F0
S31508004E703B1D0022DA603B1D00221A613B1D802281
S31508004E8092015A613B1D00229A613B1D0022DA619C
S31508004E903B1D00221A623B1D802292045A623B1D6A
S31508004EA000229A623B1D0022DA623B1D00221A6329
S31508004EB03A1D084B1100180006F01EFD031E01D00E
S31508004EC000F0A6F8034B180000F07AFBC046BD4672
S31508004ED01CB080BDB4040020002C0140FF0F000068
S31508004EE080B582B000AF084B9A6B074B01210A4385
S31508004EF09A63054B9B6B012213407B607B68C04617
S31508004F00BD4602B080BDC0460010024090B58BB0C9
S31508004F1000AF14243B19180014231A00002107F0C7
S31508004F20C1FB394B5A6B384B04210A435A63364B3B
S31508004F305B6B042213403B613B69334B5A6B324B24
S31508004F4020210A435A63304B5B6B20221340FB60D7
S31508004F50FB682D4B5A6B2C4B01210A435A632A4B8B
S31508004F605B6B01221340BB60BB68274B5A6B264B11
S31508004F7002210A435A63244B5B6B022213407B606F
S31508004F807B68A023DB0500223021180003F002F815
S31508004F903B19802292011A603B19882252035A60F3
S31508004FA03B1900229A603B19184A1900100002F0B2
S31508004FB085FE3B1910221A603B1901225A603B19DB
S31508004FC000229A603B190022DA603A19A023DB0511
S31508004FD01100180002F072FE21007B1820221A60C8
S31508004FE07B1801225A607B1800229A607B180222DD
S31508004FF0DA607A18A023DB051100180002F05EFEBD
S31508005000C046BD460BB090BD0010024000080050D7
S3150800501080B500AF72B6C046C046FDE790B589B008
S3150800502000AF78600823FB183B4A13CA13C33B4BEF
S315080050301B68DB6A7B610023FB6165E07A68FB69B4
S31508005040D3181B78DBB2002B02D10023BB6118E012
S315080050507A68FB69D3181B78DBB2632B03D97B69A3
S315080050600133BB610DE07A68FB69D3181B78DBB2A4
S315080050701A007B69534364211800FEF745F80300BC
S31508005080BB610823FB18FA699200D358002B04D198
S31508005090224B1B68BA695A6333E00823FB18FA697E
S315080050A09200D358042B04D11C4B1A68BB6993632E
S315080050B027E00823FB18FA699200D358082B04D175
S315080050C0164B1A68BB69D3631BE00823FB18FA69F9
S315080050D09200D3580C2B04D1104B1A68BB69136481
S315080050E00FE00823FB18FA699200D358102B04D155
S315080050F00A4B1A68BB69936503E0084B1A68BB69D3
S31508005100D365FB690133FB61FB69022B96DDC0465B
S31508005110C046BD4609B090BD28C70008B4040020A3
S3150800512080B582B000AF0200FB1D1A70FB1D1B780C
S31508005130002B02D0012B08D00FE0A023DB050022AC
S315080051401021180002F026FF07E0A023DB05012244
S315080051501021180002F01EFFC046C046BD4602B028
S3150800516080BD000080B582B000AF0200FB1D1A703A
S31508005170FB1D1B78002B04D0012B0ED0C046002344
S3150800518016E00D4B1B881A000C4B53430C491800AC
S31508005190FEF744F803009BB20AE0074B5B881A0047
S315080051A0064B534306491800FEF738F803009BB22E
S315080051B01800BD4602B080BD0005002098760000A4
S315080051C0FF0F000080B582B000AF02003960FB1DFA
S315080051D01A70FB1D1B78002B02D0012B0ED01BE08A
S315080051E00F4B1B881A000F4B53430F491800FEF745
S315080051F015F803009AB23B689A800DE0084B5B8865
S315080052001A00084B534308491800FEF707F803002D
S315080052109AB23B68DA80C046C046BD4602B080BD39
S315080052200005002098760000FF0F000080B500AF4B
S315080052300449054B0222180000F018FEC046BD4678
S3150800524080BDC046000500209C03002080B582B0C2
S3150800525000AF78607B681B68084A934209D1084BFF
S3150800526019000020FFF7AEFF054B19000120FFF7D4
S31508005270A9FFC046BD4602B080BDC0460024014015
S315080052800405002080B582B000AF114B1A6C104B94
S3150800529001210A431A640E4B1B6C012213407B60E2
S315080052A07B680B4BDA6B0A4B802149050A43DA63A4
S315080052B0074BDA6B80235B0513403B603B68C023D2
S315080052C0DB00180000F0BCFAC046BD4602B080BD3F
S315080052D00010024090B58BB000AF786014243B19DB
S315080052E0180014231A00002107F0DCF97B681B68F4
S315080052F02D4A934254D12D4B1A6C2C4B80214903CD
S315080053000A431A64294B1A6C80235B0313403B61DA
S315080053103B69264B5A6B254B01210A435A63234B9B
S315080053205B6B01221340FB60FB683B1906221A607F
S315080053303B1903225A603B1900229A603A19A023A6
S31508005340DB051100180002F0B9FC194B194A1A605E
S31508005350174B05225A60164B00229A60144B0022FE
S31508005360DA60134B80221A61114B802252005A616F
S315080053700F4B8022D2009A610D4B2022DA610C4B2A
S3150800538000221A620A4B180001F0CAFB031E01D05C
S31508005390FFF73EFE7B68064A1A65054B7A689A62ED
S315080053A0C046BD460BB090BD002401400010024027
S315080053B0000400200800024090B59DB000AF786058
S315080053C05C23FB18180014231A00002107F06AF959
S315080053D010243B1918004C231A00002107F062F923
S315080053E07B681B68274A934247D13B19802292045F
S315080053F01A603B1900229A643B19180004F00EFB48
S31508005400031E01D0FFF704FE1F4BDA6B1E4B8021EB
S3150800541049010A43DA631C4BDA6B80235B011340AC
S31508005420FB60FB68184B5A6B174B02210A435A63F9
S31508005430154B5B6B02221340BB60BB685C217B1873
S31508005440C02292001A607B1802225A607B18012239
S315080054509A607B180022DA607B1803221A617B188F
S315080054600A4A1900100002F029FC00220021152022
S3150800547001F024FB152001F036FBC046BD461DB0E1
S3150800548090BDC04600640040001002400004005071
S3150800549090B59DB000AF78605C23FB181800142304
S315080054A01A00002107F0FEF810243B1918004C23B7
S315080054B01A00002107F0F6F87B681B68224A934217
S315080054C03DD13B1920221A603B1900229A613B19EB
S315080054D0180004F0A3FA031E01D0FFF799FD1B4B31
S315080054E05A6B1A4B02210A435A63184B5B6B02220A
S315080054F01340FB60FB685C217B18C0221A607B188E
S3150800550012225A607B1801229A607B180022DA6000
S315080055107B1806221A617B180D4A1900100002F042
S31508005520CDFB0A4BDA6B094B802189030A43DA6300
S31508005530064BDA6B80239B031340BB60BB68C046EF
S31508005540BD461DB090BDC046005400400010024044
S315080055500004005090B597B000AF78600C243B1952
S3150800556018004C231A00002107F09CF87B681B687A
S31508005570114A93421CD13B19802292031A603B19A7
S3150800558000229A633B19180004F048FA031E01D05A
S31508005590FFF73EFD094B1A6C084B802109010A43A7
S315080055A01A64064B1A6C80231B011340BB60BB6848
S315080055B0C046BD4617B090BD002C01400010024001
S315080055C090B589B000AF78600C243B1918001423F5
S315080055D01A00002107F066F87B681B68154A934293
S315080055E023D1154B5A6B144B01210A435A63124BAC
S315080055F05B6B01221340BB60BB683B19E022D200FB
S315080056001A6021007B1802225A607B1800229A60D1
S315080056107B180022DA607B1802221A617A18A02306
S31508005620DB051100180002F049FBC046BD4609B06B
S3150800563090BDC046002C01400010024080B500AF66
S3150800564004F0C2F9C046FDE780B500AFC046FDE7E5
S3150800565080B500AFC046BD4680BD80B500AFC04628
S31508005660BD4680BD80B500AF00F0AAF8C046BD466D
S3150800567080BD000080B500AF034B180002F0A2F809
S31508005680C046BD4680BDC0464C00002080B500AF70
S31508005690C046BD4680BD00000D488546FFF7F6FFAB
S315080056A00C480D490D4A002302E0D458C45004336F
S315080056B0C4188C42F9D30A4A0A4C002301E0136045
S315080056C00432A242FBD306F0F5FFFFF7D1F9FEE755
S315080056D000400220000000203000002098C8000882
S315080056E03000002018060020FEE7000080B582B0D2
S315080056F000AFFB1D00221A700B4B1A680A4B80215B
S3150800570049000A431A60002000F010F8031E03D06F
S31508005710FB1D01221A7001E0FFF7B4FDFB1D1B7883
S315080057201800BD4602B080BD0020024090B585B085
S3150800573000AF78600F23FB1800221A701D4B1B78E8
S31508005740002B2BD01C4B1C681A4B1B781900FA230C
S315080057509800FDF7D9FC030019002000FDF7D4FCDA
S315080057600300180001F0CFF9031E12D17B68032B42
S315080057700AD8796801235B420022180001F09EF9D5
S315080057800E4B7A681A600DE00F23FB1801221A7077
S3150800579008E00F23FB1801221A7003E00F23FB18F9
S315080057A001221A700F23FB181B781800BD4605B096
S315080057B090BDC0462C0000202400002028000020B0
S315080057C080B500AF054B1B781A00054B1B68D2182D
S315080057D0034B1A60C046BD4680BDC0462C0000205B
S315080057E00C05002080B500AF024B1B681800BD46AB
S315080057F080BDC0460C05002080B584B000AF786037
S31508005800FFF7F0FF0300BB607B68FB60FB680133B2
S3150800581005D00A4B1B781A00FB689B18FB60C0462C
S31508005820FFF7E0FF0200BB68D31AFA689A42F7D876
S31508005830C046C046BD4604B080BDC0462C00002008
S3150800584080B582B000AF7860064B1B68064A1340E5
S315080058501900044B7A680A431A60C046BD4602B06E
S3150800586080BDC04600000140FFF9FFFF80B582B049
S3150800587000AF786039607B681B68054A1A403B6848
S315080058801A437B681A60C046BD4602B080BDC04652
S31508005890FFFF3FFE80B582B000AF78607B681A686C
S315080058A0E0235B0413401800BD4602B080BD80B5F6
S315080058B084B000AFF860B9607A60FB685B69BA6863
S315080058C004210A40072191400A00D2431A40BB68C6
S315080058D004210B40796899400B001A43FB685A610A
S315080058E0C046BD4604B080BD80B582B000AF7860C2
S315080058F039607B685B693A6804210A400721914050
S315080059000A001A403B6804210B40DA4013001800CD
S31508005910BD4602B080BD80B582B000AF78607B68B6
S31508005920DA68C0231B01134001D1012300E00023DC
S315080059301800BD4602B080BD80B584B000AFF860DF
S31508005940B9607A60FB689B6ABA681F210A400F2112
S3150800595091400A00D2431A407B689B0E0F211940DA
S31508005960BB681F20034099400B001A43FB689A62E4
S31508005970C046BD4604B080BD80B582B000AF786031
S3150800598039607B689A6A3B685B035B0B1A437B68E2
S315080059909A62C046BD4602B080BD80B582B000AFEF
S315080059A0786039607B689B6A3A685203520BD24327
S315080059B01A407B689A62C046BD4602B080BD0000A8
S315080059C080B584B000AFF860B9607A60FB685B693F
S315080059D0BA681202D2431A40BB681B0279680B40A8
S315080059E004490B401A43FB685A61C046BD4604B0D9
S315080059F080BDC04600FFFF0780B582B000AF786063
S31508005A007B689B68054A1340802252051A437B68C7
S31508005A109A60C046BD4602B080BDC046E8FFFF6F2B
S31508005A2080B582B000AF78607B689A6880235B0592
S31508005A301A4080235B059A4201D1012300E0002326
S31508005A401800BD4602B080BD80B582B000AF786050
S31508005A507B689B68044A134001221A437B689A6054
S31508005A60C046BD4602B080BDE8FFFF7F80B582B064
S31508005A7000AF78607B689B68044A134002221A4389
S31508005A807B689A60C046BD4602B080BDE8FFFF7FCE
S31508005A9080B582B000AF78607B689B6801221340AE
S31508005AA0012B01D1012300E000231800BD4602B0F6
S31508005AB080BD80B582B000AF78607B689B680222A3
S31508005AC01340022B01D1012300E000231800BD4634
S31508005AD002B080BD80B582B000AF78607B689B68F5
S31508005AE0044A134004221A437B689A60C046BD469E
S31508005AF002B080BDE8FFFF7F80B582B000AF786056
S31508005B007B689B6804221340042B01D1012300E023
S31508005B1000231800BD4602B080BD000080B588B0DD
S31508005B2000AF78601F23FB1800221A700023BB61A0
S31508005B3000237B610023FB607B68002B01D10123D6
S31508005B407FE17B689B6D002B0AD17B681800FFF705
S31508005B50C1FB7B680022DA657B68542200219954D0
S31508005B607B681B681800FFF75BFF031E15D17B686F
S31508005B701B681800FFF740FFB44B1B68B4491800B0
S31508005B80FDF7C2FA030001335B00FB6002E0FB6825
S31508005B90013BFB60FB68002BF9D17B681B6818008A
S31508005BA0FFF73EFF031E0FD17B689B6D10221A4339
S31508005BB07B689A657B68DB6D01221A437B68DA6528
S31508005BC01F23FB1801221A707B681B681800FFF751
S31508005BD093FF03003B617B689B6D1022134000D046
S31508005BE022E13B69002B00D01EE17B689B6D994A38
S31508005BF0134002221A437B689A657B681B68180063
S31508005C00FFF746FF031E00D0ADE07B689A687B6805
S31508005C101B7E9B031A437B685B7EDB031A437B6808
S31508005C209B7E5B031A437B681B6B002B02D0802389
S31508005C305B0100E000231A437B68DB681A437B6834
S31508005C401B69002B04DA7B681B695B005B0801E0B3
S31508005C5080239B031A437B682C215B5C5B00134300
S31508005C60BA691343BB617B6820229B5C012B15D163
S31508005C707B689B7E002B05D1BB69802252021343A9
S31508005C80BB610BE07B689B6D20221A437B689A6593
S31508005C907B68DB6D01221A437B68DA657B685B6A81
S31508005CA0002B0AD07B685A6AE0235B001A407B689F
S31508005CB09B6A1343BA691343BB617B681B68DB683D
S31508005CC0654A134019007B681B68BA690A43DA609B
S31508005CD07B685B689B0F9A077B68DB6C13437A6962
S31508005CE013437B617B683C229B5C012B11D17B684B
S31508005CF05B689B0F9A077B681B6C1A437B685B6C17
S31508005D001A437B689B6C1A437B691343012213432E
S31508005D107B617B681B681B69504A134019007B68C6
S31508005D201B687A690A431A617B685A68C0231B068E
S31508005D309A4218D07B685A688023DB059A4212D0AB
S31508005D407B685A6880231B069A420CD0444B1B6812
S31508005D50444A134019007B685A68F0239B031A408B
S31508005D603F4B0A431A607B6818687B685B6B1A00AE
S31508005D700021FFF79CFD7B6818687B689B6B3A4996
S31508005D801A00FFF794FD7B681B69002B09D17B6815
S31508005D901B689A6A7B681B68102149420A439A6203
S31508005DA018E07B681A6980239B039A4212D17B68A4
S31508005DB01B689B6A7B68DB69013B9B001C221340BE
S31508005DC0102252429A4011007B681A6E7B681B6843
S31508005DD00A439A627B681B6800211800FFF784FD56
S31508005DE002007B685B6B9A420BD17B680022DA65FE
S31508005DF07B689B6D0322934301221A437B689A654D
S31508005E001CE07B689B6D1222934310221A437B6821
S31508005E109A657B68DB6D01221A437B68DA651F2366
S31508005E20FB1801221A7009E07B689B6D10221A4341
S31508005E307B689A651F23FB1801221A701F23FB181B
S31508005E401B781800BD4608B080BDC0462400002057
S31508005E50400D0300FDFEFFFF0102DEFF02FCFF1FEF
S31508005E6008270140FFFFC3FF04FFFF07B0B586B050
S31508005E7000AFF860B9607A60FB681B681800FFF726
S31508005E803BFE031E6CD1FB6854229B5C012B01D19F
S31508005E9002236CE0FB68542201219954FB681B68B5
S31508005EA0DB680122134013D1FB681B681800FFF753
S31508005EB0EFFD031E04D0FB681B681800FFF7D6FD2C
S31508005EC0FB681B68DA68FB681B6801210A43DA600D
S31508005ED017257C19FB68180000F03EFA03002370AA
S31508005EE02C003B191B78002B3ED1FB689B6D224A80
S31508005EF01340802252001A43FB689A65FB68002209
S31508005F00DA65FB681B6D1D4ADA62FB681B6D1C4A65
S31508005F101A63FB681B6D1B4A5A63FB681B681C22C5
S31508005F201A60FB68542200219954FB681B685A685A
S31508005F30FB681B6810210A435A60FB68186DFB68EA
S31508005F401B6840331900BA683C197B6800F094FE58
S31508005F5003002370FB681B681800FFF7BBFD03E00E
S31508005F601723FB1802221A701723FB181B78180030
S31508005F70BD4606B0B0BDC046FEF0FFFF216500086D
S31508005F80E96500080766000880B582B000AF78604A
S31508005F90C046BD4602B080BD80B582B000AF78600D
S31508005FA0C046BD4602B080BD80B586B000AF7860F9
S31508005FB039601723FB1800221A700023FB607B68E0
S31508005FC054229B5C012B01D10223C0E17B68542239
S31508005FD0012199547B681B681800FFF78DFD031E85
S31508005FE000D0A3E13B685B68022B00D143E17B68E4
S31508005FF01A6980231B069A4204D07B681B69C14A2A
S31508006000934208D17B681A683B681B681900100020
S31508006010FFF7B2FCC9E07B681A6E3B685B681F2114
S315080060200B400F2199400B00DB43134019003B68D6
S315080060301B685B035B0B05D13B681B689B0E1F2225
S31508006040134098E03B681B680122134000D091E09A
S315080060503B681B680222134000D089E03B681B6836
S315080060600422134000D081E03B681B6808221340D5
S3150800607000D079E03B681B681022134000D071E01D
S315080060803B681B682022134000D069E03B681B6808
S315080060904022134000D061E03B681B688022134011
S315080060A000D059E03B681A6880235B00134051D141
S315080060B03B681A6880239B00134049D13B681A68DD
S315080060C08023DB00134041D13B681A6880231B01FB
S315080060D0134039D13B681A6880235B01134031D1DC
S315080060E03B681A6880239B01134029D13B681A68CC
S315080060F08023DB01134021D13B681A6880231B02E9
S31508006100134019D13B681A6880235B02134011D1EA
S315080061103B681A6880239B02134009D13B681A68BA
S315080061208023DB02134001D0122324E0002322E05F
S31508006130112320E010231EE00F231CE00E231AE093
S315080061400D2318E00C2316E00B2314E00A2312E0B3
S31508006150092310E008230EE007230CE006230AE0D3
S31508006160052308E0042306E0032304E0022302E0F3
S31508006170012300E000233A6852681F20024093403A
S315080061800A001A437B681A663B685B689B085A1CB8
S315080061907B68DB699A4208D87B6818683B68596847
S315080061A03B681B681A00FFF7C7FB7B6818683B68E3
S315080061B019683B689B681A00FFF702FC3B681B6876
S315080061C0002B00DBBCE0504B1800FFF763FB030015
S315080061D03B613B681B684D4A934222D13A6980234A
S315080061E01B0413401DD13B69802212041343464AFF
S315080061F019001000FFF73AFB454B1B684549180084
S31508006200FCF782FF03005A1C13005B009B189B00D7
S31508006210FB6002E0FB68013BFB60FB68002BF9D1E1
S315080062208EE03B681B683C4A93420ED13A6980234C
S315080062305B04134009D13B69802252041343324A56
S3150800624019001000FFF712FB7AE03B681B68334A17
S31508006250934200D074E03A698023DB03134000D0F0
S315080062606EE03B698022D2031343274A19001000C7
S31508006270FFF7FCFA64E07B681A6980231B069A42DA
S3150800628004D07B681B691F4A934207D17B681A684A
S315080062903B681B6819001000FFF77FFB3B681B680B
S315080062A0002B4DDA184B1800FFF7F4FA03003B6190
S315080062B03B681B68154A934208D13B69184A134044
S315080062C0114A19001000FFF7D1FA39E03B681B683C
S315080062D0114A934208D13B69124A13400A4A1900E7
S315080062E01000FFF7C3FA2BE03B681B680B4A934282
S315080062F026D13B690C4A1340034A19001000FFF7E0
S31508006300B5FA1DE00400008008270140001000B01F
S3150800631024000020400D0300004000B8002000B40F
S31508006320FFFF7FFFFFFFFFFEFFFFBFFF7B689B6D41
S3150800633020221A437B689A651723FB1801221A70D4
S315080063407B685422002199541723FB181B781800E0
S31508006350BD4606B080BDC04680B584B000AF786043
S315080063600023BB607B681B681800FFF791FB031EC0
S3150800637000D069E07B681B689B68364A13400DD0DD
S315080063807B689B6D10221A437B689A657B68DB6D78
S3150800639001221A437B68DA65012356E07B681B688D
S315080063A01800FFF751FB2C4B1800FFF773FA020091
S315080063B080231B0413400FD0284B1B68284918005C
S315080063C0FCF7A2FE03000133BB6002E0BB68013B99
S315080063D0BB60BB68002BF9D17B685B7E012B33D091
S315080063E0FFF700FA0300FB6027E07B681B681800CC
S315080063F0FFF74EFB031E04D17B681B681800FFF7E6
S3150800640023FBFFF7EFF90200FB68D31A022B14D916
S315080064107B681B681B6801221340012B0DD07B6823
S315080064209B6D10221A437B689A657B68DB6D012297
S315080064301A437B68DA65012307E07B681B681B68DB
S3150800644001221340012BD0D100231800BD4604B009
S3150800645080BDC046170000800827014024000020A0
S31508006460400D030080B584B000AF78607B681B6878
S315080064701800FFF71EFB0300FB607B681B6818000B
S31508006480FFF706FB031E46D0FB68002B43D17B684B
S315080064901B689B6805221340012B0DD17B681B687E
S315080064A01800FFF7E3FA7B681B6803221A60FFF7F8
S315080064B099F90300BB6028E07B689B6D10221A439C
S315080064C07B689A657B68DB6D01221A437B68DA650F
S315080064D0012321E0FFF786F90200BB68D31A022BD5
S315080064E013D97B681B689B68012213400DD07B6813
S315080064F09B6D10221A437B689A657B68DB6D0122C7
S315080065001A437B68DA65012306E07B681B689B688B
S3150800651001221340DED100231800BD4604B080BD19
S3150800652080B584B000AF78607B689B6AFB60FB68C7
S315080065309B6D5022134041D1FB689B6D80229200CF
S315080065401A43FB689A65FB681B681800FFF7E3F9AE
S31508006550031E2ED0FB689B7E002B2AD1FB681B6886
S315080065601B6808221340082B23D1FB681B681800F8
S31508006570FFF7C2FA031E10D1FB681B685A68FB684E
S315080065801B680C218A435A60FB689B6D154A1340A9
S3150800659001221A43FB689A650BE0FB689B6D202273
S315080065A01A43FB689A65FB68DB6D01221A43FB6890
S315080065B0DA65FB681800FEF749FE0FE0FB689B6D7D
S315080065C01022134004D0FB681800FFF7E5FC05E02D
S315080065D0FB681B6D5B6B7A6810009847C046BD4622
S315080065E004B080BDFEFEFFFF80B584B000AF7860C2
S315080065F07B689B6AFB60FB681800FFF7C5FCC04612
S31508006600BD4604B080BD80B584B000AF78607B68B5
S315080066109B6AFB60FB689B6D40221A43FB689A6580
S31508006620FB68DB6D04221A43FB68DA65FB68180011
S31508006630FFF7B2FCC046BD4604B080BD80B582B047
S3150800664000AF78607B681A68F0239B031340180034
S31508006650BD4602B080BD80B582B000AF78607B6869
S315080066601B699B0F9B071800BD4602B080BD80B50D
S3150800667082B000AF786039607B68B4229B587F226D
S3150800668093431A003B681A437B68B4215A50C046A4
S31508006690BD4602B080BD80B582B000AF78607B6829
S315080066A0B4229B587F2213401800BD4602B080BD15
S315080066B080B582B000AF78607B689B68044A134057
S315080066C001221A437B689A60C046BD4602B080BD67
S315080066D0E8FFFF7F80B582B000AF78607B689B6873
S315080066E0044A134002221A437B689A60C046BD4694
S315080066F002B080BDE8FFFF7F80B582B000AF78604A
S315080067007B689B6801221340012B01D1012300E01D
S3150800671000231800BD4602B080BD000080B582B0D7
S3150800672000AF78607B689B68054A13408022120692
S315080067301A437B689A60C046BD4602B080BDC04613
S31508006740E8FFFF7F80B582B000AF78607B689B6802
S31508006750DB0FDA0780231B069A4201D1012300E0EA
S3150800676000231800BD4602B080BD000090B58BB06E
S3150800677000AF78600023FB6000233B627B685422ED
S315080067809B5C012B01D10223DDE07B6854220121A9
S3150800679099541F23FC187B681800FFF763FE030053
S315080067A023707B681B681800FFF7A6FF031E00D03E
S315080067B0BCE07B689B6D664A134002221A437B68DD
S315080067C09A657B681B68DB68624A1340BB617B6815
S315080067D01B68DA687B681B685F490A40DA60002331
S315080067E07B622DE07B681B681800FFF797FF14E0B3
S315080067F0FB680133FB60FB68584A93420DD97B68F6
S315080068009B6D1222934310221A437B689A657B6814
S31508006810542200219954012395E07B681B681800CF
S31508006820FFF790FF031EE3D17B681B681800FFF78C
S3150800683032FF02003B6A9B183B627B6A01337B622C
S315080068407B6A072BCED9796A386AFCF75DFC0300A8
S315080068503B627B681B681800FFF72AFF7B681B688A
S315080068601800FFF7F8FE031E1BD13D4B1800FFF773
S31508006870E5FE03007B617A69E0235B039A4210D345
S315080068807B699B0C033B01229A401300BB60BB68E3
S315080068905B08BB6002E0BB68013BBB60BB68002BC2
S315080068A0F9D17B681B683A6A11001800FFF7DFFE0A
S315080068B07B681B681800FFF70DFFFEF793FF0300C0
S315080068C03B611BE0FEF78EFF02003B69D31A022BE1
S315080068D014D97B681B681800FFF70EFF031E0DD03E
S315080068E07B689B6D10221A437B689A657B68DB6D13
S315080068F001221A437B68DA65012324E07B681B685A
S315080069001800FFF7F9FE031EDCD17B681B68D968FF
S315080069107B681B68BA690A43DA607B689B6D032249
S31508006920934301221A437B689A6505E07B689B6D51
S3150800693010221A437B689A657B6854220021995471
S315080069401F23FB181B781800BD460BB090BDC04628
S31508006950FDFEFFFF03800000FC7FFFFFFFF1020042
S315080069600827014080B582B000AF0200FB1D1A70EF
S31508006970FB1D1B787F2B09D8FB1D1B781A001F23CC
S315080069801A40044B012191400A001A60C046BD46D0
S3150800699002B080BD00E100E090B583B000AF020010
S315080069A03960FB1D1A70FB1D1B787F2B28D82F4AD0
S315080069B0FB1D1B785BB29B08C0339B009B58FA1DD6
S315080069C01278110003220A40D200FF2191400A00E2
S315080069D0D2431A4011003B689B01FF221A40FB1D57
S315080069E01B78180003230340DB009A401F48FB1D51
S315080069F01B785BB29B080A43C0339B001A5031E0F0
S31508006A001B4AFB1D1B7819000F230B40083B9B08EC
S31508006A1006339B00D31804331B68FA1D127811003D
S31508006A2003220A40D200FF2191400A00D2431A40AD
S31508006A3011003B689B01FF221A40FB1D1B781800BA
S31508006A4003230340DB009A400948FB1D1B781C0002
S31508006A500F232340083B9B080A4306339B00C318B1
S31508006A6004331A60C046BD4603B090BD00E100E09D
S31508006A7000ED00E080B582B000AF78607B685A1EF2
S31508006A8080235B049A4201D3012310E00A4B7A68FB
S31508006A90013A5A6001235B4203211800FFF77CFF85
S31508006AA0054B00229A60044B07221A60002318003F
S31508006AB0BD4602B080BDC04610E000E080B584B097
S31508006AC000AFB9607A600F217B18021C1A70BA6889
S31508006AD07B181B785BB211001800FFF75DFFC046F4
S31508006AE0BD4604B080BD80B582B000AF0200FB1D74
S31508006AF01A70FB1D1B785BB21800FFF733FFC04600
S31508006B00BD4602B080BD80B582B000AF78607B68B4
S31508006B101800FFF7AFFF03001800BD4602B080BD9E
S31508006B2080B582B000AF78607B68002B01D1012365
S31508006B3091E07B681B681A00494B9A4210D87B681B
S31508006B401B68484A9446634414211800FCF7DCFA8B
S31508006B5003009A007B685A647B68434A1A640FE00C
S31508006B607B681B68414A9446634414211800FCF765
S31508006B70CBFA03009A007B685A647B683C4A1A641D
S31508006B807B682522022199547B681B681A687B68F2
S31508006B901B6838490A401A607B681B6819687B6855
S31508006BA09A687B68DB681A437B681B691A437B68AB
S31508006BB05B691A437B689B691A437B68DB691A43DE
S31508006BC07B681B6A1A437B681B680A431A607B68E2
S31508006BD0180000F013F97B689A688023DB019A4253
S31508006BE002D17B6800225A607B685A687B689B6C76
S31508006BF07F210A401A607B68DB6C7A68126D5A60DE
S31508006C007B685B68002B11D07B685B68042B0DD80A
S31508006C107B68180000F03CF97B685B6D00221A60FF
S31508006C207B689B6D7A68D26D5A6008E07B680022A3
S31508006C305A657B6800229A657B680022DA657B685C
S31508006C400022DA637B682522012199547B68242275
S31508006C500021995400231800BD4602B080BDC046E5
S31508006C6007040240F8FFFDBF00000240F8FBFDBF25
S31508006C70000402400F80FFFF80B586B000AFF860C1
S31508006C80B9607A603B601723FB1800221A70FB680C
S31508006C9024229B5C012B01D102236FE0FB6824228E
S31508006CA001219954FB6825229B5CDBB2012B57D145
S31508006CB0FB68252202219954FB680022DA63FB68E7
S31508006CC01B681A68FB681B6801218A431A603B68BF
S31508006CD07A68B968F86800F055F8FB681B6B002BF2
S31508006CE008D0FB681B681A68FB681B680E210A43F4
S31508006CF01A600FE0FB681B681A68FB681B680421AA
S31508006D008A431A60FB681B681A68FB681B680A21B5
S31508006D100A431A60FB689B6C1A6880235B0213405F
S31508006D2008D0FB689B6C1A68FB689B6C802149003D
S31508006D300A431A60FB685B6D002B08D0FB685B6D25
S31508006D401A68FB685B6D802149000A431A60FB6874
S31508006D501B681A68FB681B6801210A431A600AE067
S31508006D60FB688022DA63FB682422002199541723E2
S31508006D70FB1801221A701723FB181B781800BD464A
S31508006D8006B080BD80B584B000AFF860B9607A609F
S31508006D903B60FB68DB6CFA68126D5A60FB685B6DDA
S31508006DA0002B04D0FB689B6DFA68D26D5A60FB68AD
S31508006DB05B6C1C221A40FB681B6C012191400A007F
S31508006DC05A60FB681B683A685A60FB689B68102B18
S31508006DD008D1FB681B687A689A60FB681B68BA6802
S31508006DE0DA6007E0FB681B68BA689A60FB681B688C
S31508006DF07A68DA60C046BD4604B080BD80B584B006
S31508006E0000AF78607B681B681A001D4B9A4214D83D
S31508006E107B685B6C9B089B001A4A9A187B689A6485
S31508006E207B681B681A00FF231340083B14211800CF
S31508006E30FCF76AF90300FB6014E07B685B6C9B084F
S31508006E409B00114A9A187B689A647B681B681A002B
S31508006E50FF231340083B14211800FCF755F90300DB
S31508006E600733FB607B68094ADA64FB681F22134014
S31508006E7001229A407B681A65C046BD4604B080BDAB
S31508006E8007040240000802401C080240800802402D
S31508006E9080B584B000AF78607B685B687F2213405A
S31508006EA0FB60FB680A4A944663449B001A007B68A9
S31508006EB05A657B68074A9A65FB68013B03221340BB
S31508006EC001229A407B68DA65C046BD4604B080BD9B
S31508006ED03F8200104009024080B584B000AF786058
S31508006EE07B68002B01D101234EE17B685C229B5C09
S31508006EF0DBB2002B07D17B685D22002199547B68A1
S31508006F001800FEF759FA7B681B689A697B681B6844
S31508006F1010218A439A61FEF765FC0300FB6012E0C4
S31508006F20FEF760FC0200FB68D31A0A2B0BD97B68B4
S31508006F301B6E01221A437B681A667B685C22032152
S31508006F409954012320E17B681B689B69082213403A
S31508006F50082BE5D07B681B689A697B681B6801214A
S31508006F600A439A61FEF73EFC0300FB6012E0FEF757
S31508006F7039FC0200FB68D31A0A2B0BD97B681B6EF7
S31508006F8001221A437B681A667B685C22032199549E
S31508006F900123F9E07B681B689B6901221340E6D050
S31508006FA07B681B689A697B681B6802210A439A6199
S31508006FB07B681B68764A934203D1764A7B685B688E
S31508006FC013607B681B7C012B08D17B681B689A6958
S31508006FD07B681B6840218A439A6107E07B681B68C7
S31508006FE09A697B681B6840210A439A617B685B7CC7
S31508006FF0012B09D17B681B689A697B681B6880210D
S31508007000C9010A439A6107E07B681B689A697B682D
S315080070101B6861490A409A617B689B7C012B08D1F1
S315080070207B681B689A697B681B685C490A409A6199
S3150800703008E07B681B689A697B681B6880214901A0
S315080070400A439A617B681B689B69554A1340190075
S315080070507B689A687B681B680A439A617B681B6829
S315080070609A697B681B68A4218A439A617B681B68B6
S315080070701A697B681B6810218A431A617B68DB687A
S31508007080012B08D17B681B689A697B681B680421F9
S315080070900A439A612CE07B68DB68002B28D07B6862
S315080070A0DB68022B1CD07B681B689A697B681B68A7
S315080070B080210A439A617B681B681A697B681B688A
S315080070C010210A431A617B68DB68032B10D17B68A1
S315080070D01B689A697B681B6820210A439A6107E046
S315080070E07B681B689A697B681B6820210A439A613A
S315080070F07B689B69013B5A067B68DB69013B1B027F
S315080071001A437B681B6A013B1A4311007B685B695B
S31508007110013B1A047B681B680A43DA617B689A6834
S31508007120C0239B009A4215D17B689B6A5A1E7B68CE
S31508007130DB6A013B1B021A437B681B6B013B1B0185
S315080071401A4311007B685B6A013B1A047B681B685B
S315080071500A43DA607B681B68C02299587B68DA6B39
S315080071607B681B680A43C0215A507B68180000F0E8
S31508007170BDFC7B6800229A657B6800221A667B68DC
S315080071805C220121995400231800BD4604B080BD35
S315080071900064004000650040FFBFFFFFFFEFFFFFF0
S315080071A0FFFCFFFF80B586B000AF78603960172016
S315080071B03B187A685C21525C1A700200BB181B786F
S315080071C0012B03D0BB181B78022B3DD13B681B68EB
S315080071D0002B19D13B689B689A073B68DB68DB067E
S315080071E01A433B681B691B041A433B685B691343D4
S315080071F03B617B681A6C3B685B689B00D318BB6075
S31508007200BB683A691A601DE03B68DB685A073B6849
S315080072101B6913433B613B689B689A073B685B693C
S315080072201343FB607B685A6C3B685B68DB00D318CA
S31508007230BB60BB683A691A60BB680433BB60BB684D
S31508007240FA681A60002306E07B681B6E02221A435E
S315080072507B681A6601231800BD4606B080BD80B556
S3150800726084B000AFF860B9607A603B60FB685C2266
S315080072709B5CDBB2012B17D1FB681B6880229B58ED
S315080072803F2293431900BB681A017B689B001A4387
S315080072903B685B001A43BB691A43FB681B680A43D1
S315080072A080215A50002306E0FB681B6E04221A430D
S315080072B0FB681A6601231800BD4604B080BD80B578
S315080072C082B000AF78607B685C229B5CDBB2012BE6
S315080072D010D17B685C22022199547B681B689A69E5
S315080072E07B681B6801218A439A617B6800221A66BB
S315080072F0002306E07B681B6E04221A437B681A6625
S3150800730001231800BD4602B080BD80B586B000AF27
S31508007310F860B9607A60FB685C229B5CDBB2022B82
S315080073202DD1FB681B68C4229A5880239B031340FF
S3150800733008D0FB681B6E802292001A43FB681A6607
S31508007340012323E0FB681B68C4229B581B0C0322FD
S3150800735013407B617B697A68B968F86800F032FC8B
S31508007360FB681B6801217A6991400A00CC215A50B2
S3150800737001227B699A40FB689A65002306E0FB6850
S315080073801B6E08221A43FB681A6601231800BD46BD
S3150800739006B080BD80B58AB000AFF860B9607A6083
S315080073A03B600023FB611B203B18FA685C21525C9A
S315080073B01A703B181B78022B00D0F4E0BB68402BF0
S315080073C03BD1FB681B6890229B580F22134008D1BB
S315080073D0FB681B6E802252001A43FB681A6601235B
S315080073E0E8E0FB681B6890229A5880235B041A40E1
S315080073F080235B049A420CD1FB681B6880229A584A
S3150800740080239B001A4080239B009A4201D10123C6
S31508007410FB61FB681B6890229B581B0A03221340DA
S31508007420FA69D318FB61FB68996CFA691300DB00EB
S315080074309B18DB00CB187B623AE0FB681B68982236
S315080074409B580F22134008D1FB681B6E80225200FE
S315080074501A43FB681A660123ACE0FB681B6898228E
S315080074609A5880235B041A4080235B049A420CD105
S31508007470FB681B6880229A5880235B001A40802389
S315080074805B009A4201D10123FB61FB681B689822C5
S315080074909B581B0A03221340FA69D318FB61FB6841
S315080074A0D96CFA691300DB009B18DB00CB187B62EA
S315080074B07B6A1A688023DB051A407B685A607B68FA
S315080074C05B68002B07D17B6A1B689B0C5B055A0D12
S315080074D07B681A6005E07B6A1B68DB00DA087B6854
S315080074E01A607B6A1A6880239B051A407B689A6033
S315080074F07B6A1B68DB0FDA077B681A617B6A0433D1
S315080075007B627B6A1B681B041A0C7B68DA617B6AE0
S315080075101B681B0C0F221A407B68DA607B6A1A68A4
S3150800752080235B031A407B685A617B6A1A6880234A
S315080075309B031A407B689A617B6A1B681B0E7F2235
S315080075401A407B681A627B6A1B68DA0F7B685A6284
S315080075507B6A04337B627B6A7B6100233B620AE0B9
S315080075607A693B6AD21839683B6ACB1812781A705E
S315080075703B6A01333B627B68DB68104AD35C1A00BE
S315080075803B6A9342ECD3BB68402B05D1FB681B686A
S315080075909421FA695A5004E0FB681B689C21FA6931
S315080075A05A50002306E0FB681B6E08221A43FB6844
S315080075B01A6601231800BD460AB080BDA8C7000890
S315080075C080B584B000AF786039603B68402B07D13E
S315080075D07B681B6890229B580F221340FB6006E0CD
S315080075E07B681B6898229B580F221340FB60FB6838
S315080075F01800BD4604B080BD80B584B000AF786081
S315080076007B681B68C4229B5807221340FB60FB68F3
S315080076101800BD4604B080BD80B586B000AFF860DE
S31508007620B9607A6017203B18FA685C21525C1A70B8
S315080076300200BB181B78012B04D0BB181B78022B41
S3150800764000D0B4E0FB681B689B6D3B61BB680722F2
S31508007650134003D03B690122134034D0BB6838225B
S31508007660134003D03B69022213402CD0BA68E023AA
S315080076705B00134003D03B690422134023D0BA6849
S31508007680F0235B01134003D03B69082213401AD04C
S31508007690BA68E0231B02134003D03B69102213404B
S315080076A011D0BA68C0239B02134003D03B6920223D
S315080076B0134008D0BA68FC231B0413400BD03B695F
S315080076C04022134007D1FB681B68DA6DFB681B680C
S315080076D001210A43DA65BB680722134003D03B69D8
S315080076E00122134034D1BB683822134003D03B69CA
S315080076F0022213402CD1BA68E0235B00134003D062
S315080077003B690422134023D1BA68F0235B01134076
S3150800771003D03B69082213401AD1BA68E0231B023A
S31508007720134003D03B691022134011D1BA68C02315
S315080077309B02134003D03B692022134008D1BA6844
S31508007740FC231B0413400BD03B694022134007D08F
S31508007750FB681B68DA6DFB681B6802210A43DA6559
S31508007760BB688022134009D0FB681B68DC22995845
S31508007770FB681B687A680A43DC215A50BA6880237A
S315080077805B00134009D0FB681B68E0229958FB6828
S315080077901B687A680A43E0215A50FB681B68596DD2
S315080077A0FB681B68BA680A435A65002306E0FB684B
S315080077B01B6E02221A43FB681A6601231800BD468F
S315080077C006B080BD80B58CB000AF78607B681B685A
S315080077D01A6DE0235B011340FB627B681B685A6DD8
S315080077E0FB6A1340FB627B681B681B6D072213400C
S315080077F0BB627B681B685A6DBB6A1340BB627B68B9
S315080078001B681B6D382213407B627B681B685A6DA8
S315080078107B6A13407B627B681B681A6DF1231B0425
S3150800782013403B627B681B685A6D3B6A13403B6298
S315080078307B681B681A6DE0231B031340FB617B689A
S315080078401B685A6DFB691340FB617B681B685B6D9F
S31508007850BB617B681B681B6D7B617B699B091A0092
S31508007860012313400DD0BB699B091A00012313405D
S3150800787007D07B681B6840221A657B68180000F0F1
S315080078801BF97B691B0A1A00012313401CD0BB692C
S315080078901B0A1A000123134016D07B681B68D822DE
S315080078A09B583B617B681B68E0229A583B691340EA
S315080078B03B617B681B68802252001A653A697B68BF
S315080078C01100180000F0DFF8FB6A002B09D07B686E
S315080078D01B68FA6A1A65FA6A7B681100180000F0D4
S315080078E0B8F8BB6A002B09D07B681B68BA6A1A65A8
S315080078F0BA6A7B6811001800FCF72CFB7B6A002B20
S3150800790009D07B681B687A6A1A657A6A7B681100EF
S315080079101800FCF745FB7B695B0A1A000123134034
S315080079200ED0BB695B0A1A000123134008D07B6896
S315080079301B68802292001A657B68180000F092F88E
S315080079407B69DB091A00012313401BD0BB69DB09DD
S315080079501A000123134015D07B681B68D4229B5854
S31508007960FB607B681B68DC229A58FB681340FB6047
S315080079707B681B6880221A65FA687B681100180004
S3150800798000F078F87B695B0B1A00012313400ED0D0
S31508007990BB695B0B1A000123134008D07B681B6880
S315080079A0802292011A657B68180000F075F87B69D9
S315080079B0DB0B1A00012313400ED0BB69DB0B1A0040
S315080079C00123134008D07B681B68802212021A65BF
S315080079D07B68180000F068F87B699B0B1A00012386
S315080079E0134010D0BB699B0B1A00012313400AD021
S315080079F07B681B688022D2011A657B681B6E802211
S31508007A001A437B681A66FB69002B09D07B681B68DA
S31508007A10FA691A65FA697B681100180000F05CF8C3
S31508007A203B6A002B09D07B681B683A6A1A657B6833
S31508007A301A6E3B6A1A437B681A667B681B6E002BB4
S31508007A4003D07B68180000F03FF8C046BD460CB06E
S31508007A5080BD80B582B000AF78603960C046BD464B
S31508007A6002B080BD80B582B000AF7860C046BD4622
S31508007A7002B080BD80B582B000AF78603960C0467C
S31508007A80BD4602B080BD80B582B000AF786039606F
S31508007A90C046BD4602B080BD80B582B000AF7860F2
S31508007AA0C046BD4602B080BD80B582B000AF7860E2
S31508007AB0C046BD4602B080BD80B582B000AF7860D2
S31508007AC0C046BD4602B080BD80B582B000AF7860C2
S31508007AD0C046BD4602B080BD80B582B000AF7860B2
S31508007AE03960C046BD4602B080BD000080B584B08E
S31508007AF000AF78602F4BBB607B681B682E4A9342A9
S31508007B0005D1BB68D422920094466344BB607B6867
S31508007B10BA681A647B681B6880229B58274A1340F8
S31508007B2019007B685B6B1A047B681B680A43802113
S31508007B305A50BB6870331A007B685A647B681B68A6
S31508007B4080229B581E4A134019007B689B6B1A06B5
S31508007B507B681B680A4380215A50BB68B0331A00F9
S31508007B607B689A64BB688933FF331A007B68DA64DA
S31508007B70BB68982292009A187B681A65BB689E2291
S31508007B8092009A187B685A65BB68FB6005E0FB683B
S31508007B9000221A60FB680433FB60BB68D42292009B
S31508007BA094466344FA689A42F1D3C046C046BD4635
S31508007BB004B080BD00B4004000680040FFFFE0FF4D
S31508007BC0FFFFFFF080B588B000AFF860B9607A6053
S31508007BD03B60BB685B68002B0AD1BB681A69BB6847
S31508007BE09B681A43BB681B689B041343FB610BE045
S31508007BF0BB681A69BB689B681A43BB681B68134352
S31508007C008022D2051343FB61BB681B6A1A06BB6850
S31508007C10DB691A43BB689B691A43BB685B691A43ED
S31508007C20BB68DB681B0413433B61FB68596D3A6804
S31508007C301300DB009B18DB00CB18BB61BB69FA6934
S31508007C401A60BB690433BB61BB693A691A60BB69D0
S31508007C500433BB6100237B6120E07B6903337A68C8
S31508007C60D3181B781A067B6902337968CB181B78F8
S31508007C701B041A437B6901337968CB181B781B02EE
S31508007C80134379687A698A1812781A43BB691A60A5
S31508007C90BB690433BB617B6904337B61BB68DB6802
S31508007CA0054AD35C1A007B699342D6D3C046C046C0
S31508007CB0BD4608B080BDC046A8C7000880B586B0D6
S31508007CC000AF7860396000237B614DE13B681B6833
S31508007CD001217A6991400A001340FB60FB68002B7A
S31508007CE000D13EE13B685B6803221340012B05D0B7
S31508007CF03B685B6803221340022B30D17B689B6884
S31508007D003B617B695B0003229A401300DA433B69B7
S31508007D1013403B613B68DA687B695B009A40130055
S31508007D203A6913433B617B683A699A607B685B688A
S31508007D303B6101227B699A401300DA433B69134091
S31508007D403B613B685B681B0901221A407B699A40C4
S31508007D5013003A6913433B617B683A695A603B688A
S31508007D605B6803221340032B17D07B68DB683B61F3
S31508007D707B695B0003229A401300DA433B69134090
S31508007D803B613B689A687B695B009A4013003A69D5
S31508007D9013433B617B683A69DA603B685B68032298
S31508007DA01340022B23D17B69DA087B6808329200DC
S31508007DB0D3583B617B69072213409B000F229A40E8
S31508007DC01300DA433B6913403B613B681A697B69D8
S31508007DD007210B409B009A4013003A6913433B6105
S31508007DE07B69DA087B68083292003969D1507B686A
S31508007DF01B683B617B695B0003229A401300DA43E8
S31508007E003B6913403B613B685B6803221A407B6908
S31508007E105B009A4013003A6913433B617B683A69F1
S31508007E201A603B685A68C0239B02134000D198E049
S31508007E30534A7B699B0818339B009B583B617B69B7
S31508007E4003221340DB000F229A401300DA433B69F2
S31508007E5013403B617A68A023DB059A4219D07B68F8
S31508007E60484A934213D07B68474A93420DD07B68B1
S31508007E70464A934207D07B68454A934201D1042378
S31508007E8008E0052306E0032304E0022302E00123B9
S31508007E9000E000237A6903210A40D20093403A6938
S31508007EA013433B6136497B699B0818339B003A6943
S31508007EB05A50334B1B683B61FB68DA433B691340F6
S31508007EC03B613B685A6880235B03134003D03A69D9
S31508007ED0FB6813433B612A4B3A691A60284B5B6877
S31508007EE03B61FB68DA433B6913403B613B685A6870
S31508007EF080239B03134003D03A69FB6813433B6115
S31508007F001F4B3A695A601E4A8423D3583B61FB6863
S31508007F10DA433B6913403B613B685A6880239B02FE
S31508007F20134003D03A69FB6813433B611449842222
S31508007F303B698B50124A8023D3583B61FB68DA436E
S31508007F403B6913403B613B685A6880235B021340D8
S31508007F5003D03A69FB6813433B61094980223B69B0
S31508007F608B507B6901337B613B681A687B69DA4011
S31508007F70131E00D0AAE6C046C046BD4606B080BD60
S31508007F80001802400004005000080050000C005081
S31508007F900010005080B582B000AF7860080011006C
S31508007FA0BB1C021C1A807B1C0A1C1A707B1C1B78C3
S31508007FB0002B04D0BB1C1A887B689A6103E0BB1CA3
S31508007FC01A887B689A62C046BD4602B080BD00002A
S31508007FD080B582B000AF78607B68002B01D10123A1
S31508007FE08FE07B6841229B5CDBB2002B07D17B6864
S31508007FF04022002199547B681800FDF749FA7B68EE
S315080080004122242199547B681B681A687B681B687F
S3150800801001218A431A607B685A687B681B683B495A
S315080080200A401A617B681B689A687B681B6838492E
S315080080300A409A607B68DB68012B08D17B689A68DE
S315080080407B681B68802109020A439A6007E07B68FF
S315080080509A687B681B68842109020A439A607B68D0
S31508008060DB68022B09D17B681B685A687B681B682A
S31508008070802109010A435A6007E07B681B685A6831
S315080080807B681B6823490A405A607B681B685A68E4
S315080080907B681B6820490A435A607B681B68DA6854
S315080080A07B681B681A490A40DA607B681A697B682C
S315080080B05B691A4311007B689B691A027B681B6817
S315080080C00A43DA607B68D9697B681A6A7B681B6829
S315080080D00A431A607B681B681A687B681B6801215B
S315080080E00A431A607B6800225A647B684122202171
S315080080F099547B6800221A637B68422200219954AE
S3150800810000231800BD4602B080BDC046FFFFFFF041
S31508008110FF7FFFFFFFF7FFFF0080000290B589B0E1
S3150800812002AFF8600C00100019000A23FB18221C85
S315080081301A800823FB18021C1A80BB1D0A1C1A8009
S31508008140FB6841229B5CDBB2202B00D00CE1BB6AAA
S31508008150002B04D02C23FB181B88002B05D1FB68A9
S31508008160802292005A640123FFE0FB6840229B5C50
S31508008170012B01D10223F8E0FB6840220121995422
S31508008180FDF730FB03007B6180231902F8687B69E1
S3150800819000931923012200F007FC031E01D00123D6
S315080081A0E3E0FB68412221219954FB6842224021E1
S315080081B09954FB6800225A64FB68BA6A5A62FB68DB
S315080081C02C22BA1812885A85FB6800225A63BB1DEE
S315080081D01C880823FB181A880A23FB181988F868CC
S315080081E07B6901933B6B0093230000F0F5FA031EAD
S315080081F005D0FB684022002199540123B5E0FB68AD
S315080082005B8D9BB2FF2B11D9FB68FF221A85FB6891
S315080082101B8DDAB280235C040A23FB181988F868D8
S3150800822000230093230000F099FD12E0FB685B8DA4
S315080082309AB2FB681A85FB681B8DDAB280239C0408
S315080082400A23FB181988F86800230093230000F016
S3150800825085FD7A69396BFB68180000F0FDFB031E83
S3150800826001D0012381E0FB685B6A1A78FB681B680A
S315080082709A62FB685B6A5A1CFB685A62FB685B8DEC
S315080082809BB2013B9AB2FB685A85FB681B8D013B82
S315080082909AB2FB681A85FB685B8D9BB2002B3AD0B5
S315080082A0FB681B8D002B36D13A6BF8687B69009307
S315080082B013000022802100F077FB031E01D0012362
S315080082C053E0FB685B8D9BB2FF2B11D9FB68FF223D
S315080082D01A85FB681B8DDAB280235C040A23FB1817
S315080082E01988F86800230093230000F037FD12E090
S315080082F0FB685B8D9AB2FB681A85FB681B8DDAB240
S3150800830080239C040A23FB181988F8680023009325
S31508008310230000F023FDFB685B8D9BB2002B98D1F0
S315080083207A69396BFB68180000F0DCFB031E01D084
S3150800833001231AE0FB681B682022DA61FB681B68C8
S315080083405A68FB681B680B490A405A60FB68412259
S3150800835020219954FB68422200219954FB68402247
S3150800836000219954002300E002231800BD4607B0F7
S3150800837090BDC04600E800FE90B589B002AFF8602F
S315080083800C00100019000A23FB18221C1A80082367
S31508008390FB18021C1A80BB1D0A1C1A80FB684122A6
S315080083A09B5CDBB2202B00D010E1BB6A002B04D00B
S315080083B02C23FB181B88002B05D1FB688022920012
S315080083C05A64012303E1FB6840229B5C012B01D11F
S315080083D00223FCE0FB68402201219954FDF702FACA
S315080083E003007B6180231902F8687B6900931923CF
S315080083F0012200F0D9FA031E01D00123E7E0FB6849
S31508008400412222219954FB68422240219954FB6853
S3150800841000225A64FB68BA6A5A62FB682C22BA18A8
S3150800842012885A85FB6800225A63BB1D1C880823DC
S31508008430FB181A880A23FB181988F8687B690193C0
S315080084403B6B0093230000F02BFA031E05D0FB6854
S315080084504022002199540123B9E0FB685B8D9BB249
S31508008460FF2B11D9FB68FF221A85FB681B8DDAB230
S3150800847080235C040A23FB181988F868564B009376
S31508008480230000F06BFC12E0FB685B8D9AB2FB6878
S315080084901A85FB681B8DDAB280239C040A23FB1815
S315080084A01988F8684C4B0093230000F057FC3A6B88
S315080084B0F8687B69009313000022042100F074FA1F
S315080084C0031E01D0012382E0FB681B685A6AFB6819
S315080084D05B6AD2B21A70FB685B6A5A1CFB685A62FE
S315080084E0FB681B8D013B9AB2FB681A85FB685B8D9E
S315080084F09BB2013B9AB2FB685A85FB685B8D9BB2BF
